:020000040000FA
:06000000F0EF01F0120018
:020006001200E6
:0600080004EF50F01200AD
:060018000CEF50F0120095
:02001E00D9CF38
:10002000E6FFDACFE6FFE1CFD9FFE2CFDAFFE65213
:10003000E652E652E652D950F90F006EFF0EDA2072
:10004000016E020E00C0DBFF030E01C0DBFF020EDB
:10005000DBCFE6FF030EDBCFE6FFF90EDBCFE6FFDB
:10006000FA0EDBCFE6FFFB0EDBCFE6FFD950FC0F2D
:10007000E66EFF0EDA20E66E78EC67F0006E070E93
:10008000E15C02E2E16AE552E16E0050F3CFDEFF8F
:10009000F4CFDDFFFC0EDBCFE9FFFD0EDBCFEAFF87
:1000A000EF6ADECF00F0DDCF01F000C0F3FF01C04A
:1000B000F4FF040EE15C02E2E16AE552E16EE55212
:0A00C000E5CFDAFFE7CFD9FF120009
:0600CA00D9CFE6FFDACFFA
:1000D000E6FFE1CFD9FFE2CFDAFFFB0EDBCF00F086
:1000E000FC0EDBCF01F00001800E01141AE1FB0EC3
:1000F000DBCFE9FFFC0EDBCFEAFFEECFF3FFEDCF66
:10010000F4FFEE2A000EEF22F3CFE9FFF4CFEAFF6F
:10011000FD0EDBCFEFFFEF50016AF36E01C0F4FF7D
:1001200010D0FB0EDB50FE0806E1FD0EDBCFE6FF34
:10013000FEEC01F005D0FD0EDBCFE6FF03EC50F046
:0E014000E552E552E5CFDAFFE7CFD9FF120016
:02014E001E5041
:100150002302F3CF1AF0F4CF1BF02402F3501B2636
:10016000000EF4201C6E1E502502F3501C26000EBB
:10017000F4201D6E1E502602F3501D261F50230230
:10018000F3501B26F4501C22000E1D221F50240287
:10019000F3501C26F4501D221F502502F3501D263B
:1001A00020502302F3501C26F4501D22205024021C
:0E01B000F3501D2621502302F3501D2612008D
:0201BE00FE0E33
:1001C000E3CFE9FFFF0EE3CFEAFFF36AF46AEE52F2
:1001D00003E0F34AF42AFBD71200FF0EE3CFF8FF47
:1001E000E552FF0EE3CFF7FFE552FF0EE3CFF6FF38
:1001F000E552E66AE66AE66A0900F55209E0FD0E94
:10020000E32A05E1FE0EE32A02E1FF0EE32AF4D71A
:10021000FD0EE3CF1FF0FE0EE3CF20F0FF0EE3CF85
:0402200021F01200B7
:0C022400D9CFE6FFDACFE6FFE1CFD9FF2B
:10023000E2CFDAFFE652E652D950FD0F006EFF0E14
:10024000DA2000C0DEFFDD6EDECFE9FFDDCFEAFFA2
:10025000EF9EFA0EDBCF00F0FB0EDBCF01F0FC0EC1
:10026000DBCF02F0FD0EDBCF03F000C01EF001C0BB
:100270001FF002C020F003C021F0E552E552E55224
:0A028000E5CFDAFFE7CFD9FF120047
:06028A00D9CFE6FFDACF38
:10029000E6FFE1CFD9FFE2CFDAFF010EE66ED950DB
:1002A000FA0FE96EFF0EDA20EA6EEECFE6FFEECF30
:1002B000E6FFEECFE6FFEFCFE6FF4EEC78F0006E04
:1002C000050EE15C02E2E16AE552E16E0050E552A2
:0A02D000E5CFDAFFE7CFD9FF1200F7
:0602DA00D9CFE6FFDACFE8
:1002E000E6FFE1CFD9FFE2CFDAFFE66AD950FA0F95
:1002F000E96EFF0EDA20EA6EEECFE6FFEECFE6FF04
:10030000EECFE6FFEFCFE6FF4EEC78F0006E050E85
:10031000E15C02E2E16AE552E16E0050E552E5CFB0
:08032000DAFFE7CFD9FF12005C
:080328001D6A1C6A1B6A1A6AB7
:10033000200EE76ED8901E361F36203621361A362C
:100340001B361C361D3623501A5C24501B58255072
:100350001C5826501D5809E323501A5E24501B5A7E
:1003600025501C5A26501D5A1E2AE72EE4D712008B
:100370001D6A1C6A100EE76ED890203621361C3696
:100380001D3625501C5C26501D5805E325501C5E6B
:0C03900026501D5A202AE72EF0D712003C
:04039C00F36AF46AA2
:1003A000FF0EE124E96EFF0EE220EA6EED6607D053
:1003B0002F0EEF6404D03A0EEF6001D0F32A120042
:1003C000C00EF36E00EE00F00E0E01D81200EA60CF
:1003D00002D0EE6AFCD7F350E9601200EE6AFCD757
:1003E0001DEE00F02DEE00F0F86A199CA7EC7FF0EE
:0C03F00003EC00F0D9EC66F0FBD7120023
:0403FC00FF0EE350BD
:10040000ADBA04D0B06AAC8EAD8A949CADA2FED7D2
:08041000AE6EF36EF46A1200F7
:08041800303132333435363740
:090420003839616263646566000D
:0704290000000000000001CB
:1004300000010020000100000000000041001F003A
:050440000000000000B7
:06A00000F0EF01F0120078
:02A00600120046
:06A008001CEF50F01200F5
:06A0180068EF50F0120099
:02A01E0002003E
:10A0200029040000600000001C0000004DFF00003B
:08A03000A70000000100000080
:08A03800DACFE4FFE2CFDAFF0A
:10A04000E9CFE4FFEACFE4FFF6CFE4FFF7CFE4FF88
:10A05000F5CFE4FFF3CFE4FFF4CFE4FFFACFE4FF62
:10A0600000EE18F0140EE80403E3EECFE4FFFBD794
:10A0700000EE00F0180EE80403E3EECFE4FFFBD798
:10A08000E6527EEC63F0F294E55200EE17F0180E03
:10A09000E80403E3E5CFEDFFFBD700EE2BF0140E51
:10A0A000E80403E3E5CFEDFFFBD7E5CFFAFFE5CF0B
:10A0B000F4FFE5CFF3FFE5CFF5FFE5CFF7FFE5CF01
:10A0C000F6FFE5CFEAFFE5CFE9FFE5CFDAFF1100C4
:10A0D000D8CFE4FFE0CFE4FFE46EDACFE4FFE2CFD5
:10A0E000DAFFE652E552E5CFDAFFE550E5CFE0FFD3
:10A0F000E5CFD8FF100083EC7CF0EEEC7CF023EC95
:10A100007BF0A0EC6DF0E66A85EC6EF0E552120093
:10A11000F7EC7EF0000901E1FBD70F0148694969BE
:10A120007BEF50F081B01FD0000178C000F079C003
:10A1300001F07AC002F07BC003F0782B000E792387
:10A140007A237B23D8800A0E0054000E0154000E9F
:10A150000254000E035406E2786B796B7A6B7B6BCA
:10A16000010E776F11D0000177050EE1785179115A
:10A170007A117B1104E1776B010E08D005D07807C6
:10A18000000E795B7A5B7B5B000E00D01200D9CFAA
:10A19000E6FFE1CFD9FF020EE126DE6ADD6A130E8B
:10A1A000C26EC450026E02C003F0026AC3500001C6
:10A1B0000224006E000E0320016E00C0DEFF01C00D
:10A1C000DDFFDECF00F0DDCF01F0800E011411E1E4
:10A1D000DECF02F0DDCF03F0D890035004E6CC0EC2
:10A1E000025C000E035805E2020EF36EF46A5CD0C6
:10A1F0005BD0DECF00F0DDCF01F0D890015004E657
:10A20000CC0E005C000E015811E3DECF02F0DDCF72
:10A2100003F0D890035004E6940E025C010E03583C
:10A2200005E2030EF36EF46A3FD03ED0DECF00F0BD
:10A23000DDCF01F0D890015004E6940E005C010ED1
:10A24000015811E3DECF02F0DDCF03F0D8900350C8
:10A2500004E65E0E025C020E035805E2040EF36E85
:10A26000F46A22D021D0DECF00F0DDCF01F0D8900B
:10A27000015004E65E0E005C020E015811E3DECFD1
:10A2800002F0DDCF03F0D890035004E6280E025C04
:10A29000030E035805E2050EF36EF46A05D004D0F0
:10A2A000060EF36EF46A00D0020EE15C02E2E16A8F
:10A2B000E552E16EE552E7CFD9FF1200D9CFE6FFB4
:10A2C000E1CFD9FFFD0EDBCF20F0FE0EDBCF21F07A
:10A2D000020E201801E121504EE0010E201801E18C
:10A2E000215027E0205001E1215001E066D01E0EF0
:10A2F000E66EB40EE66E5F0EE66E5BEC6FF0E55256
:10A30000E552E552210EE66EB40EE66E5F0EE66E85
:10A310005BEC6FF0E552E552E552240EE66EB40EAA
:10A32000E66E5F0EE66E5BEC6FF0E552E552E552CD
:10A3300044D02F0EE66EB40EE66E5F0EE66E5BEC5A
:10A340006FF0E552E552E552320EE66EB40EE66E5F
:10A350005F0EE66E5BEC6FF0E552E552E552350EAE
:10A36000E66EB40EE66E5F0EE66E5BEC6FF0E552E5
:10A37000E552E55222D0410EE66EB40EE66E5F0E57
:10A38000E66E5BEC6FF0E552E552E552440EE66E88
:10A39000B40EE66E5F0EE66E5BEC6FF0E552E552D2
:10A3A000E552470EE66EB40EE66E5F0EE66E5BECAF
:10A3B0006FF0E552E552E55200D0E552E7CFD9FF04
:10A3C0001200D9CFE6FFE1CFD9FF090EE126010E39
:10A3D000F36E060EF3CFDBFF070EDB6A010EF36EA2
:10A3E000080EF3CFDBFF080EDB502FE0E66A85ECAA
:10A3F0006EF0E552120EE66EE66A3B0EE66EFF0E5A
:10A40000E66E87EC6FF0E552E552E552E552120E2A
:10A41000E66E030EE66E2D0EE66EFF0EE66E87EC20
:10A420006FF0E552E552E552E552120EE66E050E6A
:10A43000E66E200EE66EFF0EE66E87EC6FF0E552DC
:10A44000E552E552E552080EDB6AD950060FE96E77
:10A45000DACFEAFF010EEE1801E1ED5011E1040E32
:10A46000E66EE66AE66A000EE66EE66A030EE66EE1
:10A47000E6683DEC71F0006E070EE15E005010D012
:10A48000040EE66EE66AE66A000EE66EE66A050E01
:10A49000E66EE6683DEC71F0006E070EE15E00507E
:10A4A00041DE000911E0D950060FE96EDACFEAFF6C
:10A4B000010EEE1801E1ED5004E10001010E6C6F98
:10A4C00002D000016C6BC2D0EEEC7CF0010EE66EA7
:10A4D00086EC7CF0E552040EF3CFDBFF050EF4CFE3
:10A4E000DBFF040EDBCF00F0050EDBCF01F0D890D0
:10A4F000015004E6840E005C030E01581BE2040EBA
:10A50000DBCF00F0050EDBCF01F0D890015004E660
:10A51000840E005C030E01580CE2010EE66E86EC20
:10A520007CF0E552040EF3CFDBFF050EF4CFDBFF2A
:10A53000E6D78CD0E66A86EC7CF0E552F3CFDEFFFE
:10A54000F4CFDDFF030EE66E86EC7CF0E552020EE2
:10A55000F3CFDBFF030EF4CFDBFFDECF00F0DDCF68
:10A5600001F0D890015004E6840E005C030E0158FF
:10A570002DE2DECF00F0DDCF01F0D890015004E6EF
:10A58000840E005C030E015809E2E66A86EC7CF05A
:10A59000E552F3CFDEFFF4CFDDFFEBD7060EDBCFC6
:10A5A00000F0070EDBCF01F0D890015004E6020E58
:10A5B000005C000E01580AE2060EDB2A070E01E3DA
:10A5C000DB2A010EF36E080EF3CFDBFF020EDBCFAA
:10A5D00000F0030EDBCF01F0D890015004E6840EAA
:10A5E000005C030E015831E2020EDBCF00F0030ED7
:10A5F000DBCF01F0D890015004E6840E005C030E1E
:10A6000001580CE2030EE66E86EC7CF0E552020E79
:10A61000F3CFDBFF030EF4CFDBFFE6D7060EDBCF75
:10A6200000F0070EDBCF01F0013404E20050010816
:10A63000000E01540AE2060EDB06070E01E2DB06FD
:10A64000010EF36E080EF3CFDBFFCDD6090EE15CF1
:10A6500002E2E16AE552E16EE552E7CFD9FF12006E
:10A66000D9CFE6FFE1CFD9FF090EE126010EF36E47
:10A67000060EF3CFDBFF070EDB6A010EF36E080E4A
:10A68000F3CFDBFF080EDB502FE0E66A85EC6EF0BF
:10A69000E552120EE66EE66A110EE66EFF0EE66EEB
:10A6A00087EC6FF0E552E552E552E552120EE66E88
:10A6B000030EE66E0D0EE66EFF0EE66E87EC6FF093
:10A6C000E552E552E552E552120EE66E050EE66ED3
:10A6D000090EE66EFF0EE66E87EC6FF0E552E5526E
:10A6E000E552E552080EDB6AD950060FE96EDACF63
:10A6F000EAFF010EEE1801E1ED5011E1040EE66EE5
:10A70000E66AE66A000EE66EE66A030EE66EE66844
:10A710003DEC71F0006E070EE15E005010D0040EAB
:10A72000E66EE66AE66A000EE66EE66A050EE66E1C
:10A73000E6683DEC71F0006E070EE15E0050F2DC61
:10A74000000913E0D950060FE96EDACFEAFF010ED7
:10A75000EE1801E1ED5004E10001010E6E6F02D030
:10A7600000016E6B8DEC64F0C2D0EEEC7CF0010E5B
:10A77000E66E86EC7CF0E552040EF3CFDBFF050EAF
:10A78000F4CFDBFF040EDBCF00F0050EDBCF01F0D2
:10A79000D890015004E6840E005C030E01581BE2C1
:10A7A000040EDBCF00F0050EDBCF01F0D890015096
:10A7B00004E6840E005C030E01580CE2010EE66E06
:10A7C00086EC7CF0E552040EF3CFDBFF050EF4CFF0
:10A7D000DBFFE6D78CD0E66A86EC7CF0E552F3CF5F
:10A7E000DEFFF4CFDDFF030EE66E86EC7CF0E55273
:10A7F000020EF3CFDBFF030EF4CFDBFFDECF00F062
:10A80000DDCF01F0D890015004E6840E005C030E09
:10A8100001582DE2DECF00F0DDCF01F0D8900150DD
:10A8200004E6840E005C030E015809E2E66A86EC39
:10A830007CF0E552F3CFDEFFF4CFDDFFEBD7060E61
:10A84000DBCF00F0070EDBCF01F0D890015004E61B
:10A85000020E005C000E01580AE2060EDB2A070E0B
:10A8600001E3DB2A010EF36E080EF3CFDBFF020ECD
:10A87000DBCF00F0030EDBCF01F0D890015004E6EF
:10A88000840E005C030E015831E2020EDBCF00F0B3
:10A89000030EDBCF01F0D890015004E6840E005C7B
:10A8A000030E01580CE2030EE66E86EC7CF0E552D6
:10A8B000020EF3CFDBFF030EF4CFDBFFE6D7060E6D
:10A8C000DBCF00F0070EDBCF01F0013404E20050D3
:10A8D0000108000E01540AE2060EDB06070E01E233
:10A8E000DB06010EF36E080EF3CFDBFFCBD6090EAD
:10A8F000E15C02E2E16AE552E16EE552E7CFD9FFA1
:10A900001200D9CFE6FFE1CFD9FF1B0EE126120ED0
:10A91000DB6A130EDB6A010EF36E140EF3CFDBFF5E
:10A92000150EDB6A160EDB6A170EDB6A180EDB6A81
:10A93000190EDB6A1A0EDB6A150E60C0DBFF160EFD
:10A9400061C0DBFF170E62C0DBFF180E63C0DBFFC8
:10A95000190E64C0DBFF1A0E65C0DBFF140EDB505E
:10A960006CE0E66A85EC6EF0E552190EE66EE66A7A
:10A97000FB0EE66EFE0EE66E87EC6FF0E552E552DA
:10A98000E552E552190EDBCFE6FF1A0EDBCFE6FFEC
:10A99000170EDBCFE6FF180EDBCFE6FF150EDBCF81
:10A9A000E6FF160EDBCFE6FFEC0E006EFE0E016E2C
:10A9B000026A00C0E6FF01C0E6FF02C0E6FFD95010
:10A9C000080FE66E000EDA20E66E0FEC00F0036E64
:10A9D0000B0EE15E03501E0EE66E030EE66ED950BE
:10A9E000080FE66E000EDA20E66EC1EC6FF0E5525D
:10A9F000E552E552E55200016E511FE06F510FE044
:10AA0000540EE66E030EE66EE90EE66EFE0EE66E80
:10AA100087EC6FF0E552E552E552E5520ED0540E48
:10AA2000E66E030EE66EE60EE66EFE0EE66E87EC52
:10AA30006FF0E552E552E552E552120EDBCFE6FF2C
:10AA4000130EDBCFE6FF3ADCE552E55292EC50F014
:10AA500000091AE0150EDBCF60F0160EDBCF61F0B7
:10AA6000170EDBCF62F0180EDBCF63F0190EDBCFD1
:10AA700064F01A0EDBCF65F00001010E706F1B0E43
:10AA8000E15C01E38FD28CD2EEEC7CF0E66A86ECDE
:10AA90007CF0E552F3CFDEFFF4CFDDFF030EE66E70
:10AAA00086EC7CF0E552020EF3CFDBFF030EF4CF11
:10AAB000DBFFDECF00F0DDCF01F0D890015004E6DF
:10AAC000840E005C030E01582DE2DECF00F0DDCFD6
:10AAD00001F0D890015004E6840E005C030E01588A
:10AAE00009E2E66A86EC7CF0E552F3CFDEFFF4CFB4
:10AAF000DDFFEBD7120EDBCF00F0130EDBCF01F042
:10AB0000D890015004E6020E005C000E01580AE2E3
:10AB1000120EDB2A130E01E3DB2A010EF36E140E74
:10AB2000F3CFDBFF020EDBCF00F0030EDBCF01F033
:10AB3000D890015004E6840E005C030E015831E207
:10AB4000020EDBCF00F0030EDBCF01F0D8900150F6
:10AB500004E6840E005C030E01580CE2030EE66E60
:10AB600086EC7CF0E552020EF3CFDBFF030EF4CF50
:10AB7000DBFFE6D7120EDBCF00F0130EDBCF01F0C8
:10AB8000013404E200500008000E01540AE2120EE3
:10AB9000DB06130E01E2DB06010EF36E140EF3CF9B
:10ABA000DBFFEEEC7CF0010EE66E86EC7CF0E5520D
:10ABB000040EF3CFDBFF050EF4CFDBFF020EE66ED3
:10ABC00086EC7CF0E552060EF3CFDBFF070EF4CFE8
:10ABD000DBFF040EDBCF00F0050EDBCF01F0D890D9
:10ABE000015004E6200E005C030E01580FE3060E30
:10ABF000DBCF02F0070EDBCF03F0D890035004E662
:10AC0000200E025C030E035801E3C9D1040EDBCF12
:10AC100000F0050EDBCF01F0060EDBCF02F0070ED1
:10AC2000DBCF03F001500318E8AE02D0033404D0A8
:10AC30000250005C0350015801E399D0120EDBCFA3
:10AC400020F0130EDBCF21F0020E201801E121507D
:10AC500073E0010E201801E1215054E0205001E181
:10AC6000215001E083D000016E5129E1D950150F28
:10AC7000E96EDACFEAFF170EEE1801E1ED5007E1B9
:10AC8000150EDB6A160EDB6A010E6F6F17D0150EFC
:10AC9000DB2A160E01E3DB2A150EDBCF00F0160EC1
:10ACA000DBCF01F0D890015004E60C0E005C000EE2
:10ACB000015802E36F6B02D0010E6F6F1DD0D950A7
:10ACC000150FE96EDACFEAFF0C0EEE1801E1ED5038
:10ACD0000EE1010EF36E150EF3CFDBFF160EDB6AED
:10ACE0006F5102E06F6B02D0010E6F6F05D0150E31
:10ACF000DB2A160E01E3DB2A010EF36E140EF3CFEE
:10AD0000DBFF34D0D950170FE96EDACFEAFF3B0EE4
:10AD1000EE1801E1ED5005E1170EDB6A180EDB6A53
:10AD200005D0170EDB2A180E01E3DB2A010EF36EA5
:10AD3000140EF3CFDBFF1AD0D950190FE96EDACF1A
:10AD4000EAFF3B0EEE1801E1ED5005E1190EDB6A5A
:10AD50001A0EDB6A05D0190EDB2A1A0E01E3DB2A74
:10AD6000010EF36E140EF3CFDBFF00D0F3D0120E02
:10AD7000DBCF20F0130EDBCF21F0020E201801E113
:10AD8000215001E1C7D0010E201801E1215001E15D
:10AD9000A1D0205001E1215001E0DCD000016E5132
:10ADA00066E1150EDBCF00F0160EDBCF01F00134AB
:10ADB00004E200500D08000E015406E2150EDB06F9
:10ADC000160E01E2DB0652D0D950150FE96EDACF2C
:10ADD000EAFF0D0EEE1801E1ED5008E1150EDB065D
:10ADE000160E01E2DB06010E6F6F40D0150EDBCFB1
:10ADF00000F0160EDBCF01F0013404E200500C0825
:10AE0000000E015413E3150EDBCF02F0160EDBCF5C
:10AE100003F0033404E202500108000E035406E27A
:10AE2000150EDB06160E01E2DB0620D0D950150FF9
:10AE3000E96EDACFEAFF010EEE1801E1ED5007E10D
:10AE4000150EDB06160E01E2DB066F6B0FD0D95034
:10AE5000150FE96EDACFEAFFEE50ED1007E1170E9D
:10AE6000F36E150EF3CFDBFF160EDB6A2DD0150E39
:10AE7000DBCF00F0160EDBCF01F0013404E200500E
:10AE80000C08000E015413E3150EDBCF02F0160E72
:10AE9000DBCF03F0033404E202500108000E035438
:10AEA00006E2150EDB06160E01E2DB060DD00C0ED7
:10AEB000F36E150EF3CFDBFF160EDB6A6F5102E067
:10AEC0006F6B02D0010E6F6F010EF36E140EF3CF95
:10AED000DBFF40D0170EDBCF00F0180EDBCF01F008
:10AEE000013404E200500008000E015406E2170E7F
:10AEF000DB06180E01E2DB0607D03B0EF36E170EE1
:10AF0000F3CFDBFF180EDB6A010EF36E140EF3CFE6
:10AF1000DBFF20D0190EDBCF00F01A0EDBCF01F0E3
:10AF2000013404E200500008000E015406E2190E3C
:10AF3000DB061A0E01E2DB0607D03B0EF36E190E9C
:10AF4000F3CFDBFF1A0EDB6A010EF36E140EF3CFA4
:10AF5000DBFF00D0040EDBCF00F0050EDBCF01F0ED
:10AF6000D890015004E6200E005C030E015817E251
:10AF7000010EE66E86EC7CF0E552040EF3CFDBFFAB
:10AF8000050EF4CFDBFF020EE66E86EC7CF0E55298
:10AF9000060EF3CFDBFF070EF4CFDBFFDBD7DED4EB
:10AFA000E16AE552E16EE552E7CFD9FF1200D9CF51
:10AFB000E6FFE1CFD9FF190EE126080EDB6A090E84
:10AFC000DB6A010EF36E140EF3CFDBFF150EDB6AA6
:10AFD000160EDB6A170EDB6A180EDB6A150E66C0EA
:10AFE000DBFF160E67C0DBFF170E68C0DBFF180E15
:10AFF00069C0DBFF140EDB5044E0E66A85EC6EF0BE
:10B00000E552190EE66EE66AD80EE66EFE0EE66EA4
:10B0100087EC6FF0E552E552E552E552170EDBCFB3
:10B02000E6FF180EDBCFE6FF150EDBCFE6FF160EB0
:10B03000DBCFE6FFCE0E006EFE0E016E026A00C090
:10B04000E6FF01C0E6FF02C0E6FFD9500A0FE66E38
:10B05000000EDA20E66E0FEC00F0036E090EE15EE2
:10B0600003501E0EE66E030EE66ED9500A0FE66E12
:10B07000000EDA20E66EC1EC6FF0E552E552E552C3
:10B08000E552080EDBCFE6FF090EDBCFE6FF5EECF4
:10B0900051F0E552E55292EC50F0000911E0150E26
:10B0A000DBCF66F0160EDBCF67F0170EDBCF68F054
:10B0B000180EDBCF69F0190EE15C01E38CD289D266
:10B0C000EEEC7CF0E66A86EC7CF0E552F3CFDEFF36
:10B0D000F4CFDDFF030EE66E86EC7CF0E552020E47
:10B0E000F3CFDBFF030EF4CFDBFFDECF00F0DDCFCD
:10B0F00001F0D890015004E6840E005C030E015864
:10B100002DE2DECF00F0DDCF01F0D890015004E653
:10B11000840E005C030E015809E2E66A86EC7CF0BE
:10B12000E552F3CFDEFFF4CFDDFFEBD7080EDBCF28
:10B1300000F0090EDBCF01F0D890015004E6010EBB
:10B14000005C000E01580AE2080EDB2A090E01E33A
:10B15000DB2A010EF36E140EF3CFDBFF020EDBCF02
:10B1600000F0030EDBCF01F0D890015004E6840E0E
:10B17000005C030E015831E2020EDBCF00F0030E3B
:10B18000DBCF01F0D890015004E6840E005C030E82
:10B1900001580CE2030EE66E86EC7CF0E552020EDE
:10B1A000F3CFDBFF030EF4CFDBFFE6D7080EDBCFD8
:10B1B00000F0090EDBCF01F0013404E2005000087A
:10B1C000000E01540AE2080EDB06090E01E2DB065E
:10B1D000010EF36E140EF3CFDBFF010EE66E86EC6C
:10B1E0007CF0E552040EF3CFDBFF050EF4CFDBFF5E
:10B1F000020EE66E86EC7CF0E552060EF3CFDBFF26
:10B20000070EF4CFDBFF040EDBCF00F0050EDBCF23
:10B2100001F0D890015004E6200E005C030E0158A6
:10B220000FE3060EDBCF02F0070EDBCF03F0D89062
:10B23000035004E6200E025C030E035801E3C8D15C
:10B24000040EDBCF00F0050EDBCF01F0060EDBCFE6
:10B2500002F0070EDBCF03F001500318E8AE02D076
:10B26000033404D00250005C0350015801E3C7D0FE
:10B27000080EDBCF20F0090EDBCF21F0010E2018E5
:10B2800001E1215060E0205001E1215001E0B6D001
:10B29000D950150F026EDACF03F0020E206E216A2C
:10B2A000080EDBCF25F0090EDBCF26F069EC76F037
:10B2B00002501E24E96E03501F20EA6EEECF00F00C
:10B2C000EFCF01F0D890015004E61F0E005C000E95
:10B2D00001581AE2D950150F006EDACF01F0020EB4
:10B2E000206E216A080EDBCF25F0090EDBCF26F099
:10B2F00069EC76F000501E24E96E01501F20EA6EC2
:10B30000EE2A000EEF2219D0D950150F006EDACFB9
:10B3100001F0020E206E216A080EDBCF25F0090E27
:10B32000DBCF26F069EC76F000501E24E96E015068
:10B330001F20EA6E010EEE6EED6A010EF36E140E22
:10B34000F3CFDBFF5BD0D950150F026EDACF03F0DD
:10B35000020E206E216A080EDBCF25F0090EDBCF2E
:10B3600026F069EC76F002501E24E96E03501F208F
:10B37000EA6EEECF00F0EFCF01F0D890015004E676
:10B380000C0E005C000E01581AE2D950150F006E29
:10B39000DACF01F0020E206E216A080EDBCF25F015
:10B3A000090EDBCF26F069EC76F000501E24E96E22
:10B3B00001501F20EA6EEE2A000EEF2219D0D9505C
:10B3C000150F006EDACF01F0020E206E216A080E12
:10B3D000DBCF25F0090EDBCF26F069EC76F00050CC
:10B3E0001E24E96E01501F20EA6E010EEE6EED6A1A
:10B3F000010EF36E140EF3CFDBFF00D0C4D0080EA5
:10B40000DBCF20F0090EDBCF21F0010E201801E187
:10B4100021505FE0205001E1215001E0B4D0D9502B
:10B42000150F026EDACF03F0020E206E216A080EAD
:10B43000DBCF25F0090EDBCF26F069EC76F0025069
:10B440001E24E96E03501F20EA6EEECF00F0EFCF0E
:10B4500001F0013404E200500108000E01541AE228
:10B46000D950150F006EDACF01F0020E206E216A5E
:10B47000080EDBCF25F0090EDBCF26F069EC76F065
:10B4800000501E24E96E01501F20EA6EEE06000EE9
:10B49000EF5A19D0D950150F006EDACF01F0020E15
:10B4A000206E216A080EDBCF25F0090EDBCF26F0D7
:10B4B00069EC76F000501E24E96E01501F20EA6E00
:10B4C0001F0EEE6EED6A010EF36E140EF3CFDBFF6E
:10B4D0005AD0D950150F026EDACF03F0020E206E4B
:10B4E000216A080EDBCF25F0090EDBCF26F069ECD0
:10B4F00076F002501E24E96E03501F20EA6EEECF54
:10B5000000F0EFCF01F0013404E200500108000E1A
:10B5100001541AE2D950150F006EDACF01F0020E75
:10B52000206E216A080EDBCF25F0090EDBCF26F056
:10B5300069EC76F000501E24E96E01501F20EA6E7F
:10B54000EE06000EEF5A19D0D950150F006EDACF63
:10B5500001F0020E206E216A080EDBCF25F0090EE5
:10B56000DBCF26F069EC76F000501E24E96E015026
:10B570001F20EA6E0C0EEE6EED6A010EF36E140ED5
:10B58000F3CFDBFF00D0040EDBCF00F0050EDBCFE6
:10B5900001F0D890015004E6200E005C030E015823
:10B5A00017E2010EE66E86EC7CF0E552040EF3CF56
:10B5B000DBFF050EF4CFDBFF020EE66E86EC7CF0BF
:10B5C000E552060EF3CFDBFF070EF4CFDBFFDBD730
:10B5D00011D5E16AE552E16EE552E7CFD9FF1200DD
:10B5E000D9CFE6FFE1CFD9FF090EE126010EF36EB8
:10B5F000060EF3CFDBFF070EDB6A010EF36E080EBB
:10B60000F3CFDBFF080EDB502FE0E66A85EC6EF02F
:10B61000E5521E0EE66EE66AC30EE66EFE0EE66E9E
:10B6200087EC6FF0E552E552E552E552120EE66EF8
:10B63000030EE66EC00EE66EFE0EE66E87EC6FF051
:10B64000E552E552E552E552120EE66E050EE66E43
:10B65000BC0EE66EFE0EE66E87EC6FF0E552E5522C
:10B66000E552E552080EDB6AD950060FE96EDACFD3
:10B67000EAFF010EEE1801E1ED5011E1040EE66E55
:10B68000E66AE66A000EE66EE66A030EE66EE668B5
:10B690003DEC71F0006E070EE15E005010D0040E1C
:10B6A000E66EE66AE66A000EE66EE66A050EE66E8D
:10B6B000E6683DEC71F0006E070EE15E005092EC22
:10B6C00050F0000911E0D950060FE96EDACFEAFF19
:10B6D000010EEE1801E1ED5004E10001010E6D6F65
:10B6E00002D000016D6BC2D0010EE66E86EC7CF0DC
:10B6F000E552040EF3CFDBFF050EF4CFDBFF040EA3
:10B70000DBCF00F0050EDBCF01F0D890015004E64E
:10B71000840E005C030E01581BE2040EDBCF00F028
:10B72000050EDBCF01F0D890015004E6840E005CDA
:10B73000030E01580CE2010EE66E86EC7CF0E55239
:10B74000040EF3CFDBFF050EF4CFDBFFE6D78ED080
:10B75000EEEC7CF0E66A86EC7CF0E552F3CFDEFF9F
:10B76000F4CFDDFF030EE66E86EC7CF0E552020EB0
:10B77000F3CFDBFF030EF4CFDBFFDECF00F0DDCF36
:10B7800001F0D890015004E6840E005C030E0158CD
:10B790002DE2DECF00F0DDCF01F0D890015004E6BD
:10B7A000840E005C030E015809E2E66A86EC7CF028
:10B7B000E552F3CFDEFFF4CFDDFFEBD7060EDBCF94
:10B7C00000F0070EDBCF01F0D890015004E6020E26
:10B7D000005C000E01580AE2060EDB2A070E01E3A8
:10B7E000DB2A010EF36E080EF3CFDBFF020EDBCF78
:10B7F00000F0030EDBCF01F0D890015004E6840E78
:10B80000005C030E015831E2020EDBCF00F0030EA4
:10B81000DBCF01F0D890015004E6840E005C030EEB
:10B8200001580CE2030EE66E86EC7CF0E552020E47
:10B83000F3CFDBFF030EF4CFDBFFE6D7060EDBCF43
:10B8400000F0070EDBCF01F0013404E200500108E4
:10B85000000E01540AE2060EDB06070E01E2DB06CB
:10B86000010EF36E080EF3CFDBFFCCD6090EE15CC0
:10B8700002E2E16AE552E16EE552E7CFD9FF12003C
:10B88000D9CFE6FFE1CFD9FFFD0EDBCF20F0FE0ED2
:10B89000DBCF21F0060E201801E1215021E0050E3A
:10B8A000201801E1215019E0040E201801E1215077
:10B8B00011E0030E201801E1215009E0020E2018CA
:10B8C00001E1215001E00ED0E1EC51F00BD030EC61
:10B8D00053F008D081EC54F005D0D7EC57F002D0EB
:10B8E0007FDE00D0E66A85EC6EF0E552E552E7CFE8
:10B8F000D9FF1200D9CFE6FFE1CFD9FF0A0EE1262A
:10B90000F29A00016E5112E0613504E260510C08B8
:10B91000000E615505E20C0E605F000E615B06D003
:10B920006051611103E10C0E606F616B64C0E6FF52
:10B9300065C0E6FF62C0E6FF63C0E6FF60C0E6FFE9
:10B9400061C0E6FFEC0E006EFE0E016E026A00C0E2
:10B95000E6FF01C0E6FF02C0E6FFD9CFE6FFDACF7F
:10B96000E6FF0FEC00F0036E0B0EE15E03503C0EA1
:10B97000E66EE66AD9CFE6FFDACFE6FFC1EC6FF0FC
:10B98000E552E552E552E55200016E511DE06F515E
:10B990000EE0720EE66EE66AE90EE66EFE0EE66EEA
:10B9A00087EC6FF0E552E552E552E5520DD0720E8C
:10B9B000E66EE66AE60EE66EFE0EE66E87EC6FF069
:10B9C000E552E552E552E552F28A0A0EE15C02E2E6
:10B9D000E16AE552E16EE552E7CFD9FF1200D9CF17
:10B9E000E6FFE1CFD9FF060EE126DE6ADD6ADECF93
:10B9F00000F0DDCF01F0D890015004E63C0E005C71
:10BA0000000E015801E36AD173C020F074C021F028
:10BA10002CEC75F01FC000F020C001F021C002F036
:10BA200022C003F06AC020F06BC021F02CEC75F04E
:10BA30001FC008F020C009F021C00AF022C00BF09E
:10BA400000C0E6FF01C0E6FF02C0E6FF03C0E6FF5C
:10BA500008C0E6FF09C0E6FF0AC0E6FF0BC0E6FF2C
:10BA6000DECF14F0DDCF15F0060E1502F3CF15F082
:10BA70001402F3CF14F0F450152614C020F015C0B2
:10BA800021F02CEC75F01FC010F020C011F021C087
:10BA900012F022C013F010C0E6FF11C0E6FF12C082
:10BAA000E6FF13C0E6FF45EC01F0E552E552E55232
:10BAB000E552E552E7CF0BF0E552E7CF0AF0E55249
:10BAC000E7CF09F0E552E7CF08F0E552E7CF03F002
:10BAD000E552E7CF02F0E552E7CF01F0E552E7CFBC
:10BAE00000F01EC00CF01FC00DF020C00EF021C0F1
:10BAF0000FF00CC024F00DC025F00EC026F00FC0D2
:10BB000027F008C01FF009C020F00AC021F00BC0C8
:10BB100022F0D6EC75F01FC004F020C005F021C063
:10BB200006F022C007F004C024F005C025F006C0CE
:10BB300026F007C027F000C01FF001C020F002C0AF
:10BB400021F003C022F040EC75F096EC76F0020E86
:10BB500020C0DBFF030E21C0DBFF75C020F076C0E4
:10BB600021F02CEC75F01FC000F020C001F021C0C6
:10BB700002F022C003F06AC020F06BC021F02CEC70
:10BB800075F01FC008F020C009F021C00AF022C0E3
:10BB90000BF000C0E6FF01C0E6FF02C0E6FF03C0F5
:10BBA000E6FF08C0E6FF09C0E6FF0AC0E6FF0BC0DB
:10BBB000E6FFDECF14F0DDCF15F0060E1502F3CF51
:10BBC00015F01402F3CF14F0F450152614C020F031
:10BBD00015C021F02CEC75F01FC010F020C011F042
:10BBE00021C012F022C013F010C0E6FF11C0E6FF22
:10BBF00012C0E6FF13C0E6FF6DEC01F0E552E5521E
:10BC0000E552E552E552E7CF0BF0E552E7CF0AF0F7
:10BC1000E552E7CF09F0E552E7CF08F0E552E7CF6C
:10BC200003F0E552E7CF02F0E552E7CF01F0E5522D
:10BC3000E7CF00F01EC00CF01FC00DF020C00EF0CA
:10BC400021C00FF00CC024F00DC025F00EC026F06E
:10BC50000FC027F008C01FF009C020F00AC021F073
:10BC60000BC022F0D6EC75F01FC004F020C005F028
:10BC700021C006F022C007F004C024F005C025F062
:10BC800006C026F007C027F000C01FF001C020F05A
:10BC900002C021F003C022F040EC75F096EC76F083
:10BCA000040E20C0DBFF050E21C0DBFFE66A040E98
:10BCB000DBCFE6FF020EDBCFE6FF040EDBCFE6FFB5
:10BCC000020EDBCFE6FF51EC73F0006E050EE15E75
:10BCD0000050DF2A010E01E3DB2A89D6060EE15C63
:10BCE00002E2E16AE552E16EE552E7CFD9FF1200C8
:10BCF000D9CFE6FFE1CFD9FF040EE126FB0EDBCF63
:10BD000020F0FC0EDBCF21F0020E201801E12150C3
:10BD100001E146D3010E201801E1215001E19BD140
:10BD2000205001E1215002E074EF63F073C020F075
:10BD300074C021F02CEC75F01FC000F020C001F0A1
:10BD400021C002F022C003F06AC020F06BC021F0D5
:10BD50002CEC75F01FC008F020C009F021C00AF0DB
:10BD600022C00BF000C0E6FF01C0E6FF02C0E6FF04
:10BD700003C0E6FF08C0E6FF09C0E6FF0AC0E6FF11
:10BD80000BC0E6FFFD0EDBCF14F0FE0EDBCF15F08F
:10BD90001E0E1502F3CF15F01402F3CF14F0F45079
:10BDA000152614C020F015C021F02CEC75F01FC032
:10BDB00010F020C011F021C012F022C013F010C00A
:10BDC000E6FF11C0E6FF12C0E6FF13C0E6FF45EC38
:10BDD00001F0E552E552E552E552E552E7CF0BF0AE
:10BDE000E552E7CF0AF0E552E7CF09F0E552E7CF99
:10BDF00008F0E552E7CF03F0E552E7CF02F0E55255
:10BE0000E7CF01F0E552E7CF00F01EC00CF01FC0F5
:10BE10000DF020C00EF021C00FF00CC024F00DC0BA
:10BE200025F00EC026F00FC027F008C01FF009C093
:10BE300020F00AC021F00BC022F0D6EC75F01FC034
:10BE400004F020C005F021C006F022C007F004C0B5
:10BE500024F005C025F006C026F007C027F000C07A
:10BE60001FF001C020F002C021F003C022F040EC1E
:10BE700075F096EC76F020C0DEFF21C0DDFF75C0C6
:10BE800020F076C021F02CEC75F01FC000F020C02F
:10BE900001F021C002F022C003F06AC020F06BC0A4
:10BEA00021F02CEC75F01FC008F020C009F021C073
:10BEB0000AF022C00BF000C0E6FF01C0E6FF02C09E
:10BEC000E6FF03C0E6FF08C0E6FF09C0E6FF0AC0C0
:10BED000E6FF0BC0E6FFFD0EDBCF14F0FE0EDBCF5E
:10BEE00015F01E0E1502F3CF15F01402F3CF14F067
:10BEF000F450152614C020F015C021F02CEC75F07C
:10BF00001FC010F020C011F021C012F022C013F0A9
:10BF100010C0E6FF11C0E6FF12C0E6FF13C0E6FF47
:10BF20006DEC01F0E552E552E552E552E552E7CFFE
:10BF30000BF0E552E7CF0AF0E552E7CF09F0E55202
:10BF4000E7CF08F0E552E7CF03F0E552E7CF02F084
:10BF5000E552E7CF01F0E552E7CF00F01EC00CF04C
:10BF60001FC00DF020C00EF021C00FF00CC024F057
:10BF70000DC025F00EC026F00FC027F008C01FF03E
:10BF800009C020F00AC021F00BC022F0D6EC75F0F9
:10BF90001FC004F020C005F021C006F022C007F049
:10BFA00004C024F005C025F006C026F007C027F025
:10BFB00000C01FF001C020F002C021F003C022F039
:10BFC00040EC75F096EC76F0020E20C0DBFF030E1D
:10BFD00021C0DBFF020EE66EDBCF20F0030EDBCFCD
:10BFE00021F000017551205C006E76512158016EE0
:10BFF000020E256E266A00C020F001C021F043EC3D
:10C0000076F020C000F021C001F00001755100243D
:10C01000E66E7351DE5C026E7451DD58036E020EE3
:10C02000256E266A02C020F003C021F043EC76F0B2
:10C0300020C002F021C003F0000173510224E66E1B
:10C0400075C0E6FF73C0E6FF51EC73F0046E050E99
:10C05000E15E045049D373C020F074C021F02CEC91
:10C0600075F01FC000F020C001F021C002F022C016
:10C0700003F06AC020F06BC021F02CEC75F01FC0FB
:10C0800008F020C009F021C00AF022C00BF000C067
:10C09000E6FF01C0E6FF02C0E6FF03C0E6FF08C0FE
:10C0A000E6FF09C0E6FF0AC0E6FF0BC0E6FFFD0E93
:10C0B000DBCF14F0FE0EDBCF15F0060E1502F3CF2A
:10C0C00015F01402F3CF14F0F450152614C020F02C
:10C0D00015C021F02CEC75F01FC010F020C011F03D
:10C0E00021C012F022C013F010C0E6FF11C0E6FF1D
:10C0F00012C0E6FF13C0E6FF45EC01F0E552E55241
:10C10000E552E552E552E7CF0BF0E552E7CF0AF0F2
:10C11000E552E7CF09F0E552E7CF08F0E552E7CF67
:10C1200003F0E552E7CF02F0E552E7CF01F0E55228
:10C13000E7CF00F01EC00CF01FC00DF020C00EF0C5
:10C1400021C00FF00CC024F00DC025F00EC026F069
:10C150000FC027F008C01FF009C020F00AC021F06E
:10C160000BC022F0D6EC75F01FC004F020C005F023
:10C1700021C006F022C007F004C024F005C025F05D
:10C1800006C026F007C027F000C01FF001C020F055
:10C1900002C021F003C022F040EC75F096EC76F07E
:10C1A00020C0DEFF21C0DDFF75C020F076C021F089
:10C1B0002CEC75F01FC000F020C001F021C002F08F
:10C1C00022C003F06AC020F06BC021F02CEC75F0A7
:10C1D0001FC008F020C009F021C00AF022C00BF0F7
:10C1E00000C0E6FF01C0E6FF02C0E6FF03C0E6FFB5
:10C1F00008C0E6FF09C0E6FF0AC0E6FF0BC0E6FF85
:10C20000FD0EDBCF14F0FE0EDBCF15F0060E15028F
:10C21000F3CF15F01402F3CF14F0F450152614C028
:10C2200020F015C021F02CEC75F01FC010F020C0DC
:10C2300011F021C012F022C013F010C0E6FF11C0AF
:10C24000E6FF12C0E6FF13C0E6FF6DEC01F0E55219
:10C25000E552E552E552E552E7CF0BF0E552E7CF64
:10C260000AF0E552E7CF09F0E552E7CF08F0E552D2
:10C27000E7CF03F0E552E7CF02F0E552E7CF01F058
:10C28000E552E7CF00F01EC00CF01FC00DF020C03B
:10C290000EF021C00FF00CC024F00DC025F00EC030
:10C2A00026F00FC027F008C01FF009C020F00AC018
:10C2B00021F00BC022F0D6EC75F01FC004F020C0B6
:10C2C00005F021C006F022C007F004C024F005C02C
:10C2D00025F006C026F007C027F000C01FF001C0FF
:10C2E00020F002C021F003C022F040EC75F096EC83
:10C2F00076F0020E20C0DBFF030E21C0DBFF010E33
:10C30000E66E020EDBCF20F0030EDBCF21F0000142
:10C310007551205C026E76512158036E050E256E14
:10C32000266A02C020F003C021F043EC76F020C062
:10C3300002F021C003F0020EDBCF20F0030EDBCFB2
:10C3400021F00250205C006E03502158016E005015
:10C35000E66E00017351DE5C066E7451DD58076EA7
:10C36000050E256E266A06C020F007C021F043ECBA
:10C3700076F020C006F021C007F00650DE5C046EA7
:10C380000750DD58056E0450E66E75C0E6FF73C0B9
:10C39000E6FF51EC73F0086E050EE15E0850A4D183
:10C3A00073C020F074C021F02CEC75F01FC000F0B9
:10C3B00020C001F021C002F022C003F06AC020F0CA
:10C3C0006BC021F02CEC75F01FC008F020C009F004
:10C3D00021C00AF022C00BF000C0E6FF01C0E6FF5A
:10C3E00002C0E6FF03C0E6FF08C0E6FF09C0E6FFA3
:10C3F0000AC0E6FF0BC0E6FFFD0EDBCF14F0FE0E19
:10C40000DBCF15F0060E1502F3CF15F01402F3CFB3
:10C4100014F0F450152614C020F015C021F02CECB7
:10C4200075F01FC010F020C011F021C012F022C022
:10C4300013F010C0E6FF11C0E6FF12C0E6FF13C004
:10C44000E6FF45EC01F0E552E552E552E552E552D2
:10C45000E7CF0BF0E552E7CF0AF0E552E7CF09F05E
:10C46000E552E7CF08F0E552E7CF03F0E552E7CF1A
:10C4700002F0E552E7CF01F0E552E7CF00F01EC031
:10C480000CF01FC00DF020C00EF021C00FF00CC04A
:10C4900024F00DC025F00EC026F00FC027F008C014
:10C4A0001FF009C020F00AC021F00BC022F0D6EC2A
:10C4B00075F01FC004F020C005F021C006F022C0B6
:10C4C00007F004C024F005C025F006C026F007C020
:10C4D00027F000C01FF001C020F002C021F003C00F
:10C4E00022F040EC75F096EC76F020C0DEFF21C023
:10C4F000DDFF75C020F076C021F02CEC75F01FC078
:10C5000000F020C001F021C002F022C003F06AC098
:10C5100020F06BC021F02CEC75F01FC008F020C09B
:10C5200009F021C00AF022C00BF000C0E6FF01C0F4
:10C53000E6FF02C0E6FF03C0E6FF08C0E6FF09C051
:10C54000E6FF0AC0E6FF0BC0E6FFFD0EDBCF14F0EE
:10C55000FE0EDBCF15F0060E1502F3CF15F0140218
:10C56000F3CF14F0F450152614C020F015C021F0BC
:10C570002CEC75F01FC010F020C011F021C012F09B
:10C5800022C013F010C0E6FF11C0E6FF12C0E6FFA4
:10C5900013C0E6FF6DEC01F0E552E552E552E552BD
:10C5A000E552E7CF0BF0E552E7CF0AF0E552E7CFCF
:10C5B00009F0E552E7CF08F0E552E7CF03F0E55286
:10C5C000E7CF02F0E552E7CF01F0E552E7CF00F008
:10C5D0001EC00CF01FC00DF020C00EF021C00FF0E7
:10C5E0000CC024F00DC025F00EC026F00FC027F0BF
:10C5F00008C01FF009C020F00AC021F00BC022F0D3
:10C60000D6EC75F01FC004F020C005F021C006F084
:10C6100022C007F004C024F005C025F006C026F0B3
:10C6200007C027F000C01FF001C020F002C021F0B9
:10C6300003C022F040EC75F096EC76F0020E20C0BC
:10C64000DBFF030E21C0DBFFE66A020EDBCF20F02A
:10C65000030EDBCF21F000017551205C026E765194
:10C660002158036E050E256E266A02C020F003C015
:10C6700021F043EC76F020C002F021C003F0020E5E
:10C68000DBCF20F0030EDBCF21F00250205C006EE8
:10C6900003502158016E0050E66E00017351DE5CBC
:10C6A000066E7451DD58076E050E256E266A06C0AB
:10C6B00020F007C021F043EC76F020C006F021C046
:10C6C00007F00650DE5C046E0750DD58056E04501E
:10C6D000E66E75C0E6FF73C0E6FF51EC73F0086EBE
:10C6E000050EE15E085000D0040EE15C02E2E16A52
:10C6F000E552E16EE552E7CFD9FF1200D9CFE6FF50
:10C70000E1CFD9FF020EE12664C0DEFF65C0DDFF88
:10C710003B0E000165AF02D0D89003D0645D000EDF
:10C72000655904E2642B000E652303D0646B656BCE
:10C730002CD800016C5103E0010E716F1CD07251B6
:10C740001AE1020EE66EE66ADECFE6FFDDCFE6FF17
:10C7500078EC5EF0E552E552E552E552020EE66EE7
:10C76000E66A64C0E6FF65C0E6FF78EC5EF0E5527D
:10C77000E552E552E552020EE15C02E2E16AE55261
:10C78000E16EE552E7CFD9FF1200D9CFE6FFE1CF46
:10C79000D9FF020EE12662C0DEFF63C0DDFF3B0E63
:10C7A000000163AF02D0D89003D0625D000E6359E0
:10C7B00004E2622B000E632303D0626B636B29D803
:10C7C00000016C511CE172511AE1010EE66EE66A3D
:10C7D000DECFE6FFDDCFE6FF78EC5EF0E552E55216
:10C7E000E552E552010EE66EE66A62C0E6FF63C0FE
:10C7F000E6FF78EC5EF0E552E552E552E552020EB6
:10C80000E15C02E2E16AE552E16EE552E7CFD9FF71
:10C810001200D9CFE6FFE1CFD9FF020EE12660C0BA
:10C82000DEFF61C0DDFF00016E5114E00C0E6019E7
:10C8300001E161510BE1010E606F616B6F5102E02C
:10C840006F6B02D0010E6F6F4CD803D0602B000EBF
:10C8500061231ED0170E61AF02D0D89003D0605D67
:10C86000000E615904E2602B000E612303D0606B5F
:10C87000616B37D80C0E000161AF02D0D89003D0A5
:10C88000605D000E615902E36F6B02D0010E6F6FA5
:10C8900000016C511CE172511AE1000EE66EE66A6D
:10C8A000DECFE6FFDDCFE6FF78EC5EF0E552E55245
:10C8B000E552E552000EE66EE66A60C0E6FF61C032
:10C8C000E6FF78EC5EF0E552E552E552E552020EE5
:10C8D000E15C02E2E16AE552E16EE552E7CFD9FFA1
:10C8E000120000011F0E661901E1675104E0662B7A
:10C8F000000E67230FD0010E666F676B0C0E681970
:10C9000001E1695104E0682B000E692303D0010E98
:10C91000686F696B010E716F120000016E510EE0BD
:10C920006F510BE1613504E260510C08000E615556
:10C9300004E20C0E605F000E615B0DD06F510BE1E5
:10C940000C0E6027000E6123180E601901E1615181
:10C9500002E1606B616B1200D9CFE6FFE1CFD9FF36
:10C960000A0EE12668C0E6FF69C0E6FF66C0E6FF82
:10C9700067C0E6FFCE0E006EFE0E016E026A00C0BA
:10C98000E6FF01C0E6FF02C0E6FFD9CFE6FFDACF3F
:10C99000E6FF0FEC00F0036E090EE15E03505A0E45
:10C9A000E66E070EE66ED9CFE6FFDACFE6FFC1EC02
:10C9B0006FF0E552E552E552E5520A0EE15C02E203
:10C9C000E16AE552E16EE552E7CFD9FF12000001BE
:10C9D0006D510BE0060EE66EB00EE66E410EE66E91
:10C9E0005BEC6FF0E552E552E5521200D9CFE6FF5D
:10C9F000E1CFD9FF050EE126DE6ADD6ADECF00F069
:10CA0000DDCF01F0D890015004E6030E005C000E6B
:10CA1000015801E3DED0DECFE9FFDDCFEAFFD89099
:10CA2000E936EA36600EE926000EEA22040EEFCF60
:10CA3000DBFFDECFE9FFDDCFEAFFD890E936EA364B
:10CA4000600EE926000EEA22EECF00F0EFCF01F0F3
:10CA5000010E001801E1015001E1B5D0020E0018ED
:10CA600001E1015001E1AFD0030E001801E10150D6
:10CA700001E1A9D0040E001801E1015001E1A3D0A9
:10CA8000050E001801E1015001E19DD0060E0018CD
:10CA900001E1015001E197D0070E001801E10150BA
:10CAA00001E191D0080E001801E1015001E18BD0A5
:10CAB000090E001801E1015001E185D0005001E1AB
:10CAC000015001E080D0E66ABEEC6EF0E552120E35
:10CAD000E66EB50EE66EE66A5BEC6FF0E552E55287
:10CAE000E552180EE66EB50EE66EE66A5BEC6FF088
:10CAF000E552E552E5521E0EE66EB50EE66EE66AAA
:10CB00005BEC6FF0E552E552E552120EE66EB40EA4
:10CB1000E66EE6685BEC6FF0E552E552E552180E02
:10CB2000E66EB40EE66EE6685BEC6FF0E552E55239
:10CB3000E5521E0EE66EB40EE66EE6685BEC6FF034
:10CB4000E552E552E552120EE66EB30EE66EE66869
:10CB50005BEC6FF0E552E552E552180EE66EB30E4F
:10CB6000E66EE6685BEC6FF0E552E552E5521E0EAC
:10CB7000E66E030EE66EE6685BEC6FF0E552E5529A
:10CB8000E552120EE66E020EE66EF00EE66E5BECFD
:10CB90006FF0E552E552E552180EE66E020EE66EB3
:10CBA000F00EE66E5BEC6FF0E552E552E5521E0EBC
:10CBB000E66E020EE66EF00EE66E5BEC6FF0E5528E
:10CBC000E552E55201D000D0DF2A010E01E3DB2A55
:10CBD00015D7050EE15C02E2E16AE552E16EE5522D
:10CBE000E7CFD9FF1200D9CFE6FFE1CFD9FF0A0E78
:10CBF000E126040EDB6A050EDB6A060EDB6A070E11
:10CC0000DB6A020EF36E080EF3CFDBFF090EDB6A60
:10CC10000001010E726FE66A85EC6EF0E552130EAC
:10CC2000C26E080EDBCFDEFFDBCFDDFF7AEC5CF0FF
:10CC3000E66A020EE66EAF0EE66EFE0EE66E87EC5C
:10CC40006FF0E552E552E552E552E66A030EE66EF4
:10CC50009E0EE66EFE0EE66E87EC6FF0E552E55234
:10CC6000E552E552E66A040EE66E950EE66EFE0E9D
:10CC7000E66E87EC6FF0E552E552E552E552E66A62
:10CC8000050EE66E8C0EE66EFE0EE66E87EC6FF01D
:10CC9000E552E552E552E552E66A060EE66E860E6C
:10CCA000E66EFE0EE66E87EC6FF0E552E552E55259
:10CCB000E552C7EC50F0080EF3CFDBFF090EF4CFBE
:10CCC000DBFF85DE49DE640EE66EE66AE66A000E8C
:10CCD000E66EE66A080EDBCFE6FFE6683DEC71F033
:10CCE000006E070EE15E005092EC50F000090AE081
:10CCF000080EDBCFE6FF090EDBCFE6FF40EC5CF071
:10CD0000E552E552080EDB50DF1804E1090EDB5056
:10CD1000DE52DD1804E0E66A85EC6EF0E552EEECDA
:10CD20007CF0010EE66E86EC7CF0E552020EF3CF4D
:10CD3000DBFF030EF4CFDBFF020EDBCF00F0030EB0
:10CD4000DBCF01F0D890015004E6840E005C030EA6
:10CD5000015822E2020EDBCF00F0030EDBCF01F020
:10CD6000D890015004E6840E005C030E01580CE2DA
:10CD7000010EE66E86EC7CF0E552020EF3CFDBFF8F
:10CD8000030EF4CFDBFFE6D7E66A85EC6EF0E552E2
:10CD90000A0EE15C04E201D042D7E16AE552E16E9D
:10CDA000E552E7CFD9FF1200F29A11DED5DDF28A03
:10CDB0001200D9CFE6FFE1CFD9FF020EE126DF6EE8
:10CDC000010EDB6A88EC50F0050ED56ED08EF18432
:10CDD000E00EF26ED58EDF5004E0DF50C214DF6E3D
:10CDE000FAD70001705135E06C5102E0FFDD30D020
:10CDF000010EDB502DE1EFEC5CF0020EE66EE66A10
:10CE000064C0E6FF65C0E6FF78EC5EF0E552E552EF
:10CE1000E552E552010EE66EE66A62C0E6FF63C0C7
:10CE2000E6FF78EC5EF0E552E552E552E552000E81
:10CE3000E66EE66A60C0E6FF61C0E6FF78EC5EF091
:10CE4000E552E552E552E552AFDFDE52010EDD6EEE
:10CE500001D0C9DE0001726B92EC50F0000903E0D2
:10CE6000C2DE010EDB6A0001715121E0820EE66E26
:10CE7000E66AE66A000EE66EE66AE66AE66A3DEC97
:10CE800071F0006E070EE15E0050820EE66EE66AFB
:10CE9000E66A000EE66EE66A070EE66EE66A3DECAE
:10CEA00071F0006E070EE15E00500001716B93D7C8
:10CEB000020EE15C02E2E16AE552E16EE552E7CF83
:04CEC000D9FF120084
:0CCEC4009EEC6CF0FB0EDBCFF3FFDB06F6
:10CED000F35000090AE0ECEC6CF0FA0E57EC6DF040
:10CEE000F3E1011CF1E1010E01D0000ECDEF6CF079
:10CEF0009EEC6CF03B0EE12402E3E168E652E16E49
:10CF0000010EDB6A020EDB6AF90EDBCFF6FFFA0ECA
:10CF1000DBCFF7FFFB0EDBCFF8FF0800F550DF6E2D
:10CF2000DF5002E1F1EF6BF0250EDF5C02E0E4EF91
:10CF30006BF0030EDB6A040EDB6A050EDB6A060E7D
:10CF4000DB6A070EDB6A06EC6CF02D0EDF5C0CE092
:10CF50002B0EDF5C09E0200EDF5C06E0230EDF5CB9
:10CF600003E0300EDF5C1AE1DF50300A14E0130AF0
:10CF70000FE0030A0AE00B0A05E0060AE4E1030EEB
:10CF8000DB80E1D7030EDB82DED7030EDB84DBD749
:10CF9000030EDB86D8D7030EDB88D5D72A0EDF5CDD
:10CFA0001BE102EC6CF050EC6CF010E0030EDB8047
:10CFB00020682168130EDBCF25F0140EDBCF26F09E
:10CFC00069EC76F0040E1EC0DBFF03D0130E39ECC3
:10CFD0006CF006EC6CF00BD0090EDB6AA7EC6CF081
:10CFE00003E01BEC6DF0FAD7090E39EC6CF0030E80
:10CFF000DBB0DB982E0EDF5C1BE106EC6CF02A0E3A
:10D00000DF5C0BE102EC6CF050EC6CF003E1130E12
:10D010008BEC6CF006EC6CF00BD0090EDB6AA7EC25
:10D020006CF003E01BEC6DF0FAD7090E8BEC6CF0A2
:10D03000680EDF5C07E106EC6CF0680EDF5C1DE15A
:10D04000030E18D0740EDF5C17E07A0EDF5C14E07C
:10D05000480EDF5C06E0540EDF5C03E05A0EDF5C36
:10D0600002E1020E07D06C0EDF5C03E06A0EDF5CAB
:10D0700004E1010EDEEC6CF0C9DBDF506E0A01E169
:10D080007FD31E0A01E192D1200A01E18FD13F0A2C
:10D0900001E149D11A0A01E146D10D0A01E143D16A
:10D0A000200A01E140D13A0A01E13DD1200A01E123
:10D0B0003AD1260A01E135D10D0A01E132D11A0A2D
:10D0C00001E1D9D0200A4AE0300A1FE0460A0EE00A
:10D0D000250A01E083D3D950F90FE96EFF0EDA205B
:10D0E000EA6E010EEE5E000EEE5AEE5AECEC6CF0BB
:10D0F000250EE66E95DB03E1011C01E169D3E8EC46
:10D100006CF001E26BD3DB2A69D3080EDB6A040EF4
:10D11000DB50010806E2040EDB04B0EC6CF0DB50DF
:10D120008BDB080EDB5009E0030EDB50010B05E141
:10D1300072DB01E04DD3080EDB6A64DBEFCFDFFF6B
:10D1400060EC6DF003E1011C01E142D3E8EC6CF00E
:10D1500001E3DB2A60DB01E141D33AD3070EDB5068
:10D1600002080FE12CEC6DF0030EF3EC6CF00E0EE8
:10D17000EECFDBFF0F0EEECFDBFF100EEECFDBFFAF
:10D1800020D0F70EDBCF03F0F80EDBCF04F0020E59
:10D19000035E000E045AF70E03C0DBFFF80E04C056
:10D1A000DBFF03C0E9FF04C0EAFFE3EC6CF0026AB6
:10D1B0000E0E00C0DBFF0F0E01C0DBFF100E02C021
:10D1C000DBFF0E0EDBCFE6FF0F0EDBCFE6FF100E10
:10D1D000DBCFE6FFEDEC00F0E552E552E552130E31
:10D1E0001FC0DBFF140E20C0DBFF060EDB5005E086
:10D1F000130E27EC6DF001E26ADB4BEC6DF002E2FE
:10D20000130E37DB0EEC6DF006E0040E27EC6DF02C
:10D2100002E2050E2EDB030EDBB005D0FCDA01E0E6
:10D22000D7D2080EDB6A090EDB6A0E0EDBCFF6FFE3
:10D230000F0EDBCFF7FF100EDBCFF8FF0800F55025
:10D24000DF6EDF5014E051EC6DF011E260EC6DF038
:10D2500003E1011C01E1BCD2BBDB01E3DB2A090EC7
:10D26000DB2AD9500E0FE96E000ECBDBE7D7D3DAFD
:10D2700001E1B4D2ADD2C6DA110EEECFDBFF120E51
:10D28000EDCFDBFF110EDBCFE6FF120EDBCFE6FFAB
:10D29000DFEC00F0E552E552130EF3CFDBFF140E86
:10D2A000F4CFDBFF060EDB5004E0130ED0DB01E20F
:10D2B0000EDB4BEC6DF002E2130EDBDAAFDB05E0C8
:10D2C000040EC5DB02E2050ED4DA030EDBB005D096
:10D2D000A2DA01E07DD2080EDB6A090EDB6A110ECC
:10D2E000DBCFE9FF120EDBCFEAFFEFCFDFFFDF502E
:10D2F00014E0D7DB12E2E4DB03E1011C01E168D2B8
:10D3000067DB01E3DB2A090EDB2A110EDB2ADBCF08
:10D31000E9FF120EE8E3DB2AE6D77DDA01E15ED20F
:10D3200057D2030EDB8E070EDB0410E195DB040EF3
:10D330005ADB0A0EEECFDBFF0B0EEECFDBFF0C0E3F
:10D34000EECFDBFF0D0EEECFDBFF6CD0070EDB5018
:10D3500003082CE1030EDBAE0DD0B2DA020E76DA52
:10D36000EFCF00F0016A026A036A00AE39D00168AB
:10D37000026835D0F70EDBCF01F0F80EDBCF02F0FC
:10D38000020E015E000E025AF70E01C0DBFFF80E1E
:10D3900002C0DBFF01C0E9FF02C0EAFFEFCF00F0EF
:10D3A0000A0E00C0DBFF0B0EDB6A38D0070EDB5025
:10D3B000020809E1030EDBAE04D059DB02AE10D047
:10D3C0000ED055DB0DD0030EDBAE12D079DA020E93
:10D3D0003DDAF9DA026A036A01AE02D00268036834
:10D3E000E2DA0C0E02C0DBFF0D0E03C0DBFF1AD029
:10D3F000F70EDBCF02F0F80EDBCF03F0020E025E79
:10D40000000E035AF70E02C0DBFFF80E03C0DBFF6D
:10D4100002C0E9FF03C0EAFFD6DAC5DA0C0EDB6A08
:10D420000D0EDB6A060EDB5005E1010EF36E050EF4
:10D43000F3CFDBFF150EDB6A160EDB6AD950370F10
:10D44000006E000EDA20016E390E00C0DBFF3A0ECE
:10D4500001C0DBFF380EDB6A080EDB6A0A0EAEDAAB
:10D46000DF50780A12E0200A10E0280A0CE0200AB7
:10D470000AE03F0A06E00D0A02E0200A08E1020E77
:10D4800005D0080E03D0080EDF26100E97DA030E23
:10D49000DBBE02D0DB92DB94DB50800B24E08ADA27
:10D4A000D890030EEB50000A08E6000EEE5C000E6A
:10D4B000EE58000EEE58000EEE5815E213DA23680F
:10D4C000246825682668A7EC00F00A0E1AC0DBFF66
:10D4D0000B0E1BC0DBFF0C0E1CC0DBFF0D0E1DC0B6
:10D4E000DBFF2D0E08D0030EDBA202D02B0E03D0E3
:10D4F000DBA408D0200EF36E170EF3CFDBFF150E62
:10D50000DB2A02D0170EDB6A050EDB5003E1B7D928
:10D5100001E189D0180E006E040E016E000E026E3D
:10D52000070EDBCF03F0046A056A066A03C023F026
:10D5300004C024F005C025F006C026F0D3D994EC31
:10D5400001F000501A24F36E01501B20F46E0250BB
:10D550001C20F86EF4CFF7FFF3CFF6FF0800090E9A
:10D56000F5CFDBFF580EDF5C0FE1610EF36E090EA5
:10D570007BD90AE3200E006E090EDBCFE7FF0050D7
:10D58000E75E090EE7CFDBFF070EDBCF00F0016A95
:10D59000026A036A0FDA00C023F001C024F002C05F
:10D5A00025F003C026F0EECF1EF0EECF1FF0EECF39
:10D5B00020F0EFCF21F094EC01F021C0EDFF20C06E
:10D5C000EDFF1FC0EDFF1EC0EFFF390EDBCFE9FFFF
:10D5D000DB063A0EDBCFEAFF01E2DB06090EDBCF0A
:10D5E000EFFF150EDB2A4BD995E1030EDBA61DD00C
:10D5F0006F0EDF5C06E1C1D918E3150EDB285BDA9C
:10D6000014D0780EDF5C09E0580EDF5C06E0620E95
:10D61000DF5C03E0420EDF5C08E1020EF36E160EE3
:10D62000F3CFDBFF02D0150EDB6A030EDB50100BCD
:10D630000EE0040EDBCF00F0050EDB50D880005466
:10D6400006E2060EDB5003E1040EDB5034DA95D916
:10D650000AE2050EDBCFE7FF150EDB50E75E050E95
:10D66000E7CFDBFF02D0050EDB6A040EDBCF00F054
:10D67000160E45D9D880005414E2160EDBCFE6FF13
:10D68000150EDBCFE6FF040EDBCFE6FF050EDB5009
:10D69000E552E75CE552D880E754E552D880E7547C
:10D6A0005FD9030EDB50010B0BE1080EDB5008E0E5
:10D6B000B2D801E08DD0080EDB50BED8080EDB6A70
:10D6C000170EDB5007E088D9170EF1D903E1011CD2
:10D6D00001E17ED0160EDB5016E07ED9300EE66EEC
:10D6E0009FD802E1011C74E077D9DFCFE6FF65EC3B
:10D6F00000F0E552E552E552F4CF01F00001F31CD1
:10D7000002E1011C65E0050EDBCF00F0160EDB50D8
:10D71000D880005409E2050EDBCFE7FF160EDB5080
:10D72000E75E050EE7CFDBFF300EE66E050ECBD9C8
:10D730004FE1390EDB2ADBCFE9FF3A0E01E3DB2AAA
:10D74000DBCFEAFF090EEFCFDBFFDB500EE044D961
:10D75000090EADD902E1011C3BE0390EDB2ADBCF1B
:10D76000E9FF3A0EEDE3DB2AEBD755D831E1160E8F
:10D77000DBCFE6FF080EC3D8E552E7245DD82ED0F4
:10D78000070EDB50030A1CE0010A14E0030A07E05D
:10D790007BD9DBCFEEFF020EDBCFEDFF1FD0F5D83C
:10D7A000056A03AE02D0046805682CD8BCD805C051
:10D7B000EEFF14D0EAD803BE046824D8B4D80ED043
:10D7C00063D9DBCFEFFF0AD07BD905E1011C03E170
:10D7D000F368F46810D0FCD801E3DB2A79D98DEF27
:10D7E00067F0010EDBCF00F0020EDBCF01F000C0CE
:10D7F000F3FF01C0F4FF3B0EE15C02E2E16AE55297
:10D80000E16ECBD029D9020EF3EF6CF061D908009C
:10D81000F550DF6E1200200EE66E080E63EF6DF01D
:10D8200065EC00F0E552E552E552F3CF00F0F4CF9D
:10D8300001F00001F31C1200006E016AD950010FC3
:10D840004DD90050EE260150ED221200045E000E6C
:10D85000055AF70E04C0DBFFF80E05C0DBFF04C05D
:10D86000E9FF05C0EAFF1200DBCFF4FFF350F45CE0
:10D870001200DB50E76E040EE7CFDBFF12000A0E4A
:10D88000DBCF00F00B0EDBCF01F00C0EDBCF02F094
:10D890000D0EDBCF03F00050011002100310120038
:10D8A000130EEECFDBFF140EEDCFDBFF130EDBCF3D
:10D8B00000F0140EDBCF01F00001800E0114120005
:10D8C000F70EDBCF04F0F80EDBCF05F01200050EEB
:10D8D000DB50E66ED950130F01D9E552E750EE6EDA
:10D8E000ED6A12000A0EDBCF1EF00B0EDBCF1FF02D
:10D8F0000C0EDBCF20F00D0EDBCF21F01200DBCFC2
:10D90000E6FF150EDBCFE6FF050EDB50E552E72400
:10D91000E552E7241200DB50CED8010EF36E060E5E
:10D92000F3CFDBFF1200EE50EFCFEAFFE96E02C04B
:10D93000EEFF03C0EEFF04C0EEFF1200D9CFE6FFFA
:10D94000DACFE6FFE1CFD9FFE2CFDAFF1200DFCF77
:10D95000E6FFE66ACEEC01F0E552E552F350120024
:10D96000E76E080EE7CFDBFF1200EECF00F0EECF40
:10D9700001F0EFCF02F0036A1200050EDBCF00F0DA
:10D98000150EDB50D88000541200010EDBCF02F0E0
:10D99000020EDBCF03F0046A1200E552E5CFDAFF96
:10D9A000E7CFD9FF12000A0E00C0DBFF0B0E01C04B
:10D9B000DBFF1200D9500A0F6EEF6DF0F36E070E09
:10D9C000F3CFDBFF1200EECF00F0EFCF01F012003B
:10D9D000010EDB2A020E1200FC0EDBCFE6FFFD0E6D
:10D9E000DBCFE6FF1200005E000E015AF70E00C00A
:10D9F000DBFFF80E01C0DBFF00C0E9FF01C0EAFF5A
:10DA00001200DA20EA6EEF2AEECFF6FF000EEF22C8
:10DA1000EECFF7FFEF22EECFF8FF1200040EDBCFC0
:10DA2000E6FF130EDB50E552E75C9ADFDB5004DFC4
:10DA3000060EDB501200090EDB500A0DF350DF24F6
:10DA4000D00FE76E090EE7CFDBFF06EF6CF0DB507F
:10DA5000F36E050E34EF6CF0F70EDBCF00F0F80E2E
:10DA6000DBCF01F01200DFCFE6FF10EF6CF028DF14
:10DA7000030EECDEB5EF6CF062EC67F0E552E552B8
:10DA8000E552E55200091200BDDEEE50EFCFEAFF8D
:10DA9000E96E010E1200130EDB50F36E040E34EF2C
:10DAA0006CF0040EDB50F36E090E34EF6CF0DBCF3C
:10DAB000E6FF10EF6CF0E76E050EE7CFDBFF12001C
:10DAC0008BDF33EF6DF0DBCFE6FF86DF3CEF6DF0F1
:10DAD000D950F90FE96EFF0E01EF6DF0E96E000EFF
:06DAE000DA20EA6E1200DC
:0ADAE600D9CFE6FFE1CFD9FF020E11
:10DAF000E126FD0EDBCF00F0DB06FE0EDBCF01F0F2
:10DB000001E2DB060050011011E0DE6ADD6ADECFC3
:10DB100000F0DDCF01F0E30E005C0D0E015805E2D0
:10DB2000DF2A010E01E3DB2AF2D7E3D7020EE15C24
:10DB300002E2E16AE552E16EE552E7CFD9FF120059
:10DB4000D9CFE6FFE1CFD9FF060EE1268D9296925E
:10DB50008D9096908D8496948A9A939A8C92DE6A90
:10DB6000DE6ADE6ADD6ADD52DD52D9CFE9FFDACF47
:10DB7000EAFF640EEE5C000EEE58000EEE58000E4A
:10DB8000EE580AE2D9CFE9FFDACFEAFFEE2A000E1B
:10DB9000EE22EE22EE22E9D78C82DE6ADE6ADE6AAF
:10DBA000DD6ADD52DD52D9CFE9FFDACFEAFF640E3C
:10DBB000EE5C000EEE58000EEE58000EEE580AE233
:10DBC000D9CFE9FFDACFEAFFEE2A000EEE22EE22ED
:10DBD000EE22E9D7AE0EE66E70D8E552DB0EE66EA9
:10DBE0006CD8E552230EE66E68D8E552D90EE66E83
:10DBF00064D8E552220EE66E60D8E552A10EE66EBC
:10DC00005CD8E552C80EE66E58D8E552DA0EE66EDC
:10DC100054D8E552120EE66E50D8E552A80EE66EC4
:10DC20004CD8E5523F0EE66E48D8E552D50EE66E6A
:10DC300044D8E552A00EE66E40D8E552810EE66E5D
:10DC40003CD8E552600EE66E38D8E552D30EE66E4B
:10DC500034D8E552E66A31D8E552A60EE66E2DD8E4
:10DC6000E552AD0EE66E29D8E5528B0EE66E25D84C
:10DC7000E552AF0EE66E21D8E5520A0EE66EE66A70
:10DC800032DFE552E552A40EE66E17D8E552400E9B
:10DC9000E66E13D8E552020EE66E0FD8E552100E6E
:10DCA000E66E0BD8E552060EE15C02E2E16AE5524F
:10DCB000E16EE552E7CFD9FF1200D9CFE6FFE1CF01
:10DCC000D9FF956AFE0EDB508C6E8D808D828A9A0C
:10DCD0008D948D928D828D849568E552E7CFD9FF22
:10DCE0001200D9CFE6FFE1CFD9FF956AFE0EDB50D7
:10DCF0008C6E8D808D828A8A8D948D928D828D849A
:10DD00009568E552E7CFD9FF1200D9CFE6FFE1CF02
:10DD1000D9FF020EE126B00EDF6EB80EDF5C23E203
:10DD2000DFCFE6FFCADFE552020EE66EC6DFE55240
:10DD3000100EE66EC2DFE552010EDB6ADB50006EAC
:10DD4000016AD890015004E6840E005C000E015870
:10DD500008E2FE0EDBCFE6FFC4DFE552010EDB2A50
:10DD6000EDD7DF2ADAD7020EE15C03E200D0E16AE8
:10DD7000E552E16EE552E7CFD9FF1200D9CFE6FFB9
:10DD8000E1CFD9FF200E006EFE0EDBCFE7FF005083
:10DD9000E75EFE0EE7CFDBFFDBCFF6FFF76AF6BEEE
:10DDA000F768050EF702F3CFF7FFF602F3CFF6FFA1
:10DDB000F450F7269E0EF626FA0EF7220800F550CC
:10DDC000E66E8FDFE552FE0EDBCFF6FFF76AF6BE9A
:10DDD000F768050EF702F3CFF7FFF602F3CFF6FF71
:10DDE000F450F7269E0EF626FA0EF722010EF626BE
:10DDF000000EF7220800F550E66E73DFE552FE0EC6
:10DE0000DBCFF6FFF76AF6BEF768050EF702F3CF31
:10DE1000F7FFF602F3CFF6FFF450F7269E0EF62634
:10DE2000FA0EF722020EF626000EF7220800F55031
:10DE3000E66E57DFE552FE0EDBCFF6FFF76AF6BE61
:10DE4000F768050EF702F3CFF7FFF602F3CFF6FF00
:10DE5000F450F7269E0EF626FA0EF722030EF6264B
:10DE6000000EF7220800F550E66E3BDFE552FE0E8D
:10DE7000DBCFF6FFF76AF6BEF768050EF702F3CFC1
:10DE8000F7FFF602F3CFF6FFF450F7269E0EF626C4
:10DE9000FA0EF722040EF626000EF7220800F550BF
:10DEA000E66E1FDFE552E66A1CDFE55200D0E55260
:10DEB000E7CFD9FF1200D9CFE6FFE1CFD9FFE65275
:10DEC000FD0EDBCFE6FFF9DEE552020E006EFC0E22
:10DED000DBCFE7FF0050E726FC0EE7CFDBFFDB5090
:10DEE0000F0BE66EEADEE552FC0EDB380F0B0F0B74
:10DEF000100FE66EE2DEE552FE0EDBCFE6FF3EDF00
:10DF0000E55200D0E552E552E7CFD9FF1200D9CF54
:10DF1000E6FFE1CFD9FFFC0EDB50B00FE76EFC0E41
:10DF2000E7CFDBFFFB0EDBCFE6FFFC0EDBCFE6FF30
:10DF3000FD0EDBCFF6FFFE0EDBCFF7FF0800F5503E
:10DF4000E66EB9DFE552E552E552FD0EDB2ADBCF86
:10DF5000F6FFFE0E01E3DB2ADBCFF7FF0800F550EA
:10DF60000CE0FD0EDBCFF6FFFE0EDBCFF7FF080067
:10DF7000F550E66E03DFE552E8D7E552E7CFD9FF6B
:10DF80001200D9CFE6FFE1CFD9FFFC0EDB50B00F76
:10DF9000E76EFC0EE7CFDBFFFB0EDBCFE6FFFC0EF0
:10DFA000DBCFE6FFFD0EDBCFE9FFFE0EDBCFEAFFA6
:10DFB000EF50E66E80DFE552E552E552FD0EDB2ABA
:10DFC000DBCFE9FFFE0E01E3DB2ADBCFEAFFEF50F8
:10DFD0000BE0FD0EDBCFE9FFFE0EDBCFEAFFEF50DB
:10DFE000E66ECCDEE552EAD7E552E7CFD9FF120064
:10DFF000D9CFE6FFE1CFD9FF050EE126030EDB6A9C
:10E00000040EDB6A020E006EFA0EDBCFE7FF005053
:10E01000E726FA0EE7CFDBFFF90EDB50B00FDF6E1D
:10E02000FB0EDB50B00FDF5C35E2DFCFE6FF45DEF5
:10E03000E552FA0EDB500F0BE66E3FDEE552FA0EAC
:10E04000DB380F0B0F0B1009E66E37DEE552010EC1
:10E05000DB6AFC0EDB50F36E010EDBCFF4FFF350F6
:10E06000F45C16E2030EDB2A040E01E3DB2AFD0E4C
:10E07000DBCFF6FFDB2AFE0EDBCFF7FF01E3DB2A67
:10E080000800F550E66E2DDEE552010EDB2AE1D7E1
:10E09000DF2AC6D7050EE15C03E200D0E16AE55253
:10E0A000E16EE552E7CFD9FF1200D9CFE6FFE1CF0D
:10E0B000D9FF020EE126DE6ADD6ADECF00F0DDCF99
:10E0C00001F0FC0EDBCF02F0FD0EDBCF03F00150C0
:10E0D0000318E8AE02D0033404D00250005C0350B1
:10E0E00001581BE2FA0EDB50026E036ADE50022476
:10E0F000006EDD500320016E0050E66EFB0EDBCF9C
:10E10000E6FFFE0EDBCFE6FFD6DEE552E552E55236
:10E11000DF2A010E01E3DB2AD0D7020EE15C02E226
:10E12000E16AE552E16EE552E7CFD9FF1200D9CF9F
:10E13000E6FFE1CFD9FF020EE126FE0EDB50B00F65
:10E14000E76EFE0EE7CFDBFFDE6ADD6ADECF00F0B2
:10E15000DDCF01F0D890015004E6180E005C000EEF
:10E1600001581AE2FD0EDB50026E036ADE500224F3
:10E17000006EDD500320016E0050E66EFE0EDBCF18
:10E18000E6FF2D0EE66E97DEE552E552E552DF2AF8
:10E19000010E01E3DB2ADAD7DE6ADD6ADECF00F0AA
:10E1A000DDCF01F0D890015004E6180E005C000E9F
:10E1B00001581BE2FD0EDB50026E036ADE500224A2
:10E1C000006EDD500320016E0050E66EFE0EDB5047
:10E1D000040FE66E2D0EE66E6EDEE552E552E55258
:10E1E000DF2A010E01E3DB2AD9D7DE6ADD6ADECF42
:10E1F00000F0DDCF01F0D890015004E6050E005C80
:10E20000000E015830E2FD0EDBCFE6FFFE0EDB50C4
:10E21000026E036ADE500224006EDD500320016EA0
:10E220000050E66E7C0EE66E46DEE552E552E552A3
:10E23000FD0EDB50190FE66EFE0EDB50026E036A18
:10E24000DE500224006EDD500320016E0050E66EA9
:10E250007C0EE66E30DEE552E552E552DF2A010E15
:10E2600001E3DB2AC4D7020EE15C02E2E16AE55277
:10E27000E16EE552E7CFD9FF1200D9CFE6FFE1CF3B
:10E28000D9FF020EE126FD0EDB50B00FE76EFD0E4A
:10E29000E7CFDBFFDB50DF6EDF50006E016AFD0E63
:10E2A000DB50046E056AFB0EDB500424026EFC0E8C
:10E2B000DB500520036E03500118E8AE02D0013494
:10E2C00004D00050025C0150035836E3DFCFE6FF74
:10E2D000F4DCE552020EE66EF0DCE552100EE66E5E
:10E2E000ECDCE552FA0EDB50E76E010EE7CFDBFF08
:10E2F000DB50006E016AFA0EDB50046E056AF80E00
:10E30000DB500424026EF90EDB500520036E015031
:10E310000318E8AE02D0033404D00250005C03506E
:10E32000015808E2FE0EDBCFE6FFDBDCE552010E12
:10E33000DB2ADED7DF2AB0D7020EE15C03E200D091
:0EE34000E16AE552E16EE552E7CFD9FF120027
:02E34E00D9CF25
:10E35000E6FFE1CFD9FFE65295688D808D828A8AEB
:10E360008D948D900000000000000000000000006F
:10E3700000008D8000008D9000008350DF6E8D8046
:10E380008D84E552E552E7CFD9FF1200D9CFE6FFE1
:10E39000E1CFD9FF020EE126FD0EDBCFE9FFFE0E35
:10E3A000DBCFEAFFEF50DE6EDD6AF90EDBCFE9FF6F
:10E3B000FA0EDBCFEAFFEF50E66EFD0EDBCFE9FF92
:10E3C000FE0EDBCFEAFFE552E750EF6EF90EDBCF32
:10E3D000E9FFFA0EDBCFEAFFDFCFEFFFFB0EDBCF6B
:10E3E000E9FFFC0EDBCFEAFFEF50DE6EDD6AF70ED1
:10E3F000DBCFE9FFF80EDBCFEAFFEF50E66EFB0E56
:10E40000DBCFE9FFFC0EDBCFEAFFE552E750EF6E12
:10E41000F70EDBCFE9FFF80EDBCFEAFFDFCFEFFF30
:10E42000020EE15C02E2E16AE552E16EE552E7CFFD
:10E43000D9FF1200D9CFE6FFE1CFD9FFE652E00EB7
:10E44000E66E5DEC6EF0E55282DFDF6EFE0EDB50B5
:10E45000DF1ADFCFE6FF71EC6EF0E552EE0EE66EEE
:10E460005DEC6EF0E552E552E552E7CFD9FF1200C0
:10E47000D9CFE6FFE1CFD9FFFE0EDB50B00FE66E3D
:10E480005DEC6EF0E552020E006EFD0EDBCFE7FF95
:10E490000050E726FD0EE7CFDBFFDB500F0BE66EEB
:10E4A0005DEC6EF0E552FD0EDB380F0B0F0B100F1D
:10E4B000E66E5DEC6EF0E552E552E7CFD9FF120053
:10E4C000D9CFE6FFE1CFD9FF040EE126DF6AFD0ECA
:10E4D000DB40E840E8401F0BE76E020EE7CFDBFFB2
:10E4E000FD0EDB50070BE76E030EE7CFDBFF010EDF
:10E4F000DB6A030EDB50070815E3FC0EDB5012E06D
:10E50000010EF36E030EDB5004E0D890F336E806FC
:10E51000FCE1F350DF12010EDB2AFC0EDB06030EDA
:10E52000DB2AE7D7FE0EDBCFE6FF020EDBCFE6FFEE
:10E530009FDFE552E552DFCFE6FF7CDFE552FB0EC1
:10E54000DBCF00F0000EE76E0018E8AE02D000341A
:10E5500003D0E750D880005419E2FE0EDB50016E64
:10E56000026AD890025004E6830E015C000E025845
:10E570000DE2FE0EDB28E66E020EDBCFE6FF78DF53
:10E58000E552E552DFCFE6FF55DFE552FB0EDBCF6C
:10E5900000F0010EE76E0018E8AE02D0003403D0A0
:10E5A000E750D880005411E2FE0EDB5000080DE267
:10E5B000FE0EDB04E66E020EDBCFE6FF59DFE5520E
:10E5C000E552DFCFE6FF36DFE552010EDB50006E8D
:10E5D000040EE15C03E200D0E16AE552E16E005016
:10E5E000E552E7CFD9FF1200D9CFE6FFE1CFD9FF3F
:10E5F000020EE126010EDF6EFC0EDBCF00F0000EF6
:10E60000E76E0018E8AE02D0003403D0E750D8809F
:10E61000005407E2FD0EDB50000803E2FD0EDB06AE
:10E62000DF2AFC0EDBCF00F0010EE76E0018E8AE2B
:10E6300002D0003403D0E750D880005408E2FD0E29
:10E64000DB50DF24016E3F0E015C01E2DF2ADF5068
:10E650001EE0E66ADFCFE6FFFD0EDBCFE6FFFE0E33
:10E66000DBCFE6FF2DDFE552E552E552E552E76EDE
:10E67000010EE7CFDBFFDB50DF5EFD0EDBCFE7FFF8
:10E68000010EDB50E726FD0EE7CFDBFFE0D7020EE1
:10E69000E15C02E2E16AE552E16EE552E7CFD9FFC3
:10E6A0001200D9CFE6FFE1CFD9FF160EE126FD0E0D
:10E6B000DBCF00F0FB0EDB50D88000541DE2D950B8
:10E6C000FB0FE66EFF0EDA20E66ED950FC0FE66E09
:10E6D000FF0EDA20E66ED950FD0FE66EFF0EDA204F
:10E6E000E66ED950FE0FE66EFF0EDA20E66E4EDEC5
:10E6F000006E080EE15E0050FB0EDBCFE6FFFD0E64
:10E70000DB50E552E75C010FE76E060EE7CFDBFF5B
:10E71000FE0EDB50F36EFC0EDBCFF4FFF350F45C27
:10E7200014E3FC0EDBCFE6FFFE0EDB50E552E75CA8
:10E73000010FE76E050EE7CFDBFF010EF36E070E4C
:10E74000F3CFDBFF080EDB6A10D0FE0EDBCFE6FF57
:10E75000FC0EDB50E552E75C010FE76E050EE7CFDC
:10E76000DBFF070EDB68080EDB68050EDB50F36E7F
:10E77000060EDBCFF4FFF350F45C01E2CCD0060EC2
:10E78000DB50640D0D0EF3CFDBFF0E0EF4CFDBFF7D
:10E79000050EDB50006E016A0D0EDBCF20F00E0E71
:10E7A000DBCF21F000C025F001C026F043EC76F06D
:10E7B0000B0E20C0DBFF0C0E21C0DBFFFE0EDB507A
:10E7C000DF6EFD0EDB50E76E010EE7CFDBFF150EAF
:10E7D000DB6AFC0EDB50006E016A00C020F001C055
:10E7E00021F0070EDBCF25F0080EDBCF26F069EC19
:10E7F00076F0090E1EC0DBFF0A0E1FC0DBFFDF50E4
:10E80000026E036A02C020F003C021F0070EDBCFC6
:10E8100025F0080EDBCF26F069EC76F01EC000F084
:10E820001FC001F0090EDBCF04F00A0EDBCF05F0AC
:10E8300005500118E8AE02D0013404D00050045C49
:10E840000150055867E3640E026E036A150EDB5033
:10E85000E76E0B0EDBCF00F00C0EDBCF01F0E750C4
:10E860000026000E0122130E00C0DBFF140E01C0B3
:10E87000DBFF00C020F001C021F002C025F003C082
:10E8800026F043EC76F0020E20C0DBFF130EDBCF48
:10E8900000F0140EDBCF01F0640E256E266A00C076
:10E8A00020F001C021F043EC76F01CC000F01DC048
:10E8B00001F0150E00C0DBFF020EDB5027E0FA0E60
:10E8C000DBCFE6FF020EDBCFE6FF010EDBCFE6FF7C
:10E8D000DFCFE6FFF5DDE552E552E552E552E76EA2
:10E8E000040EE7CFDBFF020EDBCFE7FF040EDB50A9
:10E8F000E75E020EE7CFDBFF010EDBCFE7FF040E82
:10E90000DB50E726010EE7CFDBFFD6D7070EDB5043
:10E91000DF2675D785D0050EDB50640D110EF3CFC1
:10E92000DBFF120EF4CFDBFF060EDB50006E016A38
:10E93000110EDBCF20F0120EDBCF21F000C025F04E
:10E9400001C026F043EC76F00F0E20C0DBFF100E66
:10E9500021C0DBFFFE0EDB50DF6EFD0EDB50E76EED
:10E96000010EE7CFDBFF150EDB6A010EDBCF00F0F7
:10E97000FB0EDB50D880005453E3640E026E036A32
:10E98000150EDB50E76E0F0EDBCF00F0100EDBCF65
:10E9900001F0E7500026000E0122130E00C0DBFF3D
:10E9A000140E01C0DBFF00C020F001C021F002C046
:10E9B00025F003C026F043EC76F0030E20C0DBFF09
:10E9C000130EDBCF00F0140EDBCF01F0640E256ECA
:10E9D000266A00C020F001C021F043EC76F01CC094
:10E9E00000F01DC001F0150E00C0DBFF030EDBCFF1
:10E9F000F3FFDB06F350000910E0FA0EDBCFE6FF71
:10EA0000010EDBCFE6FFDFCFE6FFEEDDE552E5529C
:10EA1000E552070EDB50DF26E9D7010EDB2AA5D72A
:10EA2000150EDB5032080CE2FA0EDBCFE6FF010ECA
:10EA3000DBCFE6FFDFCFE6FFD7DDE552E552E5525B
:10EA4000160EE15C02E2E16AE552E16EE552E7CFC3
:04EA5000D9FF1200D8
:0CEA5400199E08D0199E21AE05D0206C40
:10EA6000211EE86A2122198E21C01BF020C01AF055
:10EA70002B6A2A6A8E0E1C6E1D6AE1EF76F0277EE5
:10EA8000196A1DEC77F035EC77F019B6C5EF76F022
:10EA900019A20AD019AA03D019BEC5EF76F019A49D
:10EAA000D1EF76F0CEEF76F019AA05D019ACD1EF00
:10EAB00076F0CEEF76F019A00AD019A808D019BECA
:10EAC00004D019A402D0DAEF76F0DEEF76F02A6AED
:10EAD0001D6A2750225C296E10E31FC02BF020C056
:10EAE0001AF021C01BF022C028F024C01FF025C05E
:10EAF00020F026C021F0193A09D024C02BF025C0FF
:10EB00001AF026C01BF027C028F0296C199E19BCEA
:10EB1000198E28C01CF019B00DEF77F01A0E29607D
:10EB20000DEF77F01C6A226A19A408D01F6C201E12
:10EB3000211E221EE86A20222122222219AC08D09E
:10EB40002B6C1A1E1B1E1C1EE86A1A221B221C227A
:10EB50001E6A295207E02234213220321F321E322F
:10EB6000292EF9D71F502B2620501A2221501B2264
:10EB700022501C221EC02AF0199E1CAE0BD02A6CFB
:10EB80002B1E1A1E1B1E1C1EE86A2B221A221B2279
:10EB90001C22198E1CA006D0D8801B321A322B32B0
:10EBA0002A32282A28C01CF0E1EF76F0196A1DEC01
:10EBB00077F035EC77F019B6C5EF76F019A205D0ED
:10EBC00019B8C5EF76F0CCEF76F019AA05D019B0D8
:10EBD000C5EF76F0CCEF76F019B002D019A802D0CC
:10EBE000D8EF76F01D6A275022241C6EE86A1D2299
:10EBF0007E0E1C5EE86A1D5A2A6A2B6A1A6A1B6A14
:10EC000026502102F4CF1BF0F3CF1AF02550210239
:10EC1000F3502B26F4501A22000E1B2226502002FD
:10EC2000F3502B26F4501A22000E1B2224502102EE
:10EC3000F3502A26F4502B22000E1A221B222550B4
:10EC40002002F3502A26F4502B22000E1A221B22F7
:10EC500026501F02F3502A26F4502B22000E1A22AF
:10EC60001B2224502002F4502A26000E2B221A22A6
:10EC70001B2225501F02F4502A26000E2B221A2296
:10EC80001B22E1EF76F0186A26AE4CEF76F0256C89
:10EC9000261EE86A2622181E21AE54EF76F0206C5C
:10ECA000211EE86A2122181EB8EC01F021BE64EF93
:10ECB00076F018AE000C206C211EE86A21221C6C34
:10ECC0001D1EE86A1D22000C18BE5BEF76F0198845
:10ECD000FF0C21C02BF020C02AF020502502F4CFD9
:10ECE0001FF0F3CF1EF021502602F4CF21F0F3CF16
:10ECF00020F02502F3501F26F4502022E86A21223A
:10ED00002A502602F3501F26F4502022E86A2122BE
:10ED100026AE8FEF76F02A50205E2B50215A2BAE74
:10ED2000000C2550205E2650215A000C196A1DEC5B
:10ED300077F019B6A0EF76F019A20ED019B405D06D
:10ED40007F0E216EFF0E206E1FD0800E216E206A76
:10ED50001BD0216A206A18D019B0FBD78F0E226011
:10ED6000EDD77E0E2264F5D78E0E225C05E0D8909A
:10ED700021322032222AF8D719A406D0206C211E75
:10ED8000E86A212221AEE5D712007F0E226EFF0E27
:10ED9000216E206E1F6E12007F0E19BEFF0E226EB6
:10EDA00002D07F0E226E800E216E206A1F6AF3D77A
:10EDB00019AE04D0800E226E216AF7D7226A216A2A
:10EDC000F4D71B501A102B102A10F8E01DBEF0D7F4
:10EDD0001BBE0CD01C501D10EBE0D8902A362B36F1
:10EDE0001A361B361C06D8A01D06F2D71D50D4E1DA
:10EDF0001C28D2E02AAE11D07F0E2A1402E12BA0EB
:10EE00000CD02B2AE86A1A221B2207E3D8801B3277
:10EE10001A322B321C2A1C28BFE01C50C9E02BC020
:10EE20001FF01AC020F01B34216E1C30226E2132DC
:10EE3000229E19BE228ECBEF76F02136223602E3D7
:10EE40001984197E06E11980226A216A206A1F6AE4
:10EE50001200222803E0D88021321200D8902132FB
:10EE600002E119821200198612002636273602E3C3
:10EE7000198C197E06E11988276A266A256A246A90
:10EE80001200272803E0D88026321200D8902632BC
:10EE9000EAE1198A1200199E0CD0199E21AE09D000
:10EEA0001E6C1F1E201E211EE86A1F222022212206
:10EEB000198E21C01BF020C01AF01FC02BF01EC0FD
:10EEC0002AF09E0E1C6E1D6AE1EF76F0196A1DECA9
:10EED00077F035EC77F019B6C5EF76F019A205D0CA
:10EEE00019BAC5EF76F0CCEF76F019BAD8EF76F014
:10EEF00019A005D019B8C5EF76F0D8EF76F019B89B
:10EF0000CCEF76F01D6A7F0E22241C6EE86A1D226B
:10EF100027501C5EE86A1D5A1A0E286E226A2A6A59
:10EF20002B6A1A6A1B6A24501F5E2550205A2650ED
:10EF3000215A000E225A09E724501F26255020226C
:10EF400026502122000E222201D02A8AD8901F3674
:10EF5000203621362236D8902A362B361A361B36E2
:10EF6000282EE1D7215020101F10D8A42A8AE1EFC3
:10EF700076F0196A1DEC77F019B6C3EF77F019A295
:10EF80000FD019B407D07F0E216EFF0E206E1F6EBA
:10EF90001E6E25D0800E216E01D0216A000EF6D79C
:10EFA00019B0FBD71E6A9F0E2260EBD77E0E22643B
:10EFB000F4D79E0E225C07E0D890213220321F3217
:10EFC0001E32222AF6D719A40AD01E6C1F1E201E3C
:10EFD000211EE86A1F222022212221AEDED7120044
:10EFE000F9EC77F019B6000C19B0000C19A4000C5C
:10EFF000010C196A1DEC77F035EC77F019B61200A8
:10F0000019AE08D019A004D019A802D01980120096
:10F01000199012002750225C0BE12650215C08E178
:10F020002550205C05E124501F5C02E1198012008C
:10F03000D8A002D0198E10D0225027C022F0276EFF
:10F04000215026C021F0266E205025C020F0256ECC
:10F050001F5024C01FF0246E2750225C10E0FF0FC9
:10F0600009E0199019B403D019AE1984120019AE31
:10F0700019941200272AD89026322532243224509F
:10F080001F5E2550205A2650215A21BEEAD7D8901B
:0CF090001F3620362136222EF8D7C8D7B4
:04F09C00D9CFE6FFE3
:10F0A000DACFE6FFE1CFD9FFE2CFDAFF220EE1248B
:10F0B00002E3E168E652E16ED950130FE66E000EEE
:10F0C000DA20E66EA8DA3DEC7EF0006E060EE15C1A
:10F0D00002E2E16AE552E16E0050E76E0E0EE7CF04
:10F0E000DBFFDB50840B0CE0210E0001A56FA66B4B
:10F0F0000F0EDB68100EDB68110EDB687F0E6ED022
:10F100008ADA36DA020E1EC0DBFF030E1FC0DBFFF9
:10F11000040E20C0DBFF050E21C0DBFF87DA246A66
:10F12000100E256E490E266E460E14DAF0EC77F0BE
:10F13000010A32E07BDA67DA0DDA66EC77F0BFD9E4
:10F14000060EDBCF1FF0070EDBCF20F0080EDBCF63
:10F1500021F0090EDBCF22F0B9EC77F04DEC77F01F
:10F16000AED964DA060EDBCF08F0070EDBCF09F06C
:10F17000080EDBCF0AF0090EDBCF0BF044DA276E66
:10F1800008C01FF009C020F00AC021F00BC022F017
:10F1900048DA3FEC75F0C4D9F90EDB5012E00E0EE0
:10F1A000DB040BE1FA0EDBCF00F0FB0EDBCF01F04E
:10F1B000FC0EDBCF02F0FD0E52D167D9266AF8D9DA
:10F1C00047D00E0EDB0419E10F0EDB6A100EDB6A6E
:10F1D000800EF36E110EF3CFDBFF3F0EF36E120EB7
:10F1E000F3CFDBFF0F0EDBCF00F0100EDBCF01F013
:10F1F000110EDBCF02F0120E32D1190EDB6A45D9A7
:10F20000800E266ED5D9006A016A026A3F0E036E2F
:10F21000D950060FE96E000EDA20EA6EEECF1FF02D
:10F22000EECF20F0EECF21F0EFCF22F000C024F09F
:10F2300001C025F002C026F003C027F03FEC75F0B6
:10F2400022C0EDFF21C0EDFF20C0EDFF1FC0EFFF8A
:10F25000DF50010B0AE0190EDB5002E0000E01D076
:10F26000010EE76E190EE7CFDBFF8CD9060EDBCF60
:10F270000CF0070EDBCF0DF0080EDBCF0EF0090E01
:10F28000DBCF0FF0246A256A490E266E400E276EEA
:10F290000CC01FF00DC020F00EC021F00FC022F0F6
:10F2A000D6EC75F05CD9A6D995D93FEC75F077D935
:10F2B000060EDBCF14F0070EDBCF15F0080EDBCF08
:10F2C00016F0090EDBCF17F0220E246EAA0E256E63
:10F2D0007D0E266E3A0E276E14C01FF015C020F06A
:10F2E00016C021F017C022F0D6EC75F01FC010F048
:10F2F00020C011F021C012F022C013F0EDD83FEC75
:10F3000075F00A0E1FC0DBFF0B0E20C0DBFF0C0EDA
:10F3100021C0DBFF0D0E22C0DBFFD9500A0FE96EC2
:10F32000000EEAD825D91EC000F01FC001F020C091
:10F3300002F021C003F0246A256A800E266E390E81
:10F34000276E1EC01FF04FD9F0EC77F0010A13E1D1
:10F35000D9500A0FE96E000EDA20EA6E020EEECFE7
:10F36000DBFF030EEECFDBFF040EEECFDBFF050E5F
:10F37000EECFDBFF68D0E1D80A0EDBCF24F00B0E16
:10F38000DBCF25F00C0EDBCF26F00D0EDBCF27F008
:10F39000D6EC75F01A0E1FC0DBFF1B0E20C0DBFF82
:10F3A0001C0E21C0DBFF1D0E22C0DBFF5B0E1F6E9B
:10F3B0009C0E206E2E0E216E360E226E72D8CFD885
:10F3C000220E246EB20E256E4F0E266EB90E32D965
:10F3D0009ED83E0E246E870E256E080E266E3C0EBD
:10F3E00029D9DDD8A40E246EAA0E256E2A0E266E0B
:10F3F000BE0E20D91E0E1FC0DBFF1F0E20C0DBFF7C
:10F40000200E21C0DBFF210E22C0DBFF0A0EDBCF66
:10F4100000F00B0EDBCF01F00C0EDBCF02F00D0E77
:10F42000DBCF03F08AD81E0EDBCF24F01F0EDBCF1C
:10F4300025F0200EDBCF26F0210EDBCF27F0F1D810
:10F4400040EC75F06DD8190EDB5008E09BD8246AAB
:10F45000256A800E266EBF0EF0D803D042D8DBCFCF
:10F4600003F000C01EF001C01FF002C020F003C076
:10F4700021F0220EE15C02E2E16AE552E16EE55222
:10F48000E5CFDAFFE7CFD9FF12007CD8830E246ED8
:10F49000F90E256EA20E266E3E0ECFD8246A256A7E
:10F4A00012001A0EDBCF24F01B0EDBCF25F01C0E52
:10F4B000DBCF26F01D0EDBCF27F0D6EF75F0060E62
:10F4C0001FC0DBFF070E20C0DBFF080E21C0DBFFE3
:10F4D000090E22C0DBFF12008DD800C01FF0F3EF31
:10F4E0007AF0020EDBCF00F0030EDBCF01F0040E4A
:10F4F000DBCF02F0050E1200DA20EA6EEECFE6FF57
:10F50000EECFE6FFEECFE6FFEFCFE6FF12001FC023
:10F5100004F020C005F021C006F022C007F0120060
:10F52000020E1FC0DBFF030E20C0DBFF040E21C054
:10F53000DBFF050E22C0DBFF12000A0EDBCF1FF03F
:10F540000B0EDBCF20F00C0EDBCF21F00D0EDBCF4E
:10F5500022F01200276E00C01FF0F3EF7AF01FC0F8
:10F5600008F020C009F021C00AF022C00BF0120000
:10F5700012EC01F0E552E552E552E5521200276E19
:10F5800040EF75F0020EDBCF04F0030EDBCF05F089
:10F59000040EDBCF06F0050EDBCF07F012001FC014
:10F5A00000F020C001F021C002F022C003F01200E0
:10F5B0003F0EE5DF96EC76F020C0DEFF21C0DDFFD8
:10F5C000000EDFCF20F0010EDBCF21F02CEC75F028
:10F5D0005FEF7AF004C01FF005C020F006C021F0F4
:10F5E00007C022F0120001C020F002C021F003C0C9
:10F5F00022F012001FC024F020C025F021C026F008
:10F6000022C027F01200DB0E246E0F0E256EC90EED
:10F61000266E400E1200D950FA0FE96EFF0E7CEFF5
:10F620007AF0D6EC75F073DF6CEF7AF05ADFDBCF4F
:10F6300003F01200A4DF51EF7AF0276ECBDFD6EC97
