:020000040000FA
:0600000081EF03F0120085
:020006001200E6
:0600080004EF50F01200AD
:060018000CEF50F0120095
:02001E00D9CF38
:10002000E6FFDACFE6FFE1CFD9FFE2CFDAFFE65213
:10003000006801687F0E026E036AD950FA0FE96EFC
:10004000FF0EDA20EA6EEE500016EE500116EE506A
:100050000216EE5003166AD800C0EEFF01C0EEFF94
:1000600002C0EEFF03C0EEFFFD0EDB50800B02E08E
:10007000010E01D0000EE66E59D8060EE926000EDC
:10008000EA22E552E750EF6EFC0EDBCF00F0FD0EEA
:10009000DBCF01F0D89000360136FC0E00C0DBFF4C
:1000A000FD0E01C0DBFFDB50E66E40D8040EE926F2
:1000B000000EEA22E552E750EE6EED6AFD0EDB50CF
:1000C000006E016AFF0E001818E1015016E12ED8EB
:1000D000EECF00F0EECF01F0EECF02F0EFCF03F065
:1000E000005001100210031006E0210E0001A56F60
:1000F000A66B800E0BD0040E09D0FD0EDB5008E17C
:1001000015D8EE6AEE6AEE6AEE6A010EDF6E06D070
:10011000020EDF6E0BD8EE52EE52EE8EDF50E5523D
:10012000E552E5CFDAFFE7CFD9FF1200F80EDBCFBB
:0A013000E9FFF90EDBCFEAFF120031
:06013A000001A7B122D074
:10014000A7838B809490550EA76EAA0EA76E0E0102
:10015000FF910E0ED16F550EA76EAA0EA76EFF81EE
:100160000F0EBA6ECF0EBA140009BA6EBB6A0F0139
:10017000526B800ECB6E040ECA6EA496600E776E24
:100180007F0E766E12000001A791A7938B8094904A
:1001900012000001A7A109D08B50010B04E194507B
:1001A000010B01E1010CA791C8DF0001A7A3C5DF86
:1001B000A4A63AD0A496BA50300BE842E842E842EE
:1001C000E842030819E1400EBB5C10E18B9094906B
:1001D000BA6ACA6A0E01D16B0F01526BCB68766A9C
:1001E0007768A4960001A781A793010CBB2ACF0EC4
:1001F000BA140009BA6E000CBA0EE96E0F0EEA6E60
:10020000EF50300BE842E842E842E842E82AE85082
:10021000030BF36EF46EF346F346F346F346CF0E4C
:0A022000EF14F310EF6EF450000C21
:06022A00416C61726D00E1
:100230005365742044617465005365742054696D7E
:1002400065003132482F32344820496E7465727629
:10025000616C00446973706C6179204D6F64650056
:100260004F4646004F4E00416C61726D204D656EE9
:100270007500253032642F253032640053657420B8
:1002800044617465204D656E7500504D00414D0010
:10029000253032643A253032643A253032640053D6
:1002A00065742054696D65204D656E750032344863
:1002B0000031324800486F75727320496E74657260
:1002C00076616C00416E616C6F6720436C6F636B8D
:1002D000004469676974616C20436C6F636B004410
:1002E0006973706C6179204D6F6465204D656E7522
:0102F000000D
:0102F100000C
:0E02F200D9CFE6FFDACFE6FFE1CFD9FFE2CFAA
:10030000DAFFE652E652E652E652D950F90F006E95
:10031000FF0EDA20016E020E00C0DBFF030E01C0EB
:10032000DBFF020EDBCFE6FF030EDBCFE6FFF90EAD
:10033000DBCFE6FFFA0EDBCFE6FFFB0EDBCFE6FFFF
:10034000D950FC0FE66EFF0EDA20E66ED6EC67F0B1
:10035000006E070EE15C02E2E16AE552E16E0050D8
:10036000F3CFDEFFF4CFDDFFFC0EDBCFE9FFFD0EA8
:10037000DBCFEAFFEF6ADECF00F0DDCF01F000C097
:10038000F3FF01C0F4FF040EE15C02E2E16AE55212
:0E039000E16EE552E5CFDAFFE7CFD9FF1200AC
:02039E001E0E31
:1003A000F66EA00EF76E000EF86E00010900F55013
:1003B000966F0900F550976F03E1966701D03DD025
:1003C0000900F550916F0900F550926F0900F55042
:1003D000936F09000900F550E96E0900F550EA6EC7
:1003E000090009000900F550946F0900F550956F58
:1003F00009000900F6CF98F0F7CF99F0F8CF9AF0FE
:1004000091C0F6FF92C0F7FF93C0F8FF000194532C
:1004100002E1955307E00900F550EE6E9407F8E20B
:100420009507F9D798C0F6FF99C0F7FF9AC0F8FF73
:0C04300000019607000E975BBFD712007A
:04043C00D9CFE6FF2F
:10044000DACFE6FFE1CFD9FFE2CFDAFFFB0EDBCF59
:1004500000F0FC0EDBCF01F00001800E01141AE168
:10046000FB0EDBCFE9FFFC0EDBCFEAFFEECFF3FFA5
:10047000EDCFF4FFEE2A000EEF22F3CFE9FFF4CF29
:10048000EAFFFD0EDBCFEFFFEF50016AF36E01C014
:10049000F4FF10D0FB0EDB50FE0806E1FD0EDBCFB3
:1004A000E6FF8FEC03F005D0FD0EDBCFE6FF03EC9B
:1004B00050F0E552E552E5CFDAFFE7CFD9FF120061
:1004C0001E502302F3CF1AF0F4CF1BF02402F35096
:1004D0001B26000EF4201C6E1E502502F3501C2615
:1004E000000EF4201D6E1E502602F3501D261F50D4
:1004F0002302F3501B26F4501C22000E1D221F5015
:100500002402F3501C26F4501D221F502502F350E4
:100510001D2620502302F3501C26F4501D2220508B
:100520002402F3501D2621502302F3501D261200F1
:10053000FE0EE3CFE9FFFF0EE3CFEAFFF36AF46AB2
:10054000EE5203E0F34AF42AFBD71200FF0EE3CF8A
:10055000F8FFE552FF0EE3CFF7FFE552FF0EE3CFC2
:10056000F6FFE552E66AE66AE66A0900F55209E036
:10057000FD0EE32A05E1FE0EE32A02E1FF0EE32A67
:10058000F4D7FD0EE3CF1FF0FE0EE3CF20F0FF0EF9
:06059000E3CF21F0120090
:0A059600D9CFE6FFDACFE6FFE1CF90
:1005A000D9FFE2CFDAFFE652E652D950FD0F006ED6
:1005B000FF0EDA2000C0DEFFDD6EDECFE9FFDDCF0B
:1005C000EAFFEF9EFA0EDBCF00F0FB0EDBCF01F06F
:1005D000FC0EDBCF02F0FD0EDBCF03F000C01EF0FF
:1005E00001C01FF002C020F003C021F0E552E55227
:0C05F000E552E5CFDAFFE7CFD9FF12009B
:0405FC00D9CFE6FF6E
:10060000DACFE6FFE1CFD9FFE2CFDAFFE66AD950D1
:10061000FA0FE96EFF0EDA20EA6EEECFE6FFEECFBC
:10062000E6FFEECFE6FFEFCFE6FF5EEC79F0006E7F
:10063000050EE15C02E2E16AE552E16E0050E5522E
:0A064000E5CFDAFFE7CFD9FF120083
:06064A001D6A1C6A1B6A18
:100650001A6A200EE76ED8901E361F3620362136D5
:100660001A361B361C361D3623501A5C24501B5874
:1006700025501C5826501D5809E323501A5E24505B
:100680001B5A25501C5A26501D5A1E2AE72EE4D705
:02069000120056
:0E0692001D6A1C6A100EE76ED89020362136C5
:1006A0001C361D3625501C5C26501D5805E3255070
:0E06B0001C5E26501D5A202AE72EF0D712009D
:0206BE00F36ADD
:1006C000F46AFF0EE124E96EFF0EE220EA6EED66A9
:1006D00007D02F0EEF6404D03A0EEF6001D0F32A5A
:0206E000120006
:0E06E200C00EF36E00EE00F00E0E01D81200F6
:1006F000EA6002D0EE6AFCD7F350E9601200EE6ABD
:02070000FCD724
:0E0702001DEE00F02DEE00F0F86A199CCFEC11
:0E07100001F003EC00F037EC67F0FBD71200AD
:02071E00FF0ECC
:10072000E350ADBA04D0B06AAC8EAD8A949CADA251
:0A073000FED7AE6EF36EF46A1200FD
:06073A00000000000000B9
:100740000100010020000100000000000041001F26
:06075000000000000000A3
:06A0000081EF03F01200E5
:02A00600120046
:06A008001CEF50F01200F5
:06A0180068EF50F0120099
:02A01E0002003E
:10A020003A070000600000001C000000F102000080
:08A03000A70000000100000080
:08A03800DACFE4FFE2CFDAFF0A
:10A04000E9CFE4FFEACFE4FFF6CFE4FFF7CFE4FF88
:10A05000F5CFE4FFF3CFE4FFF4CFE4FFFACFE4FF62
:10A0600000EE18F0140EE80403E3EECFE4FFFBD794
:10A0700000EE00F0180EE80403E3EECFE4FFFBD798
:10A08000E6527EEC63F0F294E55200EE17F0180E03
:10A09000E80403E3E5CFEDFFFBD700EE2BF0140E51
:10A0A000E80403E3E5CFEDFFFBD7E5CFFAFFE5CF0B
:10A0B000F4FFE5CFF3FFE5CFF5FFE5CFF7FFE5CF01
:10A0C000F6FFE5CFEAFFE5CFE9FFE5CFDAFF1100C4
:10A0D000D8CFE4FFE0CFE4FFE46EDACFE4FFE2CFD5
:10A0E000DAFFE652E552E5CFDAFFE550E5CFE0FFD3
:10A0F000E5CFD8FF1000FEEC7EF069EC7FF09EEC1F
:10A100007DF0FEEC6DF0E66AE3EC6EF0E5521200D5
:10A11000C9EC00F0000901E1FBD70F01486949696A
:10A120007BEF50F081B01FD0000178C000F079C003
:10A1300001F07AC002F07BC003F0782B000E792387
:10A140007A237B23D8800A0E0054000E0154000E9F
:10A150000254000E035406E2786B796B7A6B7B6BCA
:10A16000010E776F11D0000177050EE1785179115A
:10A170007A117B1104E1776B010E08D005D07807C6
:10A18000000E795B7A5B7B5B000E00D01200D9CFAA
:10A19000E6FFE1CFD9FF020EE126DE6ADD6A130E8B
:10A1A000C26EC450026E02C003F0026AC3500001C6
:10A1B0000224006E000E0320016E00C0DEFF01C00D
:10A1C000DDFFDECF00F0DDCF01F0800E011411E1E4
:10A1D000DECF02F0DDCF03F0D890035004E6CC0EC2
:10A1E000025C000E035805E2020EF36EF46A5CD0C6
:10A1F0005BD0DECF00F0DDCF01F0D890015004E657
:10A20000CC0E005C000E015811E3DECF02F0DDCF72
:10A2100003F0D890035004E6940E025C010E03583C
:10A2200005E2030EF36EF46A3FD03ED0DECF00F0BD
:10A23000DDCF01F0D890015004E6940E005C010ED1
:10A24000015811E3DECF02F0DDCF03F0D8900350C8
:10A2500004E65E0E025C020E035805E2040EF36E85
:10A26000F46A22D021D0DECF00F0DDCF01F0D8900B
:10A27000015004E65E0E005C020E015811E3DECFD1
:10A2800002F0DDCF03F0D890035004E6280E025C04
:10A29000030E035805E2050EF36EF46A05D004D0F0
:10A2A000060EF36EF46A00D0020EE15C02E2E16A8F
:10A2B000E552E16EE552E7CFD9FF1200D9CFE6FFB4
:10A2C000E1CFD9FFFD0EDBCF20F0FE0EDBCF21F07A
:10A2D000020E201801E121504EE0010E201801E18C
:10A2E000215027E0205001E1215001E066D01E0EF0
:10A2F000E66EB40EE66E5F0EE66EB9EC6FF0E552F8
:10A30000E552E552210EE66EB40EE66E5F0EE66E85
:10A31000B9EC6FF0E552E552E552240EE66EB40E4C
:10A32000E66E5F0EE66EB9EC6FF0E552E552E5526F
:10A3300044D02F0EE66EB40EE66E5F0EE66EB9ECFC
:10A340006FF0E552E552E552320EE66EB40EE66E5F
:10A350005F0EE66EB9EC6FF0E552E552E552350E50
:10A36000E66EB40EE66E5F0EE66EB9EC6FF0E55287
:10A37000E552E55222D0410EE66EB40EE66E5F0E57
:10A38000E66EB9EC6FF0E552E552E552440EE66E2A
:10A39000B40EE66E5F0EE66EB9EC6FF0E552E55274
:10A3A000E552470EE66EB40EE66E5F0EE66EB9EC51
:10A3B0006FF0E552E552E55200D0E552E7CFD9FF04
:10A3C0001200D9CFE6FFE1CFD9FF090EE126010E39
:10A3D000F36E060EF3CFDBFF070EDB6A010EF36EA2
:10A3E000080EF3CFDBFF080EDB502FE0E66AE3EC4C
:10A3F0006EF0E552120EE66EE66ADF0EE66E020EB3
:10A40000E66EE5EC6FF0E552E552E552E552120ECC
:10A41000E66E030EE66ED10EE66E020EE66EE5EC1B
:10A420006FF0E552E552E552E552120EE66E050E6A
:10A43000E66EC40EE66E020EE66EE5EC6FF0E552D7
:10A44000E552E552E552080EDB6AD950060FE96E77
:10A45000DACFEAFF010EEE1801E1ED5011E1040E32
:10A46000E66EE66AE66A000EE66EE66A030EE66EE1
:10A47000E6689BEC71F0006E070EE15E005010D0B4
:10A48000040EE66EE66AE66A000EE66EE66A050E01
:10A49000E66EE6689BEC71F0006E070EE15E005020
:10A4A00041DE000911E0D950060FE96EDACFEAFF6C
:10A4B000010EEE1801E1ED5004E10001010E6C6F98
:10A4C00002D000016C6BC2D069EC7FF0010EE66E29
:10A4D00001EC7FF0E552040EF3CFDBFF050EF4CF65
:10A4E000DBFF040EDBCF00F0050EDBCF01F0D890D0
:10A4F000015004E6840E005C030E01581BE2040EBA
:10A50000DBCF00F0050EDBCF01F0D890015004E660
:10A51000840E005C030E01580CE2010EE66E01ECA5
:10A520007FF0E552040EF3CFDBFF050EF4CFDBFF27
:10A53000E6D78CD0E66A01EC7FF0E552F3CFDEFF80
:10A54000F4CFDDFF030EE66E01EC7FF0E552020E64
:10A55000F3CFDBFF030EF4CFDBFFDECF00F0DDCF68
:10A5600001F0D890015004E6840E005C030E0158FF
:10A570002DE2DECF00F0DDCF01F0D890015004E6EF
:10A58000840E005C030E015809E2E66A01EC7FF0DC
:10A59000E552F3CFDEFFF4CFDDFFEBD7060EDBCFC6
:10A5A00000F0070EDBCF01F0D890015004E6020E58
:10A5B000005C000E01580AE2060EDB2A070E01E3DA
:10A5C000DB2A010EF36E080EF3CFDBFF020EDBCFAA
:10A5D00000F0030EDBCF01F0D890015004E6840EAA
:10A5E000005C030E015831E2020EDBCF00F0030ED7
:10A5F000DBCF01F0D890015004E6840E005C030E1E
:10A6000001580CE2030EE66E01EC7FF0E552020EFB
:10A61000F3CFDBFF030EF4CFDBFFE6D7060EDBCF75
:10A6200000F0070EDBCF01F0013404E20050010816
:10A63000000E01540AE2060EDB06070E01E2DB06FD
:10A64000010EF36E080EF3CFDBFFCDD6090EE15CF1
:10A6500002E2E16AE552E16EE552E7CFD9FF12006E
:10A66000D9CFE6FFE1CFD9FF090EE126010EF36E47
:10A67000060EF3CFDBFF070EDB6A010EF36E080E4A
:10A68000F3CFDBFF080EDB502FE0E66AE3EC6EF061
:10A69000E552120EE66EE66AB50EE66E020EE66E44
:10A6A000E5EC6FF0E552E552E552E552120EE66E2A
:10A6B000030EE66EB10EE66E020EE66EE5EC6FF08E
:10A6C000E552E552E552E552120EE66E050EE66ED3
:10A6D000AD0EE66E020EE66EE5EC6FF0E552E55269
:10A6E000E552E552080EDB6AD950060FE96EDACF63
:10A6F000EAFF010EEE1801E1ED5011E1040EE66EE5
:10A70000E66AE66A000EE66EE66A030EE66EE66844
:10A710009BEC71F0006E070EE15E005010D0040E4D
:10A72000E66EE66AE66A000EE66EE66A050EE66E1C
:10A73000E6689BEC71F0006E070EE15E0050F2DC03
:10A74000000913E0D950060FE96EDACFEAFF010ED7
:10A75000EE1801E1ED5004E10001010E6E6F02D030
:10A7600000016E6B8DEC64F0C2D069EC7FF0010EDD
:10A77000E66E01EC7FF0E552040EF3CFDBFF050E31
:10A78000F4CFDBFF040EDBCF00F0050EDBCF01F0D2
:10A79000D890015004E6840E005C030E01581BE2C1
:10A7A000040EDBCF00F0050EDBCF01F0D890015096
:10A7B00004E6840E005C030E01580CE2010EE66E06
:10A7C00001EC7FF0E552040EF3CFDBFF050EF4CF72
:10A7D000DBFFE6D78CD0E66A01EC7FF0E552F3CFE1
:10A7E000DEFFF4CFDDFF030EE66E01EC7FF0E552F5
:10A7F000020EF3CFDBFF030EF4CFDBFFDECF00F062
:10A80000DDCF01F0D890015004E6840E005C030E09
:10A8100001582DE2DECF00F0DDCF01F0D8900150DD
:10A8200004E6840E005C030E015809E2E66A01ECBE
:10A830007FF0E552F3CFDEFFF4CFDDFFEBD7060E5E
:10A84000DBCF00F0070EDBCF01F0D890015004E61B
:10A85000020E005C000E01580AE2060EDB2A070E0B
:10A8600001E3DB2A010EF36E080EF3CFDBFF020ECD
:10A87000DBCF00F0030EDBCF01F0D890015004E6EF
:10A88000840E005C030E015831E2020EDBCF00F0B3
:10A89000030EDBCF01F0D890015004E6840E005C7B
:10A8A000030E01580CE2030EE66E01EC7FF0E55258
:10A8B000020EF3CFDBFF030EF4CFDBFFE6D7060E6D
:10A8C000DBCF00F0070EDBCF01F0013404E20050D3
:10A8D0000108000E01540AE2060EDB06070E01E233
:10A8E000DB06010EF36E080EF3CFDBFFCBD6090EAD
:10A8F000E15C02E2E16AE552E16EE552E7CFD9FFA1
:10A900001200D9CFE6FFE1CFD9FF1B0EE126120ED0
:10A91000DB6A130EDB6A010EF36E140EF3CFDBFF5E
:10A92000150EDB6A160EDB6A170EDB6A180EDB6A81
:10A93000190EDB6A1A0EDB6A150E60C0DBFF160EFD
:10A9400061C0DBFF170E62C0DBFF180E63C0DBFFC8
:10A95000190E64C0DBFF1A0E65C0DBFF140EDB505E
:10A960006CE0E66AE3EC6EF0E552190EE66EE66A1C
:10A970009F0EE66E020EE66EE5EC6FF0E552E552D4
:10A98000E552E552190EDBCFE6FF1A0EDBCFE6FFEC
:10A99000170EDBCFE6FF180EDBCFE6FF150EDBCF81
:10A9A000E6FF160EDBCFE6FF900E006E020E016E84
:10A9B000026A00C0E6FF01C0E6FF02C0E6FFD95010
:10A9C000080FE66E000EDA20E66E79EC01F0036EF9
:10A9D0000B0EE15E03501E0EE66E030EE66ED950BE
:10A9E000080FE66E000EDA20E66E1FEC70F0E552FE
:10A9F000E552E552E55200016E511FE06F510FE044
:10AA0000540EE66E030EE66E8D0EE66E020EE66ED8
:10AA1000E5EC6FF0E552E552E552E5520ED0540EEA
:10AA2000E66E030EE66E8A0EE66E020EE66EE5EC4C
:10AA30006FF0E552E552E552E552120EDBCFE6FF2C
:10AA4000130EDBCFE6FF3ADCE552E55292EC50F014
:10AA500000091AE0150EDBCF60F0160EDBCF61F0B7
:10AA6000170EDBCF62F0180EDBCF63F0190EDBCFD1
:10AA700064F01A0EDBCF65F00001010E706F1B0E43
:10AA8000E15C01E38FD28CD269EC7FF0E66A01ECE5
:10AA90007FF0E552F3CFDEFFF4CFDDFF030EE66E6D
:10AAA00001EC7FF0E552020EF3CFDBFF030EF4CF93
:10AAB000DBFFDECF00F0DDCF01F0D890015004E6DF
:10AAC000840E005C030E01582DE2DECF00F0DDCFD6
:10AAD00001F0D890015004E6840E005C030E01588A
:10AAE00009E2E66A01EC7FF0E552F3CFDEFFF4CF36
:10AAF000DDFFEBD7120EDBCF00F0130EDBCF01F042
:10AB0000D890015004E6020E005C000E01580AE2E3
:10AB1000120EDB2A130E01E3DB2A010EF36E140E74
:10AB2000F3CFDBFF020EDBCF00F0030EDBCF01F033
:10AB3000D890015004E6840E005C030E015831E207
:10AB4000020EDBCF00F0030EDBCF01F0D8900150F6
:10AB500004E6840E005C030E01580CE2030EE66E60
:10AB600001EC7FF0E552020EF3CFDBFF030EF4CFD2
:10AB7000DBFFE6D7120EDBCF00F0130EDBCF01F0C8
:10AB8000013404E200500008000E01540AE2120EE3
:10AB9000DB06130E01E2DB06010EF36E140EF3CF9B
:10ABA000DBFF69EC7FF0010EE66E01EC7FF0E55211
:10ABB000040EF3CFDBFF050EF4CFDBFF020EE66ED3
:10ABC00001EC7FF0E552060EF3CFDBFF070EF4CF6A
:10ABD000DBFF040EDBCF00F0050EDBCF01F0D890D9
:10ABE000015004E6200E005C030E01580FE3060E30
:10ABF000DBCF02F0070EDBCF03F0D890035004E662
:10AC0000200E025C030E035801E3C9D1040EDBCF12
:10AC100000F0050EDBCF01F0060EDBCF02F0070ED1
:10AC2000DBCF03F001500318E8AE02D0033404D0A8
:10AC30000250005C0350015801E399D0120EDBCFA3
:10AC400020F0130EDBCF21F0020E201801E121507D
:10AC500073E0010E201801E1215054E0205001E181
:10AC6000215001E083D000016E5129E1D950150F28
:10AC7000E96EDACFEAFF170EEE1801E1ED5007E1B9
:10AC8000150EDB6A160EDB6A010E6F6F17D0150EFC
:10AC9000DB2A160E01E3DB2A150EDBCF00F0160EC1
:10ACA000DBCF01F0D890015004E60C0E005C000EE2
:10ACB000015802E36F6B02D0010E6F6F1DD0D950A7
:10ACC000150FE96EDACFEAFF0C0EEE1801E1ED5038
:10ACD0000EE1010EF36E150EF3CFDBFF160EDB6AED
:10ACE0006F5102E06F6B02D0010E6F6F05D0150E31
:10ACF000DB2A160E01E3DB2A010EF36E140EF3CFEE
:10AD0000DBFF34D0D950170FE96EDACFEAFF3B0EE4
:10AD1000EE1801E1ED5005E1170EDB6A180EDB6A53
:10AD200005D0170EDB2A180E01E3DB2A010EF36EA5
:10AD3000140EF3CFDBFF1AD0D950190FE96EDACF1A
:10AD4000EAFF3B0EEE1801E1ED5005E1190EDB6A5A
:10AD50001A0EDB6A05D0190EDB2A1A0E01E3DB2A74
:10AD6000010EF36E140EF3CFDBFF00D0F3D0120E02
:10AD7000DBCF20F0130EDBCF21F0020E201801E113
:10AD8000215001E1C7D0010E201801E1215001E15D
:10AD9000A1D0205001E1215001E0DCD000016E5132
:10ADA00066E1150EDBCF00F0160EDBCF01F00134AB
:10ADB00004E200500D08000E015406E2150EDB06F9
:10ADC000160E01E2DB0652D0D950150FE96EDACF2C
:10ADD000EAFF0D0EEE1801E1ED5008E1150EDB065D
:10ADE000160E01E2DB06010E6F6F40D0150EDBCFB1
:10ADF00000F0160EDBCF01F0013404E200500C0825
:10AE0000000E015413E3150EDBCF02F0160EDBCF5C
:10AE100003F0033404E202500108000E035406E27A
:10AE2000150EDB06160E01E2DB0620D0D950150FF9
:10AE3000E96EDACFEAFF010EEE1801E1ED5007E10D
:10AE4000150EDB06160E01E2DB066F6B0FD0D95034
:10AE5000150FE96EDACFEAFFEE50ED1007E1170E9D
:10AE6000F36E150EF3CFDBFF160EDB6A2DD0150E39
:10AE7000DBCF00F0160EDBCF01F0013404E200500E
:10AE80000C08000E015413E3150EDBCF02F0160E72
:10AE9000DBCF03F0033404E202500108000E035438
:10AEA00006E2150EDB06160E01E2DB060DD00C0ED7
:10AEB000F36E150EF3CFDBFF160EDB6A6F5102E067
:10AEC0006F6B02D0010E6F6F010EF36E140EF3CF95
:10AED000DBFF40D0170EDBCF00F0180EDBCF01F008
:10AEE000013404E200500008000E015406E2170E7F
:10AEF000DB06180E01E2DB0607D03B0EF36E170EE1
:10AF0000F3CFDBFF180EDB6A010EF36E140EF3CFE6
:10AF1000DBFF20D0190EDBCF00F01A0EDBCF01F0E3
:10AF2000013404E200500008000E015406E2190E3C
:10AF3000DB061A0E01E2DB0607D03B0EF36E190E9C
:10AF4000F3CFDBFF1A0EDB6A010EF36E140EF3CFA4
:10AF5000DBFF00D0040EDBCF00F0050EDBCF01F0ED
:10AF6000D890015004E6200E005C030E015817E251
:10AF7000010EE66E01EC7FF0E552040EF3CFDBFF2D
:10AF8000050EF4CFDBFF020EE66E01EC7FF0E5521A
:10AF9000060EF3CFDBFF070EF4CFDBFFDBD7DED4EB
:10AFA000E16AE552E16EE552E7CFD9FF1200D9CF51
:10AFB000E6FFE1CFD9FF190EE126080EDB6A090E84
:10AFC000DB6A010EF36E140EF3CFDBFF150EDB6AA6
:10AFD000160EDB6A170EDB6A180EDB6A150E66C0EA
:10AFE000DBFF160E67C0DBFF170E68C0DBFF180E15
:10AFF00069C0DBFF140EDB5044E0E66AE3EC6EF060
:10B00000E552190EE66EE66A7C0EE66E020EE66EFC
:10B01000E5EC6FF0E552E552E552E552170EDBCF55
:10B02000E6FF180EDBCFE6FF150EDBCFE6FF160EB0
:10B03000DBCFE6FF720E006E020E016E026A00C0E8
:10B04000E6FF01C0E6FF02C0E6FFD9500A0FE66E38
:10B05000000EDA20E66E79EC01F0036E090EE15E77
:10B0600003501E0EE66E030EE66ED9500A0FE66E12
:10B07000000EDA20E66E1FEC70F0E552E552E55264
:10B08000E552080EDBCFE6FF090EDBCFE6FF5EECF4
:10B0900051F0E552E55292EC50F0000911E0150E26
:10B0A000DBCF66F0160EDBCF67F0170EDBCF68F054
:10B0B000180EDBCF69F0190EE15C01E38CD289D266
:10B0C00069EC7FF0E66A01EC7FF0E552F3CFDEFF3A
:10B0D000F4CFDDFF030EE66E01EC7FF0E552020EC9
:10B0E000F3CFDBFF030EF4CFDBFFDECF00F0DDCFCD
:10B0F00001F0D890015004E6840E005C030E015864
:10B100002DE2DECF00F0DDCF01F0D890015004E653
:10B11000840E005C030E015809E2E66A01EC7FF040
:10B12000E552F3CFDEFFF4CFDDFFEBD7080EDBCF28
:10B1300000F0090EDBCF01F0D890015004E6010EBB
:10B14000005C000E01580AE2080EDB2A090E01E33A
:10B15000DB2A010EF36E140EF3CFDBFF020EDBCF02
:10B1600000F0030EDBCF01F0D890015004E6840E0E
:10B17000005C030E015831E2020EDBCF00F0030E3B
:10B18000DBCF01F0D890015004E6840E005C030E82
:10B1900001580CE2030EE66E01EC7FF0E552020E60
:10B1A000F3CFDBFF030EF4CFDBFFE6D7080EDBCFD8
:10B1B00000F0090EDBCF01F0013404E2005000087A
:10B1C000000E01540AE2080EDB06090E01E2DB065E
:10B1D000010EF36E140EF3CFDBFF010EE66E01ECF1
:10B1E0007FF0E552040EF3CFDBFF050EF4CFDBFF5B
:10B1F000020EE66E01EC7FF0E552060EF3CFDBFFA8
:10B20000070EF4CFDBFF040EDBCF00F0050EDBCF23
:10B2100001F0D890015004E6200E005C030E0158A6
:10B220000FE3060EDBCF02F0070EDBCF03F0D89062
:10B23000035004E6200E025C030E035801E3C8D15C
:10B24000040EDBCF00F0050EDBCF01F0060EDBCFE6
:10B2500002F0070EDBCF03F001500318E8AE02D076
:10B26000033404D00250005C0350015801E3C7D0FE
:10B27000080EDBCF20F0090EDBCF21F0010E2018E5
:10B2800001E1215060E0205001E1215001E0B6D001
:10B29000D950150F026EDACF03F0020E206E216A2C
:10B2A000080EDBCF25F0090EDBCF26F079EC77F026
:10B2B00002501E24E96E03501F20EA6EEECF00F00C
:10B2C000EFCF01F0D890015004E61F0E005C000E95
:10B2D00001581AE2D950150F006EDACF01F0020EB4
:10B2E000206E216A080EDBCF25F0090EDBCF26F099
:10B2F00079EC77F000501E24E96E01501F20EA6EB1
:10B30000EE2A000EEF2219D0D950150F006EDACFB9
:10B3100001F0020E206E216A080EDBCF25F0090E27
:10B32000DBCF26F079EC77F000501E24E96E015057
:10B330001F20EA6E010EEE6EED6A010EF36E140E22
:10B34000F3CFDBFF5BD0D950150F026EDACF03F0DD
:10B35000020E206E216A080EDBCF25F0090EDBCF2E
:10B3600026F079EC77F002501E24E96E03501F207E
:10B37000EA6EEECF00F0EFCF01F0D890015004E676
:10B380000C0E005C000E01581AE2D950150F006E29
:10B39000DACF01F0020E206E216A080EDBCF25F015
:10B3A000090EDBCF26F079EC77F000501E24E96E11
:10B3B00001501F20EA6EEE2A000EEF2219D0D9505C
:10B3C000150F006EDACF01F0020E206E216A080E12
:10B3D000DBCF25F0090EDBCF26F079EC77F00050BB
:10B3E0001E24E96E01501F20EA6E010EEE6EED6A1A
:10B3F000010EF36E140EF3CFDBFF00D0C4D0080EA5
:10B40000DBCF20F0090EDBCF21F0010E201801E187
:10B4100021505FE0205001E1215001E0B4D0D9502B
:10B42000150F026EDACF03F0020E206E216A080EAD
:10B43000DBCF25F0090EDBCF26F079EC77F0025058
:10B440001E24E96E03501F20EA6EEECF00F0EFCF0E
:10B4500001F0013404E200500108000E01541AE228
:10B46000D950150F006EDACF01F0020E206E216A5E
:10B47000080EDBCF25F0090EDBCF26F079EC77F054
:10B4800000501E24E96E01501F20EA6EEE06000EE9
:10B49000EF5A19D0D950150F006EDACF01F0020E15
:10B4A000206E216A080EDBCF25F0090EDBCF26F0D7
:10B4B00079EC77F000501E24E96E01501F20EA6EEF
:10B4C0001F0EEE6EED6A010EF36E140EF3CFDBFF6E
:10B4D0005AD0D950150F026EDACF03F0020E206E4B
:10B4E000216A080EDBCF25F0090EDBCF26F079ECC0
:10B4F00077F002501E24E96E03501F20EA6EEECF53
:10B5000000F0EFCF01F0013404E200500108000E1A
:10B5100001541AE2D950150F006EDACF01F0020E75
:10B52000206E216A080EDBCF25F0090EDBCF26F056
:10B5300079EC77F000501E24E96E01501F20EA6E6E
:10B54000EE06000EEF5A19D0D950150F006EDACF63
:10B5500001F0020E206E216A080EDBCF25F0090EE5
:10B56000DBCF26F079EC77F000501E24E96E015015
:10B570001F20EA6E0C0EEE6EED6A010EF36E140ED5
:10B58000F3CFDBFF00D0040EDBCF00F0050EDBCFE6
:10B5900001F0D890015004E6200E005C030E015823
:10B5A00017E2010EE66E01EC7FF0E552040EF3CFD8
:10B5B000DBFF050EF4CFDBFF020EE66E01EC7FF041
:10B5C000E552060EF3CFDBFF070EF4CFDBFFDBD730
:10B5D00011D5E16AE552E16EE552E7CFD9FF1200DD
:10B5E000D9CFE6FFE1CFD9FF090EE126010EF36EB8
:10B5F000060EF3CFDBFF070EDB6A010EF36E080EBB
:10B60000F3CFDBFF080EDB502FE0E66AE3EC6EF0D1
:10B61000E5521E0EE66EE66A670EE66E020EE66EF6
:10B62000E5EC6FF0E552E552E552E552120EE66E9A
:10B63000030EE66E640EE66E020EE66EE5EC6FF04B
:10B64000E552E552E552E552120EE66E050EE66E43
:10B65000600EE66E020EE66EE5EC6FF0E552E55226
:10B66000E552E552080EDB6AD950060FE96EDACFD3
:10B67000EAFF010EEE1801E1ED5011E1040EE66E55
:10B68000E66AE66A000EE66EE66A030EE66EE668B5
:10B690009BEC71F0006E070EE15E005010D0040EBE
:10B6A000E66EE66AE66A000EE66EE66A050EE66E8D
:10B6B000E6689BEC71F0006E070EE15E005092ECC4
:10B6C00050F0000911E0D950060FE96EDACFEAFF19
:10B6D000010EEE1801E1ED5004E10001010E6D6F65
:10B6E00002D000016D6BC2D0010EE66E01EC7FF05E
:10B6F000E552040EF3CFDBFF050EF4CFDBFF040EA3
:10B70000DBCF00F0050EDBCF01F0D890015004E64E
:10B71000840E005C030E01581BE2040EDBCF00F028
:10B72000050EDBCF01F0D890015004E6840E005CDA
:10B73000030E01580CE2010EE66E01EC7FF0E552BB
:10B74000040EF3CFDBFF050EF4CFDBFFE6D78ED080
:10B7500069EC7FF0E66A01EC7FF0E552F3CFDEFFA3
:10B76000F4CFDDFF030EE66E01EC7FF0E552020E32
:10B77000F3CFDBFF030EF4CFDBFFDECF00F0DDCF36
:10B7800001F0D890015004E6840E005C030E0158CD
:10B790002DE2DECF00F0DDCF01F0D890015004E6BD
:10B7A000840E005C030E015809E2E66A01EC7FF0AA
:10B7B000E552F3CFDEFFF4CFDDFFEBD7060EDBCF94
:10B7C00000F0070EDBCF01F0D890015004E6020E26
:10B7D000005C000E01580AE2060EDB2A070E01E3A8
:10B7E000DB2A010EF36E080EF3CFDBFF020EDBCF78
:10B7F00000F0030EDBCF01F0D890015004E6840E78
:10B80000005C030E015831E2020EDBCF00F0030EA4
:10B81000DBCF01F0D890015004E6840E005C030EEB
:10B8200001580CE2030EE66E01EC7FF0E552020EC9
:10B83000F3CFDBFF030EF4CFDBFFE6D7060EDBCF43
:10B8400000F0070EDBCF01F0013404E200500108E4
:10B85000000E01540AE2060EDB06070E01E2DB06CB
:10B86000010EF36E080EF3CFDBFFCCD6090EE15CC0
:10B8700002E2E16AE552E16EE552E7CFD9FF12003C
:10B88000D9CFE6FFE1CFD9FFFD0EDBCF20F0FE0ED2
:10B89000DBCF21F0060E201801E1215021E0050E3A
:10B8A000201801E1215019E0040E201801E1215077
:10B8B00011E0030E201801E1215009E0020E2018CA
:10B8C00001E1215001E00ED0E1EC51F00BD030EC61
:10B8D00053F008D081EC54F005D0D7EC57F002D0EB
:10B8E0007FDE00D0E66AE3EC6EF0E552E552E7CF8A
:10B8F000D9FF1200D9CFE6FFE1CFD9FF0A0EE1262A
:10B90000F29A00016E5112E0613504E260510C08B8
:10B91000000E615505E20C0E605F000E615B06D003
:10B920006051611103E10C0E606F616B64C0E6FF52
:10B9300065C0E6FF62C0E6FF63C0E6FF60C0E6FFE9
:10B9400061C0E6FF900E006E020E016E026A00C03A
:10B95000E6FF01C0E6FF02C0E6FFD9CFE6FFDACF7F
:10B96000E6FF79EC01F0036E0B0EE15E03503C0E36
:10B97000E66EE66AD9CFE6FFDACFE6FF1FEC70F09D
:10B98000E552E552E552E55200016E511DE06F515E
:10B990000EE0720EE66EE66A8D0EE66E020EE66E42
:10B9A000E5EC6FF0E552E552E552E5520DD0720E2E
:10B9B000E66EE66A8A0EE66E020EE66EE5EC6FF063
:10B9C000E552E552E552E552F28A0A0EE15C02E2E6
:10B9D000E16AE552E16EE552E7CFD9FF1200D9CF17
:10B9E000E6FFE1CFD9FF060EE126DE6ADD6ADECF93
:10B9F00000F0DDCF01F0D890015004E63C0E005C71
:10BA0000000E015801E36AD173C020F074C021F028
:10BA10003CEC76F01FC000F020C001F021C002F025
:10BA200022C003F06AC020F06BC021F03CEC76F03D
:10BA30001FC008F020C009F021C00AF022C00BF09E
:10BA400000C0E6FF01C0E6FF02C0E6FF03C0E6FF5C
:10BA500008C0E6FF09C0E6FF0AC0E6FF0BC0E6FF2C
:10BA6000DECF14F0DDCF15F0060E1502F3CF15F082
:10BA70001402F3CF14F0F450152614C020F015C0B2
:10BA800021F03CEC76F01FC010F020C011F021C076
:10BA900012F022C013F010C0E6FF11C0E6FF12C082
:10BAA000E6FF13C0E6FFCAEC7FF0E552E552E5522F
:10BAB000E552E552E7CF0BF0E552E7CF0AF0E55249
:10BAC000E7CF09F0E552E7CF08F0E552E7CF03F002
:10BAD000E552E7CF02F0E552E7CF01F0E552E7CFBC
:10BAE00000F01EC00CF01FC00DF020C00EF021C0F1
:10BAF0000FF00CC024F00DC025F00EC026F00FC0D2
:10BB000027F008C01FF009C020F00AC021F00BC0C8
:10BB100022F0E6EC76F01FC004F020C005F021C052
:10BB200006F022C007F004C024F005C025F006C0CE
:10BB300026F007C027F000C01FF001C020F002C0AF
:10BB400021F003C022F050EC76F0A6EC77F0020E64
:10BB500020C0DBFF030E21C0DBFF75C020F076C0E4
:10BB600021F03CEC76F01FC000F020C001F021C0B5
:10BB700002F022C003F06AC020F06BC021F03CEC60
:10BB800076F01FC008F020C009F021C00AF022C0E2
:10BB90000BF000C0E6FF01C0E6FF02C0E6FF03C0F5
:10BBA000E6FF08C0E6FF09C0E6FF0AC0E6FF0BC0DB
:10BBB000E6FFDECF14F0DDCF15F0060E1502F3CF51
:10BBC00015F01402F3CF14F0F450152614C020F031
:10BBD00015C021F03CEC76F01FC010F020C011F031
:10BBE00021C012F022C013F010C0E6FF11C0E6FF22
:10BBF00012C0E6FF13C0E6FFFEEC02F0E552E5528C
:10BC0000E552E552E552E7CF0BF0E552E7CF0AF0F7
:10BC1000E552E7CF09F0E552E7CF08F0E552E7CF6C
:10BC200003F0E552E7CF02F0E552E7CF01F0E5522D
:10BC3000E7CF00F01EC00CF01FC00DF020C00EF0CA
:10BC400021C00FF00CC024F00DC025F00EC026F06E
:10BC50000FC027F008C01FF009C020F00AC021F073
:10BC60000BC022F0E6EC76F01FC004F020C005F017
:10BC700021C006F022C007F004C024F005C025F062
:10BC800006C026F007C027F000C01FF001C020F05A
:10BC900002C021F003C022F050EC76F0A6EC77F061
:10BCA000040E20C0DBFF050E21C0DBFFE66A040E98
:10BCB000DBCFE6FF020EDBCFE6FF040EDBCFE6FFB5
:10BCC000020EDBCFE6FF61EC74F0006E050EE15E64
:10BCD0000050DF2A010E01E3DB2A89D6060EE15C63
:10BCE00002E2E16AE552E16EE552E7CFD9FF1200C8
:10BCF000D9CFE6FFE1CFD9FF040EE126FB0EDBCF63
:10BD000020F0FC0EDBCF21F0020E201801E12150C3
:10BD100001E146D3010E201801E1215001E19BD140
:10BD2000205001E1215002E074EF63F073C020F075
:10BD300074C021F03CEC76F01FC000F020C001F090
:10BD400021C002F022C003F06AC020F06BC021F0D5
:10BD50003CEC76F01FC008F020C009F021C00AF0CA
:10BD600022C00BF000C0E6FF01C0E6FF02C0E6FF04
:10BD700003C0E6FF08C0E6FF09C0E6FF0AC0E6FF11
:10BD80000BC0E6FFFD0EDBCF14F0FE0EDBCF15F08F
:10BD90001E0E1502F3CF15F01402F3CF14F0F45079
:10BDA000152614C020F015C021F03CEC76F01FC021
:10BDB00010F020C011F021C012F022C013F010C00A
:10BDC000E6FF11C0E6FF12C0E6FF13C0E6FFCAECB3
:10BDD0007FF0E552E552E552E552E552E7CF0BF030
:10BDE000E552E7CF0AF0E552E7CF09F0E552E7CF99
:10BDF00008F0E552E7CF03F0E552E7CF02F0E55255
:10BE0000E7CF01F0E552E7CF00F01EC00CF01FC0F5
:10BE10000DF020C00EF021C00FF00CC024F00DC0BA
:10BE200025F00EC026F00FC027F008C01FF009C093
:10BE300020F00AC021F00BC022F0E6EC76F01FC023
:10BE400004F020C005F021C006F022C007F004C0B5
:10BE500024F005C025F006C026F007C027F000C07A
:10BE60001FF001C020F002C021F003C022F050EC0E
:10BE700076F0A6EC77F020C0DEFF21C0DDFF75C0B4
:10BE800020F076C021F03CEC76F01FC000F020C01E
:10BE900001F021C002F022C003F06AC020F06BC0A4
:10BEA00021F03CEC76F01FC008F020C009F021C062
:10BEB0000AF022C00BF000C0E6FF01C0E6FF02C09E
:10BEC000E6FF03C0E6FF08C0E6FF09C0E6FF0AC0C0
:10BED000E6FF0BC0E6FFFD0EDBCF14F0FE0EDBCF5E
:10BEE00015F01E0E1502F3CF15F01402F3CF14F067
:10BEF000F450152614C020F015C021F03CEC76F06B
:10BF00001FC010F020C011F021C012F022C013F0A9
:10BF100010C0E6FF11C0E6FF12C0E6FF13C0E6FF47
:10BF2000FEEC02F0E552E552E552E552E552E7CF6C
:10BF30000BF0E552E7CF0AF0E552E7CF09F0E55202
:10BF4000E7CF08F0E552E7CF03F0E552E7CF02F084
:10BF5000E552E7CF01F0E552E7CF00F01EC00CF04C
:10BF60001FC00DF020C00EF021C00FF00CC024F057
:10BF70000DC025F00EC026F00FC027F008C01FF03E
:10BF800009C020F00AC021F00BC022F0E6EC76F0E8
:10BF90001FC004F020C005F021C006F022C007F049
:10BFA00004C024F005C025F006C026F007C027F025
:10BFB00000C01FF001C020F002C021F003C022F039
:10BFC00050EC76F0A6EC77F0020E20C0DBFF030EFB
:10BFD00021C0DBFF020EE66EDBCF20F0030EDBCFCD
:10BFE00021F000017551205C006E76512158016EE0
:10BFF000020E256E266A00C020F001C021F053EC2D
:10C0000077F020C000F021C001F00001755100243C
:10C01000E66E7351DE5C026E7451DD58036E020EE3
:10C02000256E266A02C020F003C021F053EC77F0A1
:10C0300020C002F021C003F0000173510224E66E1B
:10C0400075C0E6FF73C0E6FF61EC74F0046E050E88
:10C05000E15E045049D373C020F074C021F03CEC81
:10C0600076F01FC000F020C001F021C002F022C015
:10C0700003F06AC020F06BC021F03CEC76F01FC0EA
:10C0800008F020C009F021C00AF022C00BF000C067
:10C09000E6FF01C0E6FF02C0E6FF03C0E6FF08C0FE
:10C0A000E6FF09C0E6FF0AC0E6FF0BC0E6FFFD0E93
:10C0B000DBCF14F0FE0EDBCF15F0060E1502F3CF2A
:10C0C00015F01402F3CF14F0F450152614C020F02C
:10C0D00015C021F03CEC76F01FC010F020C011F02C
:10C0E00021C012F022C013F010C0E6FF11C0E6FF1D
:10C0F00012C0E6FF13C0E6FFCAEC7FF0E552E5523E
:10C10000E552E552E552E7CF0BF0E552E7CF0AF0F2
:10C11000E552E7CF09F0E552E7CF08F0E552E7CF67
:10C1200003F0E552E7CF02F0E552E7CF01F0E55228
:10C13000E7CF00F01EC00CF01FC00DF020C00EF0C5
:10C1400021C00FF00CC024F00DC025F00EC026F069
:10C150000FC027F008C01FF009C020F00AC021F06E
:10C160000BC022F0E6EC76F01FC004F020C005F012
:10C1700021C006F022C007F004C024F005C025F05D
:10C1800006C026F007C027F000C01FF001C020F055
:10C1900002C021F003C022F050EC76F0A6EC77F05C
:10C1A00020C0DEFF21C0DDFF75C020F076C021F089
:10C1B0003CEC76F01FC000F020C001F021C002F07E
:10C1C00022C003F06AC020F06BC021F03CEC76F096
:10C1D0001FC008F020C009F021C00AF022C00BF0F7
:10C1E00000C0E6FF01C0E6FF02C0E6FF03C0E6FFB5
:10C1F00008C0E6FF09C0E6FF0AC0E6FF0BC0E6FF85
:10C20000FD0EDBCF14F0FE0EDBCF15F0060E15028F
:10C21000F3CF15F01402F3CF14F0F450152614C028
:10C2200020F015C021F03CEC76F01FC010F020C0CB
:10C2300011F021C012F022C013F010C0E6FF11C0AF
:10C24000E6FF12C0E6FF13C0E6FFFEEC02F0E55287
:10C25000E552E552E552E552E7CF0BF0E552E7CF64
:10C260000AF0E552E7CF09F0E552E7CF08F0E552D2
:10C27000E7CF03F0E552E7CF02F0E552E7CF01F058
:10C28000E552E7CF00F01EC00CF01FC00DF020C03B
:10C290000EF021C00FF00CC024F00DC025F00EC030
:10C2A00026F00FC027F008C01FF009C020F00AC018
:10C2B00021F00BC022F0E6EC76F01FC004F020C0A5
:10C2C00005F021C006F022C007F004C024F005C02C
:10C2D00025F006C026F007C027F000C01FF001C0FF
:10C2E00020F002C021F003C022F050EC76F0A6EC62
:10C2F00077F0020E20C0DBFF030E21C0DBFF010E32
:10C30000E66E020EDBCF20F0030EDBCF21F0000142
:10C310007551205C026E76512158036E050E256E14
:10C32000266A02C020F003C021F053EC77F020C051
:10C3300002F021C003F0020EDBCF20F0030EDBCFB2
:10C3400021F00250205C006E03502158016E005015
:10C35000E66E00017351DE5C066E7451DD58076EA7
:10C36000050E256E266A06C020F007C021F053ECAA
:10C3700077F020C006F021C007F00650DE5C046EA6
:10C380000750DD58056E0450E66E75C0E6FF73C0B9
:10C39000E6FF61EC74F0086E050EE15E0850A4D172
:10C3A00073C020F074C021F03CEC76F01FC000F0A8
:10C3B00020C001F021C002F022C003F06AC020F0CA
:10C3C0006BC021F03CEC76F01FC008F020C009F0F3
:10C3D00021C00AF022C00BF000C0E6FF01C0E6FF5A
:10C3E00002C0E6FF03C0E6FF08C0E6FF09C0E6FFA3
:10C3F0000AC0E6FF0BC0E6FFFD0EDBCF14F0FE0E19
:10C40000DBCF15F0060E1502F3CF15F01402F3CFB3
:10C4100014F0F450152614C020F015C021F03CECA7
:10C4200076F01FC010F020C011F021C012F022C021
:10C4300013F010C0E6FF11C0E6FF12C0E6FF13C004
:10C44000E6FFCAEC7FF0E552E552E552E552E552CF
:10C45000E7CF0BF0E552E7CF0AF0E552E7CF09F05E
:10C46000E552E7CF08F0E552E7CF03F0E552E7CF1A
:10C4700002F0E552E7CF01F0E552E7CF00F01EC031
:10C480000CF01FC00DF020C00EF021C00FF00CC04A
:10C4900024F00DC025F00EC026F00FC027F008C014
:10C4A0001FF009C020F00AC021F00BC022F0E6EC1A
:10C4B00076F01FC004F020C005F021C006F022C0B5
:10C4C00007F004C024F005C025F006C026F007C020
:10C4D00027F000C01FF001C020F002C021F003C00F
:10C4E00022F050EC76F0A6EC77F020C0DEFF21C001
:10C4F000DDFF75C020F076C021F03CEC76F01FC067
:10C5000000F020C001F021C002F022C003F06AC098
:10C5100020F06BC021F03CEC76F01FC008F020C08A
:10C5200009F021C00AF022C00BF000C0E6FF01C0F4
:10C53000E6FF02C0E6FF03C0E6FF08C0E6FF09C051
:10C54000E6FF0AC0E6FF0BC0E6FFFD0EDBCF14F0EE
:10C55000FE0EDBCF15F0060E1502F3CF15F0140218
:10C56000F3CF14F0F450152614C020F015C021F0BC
:10C570003CEC76F01FC010F020C011F021C012F08A
:10C5800022C013F010C0E6FF11C0E6FF12C0E6FFA4
:10C5900013C0E6FFFEEC02F0E552E552E552E5522B
:10C5A000E552E7CF0BF0E552E7CF0AF0E552E7CFCF
:10C5B00009F0E552E7CF08F0E552E7CF03F0E55286
:10C5C000E7CF02F0E552E7CF01F0E552E7CF00F008
:10C5D0001EC00CF01FC00DF020C00EF021C00FF0E7
:10C5E0000CC024F00DC025F00EC026F00FC027F0BF
:10C5F00008C01FF009C020F00AC021F00BC022F0D3
:10C60000E6EC76F01FC004F020C005F021C006F073
:10C6100022C007F004C024F005C025F006C026F0B3
:10C6200007C027F000C01FF001C020F002C021F0B9
:10C6300003C022F050EC76F0A6EC77F0020E20C09A
:10C64000DBFF030E21C0DBFFE66A020EDBCF20F02A
:10C65000030EDBCF21F000017551205C026E765194
:10C660002158036E050E256E266A02C020F003C015
:10C6700021F053EC77F020C002F021C003F0020E4D
:10C68000DBCF20F0030EDBCF21F00250205C006EE8
:10C6900003502158016E0050E66E00017351DE5CBC
:10C6A000066E7451DD58076E050E256E266A06C0AB
:10C6B00020F007C021F053EC77F020C006F021C035
:10C6C00007F00650DE5C046E0750DD58056E04501E
:10C6D000E66E75C0E6FF73C0E6FF61EC74F0086EAD
:10C6E000050EE15E085000D0040EE15C02E2E16A52
:10C6F000E552E16EE552E7CFD9FF1200D9CFE6FF50
:10C70000E1CFD9FF020EE12664C0DEFF65C0DDFF88
:10C710003B0E000165AF02D0D89003D0645D000EDF
:10C72000655904E2642B000E652303D0646B656BCE
:10C730002CD800016C5103E0010E716F1CD07251B6
:10C740001AE1020EE66EE66ADECFE6FFDDCFE6FF17
:10C7500078EC5EF0E552E552E552E552020EE66EE7
:10C76000E66A64C0E6FF65C0E6FF78EC5EF0E5527D
:10C77000E552E552E552020EE15C02E2E16AE55261
:10C78000E16EE552E7CFD9FF1200D9CFE6FFE1CF46
:10C79000D9FF020EE12662C0DEFF63C0DDFF3B0E63
:10C7A000000163AF02D0D89003D0625D000E6359E0
:10C7B00004E2622B000E632303D0626B636B29D803
:10C7C00000016C511CE172511AE1010EE66EE66A3D
:10C7D000DECFE6FFDDCFE6FF78EC5EF0E552E55216
:10C7E000E552E552010EE66EE66A62C0E6FF63C0FE
:10C7F000E6FF78EC5EF0E552E552E552E552020EB6
:10C80000E15C02E2E16AE552E16EE552E7CFD9FF71
:10C810001200D9CFE6FFE1CFD9FF020EE12660C0BA
:10C82000DEFF61C0DDFF00016E5114E00C0E6019E7
:10C8300001E161510BE1010E606F616B6F5102E02C
:10C840006F6B02D0010E6F6F4CD803D0602B000EBF
:10C8500061231ED0170E61AF02D0D89003D0605D67
:10C86000000E615904E2602B000E612303D0606B5F
:10C87000616B37D80C0E000161AF02D0D89003D0A5
:10C88000605D000E615902E36F6B02D0010E6F6FA5
:10C8900000016C511CE172511AE1000EE66EE66A6D
:10C8A000DECFE6FFDDCFE6FF78EC5EF0E552E55245
:10C8B000E552E552000EE66EE66A60C0E6FF61C032
:10C8C000E6FF78EC5EF0E552E552E552E552020EE5
:10C8D000E15C02E2E16AE552E16EE552E7CFD9FFA1
:10C8E000120000011F0E661901E1675104E0662B7A
:10C8F000000E67230FD0010E666F676B0C0E681970
:10C9000001E1695104E0682B000E692303D0010E98
:10C91000686F696B010E716F120000016E510EE0BD
:10C920006F510BE1613504E260510C08000E615556
:10C9300004E20C0E605F000E615B0DD06F510BE1E5
:10C940000C0E6027000E6123180E601901E1615181
:10C9500002E1606B616B1200D9CFE6FFE1CFD9FF36
:10C960000A0EE12668C0E6FF69C0E6FF66C0E6FF82
:10C9700067C0E6FF720E006E020E016E026A00C012
:10C98000E6FF01C0E6FF02C0E6FFD9CFE6FFDACF3F
:10C99000E6FF79EC01F0036E090EE15E03505A0EDA
:10C9A000E66E070EE66ED9CFE6FFDACFE6FF1FECA4
:10C9B00070F0E552E552E552E5520A0EE15C02E202
:10C9C000E16AE552E16EE552E7CFD9FF12000001BE
:10C9D0006D510BE0060EE66EB00EE66E410EE66E91
:10C9E000B9EC6FF0E552E552E5521200D9CFE6FFFF
:10C9F000E1CFD9FF090EE126020EF36E040EF3CF4C
:10CA0000DBFF050EDB6AF36E060EF3CFDBFF320EA3
:10CA1000F36E070EF3CFDBFF5A0EF36E080EF3CF63
:10CA2000DBFFDE6ADD6ADECF00F0DDCF01F0D890FB
:10CA3000015004E6030E005C000E015801E327D10B
:10CA4000DECFE9FFDDCFEAFFD890E936EA36600EA7
:10CA5000E926000EEA22EECF00F0EFCF01F0090E3A
:10CA6000001801E1015001E1F9D0080E001801E1C0
:10CA7000015001E1DFD0070E001801E1015001E192
:10CA8000C5D0060E001801E1015001E1ABD0050E42
:10CA9000001801E1015001E191D0040E001801E1FC
:10CAA000015001E177D0030E001801E101505EE072
:10CAB000020E001801E1015045E0010E001801E1ED
:10CAC00001502CE0005001E1015014E00A0E006E0C
:10CAD000016A60C020F061C021F000C025F001C0F3
:10CAE00026F053EC77F0020E20C0DBFF030E21C0CE
:10CAF000DBFFC8D0D950060F006EDACF01F0DE5050
:10CB00000024E96EDD500120EA6EEF50E66E200E43
:10CB1000E66E05EC72F0E552E552B4D0D950060F3E
:10CB2000006EDACF01F0DE500024E96EDD50012006
:10CB3000EA6EEF50E66E240EE66E05EC72F0E552FA
:10CB4000E552A0D0D950060F006EDACF01F0DE50CA
:10CB50000024E96EDD500120EA6EEF50E66E280EEB
:10CB6000E66E05EC72F0E552E5528CD0D950060F16
:10CB7000006EDACF01F0DE500024E96EDD500120B6
:10CB8000EA6EEF50E66E2C0EE66E05EC72F0E552A2
:10CB9000E55278D0D950060F006EDACF01F0DE50A2
:10CBA0000024E96EDD500120EA6EEF50E66E300E93
:10CBB000E66E05EC72F0E552E55264D0D950060FEE
:10CBC000006EDACF01F0DE500024E96EDD50012066
:10CBD000EA6EEF50E66E340EE66E05EC72F0E5524A
:10CBE000E55250D0D950060F006EDACF01F0DE507A
:10CBF0000024E96EDD500120EA6EEF50E66E380E3B
:10CC0000E66E05EC72F0E552E5523CD0D950060FC5
:10CC1000006EDACF01F0DE500024E96EDD50012015
:10CC2000EA6EEF50E66E3C0EE66E05EC72F0E552F1
:10CC3000E55228D0D950060F006EDACF01F0DE5051
:10CC40000024E96EDD500120EA6EEF50E66E400EE2
:10CC5000E66E05EC72F0E552E55214D0D950060F9D
:10CC6000006EDACF01F0DE500024E96EDD500120C5
:10CC7000EA6EEF50E66E440EE66E05EC72F0E55299
:10CC8000E55200D0DF2A010E01E3DB2ACCD6090EE3
:10CC9000E15C02E2E16AE552E16EE552E7CFD9FFDD
:10CCA0001200D9CFE6FFE1CFD9FF0A0EE126040E2C
:10CCB000DB6A050EDB6A060EDB6A070EDB6A020E14
:10CCC000F36E080EF3CFDBFF090EDB6A0001010EE5
:10CCD000726FE66AE3EC6EF0E552130EC26E080E58
:10CCE000DBCFDEFFDBCFDDFF7AEC5CF0E66A020E25
:10CCF000E66E530EE66E020EE66EE5EC6FF0E55260
:10CD0000E552E552E552E66A030EE66E420EE66E25
:10CD1000020EE66EE5EC6FF0E552E552E552E552A3
:10CD2000E66A040EE66E390EE66E020EE66EE5EC7D
:10CD30006FF0E552E552E552E552E66A050EE66E01
:10CD4000300EE66E020EE66EE5EC6FF0E552E5524F
:10CD5000E552E552E66A060EE66E2A0EE66E020E11
:10CD6000E66EE5EC6FF0E552E552E552E552C7ECB0
:10CD700050F0080EF3CFDBFF090EF4CFDBFF27DE08
:10CD8000EBDD640EE66EE66AE66A000EE66EE66AC3
:10CD9000080EDBCFE6FFE6689BEC71F0006E070E35
:10CDA000E15E005092EC50F000090AE0080EDBCF83
:10CDB000E6FF090EDBCFE6FF40EC5CF0E552E55202
:10CDC000080EDB50DF1804E1090EDB50DE52DD18DF
:10CDD00004E0E66AE3EC6EF0E55269EC7FF0010EE8
:10CDE000E66E01EC7FF0E552020EF3CFDBFF030E9F
:10CDF000F4CFDBFF020EDBCF00F0030EDBCF01F040
:10CE0000D890015004E6840E005C030E015822E223
:10CE1000020EDBCF00F0030EDBCF01F0D890015003
:10CE200004E6840E005C030E01580CE2010EE66E6F
:10CE300001EC7FF0E552020EF3CFDBFF030EF4CFDF
:10CE4000DBFFE6D7E66AE3EC6EF0E5520A0EE15C42
:10CE500004E201D042D7E16AE552E16EE552E7CF44
:10CE6000D9FF1200F29AB3DD77DDF28A1200D9CF32
:10CE7000E6FFE1CFD9FF020EE126DF6E010EDB6A8D
:10CE800088EC50F0050ED56ED08EF184E00EF26E77
:10CE9000D58EDF5004E0DF50C214DF6EFAD70001F8
:10CEA000705135E06C5102E0A1DD30D0010EDB5055
:10CEB0002DE1EFEC5CF0020EE66EE66A64C0E6FF80
:10CEC00065C0E6FF78EC5EF0E552E552E552E552CA
:10CED000010EE66EE66A62C0E6FF63C0E6FF78EC2C
:10CEE0005EF0E552E552E552E552000EE66EE66A66
:10CEF00060C0E6FF61C0E6FF78EC5EF0E552E55207
:10CF0000E552E552AFDFDE52010EDD6E01D0C9DE23
:10CF10000001726B92EC50F0000903E0C2DE010EDA
:10CF2000DB6A0001715121E0820EE66EE66AE66A74
:10CF3000000EE66EE66AE66AE66A9BEC71F0006E49
:10CF4000070EE15E0050820EE66EE66AE66A000EAB
:10CF5000E66EE66A070EE66EE66A9BEC71F0006E1E
:10CF6000070EE15E00500001716B93D7020EE15C89
:10CF700002E2E16AE552E16EE552E7CFD9FF120025
:10CF8000FCEC6CF0FB0EDBCFF3FFDB06F35000098B
:10CF90000AE04AEC6DF0FA0EB5EC6DF0F3E1011C1D
:10CFA000F1E1010E01D0000E2BEF6DF0FCEC6CF006
:10CFB0003B0EE12402E3E168E652E16E010EDB6A1A
:10CFC000020EDB6AF90EDBCFF6FFFA0EDBCFF7FFBE
:10CFD000FB0EDBCFF8FF0800F550DF6EDF5002E1FB
:10CFE0004FEF6CF0250EDF5C02E042EF6CF0030EB9
:10CFF000DB6A040EDB6A050EDB6A060EDB6A070ECF
:10D00000DB6A64EC6CF02D0EDF5C0CE02B0EDF5C59
:10D0100009E0200EDF5C06E0230EDF5C03E0300E4B
:10D02000DF5C1AE1DF50300A14E0130A0FE0030A54
:10D030000AE00B0A05E0060AE4E1030EDB80E1D713
:10D04000030EDB82DED7030EDB84DBD7030EDB8629
:10D05000D8D7030EDB88D5D72A0EDF5C1BE160EC46
:10D060006CF0AEEC6CF010E0030EDB802068216801
:10D07000130EDBCF25F0140EDBCF26F079EC77F022
:10D08000040E1EC0DBFF03D0130E97EC6CF064ECB3
:10D090006CF00BD0090EDB6A05EC6DF003E079EC67
:10D0A0006DF0FAD7090E97EC6CF0030EDBB0DB984D
:10D0B0002E0EDF5C1BE164EC6CF02A0EDF5C0BE1F2
:10D0C00060EC6CF0AEEC6CF003E1130EE9EC6CF08C
:10D0D00064EC6CF00BD0090EDB6A05EC6DF003E03C
:10D0E00079EC6DF0FAD7090EE9EC6CF0680EDF5CB4
:10D0F00007E164EC6CF0680EDF5C1DE1030E18D0F4
:10D10000740EDF5C17E07A0EDF5C14E0480EDF5C23
:10D1100006E0540EDF5C03E05A0EDF5C02E1020E13
:10D1200007D06C0EDF5C03E06A0EDF5C04E1010EE9
:10D130003CEC6DF0C9DBDF506E0A01E17FD31E0AC3
:10D1400001E192D1200A01E18FD13F0A01E149D1E9
:10D150001A0A01E146D10D0A01E143D1200A01E199
:10D1600040D13A0A01E13DD1200A01E13AD1260A33
:10D1700001E135D10D0A01E132D11A0A01E1D9D01C
:10D18000200A4AE0300A1FE0460A0EE0250A01E0C4
:10D1900083D3D950F90FE96EFF0EDA20EA6E010E43
:10D1A000EE5E000EEE5AEE5A4AEC6DF0250EE66E7B
:10D1B00095DB03E1011C01E169D346EC6DF001E26E
:10D1C0006BD3DB2A69D3080EDB6A040EDB5001083F
:10D1D00006E2040EDB040EEC6DF0DB508BDB080E78
:10D1E000DB5009E0030EDB50010B05E172DB01E0CF
:10D1F0004DD3080EDB6A64DBEFCFDFFFBEEC6DF0D2
:10D2000003E1011C01E142D346EC6DF001E3DB2AAE
:10D2100060DB01E141D33AD3070EDB5002080FE196
:10D220008AEC6DF0030E51EC6DF00E0EEECFDBFFCD
:10D230000F0EEECFDBFF100EEECFDBFF20D0F70E90
:10D24000DBCF03F0F80EDBCF04F0020E035E000E1E
:10D25000045AF70E03C0DBFFF80E04C0DBFF03C067
:10D26000E9FF04C0EAFF41EC6DF0026A0E0E00C057
:10D27000DBFF0F0E01C0DBFF100E02C0DBFF0E0E46
:10D28000DBCFE6FF0F0EDBCFE6FF100EDBCFE6FFB6
:10D29000A6EC02F0E552E552E552130E1FC0DBFF8B
:10D2A000140E20C0DBFF060EDB5005E0130E85ECEC
:10D2B0006DF001E26ADBA9EC6DF002E2130E37DBE0
:10D2C0006CEC6DF006E0040E85EC6DF002E2050EEC
:10D2D0002EDB030EDBB005D0FCDA01E0D7D2080E5E
:10D2E000DB6A090EDB6A0E0EDBCFF6FF0F0EDBCF1B
:10D2F000F7FF100EDBCFF8FF0800F550DF6EDF50B0
:10D3000014E0AFEC6DF011E2BEEC6DF003E1011C36
:10D3100001E1BCD2BBDB01E3DB2A090EDB2AD950D9
:10D320000E0FE96E000ECBDBE7D7D3DA01E1B4D202
:10D33000ADD2C6DA110EEECFDBFF120EEDCFDBFF62
:10D34000110EDBCFE6FF120EDBCFE6FF98EC02F00A
:10D35000E552E552130EF3CFDBFF140EF4CFDBFFE3
:10D36000060EDB5004E0130ED0DB01E20EDBA9EC6D
:10D370006DF002E2130EDBDAAFDB05E0040EC5DB75
:10D3800002E2050ED4DA030EDBB005D0A2DA01E02A
:10D390007DD2080EDB6A090EDB6A110EDBCFE9FFD6
:10D3A000120EDBCFEAFFEFCFDFFFDF5014E0D7DB59
:10D3B00012E2E4DB03E1011C01E168D267DB01E377
:10D3C000DB2A090EDB2A110EDB2ADBCFE9FF120E66
:10D3D000E8E3DB2AE6D77DDA01E15ED257D2030E1D
:10D3E000DB8E070EDB0410E195DB040E5ADB0A0E20
:10D3F000EECFDBFF0B0EEECFDBFF0C0EEECFDBFF35
:10D400000D0EEECFDBFF6CD0070EDB5003082CE1D6
:10D41000030EDBAE0DD0B2DA020E76DAEFCF00F0FB
:10D42000016A026A036A00AE39D00168026835D029
:10D43000F70EDBCF01F0F80EDBCF02F0020E015E3B
:10D44000000E025AF70E01C0DBFFF80E02C0DBFF30
:10D4500001C0E9FF02C0EAFFEFCF00F00A0E00C0F2
:10D46000DBFF0B0EDB6A38D0070EDB50020809E148
:10D47000030EDBAE04D059DB02AE10D00ED055DB6C
:10D480000DD0030EDBAE12D079DA020E3DDAF9DAF6
:10D49000026A036A01AE02D002680368E2DA0C0E87
:10D4A00002C0DBFF0D0E03C0DBFF1AD0F70EDBCF8F
:10D4B00002F0F80EDBCF03F0020E025E000E035AFC
:10D4C000F70E02C0DBFFF80E03C0DBFF02C0E9FF6E
:10D4D00003C0EAFFD6DAC5DA0C0EDB6A0D0EDB6A92
:10D4E000060EDB5005E1010EF36E050EF3CFDBFFF8
:10D4F000150EDB6A160EDB6AD950370F006E000E70
:10D50000DA20016E390E00C0DBFF3A0E01C0DBFFEE
:10D51000380EDB6A080EDB6A0A0EAEDADF50780AD4
:10D5200012E0200A10E0280A0CE0200A0AE03F0A74
:10D5300006E00D0A02E0200A08E1020E05D0080EFE
:10D5400003D0080EDF26100E97DA030EDBBE02D0E2
:10D55000DB92DB94DB50800B24E08ADAD890030E58
:10D56000EB50000A08E6000EEE5C000EEE58000ECE
:10D57000EE58000EEE5815E213DA23682468256889
:10D58000266860EC02F00A0E1AC0DBFF0B0E1BC00F
:10D59000DBFF0C0E1CC0DBFF0D0E1DC0DBFF2D0ED4
:10D5A00008D0030EDBA202D02B0E03D0DBA408D0E0
:10D5B000200EF36E170EF3CFDBFF150EDB2A02D021
:10D5C000170EDB6A050EDB5003E1B7D901E189D004
:10D5D000E40E006EFF0E016E000E026E070EDBCF32
:10D5E00003F0046A056A066A03C023F004C024F04D
:10D5F00005C025F006C026F0D3D925EC03F0005075
:10D600001A24F36E01501B20F46E02501C20F86E99
:10D61000F4CFF7FFF3CFF6FF0800090EF5CFDBFFDD
:10D62000580EDF5C0FE1610EF36E090E7BD90AE341
:10D63000200E006E090EDBCFE7FF0050E75E090EFB
:10D64000E7CFDBFF070EDBCF00F0016A026A036A57
:10D650000FDA00C023F001C024F002C025F003C09F
:10D6600026F0EECF1EF0EECF1FF0EECF20F0EFCF82
:10D6700021F025EC03F021C0EDFF20C0EDFF1FC01D
:10D68000EDFF1EC0EFFF390EDBCFE9FFDB063A0EE0
:10D69000DBCFEAFF01E2DB06090EDBCFEFFF150E61
:10D6A000DB2A4BD995E1030EDBA61DD06F0EDF5CA4
:10D6B00006E1C1D918E3150EDB285BDA14D0780E29
:10D6C000DF5C09E0580EDF5C06E0620EDF5C03E021
:10D6D000420EDF5C08E1020EF36E160EF3CFDBFFA5
:10D6E00002D0150EDB6A030EDB50100B0EE0040EA9
:10D6F000DBCF00F0050EDB50D880005406E2060EAA
:10D70000DB5003E1040EDB5034DA95D90AE2050E52
:10D71000DBCFE7FF150EDB50E75E050EE7CFDBFF43
:10D7200002D0050EDB6A040EDBCF00F0160E45D9E1
:10D73000D880005414E2160EDBCFE6FF150EDBCFC7
:10D74000E6FF040EDBCFE6FF050EDB50E552E75C9B
:10D75000E552D880E754E552D880E7545FD9030EEC
:10D76000DB50010B0BE1080EDB5008E0B2D801E002
:10D770008DD0080EDB50BED8080EDB6A170EDB50CA
:10D7800007E088D9170EF1D903E1011C01E17ED031
:10D79000160EDB5016E07ED9300EE66E9FD802E101
:10D7A000011C74E077D9DFCFE6FF1EEC02F0E552F2
:10D7B000E552E552F4CF01F00001F31C02E1011C37
:10D7C00065E0050EDBCF00F0160EDB50D88000546C
:10D7D00009E2050EDBCFE7FF160EDB50E75E050E14
:10D7E000E7CFDBFF300EE66E050ECBD94FE1390EE9
:10D7F000DB2ADBCFE9FF3A0E01E3DB2ADBCFEAFFCE
:10D80000090EEFCFDBFFDB500EE044D9090EADD996
:10D8100002E1011C3BE0390EDB2ADBCFE9FF3A0EC7
:10D82000EDE3DB2AEBD755D831E1160EDBCFE6FF6F
:10D83000080EC3D8E552E7245DD82ED0070EDB5082
:10D84000030A1CE0010A14E0030A07E07BD9DBCFDE
:10D85000EEFF020EDBCFEDFF1FD0F5D8056A03AE59
:10D8600002D0046805682CD8BCD805C0EEFF14D0DF
:10D87000EAD803BE046824D8B4D80ED063D9DBCF6D
:10D88000EFFF0AD07BD905E1011C03E1F368F468DE
:10D8900010D0FCD801E3DB2A79D9EBEF67F0010E59
:10D8A000DBCF00F0020EDBCF01F000C0F3FF01C0C0
:10D8B000F4FF3B0EE15C02E2E16AE552E16ECBD09F
:10D8C00029D9020E51EF6DF061D90800F550DF6ED5
:10D8D0001200200EE66E080EC1EF6DF01EEC02F095
:10D8E000E552E552E552F3CF00F0F4CF01F000012C
:10D8F000F31C1200006E016AD950010F4DD900507F
:10D90000EE260150ED221200045E000E055AF70EBD
:10D9100004C0DBFFF80E05C0DBFF04C0E9FF05C053
:10D92000EAFF1200DBCFF4FFF350F45C1200DB508F
:10D93000E76E040EE7CFDBFF12000A0EDBCF00F02C
:10D940000B0EDBCF01F00C0EDBCF02F00D0EDBCFA8
:10D9500003F000500110021003101200130EEECF5E
:10D96000DBFF140EEDCFDBFF130EDBCF00F0140E48
:10D97000DBCF01F00001800E01141200F70EDBCFA7
:10D9800004F0F80EDBCF05F01200050EDB50E66E5A
:10D99000D950130F01D9E552E750EE6EED6A12002F
:10D9A0000A0EDBCF1EF00B0EDBCF1FF00C0EDBCF11
:10D9B00020F00D0EDBCF21F01200DBCFE6FF150EBD
:10D9C000DBCFE6FF050EDB50E552E724E552E72406
:10D9D0001200DB50CED8010EF36E060EF3CFDBFF44
:10D9E0001200EE50EFCFEAFFE96E02C0EEFF03C077
:10D9F000EEFF04C0EEFF1200D9CFE6FFDACFE6FF5C
:10DA0000E1CFD9FFE2CFDAFF1200DFCFE6FFE66A0F
:10DA10005FEC03F0E552E552F3501200E76E080E9A
:10DA2000E7CFDBFF1200EECF00F0EECF01F0EFCF3B
:10DA300002F0036A1200050EDBCF00F0150EDB507A
:10DA4000D88000541200010EDBCF02F0020EDBCFB3
:10DA500003F0046A1200E552E5CFDAFFE7CFD9FF01
:10DA600012000A0E00C0DBFF0B0E01C0DBFF12002C
:10DA7000D9500A0FCCEF6DF0F36E070EF3CFDBFF3A
:10DA80001200EECF00F0EFCF01F01200010EDB2A02
:10DA9000020E1200FC0EDBCFE6FFFD0EDBCFE6FF31
:10DAA0001200005E000E015AF70E00C0DBFFF80EF8
:10DAB00001C0DBFF00C0E9FF01C0EAFF1200DA206D
:10DAC000EA6EEF2AEECFF6FF000EEF22EECFF7FF61
:10DAD000EF22EECFF8FF1200040EDBCFE6FF130EAD
:10DAE000DB50E552E75C9ADFDB5004DF060EDB50CB
:10DAF0001200090EDB500A0DF350DF24D00FE76E41
:10DB0000090EE7CFDBFF64EF6CF0DB50F36E050E20
:10DB100092EF6CF0F70EDBCF00F0F80EDBCF01F0E8
:10DB20001200DFCFE6FF6EEF6CF028DF030EECDEB5
:10DB300013EF6DF0C0EC67F0E552E552E552E552A7
:10DB400000091200BDDEEE50EFCFEAFFE96E010ED4
:10DB50001200130EDB50F36E040E92EF6CF0040E05
:10DB6000DB50F36E090E92EF6CF0DBCFE6FF6EEF49
:10DB70006CF0E76E050EE7CFDBFF12008BDF91EF55
:10DB80006DF0DBCFE6FF86DF9AEF6DF0D950F90F2D
:10DB9000E96EFF0E5FEF6DF0E96E000EDA20EA6EBF
:02DBA000120071
:0EDBA200D9CFE6FFE1CFD9FF020EE126FD0E3E
:10DBB000DBCF00F0DB06FE0EDBCF01F001E2DB067F
:10DBC0000050011011E0DE6ADD6ADECF00F0DDCF2B
:10DBD00001F0E30E005C0D0E015805E2DF2A010E94
:10DBE00001E3DB2AF2D7E3D7020EE15C02E2E16A4D
:10DBF000E552E16EE552E7CFD9FF1200D9CFE6FF3B
:10DC0000E1CFD9FF060EE1268D9296928D909690E7
:10DC10008D8496948A9A939A8C92DE6ADE6ADE6A82
:10DC2000DD6ADD52DD52D9CFE9FFDACFEAFF640EBB
:10DC3000EE5C000EEE58000EEE58000EEE580AE2B2
:10DC4000D9CFE9FFDACFEAFFEE2A000EEE22EE226C
:10DC5000EE22E9D78C82DE6ADE6ADE6ADD6ADD5298
:10DC6000DD52D9CFE9FFDACFEAFF640EEE5C000E99
:10DC7000EE58000EEE58000EEE580AE2D9CFE9FF3A
:10DC8000DACFEAFFEE2A000EEE22EE22EE22E9D7EC
:10DC9000AE0EE66E70D8E552DB0EE66E6CD8E5523D
:10DCA000230EE66E68D8E552D90EE66E64D8E552CA
:10DCB000220EE66E60D8E552A10EE66E5CD8E55203
:10DCC000C80EE66E58D8E552DA0EE66E54D8E55224
:10DCD000120EE66E50D8E552A80EE66E4CD8E5520C
:10DCE0003F0EE66E48D8E552D50EE66E44D8E552B2
:10DCF000A00EE66E40D8E552810EE66E3CD8E552A5
:10DD0000600EE66E38D8E552D30EE66E34D8E55292
:10DD1000E66A31D8E552A60EE66E2DD8E552AD0E74
:10DD2000E66E29D8E5528B0EE66E25D8E552AF0E89
:10DD3000E66E21D8E5520A0EE66EE66A32DFE5525B
:10DD4000E552A40EE66E17D8E552400EE66E13D8E3
:10DD5000E552020EE66E0FD8E552100EE66E0BD8B5
:10DD6000E552060EE15C02E2E16AE552E16EE5523F
:10DD7000E7CFD9FF1200D9CFE6FFE1CFD9FF956AEF
:10DD8000FE0EDB508C6E8D808D828A9A8D948D92E2
:10DD90008D828D849568E552E7CFD9FF1200D9CFE7
:10DDA000E6FFE1CFD9FF956AFE0EDB508C6E8D80C9
:10DDB0008D828A8A8D948D928D828D849568E552AC
:10DDC000E7CFD9FF1200D9CFE6FFE1CFD9FF020E8E
:10DDD000E126B00EDF6EB80EDF5C23E2DFCFE6FF98
:10DDE000CADFE552020EE66EC6DFE552100EE66EA1
:10DDF000C2DFE552010EDB6ADB50006E016AD8908B
:10DE0000015004E6840E005C000E015808E2FE0E8C
:10DE1000DBCFE6FFC4DFE552010EDB2AEDD7DF2AB8
:10DE2000DAD7020EE15C03E200D0E16AE552E16E6E
:10DE3000E552E7CFD9FF1200D9CFE6FFE1CFD9FFF6
:10DE4000200E006EFE0EDBCFE7FF0050E75EFE0EF9
:10DE5000E7CFDBFFDBCFF6FFF76AF6BEF768050E0C
:10DE6000F702F3CFF7FFF602F3CFF6FFF450F726F1
:10DE7000660EF626F80EF7220800F550E66E8FDFE4
:10DE8000E552FE0EDBCFF6FFF76AF6BEF768050E29
:10DE9000F702F3CFF7FFF602F3CFF6FFF450F726C1
:10DEA000660EF626F80EF722010EF626000EF72271
:10DEB0000800F550E66E73DFE552FE0EDBCFF6FF8D
:10DEC000F76AF6BEF768050EF702F3CFF7FFF60222
:10DED000F3CFF6FFF450F726660EF626F80EF7227B
:10DEE000020EF626000EF7220800F550E66E57DF08
:10DEF000E552FE0EDBCFF6FFF76AF6BEF768050EB9
:10DF0000F702F3CFF7FFF602F3CFF6FFF450F72650
:10DF1000660EF626F80EF722030EF626000EF722FE
:10DF20000800F550E66E3BDFE552FE0EDBCFF6FF54
:10DF3000F76AF6BEF768050EF702F3CFF7FFF602B1
:10DF4000F3CFF6FFF450F726660EF626F80EF7220A
:10DF5000040EF626000EF7220800F550E66E1FDFCD
:10DF6000E552E66A1CDFE55200D0E552E7CFD9FF63
:10DF70001200D9CFE6FFE1CFD9FFE652FD0EDBCF8D
:10DF8000E6FFF9DEE552020E006EFC0EDBCFE7FF86
:10DF90000050E726FC0EE7CFDBFFDB500F0BE66EF1
:10DFA000EADEE552FC0EDB380F0B0F0B100FE66EAE
:10DFB000E2DEE552FE0EDBCFE6FF3EDFE55200D0AB
:10DFC000E552E552E7CFD9FF1200D9CFE6FFE1CF06
:10DFD000D9FFFC0EDB50B00FE76EFC0EE7CFDBFF86
:10DFE000FB0EDBCFE6FFFC0EDBCFE6FFFD0EDBCF4B
:10DFF000F6FFFE0EDBCFF7FF0800F550E66EB9DF47
:10E00000E552E552E552FD0EDB2ADBCFF6FFFE0EB0
:10E0100001E3DB2ADBCFF7FF0800F5500CE0FD0E33
:10E02000DBCFF6FFFE0EDBCFF7FF0800F550E66E04
:10E0300003DFE552E8D7E552E7CFD9FF1200D9CF89
:10E04000E6FFE1CFD9FFFC0EDB50B00FE76EFC0E10
:10E05000E7CFDBFFFB0EDBCFE6FFFC0EDBCFE6FFFF
:10E06000FD0EDBCFE9FFFE0EDBCFEAFFEF50E66EE1
:10E0700080DFE552E552E552FD0EDB2ADBCFE9FFFA
:10E08000FE0E01E3DB2ADBCFEAFFEF500BE0FD0ED3
:10E09000DBCFE9FFFE0EDBCFEAFFEF50E66ECCDE12
:10E0A000E552EAD7E552E7CFD9FF1200D9CFE6FF14
:10E0B000E1CFD9FF050EE126030EDB6A040EDB6A11
:10E0C000020E006EFA0EDBCFE7FF0050E726FA0ED5
:10E0D000E7CFDBFFF90EDB50B00FDF6EFB0EDB503E
:10E0E000B00FDF5C35E2DFCFE6FF45DEE552FA0E2A
:10E0F000DB500F0BE66E3FDEE552FA0EDB380F0BFE
:10E100000F0B1009E66E37DEE552010EDB6AFC0EDE
:10E11000DB50F36E010EDBCFF4FFF350F45C16E23C
:10E12000030EDB2A040E01E3DB2AFD0EDBCFF6FF34
:10E13000DB2AFE0EDBCFF7FF01E3DB2A0800F550F8
:10E14000E66E2DDEE552010EDB2AE1D7DF2AC6D7C7
:10E15000050EE15C03E200D0E16AE552E16EE552B2
:10E16000E7CFD9FF1200D9CFE6FFE1CFD9FF020EEA
:10E17000E126DE6ADD6ADECF00F0DDCF01F0FC0EC5
:10E18000DBCF02F0FD0EDBCF03F001500318E8AE49
:10E1900002D0033404D00250005C035001581BE24B
:10E1A000FA0EDB50026E036ADE500224006EDD5070
:10E1B0000320016E0050E66EFB0EDBCFE6FFFE0E85
:10E1C000DBCFE6FFD6DEE552E552E552DF2A010E4F
:10E1D00001E3DB2AD0D7020EE15C02E2E16AE552FC
:10E1E000E16EE552E7CFD9FF1200D9CFE6FFE1CFCC
:10E1F000D9FF020EE126FE0EDB50B00FE76EFE0ED9
:10E20000E7CFDBFFDE6ADD6ADECF00F0DDCF01F0B5
:10E21000D890015004E6180E005C000E01581AE276
:10E22000FD0EDB50026E036ADE500224006EDD50EC
:10E230000320016E0050E66EFE0EDBCFE6FF2D0ED2
:10E24000E66E97DEE552E552E552DF2A010E01E364
:10E25000DB2ADAD7DE6ADD6ADECF00F0DDCF01F03F
:10E26000D890015004E6180E005C000E01581BE225
:10E27000FD0EDB50026E036ADE500224006EDD509C
:10E280000320016E0050E66EFE0EDB50040FE66EBA
:10E290002D0EE66E6EDEE552E552E552DF2A010EE6
:10E2A00001E3DB2AD9D7DE6ADD6ADECF00F0DDCFFD
:10E2B00001F0D890015004E6050E005C000E0158F4
:10E2C00030E2FD0EDBCFE6FFFE0EDB50026E036A8E
:10E2D000DE500224006EDD500320016E0050E66E19
:10E2E0007C0EE66E46DEE552E552E552FD0EDB5051
:10E2F000190FE66EFE0EDB50026E036ADE5002243A
:10E30000006EDD500320016E0050E66E7C0EE66E5E
:10E3100030DEE552E552E552DF2A010E01E3DB2A49
:10E32000C4D7020EE15C02E2E16AE552E16EE55219
:10E33000E7CFD9FF1200D9CFE6FFE1CFD9FF020E18
:10E34000E126FD0EDB50B00FE76EFD0EE7CFDBFFE1
:10E35000DB50DF6EDF50006E016AFD0EDB50046E95
:10E36000056AFB0EDB500424026EFC0EDB50052018
:10E37000036E03500118E8AE02D0013404D00050FF
:10E38000025C0150035836E3DFCFE6FFF4DCE552D0
:10E39000020EE66EF0DCE552100EE66EECDCE552A5
:10E3A000FA0EDB50E76E010EE7CFDBFFDB50006EAD
:10E3B000016AFA0EDB50046E056AF80EDB50042485
:10E3C000026EF90EDB500520036E01500318E8AE13
:10E3D00002D0033404D00250005C0350015808E21C
:10E3E000FE0EDBCFE6FFDBDCE552010EDB2ADED7DB
:10E3F000DF2AB0D7020EE15C03E200D0E16AE55209
:10E40000E16EE552E7CFD9FF1200D9CFE6FFE1CFA9
:10E41000D9FF070EE126B00EF36E060EF3CFDBFF39
:10E42000020E006EFD0EDBCFE7FF0050E726FD0E6B
:10E43000E7CFDBFF200E006EFE0EDBCFE7FF0050C4
:10E44000E75EFE0EE7CFDBFF050EF36E040EF3CFA3
:10E45000DBFF050EDB6A040EDBCF00F0050EDBCF21
:10E4600001F0013404E200500108000E015474E28E
:10E47000060EDBCFE7FF040EDB50E726060EE7CFE4
:10E48000DBFFDBCFE6FF77DCE552FD0EDB500F0B49
:10E49000E66E71DCE552FD0EDB380F0B0F0B100F33
:10E4A000E66E69DCE552DE6ADD6ADECF00F0DDCFC4
:10E4B00001F0D890015004E6050E005C000E0158F2
:10E4C0003BE2020EDB6A030EDB6A020EDBCF00F0DA
:10E4D000030EDBCF01F0D890015004E6030E005C80
:10E4E000000E015824E2FE0EDBCF00F0016A00BEF0
:10E4F0000168050E0102F3CF01F00002F3CF00F036
:10E50000F4500126410E0026FA0E0122DE500024AE
:10E51000F66EDD500120F76E0800F550E66E3FDC28
:10E52000E552020EDB2A030E01E3DB2ACED7DF2AF7
:10E53000010E01E3DB2AB9D7B00EF36E060EF3CF5E
:10E54000DBFFFE0EDB2AE66A2ADCE552040EDB0660
:10E55000050E01E2DB067FD7070EE15C03E200D087
:0EE56000E16AE552E16EE552E7CFD9FF120005
:02E56E00D9CF03
:10E57000E6FFE1CFD9FFE65295688D808D828A8AC9
:10E580008D948D900000000000000000000000004D
:10E5900000008D8000008D9000008350DF6E8D8024
:10E5A0008D84E552E552E7CFD9FF1200D9CFE6FFBF
:10E5B000E1CFD9FF020EE126FD0EDBCFE9FFFE0E13
:10E5C000DBCFEAFFEF50DE6EDD6AF90EDBCFE9FF4D
:10E5D000FA0EDBCFEAFFEF50E66EFD0EDBCFE9FF70
:10E5E000FE0EDBCFEAFFE552E750EF6EF90EDBCF10
:10E5F000E9FFFA0EDBCFEAFFDFCFEFFFFB0EDBCF49
:10E60000E9FFFC0EDBCFEAFFEF50DE6EDD6AF70EAE
:10E61000DBCFE9FFF80EDBCFEAFFEF50E66EFB0E33
:10E62000DBCFE9FFFC0EDBCFEAFFE552E750EF6EF0
:10E63000F70EDBCFE9FFF80EDBCFEAFFDFCFEFFF0E
:10E64000020EE15C02E2E16AE552E16EE552E7CFDB
:10E65000D9FF1200D9CFE6FFE1CFD9FFE652E00E95
:10E66000E66EBBEC6EF0E55282DFDF6EFE0EDB5035
:10E67000DF1ADFCFE6FFCFEC6EF0E552EE0EE66E6E
:10E68000BBEC6EF0E552E552E552E7CFD9FF120040
:10E69000D9CFE6FFE1CFD9FFFE0EDB50B00FE66E1B
:10E6A000BBEC6EF0E552020E006EFD0EDBCFE7FF15
:10E6B0000050E726FD0EE7CFDBFFDB500F0BE66EC9
:10E6C000BBEC6EF0E552FD0EDB380F0B0F0B100F9D
:10E6D000E66EBBEC6EF0E552E552E7CFD9FF1200D3
:10E6E000D9CFE6FFE1CFD9FF040EE126DF6AFD0EA8
:10E6F000DB40E840E8401F0BE76E020EE7CFDBFF90
:10E70000FD0EDB50070BE76E030EE7CFDBFF010EBC
:10E71000DB6A030EDB50070815E3FC0EDB5012E04A
:10E72000010EF36E030EDB5004E0D890F336E806DA
:10E73000FCE1F350DF12010EDB2AFC0EDB06030EB8
:10E74000DB2AE7D7FE0EDBCFE6FF020EDBCFE6FFCC
:10E750009FDFE552E552DFCFE6FF7CDFE552FB0E9F
:10E76000DBCF00F0000EE76E0018E8AE02D00034F8
:10E7700003D0E750D880005419E2FE0EDB50016E42
:10E78000026AD890025004E6830E015C000E025823
:10E790000DE2FE0EDB28E66E020EDBCFE6FF78DF31
:10E7A000E552E552DFCFE6FF55DFE552FB0EDBCF4A
:10E7B00000F0010EE76E0018E8AE02D0003403D07E
:10E7C000E750D880005411E2FE0EDB5000080DE245
:10E7D000FE0EDB04E66E020EDBCFE6FF59DFE552EC
:10E7E000E552DFCFE6FF36DFE552010EDB50006E6B
:10E7F000040EE15C03E200D0E16AE552E16E0050F4
:10E80000E552E7CFD9FF1200D9CFE6FFE1CFD9FF1C
:10E81000020EE126010EDF6EFC0EDBCF00F0000ED3
:10E82000E76E0018E8AE02D0003403D0E750D8807D
:10E83000005407E2FD0EDB50000803E2FD0EDB068C
:10E84000DF2AFC0EDBCF00F0010EE76E0018E8AE09
:10E8500002D0003403D0E750D880005408E2FD0E07
:10E86000DB50DF24016E3F0E015C01E2DF2ADF5046
:10E870001EE0E66ADFCFE6FFFD0EDBCFE6FFFE0E11
:10E88000DBCFE6FF2DDFE552E552E552E552E76EBC
:10E89000010EE7CFDBFFDB50DF5EFD0EDBCFE7FFD6
:10E8A000010EDB50E726FD0EE7CFDBFFE0D7020EBF
:10E8B000E15C02E2E16AE552E16EE552E7CFD9FFA1
:10E8C0001200D9CFE6FFE1CFD9FF160EE126FD0EEB
:10E8D000DBCF00F0FB0EDB50D88000541DE2D95096
:10E8E000FB0FE66EFF0EDA20E66ED950FC0FE66EE7
:10E8F000FF0EDA20E66ED950FD0FE66EFF0EDA202D
:10E90000E66ED950FE0FE66EFF0EDA20E66E4EDEA2
:10E91000006E080EE15E0050FB0EDBCFE6FFFD0E41
:10E92000DB50E552E75C010FE76E060EE7CFDBFF39
:10E93000FE0EDB50F36EFC0EDBCFF4FFF350F45C05
:10E9400014E3FC0EDBCFE6FFFE0EDB50E552E75C86
:10E95000010FE76E050EE7CFDBFF010EF36E070E2A
:10E96000F3CFDBFF080EDB6A10D0FE0EDBCFE6FF35
:10E97000FC0EDB50E552E75C010FE76E050EE7CFBA
:10E98000DBFF070EDB68080EDB68050EDB50F36E5D
:10E99000060EDBCFF4FFF350F45C01E2CCD0060EA0
:10E9A000DB50640D0D0EF3CFDBFF0E0EF4CFDBFF5B
:10E9B000050EDB50006E016A0D0EDBCF20F00E0E4F
:10E9C000DBCF21F000C025F001C026F053EC77F03A
:10E9D0000B0E20C0DBFF0C0E21C0DBFFFE0EDB5058
:10E9E000DF6EFD0EDB50E76E010EE7CFDBFF150E8D
:10E9F000DB6AFC0EDB50006E016A00C020F001C033
:10EA000021F0070EDBCF25F0080EDBCF26F079ECE6
:10EA100077F0090E1EC0DBFF0A0E1FC0DBFFDF50C0
:10EA2000026E036A02C020F003C021F0070EDBCFA4
:10EA300025F0080EDBCF26F079EC77F01EC000F051
:10EA40001FC001F0090EDBCF04F00A0EDBCF05F08A
:10EA500005500118E8AE02D0013404D00050045C27
:10EA60000150055867E3640E026E036A150EDB5011
:10EA7000E76E0B0EDBCF00F00C0EDBCF01F0E750A2
:10EA80000026000E0122130E00C0DBFF140E01C091
:10EA9000DBFF00C020F001C021F002C025F003C060
:10EAA00026F053EC77F0020E20C0DBFF130EDBCF15
:10EAB00000F0140EDBCF01F0640E256E266A00C054
:10EAC00020F001C021F053EC77F01CC000F01DC015
:10EAD00001F0150E00C0DBFF020EDB5027E0FA0E3E
:10EAE000DBCFE6FF020EDBCFE6FF010EDBCFE6FF5A
:10EAF000DFCFE6FFF5DDE552E552E552E552E76E80
:10EB0000040EE7CFDBFF020EDBCFE7FF040EDB5086
:10EB1000E75E020EE7CFDBFF010EDBCFE7FF040E5F
:10EB2000DB50E726010EE7CFDBFFD6D7070EDB5021
:10EB3000DF2675D785D0050EDB50640D110EF3CF9F
:10EB4000DBFF120EF4CFDBFF060EDB50006E016A16
:10EB5000110EDBCF20F0120EDBCF21F000C025F02C
:10EB600001C026F053EC77F00F0E20C0DBFF100E33
:10EB700021C0DBFFFE0EDB50DF6EFD0EDB50E76ECB
:10EB8000010EE7CFDBFF150EDB6A010EDBCF00F0D5
:10EB9000FB0EDB50D880005453E3640E026E036A10
:10EBA000150EDB50E76E0F0EDBCF00F0100EDBCF43
:10EBB00001F0E7500026000E0122130E00C0DBFF1B
:10EBC000140E01C0DBFF00C020F001C021F002C024
:10EBD00025F003C026F053EC77F0030E20C0DBFFD6
:10EBE000130EDBCF00F0140EDBCF01F0640E256EA8
:10EBF000266A00C020F001C021F053EC77F01CC061
:10EC000000F01DC001F0150E00C0DBFF030EDBCFCE
:10EC1000F3FFDB06F350000910E0FA0EDBCFE6FF4E
:10EC2000010EDBCFE6FFDFCFE6FFEEDDE552E5527A
:10EC3000E552070EDB50DF26E9D7010EDB2AA5D708
:10EC4000150EDB5032080CE2FA0EDBCFE6FF010EA8
:10EC5000DBCFE6FFDFCFE6FFD7DDE552E552E55239
:10EC6000160EE15C02E2E16AE552E16EE552E7CFA1
:04EC7000D9FF1200B6
:0CEC7400199E08D0199E21AE05D0206C1E
:10EC8000211EE86A2122198E21C01BF020C01AF033
:10EC90002B6A2A6A8E0E1C6E1D6AF1EF77F0277EB2
:10ECA000196A2DEC78F045EC78F019B6D5EF77F0CD
:10ECB00019A20AD019AA03D019BED5EF77F019A46A
:10ECC000E1EF77F0DEEF77F019AA05D019ACE1EFAC
:10ECD00077F0DEEF77F019A00AD019A808D019BE96
:10ECE00004D019A402D0EAEF77F0EEEF77F02A6AA9
:10ECF0001D6A2750225C296E10E31FC02BF020C034
:10ED00001AF021C01BF022C028F024C01FF025C03B
:10ED100020F026C021F0193A09D024C02BF025C0DC
:10ED20001AF026C01BF027C028F0296C199E19BCC8
:10ED3000198E28C01CF019B01DEF78F01A0E29604A
:10ED40001DEF78F01C6A226A19A408D01F6C201EDF
:10ED5000211E221EE86A20222122222219AC08D07C
:10ED60002B6C1A1E1B1E1C1EE86A1A221B221C2258
:10ED70001E6A295207E02234213220321F321E320D
:10ED8000292EF9D71F502B2620501A2221501B2242
:10ED900022501C221EC02AF0199E1CAE0BD02A6CD9
:10EDA0002B1E1A1E1B1E1C1EE86A2B221A221B2257
:10EDB0001C22198E1CA006D0D8801B321A322B328E
:10EDC0002A32282A28C01CF0F1EF77F0196A2DECBE
:10EDD00078F045EC78F019B6D5EF77F019A205D0A8
:10EDE00019B8D5EF77F0DCEF77F019AA05D019B094
:10EDF000D5EF77F0DCEF77F019B002D019A802D088
:10EE0000E8EF77F01D6A275022241C6EE86A1D2265
:10EE10007E0E1C5EE86A1D5A2A6A2B6A1A6A1B6AF1
:10EE200026502102F4CF1BF0F3CF1AF02550210217
:10EE3000F3502B26F4501A22000E1B2226502002DB
:10EE4000F3502B26F4501A22000E1B2224502102CC
:10EE5000F3502A26F4502B22000E1A221B22255092
:10EE60002002F3502A26F4502B22000E1A221B22D5
:10EE700026501F02F3502A26F4502B22000E1A228D
:10EE80001B2224502002F4502A26000E2B221A2284
:10EE90001B2225501F02F4502A26000E2B221A2274
:10EEA0001B22F1EF77F0186A26AE5CEF77F0256C45
:10EEB000261EE86A2622181E21AE64EF77F0206C29
:10EEC000211EE86A2122181E49EC03F021BE74EFCE
:10EED00077F018AE000C206C211EE86A21221C6C11
:10EEE0001D1EE86A1D22000C18BE6BEF77F0198812
:10EEF000FF0C21C02BF020C02AF020502502F4CFB7
:10EF00001FF0F3CF1EF021502602F4CF21F0F3CFF3
:10EF100020F02502F3501F26F4502022E86A212217
:10EF20002A502602F3501F26F4502022E86A21229C
:10EF300026AE9FEF77F02A50205E2B50215A2BAE41
:10EF4000000C2550205E2650215A000C196A2DEC29
:10EF500078F019B6B0EF77F019A20ED019B405D039
:10EF60007F0E216EFF0E206E1FD0800E216E206A54
:10EF70001BD0216A206A18D019B0FBD78F0E2260EF
:10EF8000EDD77E0E2264F5D78E0E225C05E0D89078
:10EF900021322032222AF8D719A406D0206C211E53
:10EFA000E86A212221AEE5D712007F0E226EFF0E05
:10EFB000216E206E1F6E12007F0E19BEFF0E226E94
:10EFC00002D07F0E226E800E216E206A1F6AF3D758
:10EFD00019AE04D0800E226E216AF7D7226A216A08
:10EFE000F4D71B501A102B102A10F8E01DBEF0D7D2
:10EFF0001BBE0CD01C501D10EBE0D8902A362B36CF
:10F000001A361B361C06D8A01D06F2D71D50D4E1B7
:10F010001C28D2E02AAE11D07F0E2A1402E12BA0C8
:10F020000CD02B2AE86A1A221B2207E3D8801B3255
:10F030001A322B321C2A1C28BFE01C50C9E02BC0FE
:10F040001FF01AC020F01B34216E1C30226E2132BA
:10F05000229E19BE228EDBEF77F02136223602E3A4
:10F060001984197E06E11980226A216A206A1F6AC2
:10F070001200222803E0D88021321200D8902132D9
:10F0800002E119821200198612002636273602E3A1
:10F09000198C197E06E11988276A266A256A246A6E
:10F0A0001200272803E0D88026321200D89026329A
:10F0B000EAE1198A1200199E0CD0199E21AE09D0DE
:10F0C0001E6C1F1E201E211EE86A1F2220222122E4
:10F0D000198E21C01BF020C01AF01FC02BF01EC0DB
:10F0E0002AF09E0E1C6E1D6AF1EF77F0196A2DEC66
:10F0F00078F045EC78F019B6D5EF77F019A205D085
:10F1000019BAD5EF77F0DCEF77F019BAE8EF77F0BE
:10F1100019A005D019B8D5EF77F0E8EF77F019B856
:10F12000DCEF77F01D6A7F0E22241C6EE86A1D2238
:10F1300027501C5EE86A1D5A1A0E286E226A2A6A37
:10F140002B6A1A6A1B6A24501F5E2550205A2650CB
:10F15000215A000E225A09E724501F26255020224A
:10F1600026502122000E222201D02A8AD8901F3652
:10F17000203621362236D8902A362B361A361B36C0
:10F18000282EE1D7215020101F10D8A42A8AF1EF91
:10F1900077F0196A2DEC78F019B6D3EF78F019A250
:10F1A0000FD019B407D07F0E216EFF0E206E1F6E98
:10F1B0001E6E25D0800E216E01D0216A000EF6D77A
:10F1C00019B0FBD71E6A9F0E2260EBD77E0E226419
:10F1D000F4D79E0E225C07E0D890213220321F32F5
:10F1E0001E32222AF6D719A40AD01E6C1F1E201E1A
:10F1F000211EE86A1F222022212221AEDED7120022
:10F2000009EC79F019B6000C19B0000C19A4000C27
:10F21000010C196A2DEC78F045EC78F019B6120063
:10F2200019AE08D019A004D019A802D01980120074
:10F23000199012002750225C0BE12650215C08E156
:10F240002550205C05E124501F5C02E1198012006A
:10F25000D8A002D0198E10D0225027C022F0276EDD
:10F26000215026C021F0266E205025C020F0256EAA
:10F270001F5024C01FF0246E2750225C10E0FF0FA7
:10F2800009E0199019B403D019AE1984120019AE0F
:10F2900019941200272AD89026322532243224507D
:10F2A0001F5E2550205A2650215A21BEEAD7D890F9
:0CF2B0001F3620362136222EF8D7C8D792
:04F2BC00D9CFE6FFC1
:10F2C000DACFE6FFE1CFD9FFE2CFDAFF220EE12469
:10F2D00002E3E168E652E16ED950130FE66E000ECC
:10F2E000DA20E66EA8DA0FEC00F0006E060EE15CA4
:10F2F00002E2E16AE552E16E0050E76E0E0EE7CFE2
:10F30000DBFFDB50840B0CE0210E0001A56FA66B28
:10F310000F0EDB68100EDB68110EDB687F0E6ED0FF
