:020000040000FA
:06000000FFEF04F0120006
:020006001200E6
:0600080004EF50F01200AD
:060018000CEF50F0120095
:02001E00030ECF
:10002000B16EB392B390B396B288B28EB290B292E0
:10003000A494B38E12002F0E926E0F01E00E486F43
:100040001F0E496FC18EC19CC70EC1140809C16E35
:10005000F80EC1140209C16E498FC29CC29EC30E24
:10006000C2140809C26EC2801200D9DF1BEF00F073
:10007000D9CFE6FFE1CFD9FF020EE126FE0EDB501D
:100080000F0BF36EF346F346C30EC214F310C26EA9
:10009000FE0EDB50EA6AA70FE96E000EEA22EF506F
:1000A0003F0BF36EF346F346030EB114F310B16E3B
:1000B000B38EB382000000000000000000000000CA
:1000C0000000000000000000000000000000000030
:1000D000000000000000000000000000B392B280A9
:1000E0000000000000000000000000000000000010
:1000F0000000000000000000000000000000000000
:100100000000000000000000B2909E9CC2829EACE5
:10011000FED7C3CFDEFFC4CFDDFFDECF00F0DDCFE3
:1001200001F000C0F3FF01C0F4FF00D0020EE15C5B
:1001300002E2E16AE552E16EE552E7CFD9FF120033
:10014000D9CFE6FFE1CFD9FF030EE126020EDB6A2D
:10015000040EF36E020EDBCFF4FFF350F45C21E2E9
:100160002AD8EF6A30D80CE226D8EF501F0803E1F6
:1001700022D8EF6A13D01FD8EF2A25D8F5E30ED086
:100180002CD80CE218D8EF50E10803E114D8EF6A3C
:1001900005D011D8EF062BD820D8F4E3020EDB2AC5
:1001A000D7D7030EE15C02E2E16AE552E16EE55267
:1001B000E7CFD9FF1200020EDB50EA6AA70FE96E03
:1001C000000EEA22120013D8DECF00F0DDCF01F0DE
:1001D000200E005C030E01581200D9CFE9FFDACFE0
:1001E000EAFF200ED880EE54030EED541200020EEA
:1001F000DBCFE6FF3DDFE552F3CFDEFFF4CFDDFFDF
:020200001200EA
:0E020200000000000000004F00000007000791
:1002100000147F147F14242A7F2A12231308646297
:1002200036495522500005030000001C2241000001
:1002300041221C0014083E081408083E080800501B
:10024000300000080808080800606000002010085E
:1002500004023E5149453E00427F400042615149FF
:10026000462141454B311814127F10274545453929
:100270003C4A494930017109050336494949360666
:100280004949291E00363600000056360000081481
:1002900022410014141414140041221408020151C4
:1002A0000906324979413E7E1111117E7F49494943
:1002B000363E414141227F4141221C7F494949410B
:1002C0007F090909013E4149497A7F0808087F00F2
:1002D000417F41002040413F017F081422417F407F
:1002E0004040407F020C027F7F0408107F3E414166
:1002F000413E7F090909063E4151215E7F091929C6
:1003000046464949493101017F01013F4040403F94
:100310001F2040201F3F4038403F631408146307EC
:10032000087008076151494543007F4141000204BC
:100330000810200041417F000402010204404040B7
:100340004040000102040020545454787F48444443
:10035000383844444420384444487F38545454186E
:10036000087E0901020C5252523E7F0804047800B4
:10037000447D40002040443D007F1028440000415F
:100380007F40007C041804787C08040478384444D6
:1003900044387C14141408081414187C7C080404D1
:1003A000084854545420043F4440203C4040207CA2
:1003B0001C2040201C3C4030403C44281028440C69
:1003C0005050503C4464544C4400083641000000F6
:0D03D0007F0000201008102006090009061B
:0203DE00D9CF75
:1003E000E6FFDACFE6FFE1CFD9FFE2CFDAFFE65250
:1003F000006801687F0E026E036AD950FA0FE96E39
:10040000FF0EDA20EA6EEE500016EE500116EE50A6
:100410000216EE5003166AD800C0EEFF01C0EEFFD0
:1004200002C0EEFF03C0EEFFFD0EDB50800B02E0CA
:10043000010E01D0000EE66E59D8060EE926000E18
:10044000EA22E552E750EF6EFC0EDBCF00F0FD0E26
:10045000DBCF01F0D89000360136FC0E00C0DBFF88
:10046000FD0E01C0DBFFDB50E66E40D8040EE9262E
:10047000000EEA22E552E750EE6EED6AFD0EDB500B
:10048000006E016AFF0E001818E1015016E12ED827
:10049000EECF00F0EECF01F0EECF02F0EFCF03F0A1
:1004A000005001100210031006E0210E0001AB6F96
:1004B000AC6B800E0BD0040E09D0FD0EDB5008E1B2
:1004C00015D8EE6AEE6AEE6AEE6A010EDF6E06D0AD
:1004D000020EDF6E0BD8EE52EE52EE8EDF50E5527A
:1004E000E552E5CFDAFFE7CFD9FF1200F80EDBCFF8
:0A04F000E9FFF90EDBCFEAFF12006E
:0604FA00416C61726D000F
:100500005365742044617465005365742054696DAB
:1005100065003132482F32344820496E7465727656
:10052000616C00446973706C6179204D6F64650083
:100530004F4646004F4E00416C61726D204D656E16
:100540007500253032642F253032640053657420E5
:1005500044617465204D656E7500504D00414D003D
:10056000256425643A256425643A2564256400538E
:1005700065742054696D65204D656E750032344890
:100580000031324800486F75727320496E7465728D
:1005900076616C00416E616C6F6720436C6F636BBA
:1005A000004469676974616C20436C6F636B00443D
:1005B0006973706C6179204D6F6465204D656E754F
:0105C000003A
:0105C1000039
:0E05C200D9CFE6FFDACFE6FFE1CFD9FFE2CFD7
:1005D000DAFFE652E652E652E652D950F90F006EC3
:1005E000FF0EDA20016E020E00C0DBFF030E01C019
:1005F000DBFF020EDBCFE6FF030EDBCFE6FFF90EDB
:10060000DBCFE6FFFA0EDBCFE6FFFB0EDBCFE6FF2C
:10061000D950FC0FE66EFF0EDA20E66E65EC6AF04C
:10062000006E070EE15C02E2E16AE552E16E005005
:10063000F3CFDEFFF4CFDDFFFC0EDBCFE9FFFD0ED5
:10064000DBCFEAFFEF6ADECF00F0DDCF01F000C0C4
:10065000F3FF01C0F4FF040EE15C02E2E16AE5523F
:0E066000E16EE552E5CFDAFFE7CFD9FF1200D9
:02066E001E0E5E
:10067000F66EA00EF76E000EF86E00010900F55040
:100680009C6F0900F5509D6F03E19C6701D03DD040
:100690000900F550976F0900F550986F0900F55063
:1006A000996F09000900F550E96E0900F550EA6EEE
:1006B000090009000900F5509A6F0900F5509B6F79
:1006C00009000900F6CF9EF0F7CF9FF0F8CFA0F019
:1006D00097C0F6FF98C0F7FF99C0F8FF00019A5342
:1006E00002E19B5307E00900F550EE6E9A07F8E22D
:1006F0009B07F9D79EC0F6FF9FC0F7FFA0C0F8FF89
:0C07000000019C07000E9D5BBFD712009B
:04070C00D9CFE6FF5C
:10071000DACFE6FFE1CFD9FFE2CFDAFFFB0EDBCF86
:1007200000F0FC0EDBCF01F00001800E01141AE195
:10073000FB0EDBCFE9FFFC0EDBCFEAFFEECFF3FFD2
:10074000EDCFF4FFEE2A000EEF22F3CFE9FFF4CF56
:10075000EAFFFD0EDBCFEFFFEF50016AF36E01C041
:10076000F4FF10D0FB0EDB50FE0806E1FD0EDBCFE0
:10077000E6FF0DEC05F005D0FD0EDBCFE6FF03EC48
:1007800050F0E552E552E5CFDAFFE7CFD9FF12008E
:100790001E502302F3CF1AF0F4CF1BF02402F350C3
:1007A0001B26000EF4201C6E1E502502F3501C2642
:1007B000000EF4201D6E1E502602F3501D261F5001
:1007C0002302F3501B26F4501C22000E1D221F5042
:1007D0002402F3501C26F4501D221F502502F35012
:1007E0001D2620502302F3501C26F4501D222050B9
:1007F0002402F3501D2621502302F3501D2612001F
:10080000FE0EE3CFE9FFFF0EE3CFEAFFF36AF46ADF
:10081000EE5203E0F34AF42AFBD71200FF0EE3CFB7
:10082000F8FFE552FF0EE3CFF7FFE552FF0EE3CFEF
:10083000F6FFE552E66AE66AE66A0900F55209E063
:10084000FD0EE32A05E1FE0EE32A02E1FF0EE32A94
:10085000F4D7FD0EE3CF1FF0FE0EE3CF20F0FF0E26
:06086000E3CF21F01200BD
:0A086600D9CFE6FFDACFE6FFE1CFBD
:10087000D9FFE2CFDAFFE652E652D950FD0F006E03
:10088000FF0EDA2000C0DEFFDD6EDECFE9FFDDCF38
:10089000EAFFEF9EFA0EDBCF00F0FB0EDBCF01F09C
:1008A000FC0EDBCF02F0FD0EDBCF03F000C01EF02C
:1008B00001C01FF002C020F003C021F0E552E55254
:0C08C000E552E5CFDAFFE7CFD9FF1200C8
:0408CC00D9CFE6FF9B
:1008D000DACFE6FFE1CFD9FFE2CFDAFF010EE66E15
:1008E000D950FA0FE96EFF0EDA20EA6EEECFE6FF7E
:1008F000EECFE6FFEECFE6FFEFCFE6FF62EC7BF058
:10090000006E050EE15C02E2E16AE552E16E005024
:0C091000E552E5CFDAFFE7CFD9FF120077
:04091C00D9CFE6FF4A
:10092000DACFE6FFE1CFD9FFE2CFDAFFE66AD950AE
:10093000FA0FE96EFF0EDA20EA6EEECFE6FFEECF99
:10094000E6FFEECFE6FFEFCFE6FF62EC7BF0006E56
:10095000050EE15C02E2E16AE552E16E0050E5520B
:0A096000E5CFDAFFE7CFD9FF120060
:06096A001D6A1C6A1B6AF5
:100970001A6A200EE76ED8901E361F3620362136B2
:100980001A361B361C361D3623501A5C24501B5851
:1009900025501C5826501D5809E323501A5E245038
:1009A0001B5A25501C5A26501D5A1E2AE72EE4D7E2
:0209B000120033
:0E09B2001D6A1C6A100EE76ED89020362136A2
:1009C0001C361D3625501C5C26501D5805E325504D
:0E09D0001C5E26501D5A202AE72EF0D712007A
:0209DE00C00E49
:1009E000F36E00EE00F00E0E01D81200EA6002D0A5
:0E09F000EE6AFCD7F350E9601200EE6AFCD705
:0209FE001DEEEC
:100A000000F02DEE00F0F86A199C37EC03F003ECCF
:0A0A100000F097EC69F0FBD712002C
:060A1A00FF0EE350ADBA2F
:100A200004D0B06AAC8EAD8A949CADA2FED7AE6EF7
:060A3000F36EF46A1200EF
:0A0A360030313233343536373839A9
:070A4000616263646566005A
:090A4700000000000000000000A6
:100A50000000000100010020000100000000000073
:090A600041001F0000000000002D
:06A00000FFEF04F0120066
:02A00600120046
:06A008001CEF50F01200F5
:06A0180068EF50F0120099
:02A01E0002003E
:10A02000470A00006000000022000000C105000097
:08A03000AD000000010000007A
:08A03800DACFE4FFE2CFDAFF0A
:10A04000E9CFE4FFEACFE4FFF6CFE4FFF7CFE4FF88
:10A05000F5CFE4FFF3CFE4FFF4CFE4FFFACFE4FF62
:10A0600000EE18F0140EE80403E3EECFE4FFFBD794
:10A0700000EE00F0180EE80403E3EECFE4FFFBD798
:10A08000E6524CEC65F0F294E55200EE17F0180E33
:10A09000E80403E3E5CFEDFFFBD700EE2BF0140E51
:10A0A000E80403E3E5CFEDFFFBD7E5CFFAFFE5CF0B
:10A0B000F4FFE5CFF3FFE5CFF5FFE5CFF7FFE5CF01
:10A0C000F6FFE5CFEAFFE5CFE9FFE5CFDAFF1100C4
:10A0D000D8CFE4FFE0CFE4FFE46EDACFE4FFE2CFD5
:10A0E000DAFFE652E552E5CFDAFFE550E5CFE0FFD3
:10A0F000E5CFD8FF100035EC00F0A0EC00F037EC15
:10A100007EF08DEC70F0E66A72EC71F0E5521200B0
:10A110009DEC7FF0000901E1FBD70F014869496917
:10A120007BEF50F081B01FD000017EC000F07FC0F7
:10A1300001F080C002F081C003F07E2B000E7F236F
:10A1400080238123D8800A0E0054000E0154000E93
:10A150000254000E035406E27E6B7F6B806B816BB2
:10A16000010E7D6F11D000017D050EE17E517F1142
:10A170008011811104E17D6B010E08D005D07E07AE
:10A18000000E7F5B805B815B000E00D01200D9CF98
:10A19000E6FFE1CFD9FF020EE126DE6ADD6A130E8B
:10A1A000C26EC450026E02C003F0026AC3500001C6
:10A1B0000224006E000E0320016E00C0DEFF01C00D
:10A1C000DDFFDECF00F0DDCF01F0800E011411E1E4
:10A1D000DECF02F0DDCF03F0D890035004E6CC0EC2
:10A1E000025C000E035805E2020EF36EF46A5CD0C6
:10A1F0005BD0DECF00F0DDCF01F0D890015004E657
:10A20000CC0E005C000E015811E3DECF02F0DDCF72
:10A2100003F0D890035004E6940E025C010E03583C
:10A2200005E2030EF36EF46A3FD03ED0DECF00F0BD
:10A23000DDCF01F0D890015004E6940E005C010ED1
:10A24000015811E3DECF02F0DDCF03F0D8900350C8
:10A2500004E65E0E025C020E035805E2040EF36E85
:10A26000F46A22D021D0DECF00F0DDCF01F0D8900B
:10A27000015004E65E0E005C020E015811E3DECFD1
:10A2800002F0DDCF03F0D890035004E6280E025C04
:10A29000030E035805E2050EF36EF46A05D004D0F0
:10A2A000060EF36EF46A00D0020EE15C02E2E16A8F
:10A2B000E552E16EE552E7CFD9FF1200D9CFE6FFB4
:10A2C000E1CFD9FFFD0EDBCF20F0FE0EDBCF21F07A
:10A2D000020E201801E121504EE0010E201801E18C
:10A2E000215027E0205001E1215001E066D01E0EF0
:10A2F000E66EB40EE66E5F0EE66E48EC72F0E55266
:10A30000E552E552210EE66EB40EE66E5F0EE66E85
:10A3100048EC72F0E552E552E552240EE66EB40EBA
:10A32000E66E5F0EE66E48EC72F0E552E552E552DD
:10A3300044D02F0EE66EB40EE66E5F0EE66E48EC6D
:10A3400072F0E552E552E552320EE66EB40EE66E5C
:10A350005F0EE66E48EC72F0E552E552E552350EBE
:10A36000E66EB40EE66E5F0EE66E48EC72F0E552F5
:10A37000E552E55222D0410EE66EB40EE66E5F0E57
:10A38000E66E48EC72F0E552E552E552440EE66E98
:10A39000B40EE66E5F0EE66E48EC72F0E552E552E2
:10A3A000E552470EE66EB40EE66E5F0EE66E48ECC2
:10A3B00072F0E552E552E55200D0E552E7CFD9FF01
:10A3C0001200D9CFE6FFE1CFD9FF090EE126010E39
:10A3D000F36E060EF3CFDBFF070EDB6A010EF36EA2
:10A3E000080EF3CFDBFF080EDB502FE0E66A72ECBD
:10A3F00071F0E552120EE66EE66AAF0EE66E050EDD
:10A40000E66E74EC72F0E552E552E552E552120E3A
:10A41000E66E030EE66EA10EE66E050EE66E74ECB9
:10A4200072F0E552E552E552E552120EE66E050E67
:10A43000E66E940EE66E050EE66E74EC72F0E55272
:10A44000E552E552E552080EDB6AD950060FE96E77
:10A45000DACFEAFF010EEE1801E1ED5011E1040E32
:10A46000E66EE66AE66A000EE66EE66A030EE66EE1
:10A47000E6682AEC74F0006E070EE15E005010D022
:10A48000040EE66EE66AE66A000EE66EE66A050E01
:10A49000E66EE6682AEC74F0006E070EE15E00508E
:10A4A00041DE000911E0D950060FE96EDACFEAFF6C
:10A4B000010EEE1801E1ED5004E10001010E726F92
:10A4C00002D00001726BC2D0A0EC00F0010EE66E6B
:10A4D00038EC00F0E552040EF3CFDBFF050EF4CFAD
:10A4E000DBFF040EDBCF00F0050EDBCF01F0D890D0
:10A4F000015004E6840E005C030E01581BE2040EBA
:10A50000DBCF00F0050EDBCF01F0D890015004E660
:10A51000840E005C030E01580CE2010EE66E38EC6E
:10A5200000F0E552040EF3CFDBFF050EF4CFDBFFA6
:10A53000E6D78CD0E66A38EC00F0E552F3CFDEFFC8
:10A54000F4CFDDFF030EE66E38EC00F0E552020EAC
:10A55000F3CFDBFF030EF4CFDBFFDECF00F0DDCF68
:10A5600001F0D890015004E6840E005C030E0158FF
:10A570002DE2DECF00F0DDCF01F0D890015004E6EF
:10A58000840E005C030E015809E2E66A38EC00F024
:10A59000E552F3CFDEFFF4CFDDFFEBD7060EDBCFC6
:10A5A00000F0070EDBCF01F0D890015004E6020E58
:10A5B000005C000E01580AE2060EDB2A070E01E3DA
:10A5C000DB2A010EF36E080EF3CFDBFF020EDBCFAA
:10A5D00000F0030EDBCF01F0D890015004E6840EAA
:10A5E000005C030E015831E2020EDBCF00F0030ED7
:10A5F000DBCF01F0D890015004E6840E005C030E1E
:10A6000001580CE2030EE66E38EC00F0E552020E43
:10A61000F3CFDBFF030EF4CFDBFFE6D7060EDBCF75
:10A6200000F0070EDBCF01F0013404E20050010816
:10A63000000E01540AE2060EDB06070E01E2DB06FD
:10A64000010EF36E080EF3CFDBFFCDD6090EE15CF1
:10A6500002E2E16AE552E16EE552E7CFD9FF12006E
:10A66000D9CFE6FFE1CFD9FF090EE126010EF36E47
:10A67000060EF3CFDBFF070EDB6A010EF36E080E4A
:10A68000F3CFDBFF080EDB502FE0E66A72EC71F0CF
:10A69000E552120EE66EE66A850EE66E050EE66E71
:10A6A00074EC72F0E552E552E552E552120EE66E98
:10A6B000030EE66E810EE66E050EE66E74EC72F029
:10A6C000E552E552E552E552120EE66E050EE66ED3
:10A6D0007D0EE66E050EE66E74EC72F0E552E55204
:10A6E000E552E552080EDB6AD950060FE96EDACF63
:10A6F000EAFF010EEE1801E1ED5011E1040EE66EE5
:10A70000E66AE66A000EE66EE66A030EE66EE66844
:10A710002AEC74F0006E070EE15E005010D0040EBB
:10A72000E66EE66AE66A000EE66EE66A050EE66E1C
:10A73000E6682AEC74F0006E070EE15E0050F2DC71
:10A74000000913E0D950060FE96EDACFEAFF010ED7
:10A75000EE1801E1ED5004E10001010E746F02D02A
:10A760000001746B28EC67F0C2D0A0EC00F0010E81
:10A77000E66E38EC00F0E552040EF3CFDBFF050E79
:10A78000F4CFDBFF040EDBCF00F0050EDBCF01F0D2
:10A79000D890015004E6840E005C030E01581BE2C1
:10A7A000040EDBCF00F0050EDBCF01F0D890015096
:10A7B00004E6840E005C030E01580CE2010EE66E06
:10A7C00038EC00F0E552040EF3CFDBFF050EF4CFBA
:10A7D000DBFFE6D78CD0E66A38EC00F0E552F3CF29
:10A7E000DEFFF4CFDDFF030EE66E38EC00F0E5523D
:10A7F000020EF3CFDBFF030EF4CFDBFFDECF00F062
:10A80000DDCF01F0D890015004E6840E005C030E09
:10A8100001582DE2DECF00F0DDCF01F0D8900150DD
:10A8200004E6840E005C030E015809E2E66A38EC87
:10A8300000F0E552F3CFDEFFF4CFDDFFEBD7060EDD
:10A84000DBCF00F0070EDBCF01F0D890015004E61B
:10A85000020E005C000E01580AE2060EDB2A070E0B
:10A8600001E3DB2A010EF36E080EF3CFDBFF020ECD
:10A87000DBCF00F0030EDBCF01F0D890015004E6EF
:10A88000840E005C030E015831E2020EDBCF00F0B3
:10A89000030EDBCF01F0D890015004E6840E005C7B
:10A8A000030E01580CE2030EE66E38EC00F0E552A0
:10A8B000020EF3CFDBFF030EF4CFDBFFE6D7060E6D
:10A8C000DBCF00F0070EDBCF01F0013404E20050D3
:10A8D0000108000E01540AE2060EDB06070E01E233
:10A8E000DB06010EF36E080EF3CFDBFFCBD6090EAD
:10A8F000E15C02E2E16AE552E16EE552E7CFD9FFA1
:10A900001200D9CFE6FFE1CFD9FF210EE126120ECA
:10A91000DB6A130EDB6A010EF36E140EF3CFDBFF5E
:10A92000150EDB6A160EDB6A170EDB6A180EDB6A81
:10A93000190EDB6A1A0EDB6A1B0EDB6A1C0EDB6A61
:10A940001D0EDB6A1E0EDB6A1F0EDB6A200EDB6A41
:10A95000150E60C0DBFF160E61C0DBFF170E62C074
:10A96000DBFF180E63C0DBFF190E64C0DBFF1A0E9D
:10A9700065C0DBFF1B0E66C0DBFF1C0E67C0DBFF84
:10A980001D0E68C0DBFF1E0E69C0DBFF1F0E6AC014
:10A99000DBFF200E6BC0DBFF140EDB5001E17ED02D
:10A9A000E66A72EC71F0E552190EE66EE66A6F0E19
:10A9B000E66E050EE66E74EC72F0E552E552E55275
:10A9C000E5521F0EDBCFE6FF200EDBCFE6FF1D0EAC
:10A9D000DBCFE6FF1E0EDBCFE6FF1B0EDBCFE6FF75
:10A9E0001C0EDBCFE6FF190EDBCFE6FF1A0EDBCF26
:10A9F000E6FF170EDBCFE6FF180EDBCFE6FF150EE6
:10AA0000DBCFE6FF160EDBCFE6FF600E006E050E15
:10AA1000016E026A00C0E6FF01C0E6FF02C0E6FF69
:10AA2000D950080FE66E000EDA20E66EE1EC02F077
:10AA3000036E110EE15E03501E0EE66E030EE66E0F
:10AA4000D950080FE66E000EDA20E66EAEEC72F01A
:10AA5000E552E552E552E552000174511FE075518F
:10AA60000FE0540EE66E030EE66E5D0EE66E050E0A
:10AA7000E66E74EC72F0E552E552E552E5520ED006
:10AA8000540EE66E030EE66E5A0EE66E050EE66E88
:10AA900074EC72F0E552E552E552E552120EDBCF4E
:10AAA000E6FF130EDBCFE6FF09DCE552E55292EC40
:10AAB00050F000092EE0150EDBCF60F0160EDBCF54
:10AAC00061F0170EDBCF62F0180EDBCF63F0190ECA
:10AAD000DBCF64F01A0EDBCF65F01B0EDBCF66F028
:10AAE0001C0EDBCF67F01D0EDBCF68F01E0EDBCF38
:10AAF00069F01F0EDBCF6AF0200EDBCF6BF0000198
:10AB0000010E766F210EE15C02E3B0EF59F0AEEF7B
:10AB100059F0A0EC00F0E66A38EC00F0E552F3CF13
:10AB2000DEFFF4CFDDFF030EE66E38EC00F0E552F9
:10AB3000020EF3CFDBFF030EF4CFDBFFDECF00F01E
:10AB4000DDCF01F0D890015004E6840E005C030EC6
:10AB500001582DE2DECF00F0DDCF01F0D89001509A
:10AB600004E6840E005C030E015809E2E66A38EC44
:10AB700000F0E552F3CFDEFFF4CFDDFFEBD7120E8E
:10AB8000DBCF00F0130EDBCF01F0D890015004E6CC
:10AB9000020E005C000E01580AE2120EDB2A130EB0
:10ABA00001E3DB2A010EF36E140EF3CFDBFF020E7E
:10ABB000DBCF00F0030EDBCF01F0D890015004E6AC
:10ABC000840E005C030E015831E2020EDBCF00F070
:10ABD000030EDBCF01F0D890015004E6840E005C38
:10ABE000030E01580CE2030EE66E38EC00F0E5525D
:10ABF000020EF3CFDBFF030EF4CFDBFFE6D7120E1E
:10AC0000DBCF00F0130EDBCF01F0013404E2005083
:10AC10000008000E01540AE2120EDB06130E01E2D8
:10AC2000DB06010EF36E140EF3CFDBFFA0EC00F099
:10AC3000010EE66E38EC00F0E552040EF3CFDBFFB8
:10AC4000050EF4CFDBFF020EE66E38EC00F0E552A5
:10AC5000060EF3CFDBFF070EF4CFDBFF040EDBCFD6
:10AC600000F0050EDBCF01F0D890015004E6200E75
:10AC7000005C030E01580FE3060EDBCF02F0070E57
:10AC8000DBCF03F0D890035004E6200E025C030EE5
:10AC9000035801E361D3040EDBCF00F0050EDBCFD8
:10ACA00001F0060EDBCF02F0070EDBCF03F0015000
:10ACB0000318E8AE02D0033404D00250005C035005
:10ACC000015801E3C9D1120EDBCF20F0130EDBCF08
:10ACD00021F0020E201801E1215001E168D1010E9E
:10ACE000201801E1215001E10ED1205001E1215055
:10ACF00001E0B1D10001745101E098D0D950150F95
:10AD0000E96EDACFEAFF020EEE1801E1ED5015E12F
:10AD1000D950170FE96EDACFEAFF030EEE1801E102
:10AD2000ED500BE1150EDB6A160EDB6A170EDB6ABF
:10AD3000180EDB6A010E756F66D0D950150FE96EDB
:10AD4000DACFEAFF020EEE1801E1ED5014E0D9501F
:10AD5000170FE96EDACFEAFF090EEE1801E1ED50A8
:10AD60000AE1150EDB2A160E01E3DB2A170EDB6A59
:10AD7000180EDB6A48D0D950150FE96EDACFEAFF1A
:10AD8000020EEE1801E1ED500AE0D950170FE96EFE
:10AD9000DACFEAFF090EEE1801E1ED5014E1D950C7
:10ADA000150FE96EDACFEAFF020EEE1801E1ED5061
:10ADB0002AE1D950170FE96EDACFEAFF030EEE1839
:10ADC00001E1ED5020E0170EDB2A180E01E3DB2A2B
:10ADD000150EDBCF00F0160EDBCF01F0013404E2DC
:10ADE00000500008000E01540EE2170EDBCF02F0F7
:10ADF000180EDBCF03F0033404E202500208000E09
:10AE0000035401E2756BD950150FE96EDACFEAFFF2
:10AE1000EE50ED100AE1D950150FE96EDACFEAFFD6
:10AE2000EE50ED1002E1010E756F67D0D950150F8D
:10AE3000E96EDACFEAFF010EEE1801E1ED501CE1F8
:10AE4000D950170FE96EDACFEAFF020EEE1801E1D2
:10AE5000ED5012E1150EDB6A160EDB6A010EF36E81
:10AE6000170EF3CFDBFF180EDB6A755102E0756B2E
:10AE700002D0010E756F41D0D950150FE96EDACFAF
:10AE8000EAFF010EEE1801E1ED5014E1170EDBCFE1
:10AE900000F0180EDBCF01F0D890015004E6020E4E
:10AEA000005C000E015806E2170EDB2A180E01E3C3
:10AEB000DB2A23D0D950150FE96EDACFEAFF010E55
:10AEC000EE1801E1ED5014E0D950170FE96EDACF1A
:10AED000EAFF090EEE1801E1ED500AE1150EDB2A3A
:10AEE000160E01E3DB2A170EDB6A180EDB6A05D0AB
:10AEF000170EDB2A180E01E3DB2A010EF36E140E87
:10AF0000F3CFDBFFA8D01B0EDBCF00F01C0EDBCF96
:10AF100001F0D890015004E6090E005C000E0158C3
:10AF200006E21B0EDB2A1C0E01E3DB2A3AD0D950C5
:10AF3000190FE96EDACFEAFF050EEE1801E1ED50C8
:10AF400013E1D9501B0FE96EDACFEAFF090EEE18B4
:10AF500001E1ED5009E1190EDB6A1A0EDB6A1B0EE6
:10AF6000DB6A1C0EDB6A1DD0D950190FE96EDACFEF
:10AF7000EAFF050EEE1801E1ED5013E0D9501B0F6A
:10AF8000E96EDACFEAFF090EEE1801E1ED5009E1B2
:10AF9000190EDB2A1A0E01E3DB2A1B0EDB6A1C0EDC
:10AFA000DB6A010EF36E140EF3CFDBFF54D01F0EDD
:10AFB000DBCF00F0200EDBCF01F0D890015004E68B
:10AFC000090E005C000E015806E21F0EDB2A200E5F
:10AFD00001E3DB2A3AD0D9501D0FE96EDACFEAFF40
:10AFE000050EEE1801E1ED5013E1D9501F0FE96E87
:10AFF000DACFEAFF090EEE1801E1ED5009E11D0E6E
:10B00000DB6A1E0EDB6A1F0EDB6A200EDB6A1DD0B8
:10B01000D9501D0FE96EDACFEAFF050EEE1801E1F7
:10B02000ED5013E0D9501F0FE96EDACFEAFF090E99
:10B03000EE1801E1ED5009E11D0EDB2A1E0E01E3C1
:10B04000DB2A1F0EDB6A200EDB6A010EF36E140E84
:10B05000F3CFDBFF00D05BD1120EDBCF20F0130E5D
:10B06000DBCF21F0020E201801E1215001E10BD1CC
:10B07000010E201801E1215001E1C1D0205001E171
:10B08000215001E044D10001745151E1170EDBCF92
:10B0900000F0180EDBCF01F0013404E2005000088C
:10B0A000000E015406E2170EDB06180E01E2DB0665
:10B0B0002BD0D950150FE96EDACFEAFFEE50ED1024
:10B0C00015E0D950170FE96EDACFEAFFEE50ED1018
:10B0D0000DE1150EDB06160E01E2DB06090EF36E1E
:10B0E000170EF3CFDBFF180EDB6A0ED0020EF36EE5
:10B0F000150EF3CFDBFF160EDB6A030EF36E170E91
:10B10000F3CFDBFF180EDB6AD950150FE96EDACFEB
:10B11000EAFFEE50ED100AE1D950150FE96EDACFD3
:10B12000EAFFEE50ED1002E1010E756F62D0D950CA
:10B13000150FE96EDACFEAFF010EEE1801E1ED50CE
:10B140000EE0D950170FE96EDACFEAFFEE50ED109E
:10B1500006E0170EDB06180E01E2DB064AD0D950D6
:10B16000150FE96EDACFEAFF010EEE1801E1ED509E
:10B1700014E1D950170FE96EDACFEAFFEE50ED1067
:10B180000CE1150EDB6A160EDB6A090EF36E170E64
:10B19000F3CFDBFF180EDB6A2CD0D950150FE96E08
:10B1A000DACFEAFFEE50ED101FE1D950170FE96E2C
:10B1B000DACFEAFF010EEE1801E1ED5015E1010EC4
:10B1C000F36E150EF3CFDBFF160EDB6A020EF36E85
:10B1D000170EF3CFDBFF180EDB6A755102E0756BBB
:10B1E00002D0010E756F05D0170EDB06180E01E2B6
:10B1F000DB06010EF36E140EF3CFDBFF88D01B0EBF
:10B20000DBCF00F01C0EDBCF01F0013404E2005074
:10B210000008000E015406E21B0EDB061C0E01E2C4
:10B22000DB062BD0D950190FE96EDACFEAFFEE50CA
:10B23000ED1015E0D9501B0FE96EDACFEAFFEE50A2
:10B24000ED100DE1190EDB061A0E01E2DB06090E08
:10B25000F36E1B0EF3CFDBFF1C0EDB6A0ED0050E68
:10B26000F36E190EF3CFDBFF1A0EDB6A090EF36ED5
:10B270001B0EF3CFDBFF1C0EDB6A010EF36E140E08
:10B28000F3CFDBFF44D01F0EDBCF00F0200EDBCF6F
:10B2900001F0013404E200500008000E015406E2FF
:10B2A0001F0EDB06200E01E2DB062BD0D9501D0F4E
:10B2B000E96EDACFEAFFEE50ED1015E0D9501F0F1E
:10B2C000E96EDACFEAFFEE50ED100DE11D0EDB0660
:10B2D0001E0E01E2DB06090EF36E1F0EF3CFDBFF3D
:10B2E000200EDB6A0ED0050EF36E1D0EF3CFDBFFD2
:10B2F0001E0EDB6A090EF36E1F0EF3CFDBFF200E6E
:10B30000DB6A010EF36E140EF3CFDBFF00D0040EE8
:10B31000DBCF00F0050EDBCF01F0D890015004E642
:10B32000200E005C030E015817E2010EE66E38ECA9
:10B3300000F0E552040EF3CFDBFF050EF4CFDBFF88
:10B34000020EE66E38EC00F0E552060EF3CFDBFF9E
:10B35000070EF4CFDBFFDBD7CCEF54F0E16AE55208
:10B36000E16EE552E7CFD9FF1200D9CFE6FFE1CF7A
:10B37000D9FF190EE126080EDB6A090EDB6A010E01
:10B38000F36E140EF3CFDBFF150EDB6A160EDB6ACD
:10B39000170EDB6A180EDB6A150E6CC0DBFF160E8B
:10B3A0006DC0DBFF170E6EC0DBFF180E6FC0DBFF3A
:10B3B000140EDB5044E0E66A72EC71F0E552190EAF
:10B3C000E66EE66A4C0EE66E050EE66E74EC72F002
:10B3D000E552E552E552E552170EDBCFE6FF180EB7
:10B3E000DBCFE6FF150EDBCFE6FF160EDBCFE6FF69
:10B3F000420E006E050E016E026A00C0E6FF01C03B
:10B40000E6FF02C0E6FFD9500A0FE66E000EDA2012
:10B41000E66EE1EC02F0036E090EE15E03501E0ED3
:10B42000E66E030EE66ED9500A0FE66E000EDA20C5
:10B43000E66EAEEC72F0E552E552E552E552080ECA
:10B44000DBCFE6FF090EDBCFE6FF5EEC51F0E55205
:10B45000E55292EC50F0000911E0150EDBCF6CF0D4
:10B46000160EDBCF6DF0170EDBCF6EF0180EDBCFB4
:10B470006FF0190EE15C01E38CD289D2A0EC00F0F0
:10B48000E66A38EC00F0E552F3CFDEFFF4CFDDFFE3
:10B49000030EE66E38EC00F0E552020EF3CFDBFF50
:10B4A000030EF4CFDBFFDECF00F0DDCF01F0D8904C
:10B4B000015004E6840E005C030E01582DE2DECF3D
:10B4C00000F0DDCF01F0D890015004E6840E005C5E
:10B4D000030E015809E2E66A38EC00F0E552F3CFBA
:10B4E000DEFFF4CFDDFFEBD7080EDBCF00F0090E57
:10B4F000DBCF01F0D890015004E6010E005C000E95
:10B5000001580AE2080EDB2A090E01E3DB2A010ECC
:10B51000F36E140EF3CFDBFF020EDBCF00F0030E51
:10B52000DBCF01F0D890015004E6840E005C030EDE
:10B53000015831E2020EDBCF00F0030EDBCF01F049
:10B54000D890015004E6840E005C030E01580CE212
:10B55000030EE66E38EC00F0E552020EF3CFDBFF8F
:10B56000030EF4CFDBFFE6D7080EDBCF00F0090EA9
:10B57000DBCF01F0013404E200500008000E01545A
:10B580000AE2080EDB06090E01E2DB06010EF36E8D
:10B59000140EF3CFDBFF010EE66E38EC00F0E5523F
:10B5A000040EF3CFDBFF050EF4CFDBFF020EE66ED9
:10B5B00038EC00F0E552060EF3CFDBFF070EF4CFB8
:10B5C000DBFF040EDBCF00F0050EDBCF01F0D890DF
:10B5D000015004E6200E005C030E01580FE3060E36
:10B5E000DBCF02F0070EDBCF03F0D890035004E668
:10B5F000200E025C030E035801E3C8D1040EDBCF1A
:10B6000000F0050EDBCF01F0060EDBCF02F0070ED7
:10B61000DBCF03F001500318E8AE02D0033404D0AE
:10B620000250005C0350015801E3C7D0080EDBCF85
:10B6300020F0090EDBCF21F0010E201801E121508E
:10B6400060E0205001E1215001E0B6D0D950150F43
:10B65000026EDACF03F0020E206E216A080EDBCFF5
:10B6600025F0090EDBCF26F056EC79F002501E24AF
:10B67000E96E03501F20EA6EEECF00F0EFCF01F02D
:10B68000D890015004E61F0E005C000E01581AE22B
:10B69000D950150F006EDACF01F0020E206E216A2C
:10B6A000080EDBCF25F0090EDBCF26F056EC79F043
:10B6B00000501E24E96E01501F20EA6EEE2A000E93
:10B6C000EF2219D0D950150F006EDACF01F0020E1B
:10B6D000206E216A080EDBCF25F0090EDBCF26F0A5
:10B6E00056EC79F000501E24E96E01501F20EA6EDE
:10B6F000010EEE6EED6A010EF36E140EF3CFDBFF5A
:10B700005BD0D950150F026EDACF03F0020E206E17
:10B71000216A080EDBCF25F0090EDBCF26F056ECB0
:10B7200079F002501E24E96E03501F20EA6EEECF1E
:10B7300000F0EFCF01F0D890015004E60C0E005C51
:10B74000000E01581AE2D950150F006EDACF01F041
:10B75000020E206E216A080EDBCF25F0090EDBCF2A
:10B7600026F056EC79F000501E24E96E01501F209F
:10B77000EA6EEE2A000EEF2219D0D950150F006E96
:10B78000DACF01F0020E206E216A080EDBCF25F021
:10B79000090EDBCF26F056EC79F000501E24E96E3E
:10B7A00001501F20EA6E010EEE6EED6A010EF36E7F
:10B7B000140EF3CFDBFF00D0C4D0080EDBCF20F097
:10B7C000090EDBCF21F0010E201801E121505FE0CE
:10B7D000205001E1215001E0B4D0D950150F026E84
:10B7E000DACF03F0020E206E216A080EDBCF25F0BF
:10B7F000090EDBCF26F056EC79F002501E24E96EDC
:10B8000003501F20EA6EEECF00F0EFCF01F00134BD
:10B8100004E200500108000E01541AE2D950150F3D
:10B82000006EDACF01F0020E206E216A080EDBCF27
:10B8300025F0090EDBCF26F056EC79F000501E24DF
:10B84000E96E01501F20EA6EEE06000EEF5A19D085
:10B85000D950150F006EDACF01F0020E206E216A6A
:10B86000080EDBCF25F0090EDBCF26F056EC79F081
:10B8700000501E24E96E01501F20EA6E1F0EEE6E6E
:10B88000ED6A010EF36E140EF3CFDBFF5AD0D950E0
:10B89000150F026EDACF03F0020E206E216A080E39
:10B8A000DBCF25F0090EDBCF26F056EC79F0025005
:10B8B0001E24E96E03501F20EA6EEECF00F0EFCF9A
:10B8C00001F0013404E200500108000E01541AE2B4
:10B8D000D950150F006EDACF01F0020E206E216AEA
:10B8E000080EDBCF25F0090EDBCF26F056EC79F001
:10B8F00000501E24E96E01501F20EA6EEE06000E75
:10B90000EF5A19D0D950150F006EDACF01F0020EA0
:10B91000206E216A080EDBCF25F0090EDBCF26F062
:10B9200056EC79F000501E24E96E01501F20EA6E9B
:10B930000C0EEE6EED6A010EF36E140EF3CFDBFF0C
:10B9400000D0040EDBCF00F0050EDBCF01F0D89065
:10B95000015004E6200E005C030E015817E2010EB0
:10B96000E66E38EC00F0E552040EF3CFDBFF050E77
:10B97000F4CFDBFF020EE66E38EC00F0E552060E67
:10B98000F3CFDBFF070EF4CFDBFFDBD711D5E16A86
:10B99000E552E16EE552E7CFD9FF1200D9CFE6FFBD
:10B9A000E1CFD9FF090EE126010EF36E060EF3CFAB
:10B9B000DBFF070EDB6A010EF36E080EF3CFDBFF31
:10B9C000080EDB502FE0E66A72EC71F0E5521E0EB5
:10B9D000E66EE66A370EE66E050EE66E74EC72F001
:10B9E000E552E552E552E552120EE66E030EE66EA2
:10B9F000340EE66E050EE66E74EC72F0E552E5521A
:10BA0000E552E552120EE66E050EE66E300EE66E5B
:10BA1000050EE66E74EC72F0E552E552E552E55221
:10BA2000080EDB6AD950060FE96EDACFEAFF010E85
:10BA3000EE1801E1ED5011E1040EE66EE66AE66AE9
:10BA4000000EE66EE66A030EE66EE6682AEC74F017
:10BA5000006E070EE15E005010D0040EE66EE66A3E
:10BA6000E66A000EE66EE66A050EE66EE6682AEC09
:10BA700074F0006E070EE15E005092EC50F0000989
:10BA800011E0D950060FE96EDACFEAFF010EEE1889
:10BA900001E1ED5004E10001010E736F02D00001DD
:10BAA000736BC2D0010EE66E38EC00F0E552040E66
:10BAB000F3CFDBFF050EF4CFDBFF040EDBCF00F08E
:10BAC000050EDBCF01F0D890015004E6840E005C37
:10BAD000030E01581BE2040EDBCF00F0050EDBCF96
:10BAE00001F0D890015004E6840E005C030E01586A
:10BAF0000CE2010EE66E38EC00F0E552040EF3CFD6
:10BB0000DBFF050EF4CFDBFFE6D78ED0A0EC00F014
:10BB1000E66A38EC00F0E552F3CFDEFFF4CFDDFF4C
:10BB2000030EE66E38EC00F0E552020EF3CFDBFFB9
:10BB3000030EF4CFDBFFDECF00F0DDCF01F0D890B5
:10BB4000015004E6840E005C030E01582DE2DECFA6
:10BB500000F0DDCF01F0D890015004E6840E005CC7
:10BB6000030E015809E2E66A38EC00F0E552F3CF23
:10BB7000DEFFF4CFDDFFEBD7060EDBCF00F0070EC4
:10BB8000DBCF01F0D890015004E6020E005C000EFD
:10BB900001580AE2060EDB2A070E01E3DB2A010E3A
:10BBA000F36E080EF3CFDBFF020EDBCF00F0030EC7
:10BBB000DBCF01F0D890015004E6840E005C030E48
:10BBC000015831E2020EDBCF00F0030EDBCF01F0B3
:10BBD000D890015004E6840E005C030E01580CE27C
:10BBE000030EE66E38EC00F0E552020EF3CFDBFFF9
:10BBF000030EF4CFDBFFE6D7060EDBCF00F0070E17
:10BC0000DBCF01F0013404E200500108000E0154C2
:10BC10000AE2060EDB06070E01E2DB06010EF36EFA
:10BC2000080EF3CFDBFFCCD6090EE15C02E2E16A3D
:10BC3000E552E16EE552E7CFD9FF1200D9CFE6FF1A
:10BC4000E1CFD9FFFD0EDBCF20F0FE0EDBCF21F0E0
:10BC5000060E201801E1215021E0050E201801E117
:10BC6000215019E0040E201801E1215011E0030ECB
:10BC7000201801E1215009E0020E201801E12150B5
:10BC800001E00ED0E1EC51F00BD030EC53F008D0D5
:10BC900081EC54F005D0B5EC59F002D07FDE00D035
:10BCA000E66A72EC71F0E552E552E7CFD9FF120077
:10BCB000D9CFE6FFE1CFD9FF0A0EE126F29A6AC09A
:10BCC000E6FF6BC0E6FF68C0E6FF69C0E6FF66C03E
:10BCD000E6FF67C0E6FF64C0E6FF65C0E6FF62C03E
:10BCE000E6FF63C0E6FF60C0E6FF61C0E6FF600EEE
:10BCF000006E050E016E026A00C0E6FF01C0E6FF9D
:10BD000002C0E6FFD9CFE6FFDACFE6FFE1EC02F0B2
:10BD1000036E110EE15E03503C0EE66EE66AD9CF6B
:10BD2000E6FFDACFE6FFAEEC72F0E552E552E552FF
:10BD3000E552000174511DE075510EE0720EE66E81
:10BD4000E66A5D0EE66E050EE66E74EC72F0E55284
:10BD5000E552E552E5520DD0720EE66EE66A5A0ED5
:10BD6000E66E050EE66E74EC72F0E552E552E552B1
:10BD7000E552F28A0A0EE15C02E2E16AE552E16E06
:10BD8000E552E7CFD9FF1200D9CFE6FFE1CFD9FFC7
:10BD9000040EE126DE6ADD6ADECF00F0DDCF01F0C1
:10BDA000D890015004E63C0E005C000E015801E3FF
:10BDB00063D179C020F07AC021F019EC78F01FC06F
:10BDC00000F020C001F021C002F022C003F070C0DA
:10BDD00020F071C021F019EC78F01FC008F020C0ED
:10BDE00009F021C00AF022C00BF000C0E6FF01C03C
:10BDF000E6FF02C0E6FF03C0E6FF08C0E6FF09C099
:10BE0000E6FF0AC0E6FF0BC0E6FFDECF14F0DDCF91
:10BE100015F0060E1502F3CF15F01402F3CF14F04F
:10BE2000F450152614C020F015C021F019EC78F05C
:10BE30001FC010F020C011F021C012F022C013F07A
:10BE400010C0E6FF11C0E6FF12C0E6FF13C0E6FF18
:10BE50008EEC04F0E552E552E552E552E552E7CFAB
:10BE60000BF0E552E7CF0AF0E552E7CF09F0E552D3
:10BE7000E7CF08F0E552E7CF03F0E552E7CF02F055
:10BE8000E552E7CF01F0E552E7CF00F01EC00CF01D
:10BE90001FC00DF020C00EF021C00FF00CC024F028
:10BEA0000DC025F00EC026F00FC027F008C01FF00F
:10BEB00009C020F00AC021F00BC022F0C3EC78F0DA
:10BEC0001FC004F020C005F021C006F022C007F01A
:10BED00004C024F005C025F006C026F007C027F0F6
:10BEE00000C01FF001C020F002C021F003C022F00A
:10BEF0002DEC78F083EC79F0020E21C0DBFF7BC0E3
:10BF000020F07CC021F019EC78F01FC000F020C0B8
:10BF100001F021C002F022C003F070C020F071C017
:10BF200021F019EC78F01FC008F020C009F021C002
:10BF30000AF022C00BF000C0E6FF01C0E6FF02C01D
:10BF4000E6FF03C0E6FF08C0E6FF09C0E6FF0AC03F
:10BF5000E6FF0BC0E6FFDECF14F0DDCF15F0060ED6
:10BF60001502F3CF15F01402F3CF14F0F450152698
:10BF700014C020F015C021F019EC78F01FC010F0AB
:10BF800020C011F021C012F022C013F010C0E6FF53
:10BF900011C0E6FF12C0E6FF13C0E6FF66EC04F036
:10BFA000E552E552E552E552E552E7CF0BF0E55296
:10BFB000E7CF0AF0E552E7CF09F0E552E7CF08F006
:10BFC000E552E7CF03F0E552E7CF02F0E552E7CFC5
:10BFD00001F0E552E7CF00F01EC00CF01FC00DF0DD
:10BFE00020C00EF021C00FF00CC024F00DC025F0D1
:10BFF0000EC026F00FC027F008C01FF009C020F0C7
:10C000000AC021F00BC022F0C3EC78F01FC004F08E
:10C0100020C005F021C006F022C007F004C024F0C3
:10C0200005C025F006C026F007C027F000C01FF0AD
:10C0300001C020F002C021F003C022F02DEC78F006
:10C0400083EC79F0030E21C0DBFFE66ADBCFE6FF6D
:10C05000020EDBCFE6FF030EDBCFE6FF020EDBCFE7
:10C06000E6FF3EEC76F0006E050EE15E0050DF2A42
:10C07000010E01E3DB2A90D6040EE15C02E2E16AE4
:10C08000E552E16EE552E7CFD9FF1200D9CFE6FFC6
:10C09000E1CFD9FF040EE126FB0EDBCF20F0FC0E32
:10C0A000DBCF21F0020E201801E1215001E146D33F
:10C0B000010E201801E1215001E19BD1205001E146
:10C0C000215002E042EF65F079C020F07AC021F003
:10C0D00019EC78F01FC000F020C001F021C002F080
:10C0E00022C003F070C020F071C021F019EC78F08C
:10C0F0001FC008F020C009F021C00AF022C00BF0D8
:10C1000000C0E6FF01C0E6FF02C0E6FF03C0E6FF95
:10C1100008C0E6FF09C0E6FF0AC0E6FF0BC0E6FF65
:10C12000FD0EDBCF14F0FE0EDBCF15F01E0E150258
:10C13000F3CF15F01402F3CF14F0F450152614C009
:10C1400020F015C021F019EC78F01FC010F020C0CD
:10C1500011F021C012F022C013F010C0E6FF11C090
:10C16000E6FF12C0E6FF13C0E6FF66EC04F0E552FE
:10C17000E552E552E552E552E7CF0BF0E552E7CF45
:10C180000AF0E552E7CF09F0E552E7CF08F0E552B3
:10C19000E7CF03F0E552E7CF02F0E552E7CF01F039
:10C1A000E552E7CF00F01EC00CF01FC00DF020C01C
:10C1B0000EF021C00FF00CC024F00DC025F00EC011
:10C1C00026F00FC027F008C01FF009C020F00AC0F9
:10C1D00021F00BC022F0C3EC78F01FC004F020C0A7
:10C1E00005F021C006F022C007F004C024F005C00D
:10C1F00025F006C026F007C027F000C01FF001C0E0
:10C2000020F002C021F003C022F02DEC78F0AAEC5F
:10C2100079F020C0DEFF21C0DDFF7BC020F07CC0B4
:10C2200021F019EC78F01FC000F020C001F021C00F
:10C2300002F022C003F070C020F071C021F019ECB0
:10C2400078F01FC008F020C009F021C00AF022C019
:10C250000BF000C0E6FF01C0E6FF02C0E6FF03C02E
:10C26000E6FF08C0E6FF09C0E6FF0AC0E6FF0BC014
:10C27000E6FFFD0EDBCF14F0FE0EDBCF15F01E0E39
:10C280001502F3CF15F01402F3CF14F0F450152675
:10C2900014C020F015C021F019EC78F01FC010F088
:10C2A00020C011F021C012F022C013F010C0E6FF30
:10C2B00011C0E6FF12C0E6FF13C0E6FF8EEC04F0EB
:10C2C000E552E552E552E552E552E7CF0BF0E55273
:10C2D000E7CF0AF0E552E7CF09F0E552E7CF08F0E3
:10C2E000E552E7CF03F0E552E7CF02F0E552E7CFA2
:10C2F00001F0E552E7CF00F01EC00CF01FC00DF0BA
:10C3000020C00EF021C00FF00CC024F00DC025F0AD
:10C310000EC026F00FC027F008C01FF009C020F0A3
:10C320000AC021F00BC022F0C3EC78F01FC004F06B
:10C3300020C005F021C006F022C007F004C024F0A0
:10C3400005C025F006C026F007C027F000C01FF08A
:10C3500001C020F002C021F003C022F02DEC78F0E3
:10C36000AAEC79F0020E20C0DBFF030E21C0DBFF38
:10C37000020EE66EDBCF20F0030EDBCF21F00001D2
:10C380007B51205C006E7C512158016E020E256E9F
:10C39000266A00C020F001C021F030EC79F020C006
:10C3A00000F021C001F000017B510024E66E7951BC
:10C3B000DE5C026E7A51DD58036E020E256E266A2F
:10C3C00002C020F003C021F030EC79F020C002F070
:10C3D00021C003F0000179510224E66E7BC0E6FF24
:10C3E00079C0E6FF3EEC76F0046E050EE15E045087
:10C3F00049D379C020F07AC021F019EC78F01FC041
:10C4000000F020C001F021C002F022C003F070C093
:10C4100020F071C021F019EC78F01FC008F020C0A6
:10C4200009F021C00AF022C00BF000C0E6FF01C0F5
:10C43000E6FF02C0E6FF03C0E6FF08C0E6FF09C052
:10C44000E6FF0AC0E6FF0BC0E6FFFD0EDBCF14F0EF
:10C45000FE0EDBCF15F0060E1502F3CF15F0140219
:10C46000F3CF14F0F450152614C020F015C021F0BD
:10C4700019EC78F01FC010F020C011F021C012F0AC
:10C4800022C013F010C0E6FF11C0E6FF12C0E6FFA5
:10C4900013C0E6FF66EC04F0E552E552E552E552C2
:10C4A000E552E7CF0BF0E552E7CF0AF0E552E7CFD0
:10C4B00009F0E552E7CF08F0E552E7CF03F0E55287
:10C4C000E7CF02F0E552E7CF01F0E552E7CF00F009
:10C4D0001EC00CF01FC00DF020C00EF021C00FF0E8
:10C4E0000CC024F00DC025F00EC026F00FC027F0C0
:10C4F00008C01FF009C020F00AC021F00BC022F0D4
:10C50000C3EC78F01FC004F020C005F021C006F095
:10C5100022C007F004C024F005C025F006C026F0B4
:10C5200007C027F000C01FF001C020F002C021F0BA
:10C5300003C022F02DEC78F0AAEC79F020C0DEFFE9
:10C5400021C0DDFF7BC020F07CC021F019EC78F029
:10C550001FC000F020C001F021C002F022C003F093
:10C5600070C020F071C021F019EC78F01FC008F005
:10C5700020C009F021C00AF022C00BF000C0E6FF85
:10C5800001C0E6FF02C0E6FF03C0E6FF08C0E6FF09
:10C5900009C0E6FF0AC0E6FF0BC0E6FFFD0EDBCFD9
:10C5A00014F0FE0EDBCF15F0060E1502F3CF15F0DA
:10C5B0001402F3CF14F0F450152614C020F015C067
:10C5C00021F019EC78F01FC010F020C011F021C04C
:10C5D00012F022C013F010C0E6FF11C0E6FF12C037
:10C5E000E6FF13C0E6FF8EEC04F0E552E552E5529B
:10C5F000E552E552E7CF0BF0E552E7CF0AF0E552FE
:10C60000E7CF09F0E552E7CF08F0E552E7CF03F0B6
:10C61000E552E7CF02F0E552E7CF01F0E552E7CF70
:10C6200000F01EC00CF01FC00DF020C00EF021C0A5
:10C630000FF00CC024F00DC025F00EC026F00FC086
:10C6400027F008C01FF009C020F00AC021F00BC07D
:10C6500022F0C3EC78F01FC004F020C005F021C028
:10C6600006F022C007F004C024F005C025F006C083
:10C6700026F007C027F000C01FF001C020F002C064
:10C6800021F003C022F02DEC78F0AAEC79F0020E34
:10C6900020C0DBFF030E21C0DBFF010EE66E020EA1
:10C6A000DBCF20F0030EDBCF21F000017B51205CBB
:10C6B000026E7C512158036E050E256E266A02C05B
:10C6C00020F003C021F030EC79F020C002F021C04E
:10C6D00003F0020EDBCF20F0030EDBCF21F002507F
:10C6E000205C006E03502158016E0050E66E000180
:10C6F0007951DE5C066E7A51DD58076E050E256EA7
:10C70000266A06C020F007C021F030EC79F020C086
:10C7100006F021C007F00650DE5C046E0750DD58BD
:10C72000056E0450E66E7BC0E6FF79C0E6FF3EEC86
:10C7300076F0086E050EE15E0850A4D179C020F0B5
:10C740007AC021F019EC78F01FC000F020C001F091
:10C7500021C002F022C003F070C020F071C021F0AF
:10C7600019EC78F01FC008F020C009F021C00AF0D1
:10C7700022C00BF000C0E6FF01C0E6FF02C0E6FFEA
:10C7800003C0E6FF08C0E6FF09C0E6FF0AC0E6FFF7
:10C790000BC0E6FFFD0EDBCF14F0FE0EDBCF15F075
:10C7A000060E1502F3CF15F01402F3CF14F0F45077
:10C7B000152614C020F015C021F019EC78F01FC028
:10C7C00010F020C011F021C012F022C013F010C0F0
:10C7D000E6FF11C0E6FF12C0E6FF13C0E6FF66ECFD
:10C7E00004F0E552E552E552E552E552E7CF0BF091
:10C7F000E552E7CF0AF0E552E7CF09F0E552E7CF7F
:10C8000008F0E552E7CF03F0E552E7CF02F0E5523A
:10C81000E7CF01F0E552E7CF00F01EC00CF01FC0DB
:10C820000DF020C00EF021C00FF00CC024F00DC0A0
:10C8300025F00EC026F00FC027F008C01FF009C079
:10C8400020F00AC021F00BC022F0C3EC78F01FC02A
:10C8500004F020C005F021C006F022C007F004C09B
:10C8600024F005C025F006C026F007C027F000C060
:10C870001FF001C020F002C021F003C022F02DEC17
:10C8800078F0AAEC79F020C0DEFF21C0DDFF7BC08C
:10C8900020F07CC021F019EC78F01FC000F020C01F
:10C8A00001F021C002F022C003F070C020F071C07E
:10C8B00021F019EC78F01FC008F020C009F021C069
:10C8C0000AF022C00BF000C0E6FF01C0E6FF02C084
:10C8D000E6FF03C0E6FF08C0E6FF09C0E6FF0AC0A6
:10C8E000E6FF0BC0E6FFFD0EDBCF14F0FE0EDBCF44
:10C8F00015F0060E1502F3CF15F01402F3CF14F065
:10C90000F450152614C020F015C021F019EC78F071
:10C910001FC010F020C011F021C012F022C013F08F
:10C9200010C0E6FF11C0E6FF12C0E6FF13C0E6FF2D
:10C930008EEC04F0E552E552E552E552E552E7CFC0
:10C940000BF0E552E7CF0AF0E552E7CF09F0E552E8
:10C95000E7CF08F0E552E7CF03F0E552E7CF02F06A
:10C96000E552E7CF01F0E552E7CF00F01EC00CF032
:10C970001FC00DF020C00EF021C00FF00CC024F03D
:10C980000DC025F00EC026F00FC027F008C01FF024
:10C9900009C020F00AC021F00BC022F0C3EC78F0EF
:10C9A0001FC004F020C005F021C006F022C007F02F
:10C9B00004C024F005C025F006C026F007C027F00B
:10C9C00000C01FF001C020F002C021F003C022F01F
:10C9D0002DEC78F0AAEC79F0020E20C0DBFF030EFC
:10C9E00021C0DBFFE66A020EDBCF20F0030EDBCFB7
:10C9F00021F000017B51205C026E7C512158036EB6
:10CA0000050E256E266A02C020F003C021F030EC2E
:10CA100079F020C002F021C003F0020EDBCF20F03D
:10CA2000030EDBCF21F00250205C006E0350215832
:10CA3000016E0050E66E00017951DE5C066E7A519F
:10CA4000DD58076E050E256E266A06C020F007C069
:10CA500021F030EC79F020C006F021C007F006503C
:10CA6000DE5C046E0750DD58056E0450E66E7BC038
:10CA7000E6FF79C0E6FF3EEC76F0086E050EE15E5B
:10CA8000085000D0040EE15C02E2E16AE552E16E7A
:10CA9000E552E7CFD9FF1200D9CFE6FFE1CFD9FFAA
:10CAA000020EE1260A0E206E216A68C025F069C0D8
:10CAB00026F056EC79F01E5000016A25006E1F50DA
:10CAC0006B21016E00C0DEFF01C0DDFF090E6A1997
:10CAD00001E16B5104E06A2B000E6B231FD0090E9D
:10CAE0006A1901E16B510BE1050E681901E1695109
:10CAF00006E0682B000E69236A6B6B6B0FD0050E86
:10CB0000681901E169510AE1090E6A1901E16B51E5
:10CB100005E1686B696B6A6B6B6B40D80001725101
:10CB200003E0010E776F30D078512EE1020EE66EF1
:10CB3000E66ADECFE6FFDDCFE6FF46EC60F0E552C9
:10CB4000E552E552E5520A0E206E216A68C025F0D2
:10CB500069C026F056EC79F01E5000016A25006E7F
:10CB60001F506B21016E00C0DEFF01C0DDFF020E11
:10CB7000E66EE66ADECFE6FFDDCFE6FF46EC60F06C
:10CB8000E552E552E552E552020EE15C02E2E16A4D
:10CB9000E552E16EE552E7CFD9FF1200D9CFE6FFAB
:10CBA000E1CFD9FF020EE1260A0E206E216A64C091
:10CBB00025F065C026F056EC79F01E500001662580
:10CBC000006E1F506721016E00C0DEFF01C0DDFF57
:10CBD000090E661901E1675104E0662B000E672318
:10CBE0001FD0090E661901E167510BE1050E6419AA
:10CBF00001E1655106E0642B000E6523666B676BEF
:10CC00000FD0050E641901E165510AE1090E66199C
:10CC100001E1675105E1646B656B666B676B3DD83D
:10CC20000001725130E178512EE1010EE66EE66AA4
:10CC3000DECFE6FFDDCFE6FF46EC60F0E552E552E1
:10CC4000E552E5520A0E206E216A64C025F065C0E7
:10CC500026F056EC79F01E5000016625006E1F503C
:10CC60006721016E00C0DEFF01C0DDFF010EE66E30
:10CC7000E66ADECFE6FFDDCFE6FF46EC60F0E55288
:10CC8000E552E552E552020EE15C02E2E16AE5524C
:10CC9000E16EE552E7CFD9FF1200D9CFE6FFE1CF31
:10CCA000D9FF020EE1260A0E206E216A60C025F02F
:10CCB00061C026F056EC79F01E5000016225006E2E
:10CCC0001F506321016E00C0DEFF01C0DDFF745103
:10CCD00039E0010E601901E1615109E0090E6219A4
:10CCE00001E1635104E0622B000E63232AD0010EA0
:10CCF000601901E161510BE0090E621901E1635114
:10CD000006E1602B000E6123626B636B1AD0010E8B
:10CD1000601901E1615109E1020E621901E16351FB
:10CD200004E0622B000E63230CD0606B616B010E7C
:10CD3000626F636B755102E0756B03D0010E756F06
:10CD40006BD82DD0020E601901E1615105E0090E8A
:10CD5000621901E163510AE1020E601901E16151BA
:10CD600009E1030E621901E1635104E0622B000E38
:10CD7000632315D0020E601901E161510BE0090E29
:10CD8000621901E1635106E1602B000E6123626BC1
:10CD9000636B05D0606B616B626B636B3DD80001A8
:10CDA000725130E178512EE1000EE66EE66ADECF78
:10CDB000E6FFDDCFE6FF46EC60F0E552E552E552D6
:10CDC000E5520A0E206E216A60C025F061C026F08F
:10CDD00056EC79F01E5000016225006E1F50632151
:10CDE000016E00C0DEFF01C0DDFF000EE66EE66AE8
:10CDF000DECFE6FFDDCFE6FF46EC60F0E552E55220
:10CE0000E552E552020EE15C02E2E16AE552E16EB2
:10CE1000E552E7CFD9FF120000011F0E6C1901E1A6
:10CE20006D5104E06C2B000E6D230FD0010E6C6F62
:10CE30006D6B0C0E6E1901E16F5104E06E2B000E4C
:10CE40006F2303D0010E6E6F6F6B010E776F1200B0
:10CE50000001745142E075513FE1020E601901E199
:10CE6000615111E1020E63AF02D0D89003D0625D30
:10CE7000000E635908E3020E625F000E635B010E51
:10CE8000606F616B29D0020E601901E161510BE105
:10CE9000010E621901E1635106E1606B616B090EDD
:10CEA000626F636B19D0020E601901E1615109E1F3
:10CEB0006251631106E1606B616B080E606F616B1C
:10CEC0000BD0010E601901E1615106E1606B616BED
:10CED000020E625F000E635B09D0755107E1010E1F
:10CEE000606F616B020E6227000E63231200D9CFC0
:10CEF000E6FFE1CFD9FF0A0EE1266EC0E6FF6FC064
:10CF0000E6FF6CC0E6FF6DC0E6FF420E006E050E48
:10CF1000016E026A00C0E6FF01C0E6FF02C0E6FF44
:10CF2000D9CFE6FFDACFE6FFE1EC02F0036E090E9F
:10CF3000E15E0350E66A070EE66ED9CFE6FFDACF70
:10CF4000E6FFAEEC72F0E552E552E552E5520A0E0C
:10CF5000E15C02E2E16AE552E16EE552E7CFD9FF1A
:10CF60001200000173510AE05A0EE66EE66A410EA5
:10CF7000E66E48EC72F0E552E552E5521200D9CF68
:10CF8000E6FFE1CFD9FF050EE126DE6ADD6ADECFDE
:10CF900000F0DDCF01F0D890015004E6060E005CF1
:10CFA000000E015801E3DAD0DECFE9FFDDCFEAFF62
:10CFB000D890E936EA36600EE926000EEA22040E21
:10CFC000EFCFDBFFDECFE9FFDDCFEAFFD890E93618
:10CFD000EA36600EE926000EEA22EECF00F0EFCF2F
:10CFE00001F0010E001801E1015001E1B1D0020E83
:10CFF000001801E1015001E1ABD0030E001801E17E
:10D00000015001E1A5D0040E001801E1015001E139
:10D010009FD0050E001801E1015001E199D0060EE4
:10D02000001801E1015001E193D0070E001801E161
:10D03000015001E18DD0080E001801E1015001E11D
:10D0400087D0090E001801E1015001E181D00050A4
:10D0500001E1015001E07CD0120EE66E050EE66E95
:10D06000E66A48EC72F0E552E552E552180EE66EBB
:10D07000050EE66EE66A48EC72F0E552E552E552BE
:10D080001E0EE66E050EE66EE66A48EC72F0E5529C
:10D09000E552E552120EE66E040EE66EE66848ECC6
:10D0A00072F0E552E552E552180EE66E040EE66E99
:10D0B000E66848EC72F0E552E552E5521E0EE66E67
:10D0C000040EE66EE66848EC72F0E552E552E55271
:10D0D000120EE66E030EE66EE66848EC72F0E5525C
:10D0E000E552E552180EE66E030EE66EE66848EC71
:10D0F00072F0E552E552E5521E0EE66E030EE66E44
:10D10000E66848EC72F0E552E552E552120EE66E22
:10D11000020EE66EF00EE66E48EC72F0E552E55255
:10D12000E552180EE66E020EE66EF00EE66E48EC64
:10D1300072F0E552E552E5521E0EE66E020EE66E04
:10D14000F00EE66E48EC72F0E552E552E55201D081
:10D1500000D0DF2A010E01E3DB2A19D7050EE15CBE
:10D1600002E2E16AE552E16EE552E7CFD9FF120033
:10D17000D9CFE6FFE1CFD9FF0A0EE126040EDB6A24
:10D18000050EDB6A060EDB6A070EDB6A020EF36E23
:10D19000080EF3CFDBFF090EDB6A0001010E786F8A
:10D1A000130EC26E080EDBCFDEFFDBCFDDFFF29A7F
:10D1B00058EC5EF0F28AE66A020EE66E230EE66E28
:10D1C000050EE66E74EC72F0E552E552E552E5525A
:10D1D000E66A030EE66E120EE66E050EE66E74EC5F
:10D1E00072F0E552E552E552E552E66A040EE66E4B
:10D1F000090EE66E050EE66E74EC72F0E552E5522D
:10D20000E552E552E66A050EE66E000EE66E050E84
:10D21000E66E74EC72F0E552E552E552E552E66ACC
:10D22000060EE66EFA0EE66E040EE66E74EC72F012
:10D23000E552E552E552E552C7EC50F0080EF3CF47
:10D24000DBFF090EF4CFDBFF8CDE51DE640EE66EF1
:10D25000E66AE66A000EE66EE66A080EDBCFE6FFD7
:10D26000E6682AEC74F0006E070EE15E005092EC66
:10D2700050F000090AE0080EDBCFE6FF090EDBCF15
:10D28000E6FF1EEC5EF0E552E552080EDB50DF18BB
:10D2900004E1090EDB50DE52DD1804E0E66A72ECB0
:10D2A00071F0E552A0EC00F0010EE66E38EC00F0F3
:10D2B000E552020EF3CFDBFF030EF4CFDBFF020ECD
:10D2C000DBCF00F0030EDBCF01F0D890015004E675
:10D2D000840E005C030E015822E2020EDBCF00F048
:10D2E000030EDBCF01F0D890015004E6840E005C01
:10D2F000030E01580CE2010EE66E38EC00F0E55228
:10D30000020EF3CFDBFF030EF4CFDBFFE6D7E66AB6
:10D3100072EC71F0E5520A0EE15C04E201D040D7F4
:10D32000E16AE552E16EE552E7CFD9FF1200D9CFAD
:10D33000E6FFE1CFD9FF020EE126DF6E010EDB6AC8
:10D3400088EC50F0050ED56ED08EF184E00EF26EB2
:10D35000D58EDF5004E0DF50C214DF6EFAD7000133
:10D36000765164E0725102E00ADE5FD0010EDB50BC
:10D370005CE1C4EC5EF0020EE66EE66A0A0E206E18
:10D38000216A68C025F069C026F056EC79F01E507D
:10D3900000016A25006E1F506B21016E00C0E6FF80
:10D3A00001C0E6FF46EC60F0E552E552E552E55279
:10D3B000010EE66EE66A0A0E206E216A64C025F050
:10D3C00065C026F056EC79F01E5000016625006E0F
:10D3D0001F506721016E00C0E6FF01C0E6FF46EC6A
:10D3E00060F0E552E552E552E552000EE66EE66A5F
:10D3F0000A0E206E216A60C025F061C026F056EC4E
:10D4000079F01E5000016225006E1F506321016EED
:10D4100000C0E6FF01C0E6FF46EC60F0E552E552D1
:10D42000E552E552DE52010EDD6E01D0A1DE0001B3
:10D43000786B92EC50F0000903E09ADE010EDB6A93
:10D440000001775121E0820EE66EE66AE66A000E80
:10D45000E66EE66AE66AE66A2AEC74F0006E070E8B
:10D46000E15E0050820EE66EE66AE66A000EE66E47
:10D47000E66A070EE66EE66A2AEC74F0006E070EA6
:10D48000E15E00500001776B64D7020EE15C02E2BE
:0ED49000E16AE552E16EE552E7CFD9FF1200E6
:02D49E008BEC15
:10D4A0006FF0FB0EDBCFF3FFDB06F35000090AE061
:10D4B000D9EC6FF0FA0E44EC70F0F3E1011CF1E1ED
:10D4C000010E01D0000EBAEF6FF08BEC6FF03B0E47
:10D4D000E12402E3E168E652E16E010EDB6A020E2E
:10D4E000DB6AF90EDBCFF6FFFA0EDBCFF7FFFB0EA0
:10D4F000DBCFF8FF0800F550DF6EDF5002E1DEEF12
:10D500006EF0250EDF5C02E0D1EF6EF0030EDB6AF9
:10D51000040EDB6A050EDB6A060EDB6A070EDB6AA9
:10D52000F3EC6EF02D0EDF5C0CE02B0EDF5C09E0FF
:10D53000200EDF5C06E0230EDF5C03E0300EDF5CD4
:10D540001AE1DF50300A14E0130A0FE0030A0AE080
:10D550000B0A05E0060AE4E1030EDB80E1D7030EC7
:10D56000DB82DED7030EDB84DBD7030EDB86D8D766
:10D57000030EDB88D5D72A0EDF5C1BE1EFEC6EF0E3
:10D580003DEC6FF010E0030EDB8020682168130E85
:10D59000DBCF25F0140EDBCF26F056EC79F0040E2D
:10D5A0001EC0DBFF03D0130E26EC6FF0F3EC6EF021
:10D5B0000BD0090EDB6A94EC6FF003E008EC70F01E
:10D5C000FAD7090E26EC6FF0030EDBB0DB982E0EB7
:10D5D000DF5C1BE1F3EC6EF02A0EDF5C0BE1EFEC9D
:10D5E0006EF03DEC6FF003E1130E78EC6FF0F3ECAE
:10D5F0006EF00BD0090EDB6A94EC6FF003E008ECE0
:10D6000070F0FAD7090E78EC6FF0680EDF5C07E176
:10D61000F3EC6EF0680EDF5C1DE1030E18D0740EA3
:10D62000DF5C17E07A0EDF5C14E0480EDF5C06E09A
:10D63000540EDF5C03E05A0EDF5C02E1020E07D0FD
:10D640006C0EDF5C03E06A0EDF5C04E1010ECBECE4
:10D650006FF0C9DBDF506E0A01E17FD31E0A01E1E2
:10D6600092D1200A01E18FD13F0A01E149D11A0A82
:10D6700001E146D10D0A01E143D1200A01E140D187
:10D680003A0A01E13DD1200A01E13AD1260A01E13D
:10D6900035D10D0A01E132D11A0A01E1D9D0200AAF
:10D6A0004AE0300A1FE0460A0EE0250A01E083D373
:10D6B000D950F90FE96EFF0EDA20EA6E010EEE5E28
:10D6C000000EEE5AEE5AD9EC6FF0250EE66E95DBA1
:10D6D00003E1011C01E169D3D5EC6FF001E26BD3EA
:10D6E000DB2A69D3080EDB6A040EDB50010806E270
:10D6F000040EDB049DEC6FF0DB508BDB080EDB507F
:10D7000009E0030EDB50010B05E172DB01E04DD3B4
:10D71000080EDB6A64DBEFCFDFFF4DEC70F003E156
:10D72000011C01E142D3D5EC6FF001E3DB2A60DBA1
:10D7300001E141D33AD3070EDB5002080FE119ECA7
:10D7400070F0030EE0EC6FF00E0EEECFDBFF0F0E6D
:10D75000EECFDBFF100EEECFDBFF20D0F70EDBCFDE
:10D7600003F0F80EDBCF04F0020E035E000E045A45
:10D77000F70E03C0DBFFF80E04C0DBFF03C0E9FFB8
:10D7800004C0EAFFD0EC6FF0026A0E0E00C0DBFFAF
:10D790000F0E01C0DBFF100E02C0DBFF0E0EDBCF51
:10D7A000E6FF0F0EDBCFE6FF100EDBCFE6FF0EEC41
:10D7B00004F0E552E552E552130E1FC0DBFF140ED4
:10D7C00020C0DBFF060EDB5005E0130E14EC70F0FA
:10D7D00001E26ADB38EC70F002E2130E37DBFBEC9F
:10D7E0006FF006E0040E14EC70F002E2050E2EDB82
:10D7F000030EDBB005D0FCDA01E0D7D2080EDB6AFD
:10D80000090EDB6A0E0EDBCFF6FF0F0EDBCFF7FF44
:10D81000100EDBCFF8FF0800F550DF6EDF5014E08C
:10D820003EEC70F011E24DEC70F003E1011C01E1FF
:10D83000BCD2BBDB01E3DB2A090EDB2AD9500E0F79
:10D84000E96E000ECBDBE7D7D3DA01E1B4D2ADD27B
:10D85000C6DA110EEECFDBFF120EEDCFDBFF110E9D
:10D86000DBCFE6FF120EDBCFE6FF00EC04F0E55263
:10D87000E552130EF3CFDBFF140EF4CFDBFF060EE1
:10D88000DB5004E0130ED0DB01E20EDB38EC70F06D
:10D8900002E2130EDBDAAFDB05E0040EC5DB02E2C9
:10D8A000050ED4DA030EDBB005D0A2DA01E07DD29A
:10D8B000080EDB6A090EDB6A110EDBCFE9FF120EE0
:10D8C000DBCFEAFFEFCFDFFFDF5014E0D7DB12E260
:10D8D000E4DB03E1011C01E168D267DB01E3DB2A41
:10D8E000090EDB2A110EDB2ADBCFE9FF120EE8E37B
:10D8F000DB2AE6D77DDA01E15ED257D2030EDB8E5A
:10D90000070EDB0410E195DB040E5ADB0A0EEECFA6
:10D91000DBFF0B0EEECFDBFF0C0EEECFDBFF0D0EB1
:10D92000EECFDBFF6CD0070EDB5003082CE1030EBB
:10D93000DBAE0DD0B2DA020E76DAEFCF00F0016A7C
:10D94000026A036A00AE39D00168026835D0F70E6A
:10D95000DBCF01F0F80EDBCF02F0020E015E000E0D
:10D96000025AF70E01C0DBFFF80E02C0DBFF01C058
:10D97000E9FF02C0EAFFEFCF00F00A0E00C0DBFFB4
:10D980000B0EDB6A38D0070EDB50020809E1030EEC
:10D99000DBAE04D059DB02AE10D00ED055DB0DD07B
:10D9A000030EDBAE12D079DA020E3DDAF9DA026A42
:10D9B000036A01AE02D002680368E2DA0C0E02C00C
:10D9C000DBFF0D0E03C0DBFF1AD0F70EDBCF02F03A
:10D9D000F80EDBCF03F0020E025E000E035AF70EC4
:10D9E00002C0DBFFF80E03C0DBFF02C0E9FF03C08B
:10D9F000EAFFD6DAC5DA0C0EDB6A0D0EDB6A060E1C
:10DA0000DB5005E1010EF36E050EF3CFDBFF150EC3
:10DA1000DB6A160EDB6AD950370F006E000EDA2073
:10DA2000016E390E00C0DBFF3A0E01C0DBFF380E7D
:10DA3000DB6A080EDB6A0A0EAEDADF50780A12E003
:10DA4000200A10E0280A0CE0200A0AE03F0A06E05B
:10DA50000D0A02E0200A08E1020E05D0080E03D0EC
:10DA6000080EDF26100E97DA030EDBBE02D0DB9223
:10DA7000DB94DB50800B24E08ADAD890030EEB5065
:10DA8000000A08E6000EEE5C000EEE58000EEE589E
:10DA9000000EEE5815E213DA23682468256826681C
:10DAA000C8EC03F00A0E1AC0DBFF0B0E1BC0DBFF35
:10DAB0000C0E1CC0DBFF0D0E1DC0DBFF2D0E08D0B1
:10DAC000030EDBA202D02B0E03D0DBA408D0200E65
:10DAD000F36E170EF3CFDBFF150EDB2A02D0170E05
:10DAE000DB6A050EDB5003E1B7D901E189D0360EC0
:10DAF000006E0A0E016E000E026E070EDBCF03F001
:10DB0000046A056A066A03C023F004C024F005C055
:10DB100025F006C026F0D3D9B5EC04F000501A2445
:10DB2000F36E01501B20F46E02501C20F86EF4CFEF
:10DB3000F7FFF3CFF6FF0800090EF5CFDBFF580E15
:10DB4000DF5C0FE1610EF36E090E7BD90AE3200E54
:10DB5000006E090EDBCFE7FF0050E75E090EE7CF4E
:10DB6000DBFF070EDBCF00F0016A026A036A0FDAFF
:10DB700000C023F001C024F002C025F003C026F04D
:10DB8000EECF1EF0EECF1FF0EECF20F0EFCF21F062
:10DB9000B5EC04F021C0EDFF20C0EDFF1FC0EDFF8C
:10DBA0001EC0EFFF390EDBCFE9FFDB063A0EDBCFFD
:10DBB000EAFF01E2DB06090EDBCFEFFF150EDB2AE1
:10DBC0004BD995E1030EDBA61DD06F0EDF5C06E19D
:10DBD000C1D918E3150EDB285BDA14D0780EDF5CB0
:10DBE00009E0580EDF5C06E0620EDF5C03E0420EE7
:10DBF000DF5C08E1020EF36E160EF3CFDBFF02D0FE
:10DC0000150EDB6A030EDB50100B0EE0040EDBCFAB
:10DC100000F0050EDB50D880005406E2060EDB5003
:10DC200003E1040EDB5034DA95D90AE2050EDBCFAE
:10DC3000E7FF150EDB50E75E050EE7CFDBFF02D0F6
:10DC4000050EDB6A040EDBCF00F0160E45D9D88036
:10DC5000005414E2160EDBCFE6FF150EDBCFE6FF15
:10DC6000040EDBCFE6FF050EDB50E552E75CE55224
:10DC7000D880E754E552D880E7545FD9030EDB50D3
:10DC8000010B0BE1080EDB5008E0B2D801E08DD0AB
:10DC9000080EDB50BED8080EDB6A170EDB5007E01B
:10DCA00088D9170EF1D903E1011C01E17ED0160ECF
:10DCB000DB5016E07ED9300EE66E9FD802E1011CE3
:10DCC00074E077D9DFCFE6FF86EC03F0E552E5524A
:10DCD000E552F4CF01F00001F31C02E1011C65E004
:10DCE000050EDBCF00F0160EDB50D880005409E2A1
:10DCF000050EDBCFE7FF160EDB50E75E050EE7CF24
:10DD0000DBFF300EE66E050ECBD94FE1390EDB2A74
:10DD1000DBCFE9FF3A0E01E3DB2ADBCFEAFF090E96
:10DD2000EFCFDBFFDB500EE044D9090EADD902E1A5
:10DD3000011C3BE0390EDB2ADBCFE9FF3A0EEDE3B5
:10DD4000DB2AEBD755D831E1160EDBCFE6FF080E04
:10DD5000C3D8E552E7245DD82ED0070EDB50030A66
:10DD60001CE0010A14E0030A07E07BD9DBCFEEFFD9
:10DD7000020EDBCFEDFF1FD0F5D8056A03AE02D04F
:10DD8000046805682CD8BCD805C0EEFF14D0EAD8CA
:10DD900003BE046824D8B4D80ED063D9DBCFEFFF1C
:10DDA0000AD07BD905E1011C03E1F368F46810D0C7
:10DDB000FCD801E3DB2A79D97AEF6AF0010EDBCFD8
:10DDC00000F0020EDBCF01F000C0F3FF01C0F4FF52
:10DDD0003B0EE15C02E2E16AE552E16ECBD029D96B
:10DDE000020EE0EF6FF061D90800F550DF6E12000F
:10DDF000200EE66E080E50EF70F086EC03F0E55250
:10DE0000E552E552F3CF00F0F4CF01F00001F31C2E
:10DE10001200006E016AD950010F4DD90050EE2654
:10DE20000150ED221200045E000E055AF70E04C0E8
:10DE3000DBFFF80E05C0DBFF04C0E9FF05C0EAFF09
:10DE40001200DBCFF4FFF350F45C1200DB50E76EFE
:10DE5000040EE7CFDBFF12000A0EDBCF00F00B0E43
:10DE6000DBCF01F00C0EDBCF02F00D0EDBCF03F0A9
:10DE700000500110021003101200130EEECFDBFF52
:10DE8000140EEDCFDBFF130EDBCF00F0140EDBCF53
:10DE900001F00001800E01141200F70EDBCF04F038
:10DEA000F80EDBCF05F01200050EDB50E66ED95000
:10DEB000130F01D9E552E750EE6EED6A12000A0E1B
:10DEC000DBCF1EF00B0EDBCF1FF00C0EDBCF20F0F4
:10DED0000D0EDBCF21F01200DBCFE6FF150EDBCFFE
:10DEE000E6FF050EDB50E552E724E552E724120079
:10DEF000DB50CED8010EF36E060EF3CFDBFF12001F
:10DF0000EE50EFCFEAFFE96E02C0EEFF03C0EEFF76
:10DF100004C0EEFF1200D9CFE6FFDACFE6FFE1CF73
:10DF2000D9FFE2CFDAFF1200DFCFE6FFE66AE9ECC5
:10DF30007FF0E552E552F3501200E76E080EE7CF8E
:10DF4000DBFF1200EECF00F0EECF01F0EFCF02F0DA
:10DF5000036A1200050EDBCF00F0150EDB50D880EF
:10DF600000541200010EDBCF02F0020EDBCF03F0F3
:10DF7000046A1200E552E5CFDAFFE7CFD9FF1200BD
:10DF80000A0E00C0DBFF0B0E01C0DBFF1200D950F0
:10DF90000A0F5BEF70F0F36E070EF3CFDBFF12009A
:10DFA000EECF00F0EFCF01F01200010EDB2A020EDF
:10DFB0001200FC0EDBCFE6FFFD0EDBCFE6FF12000A
:10DFC000005E000E015AF70E00C0DBFFF80E01C024
:10DFD000DBFF00C0E9FF01C0EAFF1200DA20EA6EB1
:10DFE000EF2AEECFF6FF000EEF22EECFF7FFEF2283
:10DFF000EECFF8FF1200040EDBCFE6FF130EDB506E
:10E00000E552E75C9ADFDB5004DF060EDB501200BE
:10E01000090EDB500A0DF350DF24D00FE76E090E16
:10E02000E7CFDBFFF3EF6EF0DB50F36E050E21EF71
:10E030006FF0F70EDBCF00F0F80EDBCF01F012002F
:10E04000DFCFE6FFFDEF6EF028DF030EECDEA2EF80
:10E050006FF04FEC6AF0E552E552E552E5520009E7
:10E060001200BDDEEE50EFCFEAFFE96E010E1200A6
:10E07000130EDB50F36E040E21EF6FF0040EDB5035
:10E08000F36E090E21EF6FF0DBCFE6FFFDEF6EF0D0
:10E09000E76E050EE7CFDBFF12008BDF20EF70F09D
:10E0A000DBCFE6FF86DF29EF70F0D950F90FE96E7C
:10E0B000FF0EEEEF6FF0E96E000EDA20EA6E12004E
:10E0C000D9CFE6FFE1CFD9FF020EE126FD0EDBCF6F
:10E0D00000F0DB06FE0EDBCF01F001E2DB060050B4
:10E0E000011011E0DE6ADD6ADECF00F0DDCF01F065
:10E0F000E30E005C0D0E015805E2DF2A010E01E37C
:10E10000DB2AF2D7E3D7020EE15C02E2E16AE552D4
:10E11000E16EE552E7CFD9FF1200D9CFE6FFE1CF9C
:10E12000D9FF060EE1268D9296928D9096908D8461
:10E1300096948A9A939A8C92DE6ADE6ADE6ADD6A27
:10E14000DD52DD52D9CFE9FFDACFEAFF640EEE5C93
:10E15000000EEE58000EEE58000EEE580AE2D9CF2F
:10E16000E9FFDACFEAFFEE2A000EEE22EE22EE22DF
:10E17000E9D78C82DE6ADE6ADE6ADD6ADD52DD5254
:10E18000D9CFE9FFDACFEAFF640EEE5C000EEE585D
:10E19000000EEE58000EEE580AE2D9CFE9FFDACFB2
:10E1A000EAFFEE2A000EEE22EE22EE22E9D7AE0EB4
:10E1B000E66E70D8E552DB0EE66E6CD8E552230EA3
:10E1C000E66E68D8E552D90EE66E64D8E552220EA6
:10E1D000E66E60D8E552A10EE66E5CD8E552C80E38
:10E1E000E66E58D8E552DA0EE66E54D8E552120EB5
:10E1F000E66E50D8E552A80EE66E4CD8E5523F0EBA
:10E20000E66E48D8E552D50EE66E44D8E552A00E2B
:10E21000E66E40D8E552810EE66E3CD8E552600EBF
:10E22000E66E38D8E552D30EE66E34D8E552E66A8B
:10E2300031D8E552A60EE66E2DD8E552AD0EE66E4B
:10E2400029D8E5528B0EE66E25D8E552AF0EE66E64
:10E2500021D8E5520A0EE66EE66A32DFE552E55253
:10E26000A40EE66E17D8E552400EE66E13D8E552BE
:10E27000020EE66E0FD8E552100EE66E0BD8E55290
:10E28000060EE15C02E2E16AE552E16EE552E7CF9B
:10E29000D9FF1200D9CFE6FFE1CFD9FF956AFE0E74
:10E2A000DB508C6E8D808D828A9A8D948D928D82BA
:10E2B0008D849568E552E7CFD9FF1200D9CFE6FFEC
:10E2C000E1CFD9FF956AFE0EDB508C6E8D808D827A
:10E2D0008A8A8D948D928D828D849568E552E7CFE0
:10E2E000D9FF1200D9CFE6FFE1CFD9FF020EE12618
:10E2F000B00EDF6EB80EDF5C23E2DFCFE6FFCADFD1
:10E30000E552020EE66EC6DFE552100EE66EC2DF83
:10E31000E552010EDB6ADB50006E016AD8900150B5
:10E3200004E6840E005C000E015808E2FE0EDBCF0E
:10E33000E6FFC4DFE552010EDB2AEDD7DF2ADAD78C
:10E34000020EE15C03E200D0E16AE552E16EE552C3
:10E35000E7CFD9FF1200D9CFE6FFE1CFD9FF200EDA
:10E36000006EFE0EDBCFE7FF0050E75EFE0EE7CF4C
:10E37000DBFFDBCFF6FFF76AF6BEF768050EF702A4
:10E38000F3CFF7FFF602F3CFF6FFF450F726020EB5
:10E39000F626020EF7220800F550E66E8FDFE552F2
:10E3A000FE0EDBCFF6FFF76AF6BEF768050EF70242
:10E3B000F3CFF7FFF602F3CFF6FFF450F726020E85
:10E3C000F626020EF722010EF626000EF7220800AE
:10E3D000F550E66E73DFE552FE0EDBCFF6FFF76A0F
:10E3E000F6BEF768050EF702F3CFF7FFF602F3CF9C
:10E3F000F6FFF450F726020EF626020EF722020E62
:10E40000F626000EF7220800F550E66E57DFE552BB
:10E41000FE0EDBCFF6FFF76AF6BEF768050EF702D1
:10E42000F3CFF7FFF602F3CFF6FFF450F726020E14
:10E43000F626020EF722030EF626000EF72208003B
:10E44000F550E66E3BDFE552FE0EDBCFF6FFF76AD6
:10E45000F6BEF768050EF702F3CFF7FFF602F3CF2B
:10E46000F6FFF450F726020EF626020EF722040EEF
:10E47000F626000EF7220800F550E66E1FDFE55283
:10E48000E66A1CDFE55200D0E552E7CFD9FF120063
:10E49000D9CFE6FFE1CFD9FFE652FD0EDBCFE6FF95
:10E4A000F9DEE552020E006EFC0EDBCFE7FF0050F6
:10E4B000E726FC0EE7CFDBFFDB500F0BE66EEADE54
:10E4C000E552FC0EDB380F0B0F0B100FE66EE2DE91
:10E4D000E552FE0EDBCFE6FF3EDFE55200D0E5520F
:10E4E000E552E7CFD9FF1200D9CFE6FFE1CFD9FF40
:10E4F000FC0EDB50B00FE76EFC0EE7CFDBFFFB0E30
:10E50000DBCFE6FFFC0EDBCFE6FFFD0EDBCFF6FF39
:10E51000FE0EDBCFF7FF0800F550E66EB9DFE552DF
:10E52000E552E552FD0EDB2ADBCFF6FFFE0E01E3DE
:10E53000DB2ADBCFF7FF0800F5500CE0FD0EDBCF48
:10E54000F6FFFE0EDBCFF7FF0800F550E66E03DFA7
:10E55000E552E8D7E552E7CFD9FF1200D9CFE6FF61
:10E56000E1CFD9FFFC0EDB50B00FE76EFC0EE7CF1A
:10E57000DBFFFB0EDBCFE6FFFC0EDBCFE6FFFD0E85
:10E58000DBCFE9FFFE0EDBCFEAFFEF50E66E80DF68
:10E59000E552E552E552FD0EDB2ADBCFE9FFFE0E28
:10E5A00001E3DB2ADBCFEAFFEF500BE0FD0EDBCF10
:10E5B000E9FFFE0EDBCFEAFFEF50E66ECCDEE55260
:10E5C000EAD7E552E7CFD9FF1200D9CFE6FFE1CF76
:10E5D000D9FF050EE126030EDB6A040EDB6A020E8C
:10E5E000006EFA0EDBCFE7FF0050E726FA0EE7CF0A
:10E5F000DBFFF90EDB50B00FDF6EFB0EDB50B00F10
:10E60000DF5C35E2DFCFE6FF45DEE552FA0EDB5098
:10E610000F0BE66E3FDEE552FA0EDB380F0B0F0BE9
:10E620001009E66E37DEE552010EDB6AFC0EDB50A8
:10E63000F36E010EDBCFF4FFF350F45C16E2030E31
:10E64000DB2A040E01E3DB2AFD0EDBCFF6FFDB2A1B
:10E65000FE0EDBCFF7FF01E3DB2A0800F550E66E84
:10E660002DDEE552010EDB2AE1D7DF2AC6D7050EE3
:10E67000E15C03E200D0E16AE552E16EE552E7CFEA
:10E68000D9FF1200D9CFE6FFE1CFD9FF020EE12674
:10E69000DE6ADD6ADECF00F0DDCF01F0FC0EDBCFFD
:10E6A00002F0FD0EDBCF03F001500318E8AE02D0FC
:10E6B000033404D00250005C035001581BE2FA0EF0
:10E6C000DB50026E036ADE500224006EDD50032030
:10E6D000016E0050E66EFB0EDBCFE6FFFE0EDBCFD9
:10E6E000E6FFD6DEE552E552E552DF2A010E01E3F0
:10E6F000DB2AD0D7020EE15C02E2E16AE552E16E6C
:10E70000E552E7CFD9FF1200D9CFE6FFE1CFD9FF1D
:10E71000020EE126FE0EDB50B00FE76EFE0EE7CFD5
:10E72000DBFFDE6ADD6ADECF00F0DDCF01F0D890DE
:10E73000015004E6180E005C000E01581AE2FD0EAE
:10E74000DB50026E036ADE500224006EDD500320AF
:10E75000016E0050E66EFE0EDBCFE6FF2D0EE66E7C
:10E7600097DEE552E552E552DF2A010E01E3DB2A8E
:10E77000DAD7DE6ADD6ADECF00F0DDCF01F0D890B7
:10E78000015004E6180E005C000E01581BE2FD0E5D
:10E79000DB50026E036ADE500224006EDD5003205F
:10E7A000016E0050E66EFE0EDB50040FE66E2D0E7D
:10E7B000E66E6EDEE552E552E552DF2A010E01E318
:10E7C000DB2AD9D7DE6ADD6ADECF00F0DDCF01F0CB
:10E7D000D890015004E6050E005C000E015830E2AE
:10E7E000FD0EDBCFE6FFFE0EDB50026E036ADE504D
:10E7F0000224006EDD500320016E0050E66E7C0E98
:10E80000E66E46DEE552E552E552FD0EDB50190F8D
:10E81000E66EFE0EDB50026E036ADE500224006ECE
:10E82000DD500320016E0050E66E7C0EE66E30DE99
:10E83000E552E552E552DF2A010E01E3DB2AC4D797
:10E84000020EE15C02E2E16AE552E16EE552E7CFD9
:10E85000D9FF1200D9CFE6FFE1CFD9FF020EE126A2
:10E86000FD0EDB50B00FE76EFD0EE7CFDBFFDB5098
:10E87000DF6EDF50006E016AFD0EDB50046E056A2C
:10E88000FB0EDB500424026EFC0EDB500520036EF1
:10E8900003500118E8AE02D0013404D00050025CED
:10E8A0000150035836E3DFCFE6FFF4DCE552020EF9
:10E8B000E66EF0DCE552100EE66EECDCE552FA0E88
:10E8C000DB50E76E010EE7CFDBFFDB50006E016A25
:10E8D000FA0EDB50046E056AF80EDB500424026E5B
:10E8E000F90EDB500520036E01500318E8AE02D08C
:10E8F000033404D00250005C0350015808E2FE0EBD
:10E90000DBCFE6FFDBDCE552010EDB2ADED7DF2AB8
:10E91000B0D7020EE15C03E200D0E16AE552E16E9D
:08E92000E552E7CFD9FF120018
:08E92800D9CFE6FFE1CFD9FFD2
:10E93000E65295688D808D828A8A8D948D90000034
:10E940000000000000000000000000008D800000BA
:10E950008D9000008350DF6E8D808D84E552E552EE
:10E96000E7CFD9FF1200D9CFE6FFE1CFD9FF020EE2
:10E97000E126FD0EDBCFE9FFFE0EDBCFEAFFEF5015
:10E98000DE6EDD6AF90EDBCFE9FFFA0EDBCFEAFFC0
:10E99000EF50E66EFD0EDBCFE9FFFE0EDBCFEAFFA8
:10E9A000E552E750EF6EF90EDBCFE9FFFA0EDBCF51
:10E9B000EAFFDFCFEFFFFB0EDBCFE9FFFC0EDBCF83
:10E9C000EAFFEF50DE6EDD6AF70EDBCFE9FFF80EEF
:10E9D000DBCFEAFFEF50E66EFB0EDBCFE9FFFC0E6C
:10E9E000DBCFEAFFE552E750EF6EF70EDBCFE9FF32
:10E9F000F80EDBCFEAFFDFCFEFFF020EE15C02E2B1
:10EA0000E16AE552E16EE552E7CFD9FF1200D9CFB6
:10EA1000E6FFE1CFD9FFE652E00EE66E4AEC71F078
:10EA2000E55282DFDF6EFE0EDB50DF1ADFCFE6FF3E
:10EA30005EEC71F0E552EE0EE66E4AEC71F0E552D6
:10EA4000E552E552E7CFD9FF1200D9CFE6FFE1CF7B
:10EA5000D9FFFE0EDB50B00FE66E4AEC71F0E552C6
:10EA6000020E006EFD0EDBCFE7FF0050E726FD0E25
:10EA7000E7CFDBFFDB500F0BE66E4AEC71F0E5529F
:10EA8000FD0EDB380F0B0F0B100FE66E4AEC71F02A
:10EA9000E552E552E7CFD9FF1200D9CFE6FFE1CF2B
:10EAA000D9FF040EE126DF6AFD0EDB40E840E840B6
:10EAB0001F0BE76E020EE7CFDBFFFD0EDB50070BEF
:10EAC000E76E030EE7CFDBFF010EDB6A030EDB50C0
:10EAD000070815E3FC0EDB5012E0010EF36E030E87
:10EAE000DB5004E0D890F336E806FCE1F350DF1287
:10EAF000010EDB2AFC0EDB06030EDB2AE7D7FE0E37
:10EB0000DBCFE6FF020EDBCFE6FF9FDFE552E552EB
:10EB1000DFCFE6FF7CDFE552FB0EDBCF00F0000E1F
:10EB2000E76E0018E8AE02D0003403D0E750D8807A
:10EB3000005419E2FE0EDB50016E026AD8900250BA
:10EB400004E6830E015C000E02580DE2FE0EDB2887
:10EB5000E66E020EDBCFE6FF78DFE552E552DFCF4F
:10EB6000E6FF55DFE552FB0EDBCF00F0010EE76E4E
:10EB70000018E8AE02D0003403D0E750D88000542B
:10EB800011E2FE0EDB5000080DE2FE0EDB04E66E25
:10EB9000020EDBCFE6FF59DFE552E552DFCFE6FF9D
:10EBA00036DFE552010EDB50006E040EE15C03E23D
:10EBB00000D0E16AE552E16E0050E552E7CFD9FF9F
:10EBC0001200D9CFE6FFE1CFD9FF020EE126010EF8
:10EBD000DF6EFC0EDBCF00F0000EE76E0018E8AE33
:10EBE00002D0003403D0E750D880005407E2FD0E75
:10EBF000DB50000803E2FD0EDB06DF2AFC0EDBCF54
:10EC000000F0010EE76E0018E8AE02D0003403D029
:10EC1000E750D880005408E2FD0EDB50DF24016E7F
:10EC20003F0E015C01E2DF2ADF501EE0E66ADFCF23
:10EC3000E6FFFD0EDBCFE6FFFE0EDBCFE6FF2DDFAE
:10EC4000E552E552E552E552E76E010EE7CFDBFFF4
:10EC5000DB50DF5EFD0EDBCFE7FF010EDB50E7266A
:10EC6000FD0EE7CFDBFFE0D7020EE15C02E2E16AD6
:10EC7000E552E16EE552E7CFD9FF1200D9CFE6FFAA
:10EC8000E1CFD9FF160EE126FD0EDBCF00F0FB0E23
:10EC9000DB50D88000541DE2D950FB0FE66EFF0E0A
:10ECA000DA20E66ED950FC0FE66EFF0EDA20E66E33
:10ECB000D950FD0FE66EFF0EDA20E66ED950FE0F3A
:10ECC000E66EFF0EDA20E66E4EDE006E080EE15EA6
:10ECD0000050FB0EDBCFE6FFFD0EDB50E552E75C9C
:10ECE000010FE76E060EE7CFDBFFFE0EDB50F36E83
:10ECF000FC0EDBCFF4FFF350F45C14E3FC0EDBCF2F
:10ED0000E6FFFE0EDB50E552E75C010FE76E050EF5
:10ED1000E7CFDBFF010EF36E070EF3CFDBFF080E2C
:10ED2000DB6A10D0FE0EDBCFE6FFFC0EDB50E552B7
:10ED3000E75C010FE76E050EE7CFDBFF070EDB6830
:10ED4000080EDB68050EDB50F36E060EDBCFF4FF1A
:10ED5000F350F45C01E2CCD0060EDB50640D0D0ED6
:10ED6000F3CFDBFF0E0EF4CFDBFF050EDB50006EA2
:10ED7000016A0D0EDBCF20F00E0EDBCF21F000C0BC
:10ED800025F001C026F030EC79F00B0E20C0DBFF3F
:10ED90000C0E21C0DBFFFE0EDB50DF6EFD0EDB50E4
:10EDA000E76E010EE7CFDBFF150EDB6AFC0EDB50D2
:10EDB000006E016A00C020F001C021F0070EDBCF19
:10EDC00025F0080EDBCF26F056EC79F0090E1EC0B8
:10EDD000DBFF0A0E1FC0DBFFDF50026E036A02C0BA
:10EDE00020F003C021F0070EDBCF25F0080EDBCFAB
:10EDF00026F056EC79F01EC000F01FC001F0090E9D
:10EE0000DBCF04F00A0EDBCF05F005500118E8AEA9
:10EE100002D0013404D00050045C0150055867E36F
:10EE2000640E026E036A150EDB50E76E0B0EDBCF2D
:10EE300000F00C0EDBCF01F0E7500026000E01229F
:10EE4000130E00C0DBFF140E01C0DBFF00C020F07A
:10EE500001C021F002C025F003C026F030EC79F0AB
:10EE6000020E20C0DBFF130EDBCF00F0140EDBCF51
:10EE700001F0640E256E266A00C020F001C021F06A
:10EE800030EC79F01CC000F01DC001F0150E00C080
:10EE9000DBFF020EDB5027E0FA0EDBCFE6FF020EAF
:10EEA000DBCFE6FF010EDBCFE6FFDFCFE6FFF5DDD0
:10EEB000E552E552E552E552E76E040EE7CFDBFF7F
:10EEC000020EDBCFE7FF040EDB50E75E020EE7CF5A
:10EED000DBFF010EDBCFE7FF040EDB50E726010E60
:10EEE000E7CFDBFFD6D7070EDB50DF2675D785D0FF
:10EEF000050EDB50640D110EF3CFDBFF120EF4CFC5
:10EF0000DBFF060EDB50006E016A110EDBCF20F036
:10EF1000120EDBCF21F000C025F001C026F030EC4E
:10EF200079F00F0E20C0DBFF100E21C0DBFFFE0EBC
:10EF3000DB50DF6EFD0EDB50E76E010EE7CFDBFF2F
:10EF4000150EDB6A010EDBCF00F0FB0EDB50D88024
:10EF5000005453E3640E026E036A150EDB50E76E35
:10EF60000F0EDBCF00F0100EDBCF01F0E7500026D4
:10EF7000000E0122130E00C0DBFF140E01C0DBFFE8
:10EF800000C020F001C021F002C025F003C026F02F
:10EF900030EC79F0030E20C0DBFF130EDBCF00F066
:10EFA000140EDBCF01F0640E256E266A00C020F03F
:10EFB00001C021F030EC79F01CC000F01DC001F060
:10EFC000150E00C0DBFF030EDBCFF3FFDB06F350B3
:10EFD000000910E0FA0EDBCFE6FF010EDBCFE6FF03
:10EFE000DFCFE6FFEEDDE552E552E552070EDB50DE
:10EFF000DF26E9D7010EDB2AA5D7150EDB50320834
:10F000000CE2FA0EDBCFE6FF010EDBCFE6FFDFCF2F
