:020000040000FA
:0600000039EF7FF0120051
:020006001200E6
:0600080004EF50F01200AD
:060018000CEF50F0120095
:06A0000039EF7FF01200B1
:02A00600120046
:06A008001CEF50F01200F5
:06A0180069EF50F0120098
:02A01E0002003E
:10A02000BBFE0000600000001400000021F90000E9
:08A030009F0000000100000088
:08A03800DACFE4FFE2CFDAFF0A
:10A04000E9CFE4FFEACFE4FFF6CFE4FFF7CFE4FF88
:10A05000F5CFE4FFF3CFE4FFF4CFE4FFFACFE4FF62
:10A0600000EE18F0140EE80403E3EECFE4FFFBD794
:10A0700000EE00F0180EE80403E3EECFE4FFFBD798
:10A08000E652F2A402D002EC63F0E55200EE17F0C3
:10A09000180EE80403E3E5CFEDFFFBD700EE2BF04D
:10A0A000140EE80403E3E5CFEDFFFBD7E5CFFAFF9D
:10A0B000E5CFF4FFE5CFF3FFE5CFF5FFE5CFF7FF01
:10A0C000E5CFF6FFE5CFEAFFE5CFE9FFE5CFDAFF21
:10A0D0001100D8CFE4FFE0CFE4FFE46EDACFE4FF75
:10A0E000E2CFDAFFE652E552E5CFDAFFE550E5CF01
:10A0F000E0FFE5CFD8FF1000CBEC79F036EC7AF03A
:10A100006BEC78F0C1EC6AF0E66AA6EC6BF0E55215
:10A110001200BDEC7CF0000901E1FBD70F0148699A
:10A1200049697CEF50F081B01FD0000170C000F091
:10A1300071C001F072C002F073C003F0702B000E0A
:10A14000712372237323D8800A0E0054000E015429
:10A15000000E0254000E035406E2706B716B726BBA
:10A16000736B010E6F6F11D000016F050EE170511E
:10A1700071117211731104E16F6B010E08D005D0DB
:10A180007007000E715B725B735B000E00D01200F3
:10A19000D9CFE6FFE1CFD9FFE652FD0EDBCFE9FFD5
:10A1A000FE0EDBCFEAFFEFCFDFFFFB0EDBCFE9FFD9
:10A1B000FC0EDBCFEAFFEF50E66EFD0EDBCFE9FFD2
:10A1C000FE0EDBCFEAFFE552E750EF6EFB0EDBCF72
:10A1D000E9FFFC0EDBCFEAFFDFCFEFFFE552E552F0
:10A1E000E7CFD9FF1200D9CFE6FFE1CFD9FFFB0EB1
:10A1F000DBCF00F0FC0EDBCF01F0F90EDBCF02F07D
:10A20000FA0EDBCF03F001500318E8AE02D003349E
:10A2100004D00250005C0350015830E2F90EDBCF4D
:10A2200002F0DB06FA0EDBCF03F001E2DB06FD0EE7
:10A23000DB500224006EFE0EDB500320016E00C0D6
:10A24000E6FF01C0E6FFFB0EDBCF06F0DB2AFC0ECB
:10A25000DBCF07F001E3DB2AFD0EDB500624046EA2
:10A26000FE0EDB500720056E04C0E6FF05C0E6FFCA
:10A270008FDFE552E552E552E552B9D7FD0EDBCF4F
:10A2800000F0FE0EDBCF01F000C0F3FF01C0F4FFD1
:10A2900000D0E552E7CFD9FF1200D9CFE6FFE1CFDA
:10A2A000D9FFFD0EDBCF02F0FE0EDBCF03F0000185
:10A2B000800E03140BE0FD0EDBCF00F0FE0EDBCFB3
:10A2C00001F0006C011E000E012206D0FD0EDBCF56
:10A2D00000F0FE0EDBCF01F000C0F3FF01C0F4FF81
:10A2E00000D0E552E7CFD9FF1200D9CFE6FFE1CF8A
:10A2F000D9FF060EE126FD0EDBCFE6FFFE0EDBCF1B
:10A30000E6FFCBDFE552E552F3CFDEFFF4CFDDFF12
:10A31000020EDB6A030EDB6AD9CFE9FFDACFEAFF70
:10A32000EE50ED1076E0DECF00F0DDCF01F00A0E4A
:10A33000256E266A00C020F001C021F064EC73F0A5
:10A340001CC000F01DC001F0040E00C0DBFF050EB4
:10A3500001C0DBFF040EDBCF00F0050EDBCF01F008
:10A36000D890015004E60A0E005C000E015822E36A
:10A37000040EDBCF02F0050EDBCF03F00A0E025E07
:10A38000000E035A410E0226000E0322020EDBCFFE
:10A3900000F0DB2A030EDBCF01F001E3DB2AFB0E2A
:10A3A000DB500024E96EFC0EDB500120EA6E02C097
:10A3B000EFFF1DD0040EDBCF02F0050EDBCF03F064
:10A3C000300E0226000E0322020EDBCF00F0DB2A45
:10A3D000030EDBCF01F001E3DB2AFB0EDB50002490
:10A3E000E96EFC0EDB500120EA6E02C0EFFF0A0EA0
:10A3F000006E016A00C025F001C026F0DECF20F01B
:10A40000DDCF21F064EC73F020C0DEFF21C0DDFF62
:10A4100083D7D950020FE96EDACFEAFFEE50ED1084
:10A4200013E1020EDBCF00F0DB2A030EDBCF01F0DD
:10A4300001E3DB2AFB0EDB500024E96EFC0EDB504F
:10A440000120EA6E300EEF6EFD0EDBCF00F0FE0E47
:10A45000DBCF01F00001800E011413E0020EDBCF10
:10A4600000F0DB2A030EDBCF01F001E3DB2AFB0E59
:10A47000DB500024E96EFC0EDB500120EA6E2D0E4D
:10A48000EF6E020EDBCF00F0030EDBCF01F0FB0E10
:10A49000DB500024E96EFC0EDB500120EA6EEF6A0F
:10A4A000020EDBCF00F0030EDBCF01F00006000E42
:10A4B000015A00C0E6FF01C0E6FFE66EE66AFB0E49
:10A4C000DBCFE6FFFC0EDBCFE6FF8DDE026E060E75
:10A4D000E15E0250060EE15C03E200D0E16AE55263
:10A4E000E16EE552E7CFD9FF1200D9CFE6FFE1CF09
:10A4F000D9FFE652D950FD0FE96EFF0EDA20EA6E61
:10A50000070EEE1801E1ED5008E1040EF36EFD0EAA
:10A51000F3CFDBFFFE0EDB6A13D0D950FD0FE96EDF
:10A52000FF0EDA20EA6E020E256E266AEECF20F0CC
:10A53000EDCF21F064EC73F020C0EEFF21C0EDFF01
:10A54000FD0EDBCF00F0FE0EDBCF01F0300E00245D
:10A55000DF6EE66AA6EC6BF0E552E66A020EE66E86
:10A56000170EE66EF90EE66EA8EC6CF0E552E552B9
:10A57000E552E5523C0EE66E020EE66EDFCFE6FFD8
:10A580007CEC6CF0E552E552E552480EE66E020EA8
:10A59000E66E0E0EE66EF90EE66EA8EC6CF0E55275
:10A5A000E552E552E5521E0EE66E040EE66E010E11
:10A5B000E66EF90EE66EA8EC6CF0E552E552E55257
:10A5C000E5522A0EE66E060EE66EF70EE66EF80E01
:10A5D000E66EA8EC6CF0E552E552E552E552A3DDDB
:10A5E000000901E1FCD7E552E552E7CFD9FF12009F
:10A5F000D9CFE6FFE1CFD9FFE652300EDF6EE66A33
:10A60000A6EC6BF0E552E66A020EE66E170EE66EF9
:10A61000F90EE66EA8EC6CF0E552E552E552E55213
:10A62000FD0EDBCF00F0FE0EDBCF01F0013404E2C3
:10A6300000500908000E015417E33C0EE66E020EAE
:10A64000E66EDF50026E036AFD0EDB500224006EE0
:10A65000FE0EDB500320016E0050E66E7CEC6CF0C9
:10A66000E552E552E55244D03C0EE66E020EE66E2F
:10A67000DF50006E016AFD0EDBCF02F0FE0EDBCF75
:10A6800003F00A0E256E266A02C020F003C021F0F6
:10A6900064EC73F020C002F021C003F000500224EB
:10A6A000E66E7CEC6CF0E552E552E552420EE66E49
:10A6B000020EE66EDF50006E016AFD0EDBCF02F087
:10A6C000FE0EDBCF03F00A0E256E266A02C020F0D4
:10A6D00003C021F064EC73F01CC002F01DC003F055
:10A6E00000500224E66E7CEC6CF0E552E552E55237
:10A6F000480EE66E020EE66EED0EE66EF80EE66EA3
:10A70000A8EC6CF0E552E552E552E5521E0EE66EFD
:10A71000040EE66E010EE66EF90EE66EA8EC6CF025
:10A72000E552E552E552E5522A0EE66E060EE66E59
:10A73000F70EE66EF80EE66EA8EC6CF0E552E55208
:10A74000E552E552F0DC000901E1FCD7E552E552A3
:10A75000E7CFD9FF1200D9CFE6FFE1CFD9FFFD0E39
:10A76000DBCF20F0FE0EDBCF21F0020E201801E13E
:10A77000215017E0010E201801E1215001E022D004
:10A78000040EE66EE66AE66A000EE66EE66A030E00
:10A79000E66EE6685EEC6EF0006E070EE15E00505D
:10A7A00011D0040EE66EE66AE66A000EE66EE66A10
:10A7B000050EE66EE6685EEC6EF0006E070EE15E7A
:10A7C000005000D0E552E7CFD9FF1200D9CFE6FF05
:10A7D000E1CFD9FF020EE126DE6ADD6A130EC26EFA
:10A7E000C450026E02C003F0026AC350000102248A
:10A7F000006E000E0320016E00C0DEFF01C0DDFF11
:10A80000DECF00F0DDCF01F0800E011411E1DECFCC
:10A8100002F0DDCF03F0D890035004E6CC0E025CCA
:10A82000000E035805E2020EF36EF46A5CD05BD0B2
:10A83000DECF00F0DDCF01F0D890015004E6CC0E61
:10A84000005C000E015811E3DECF02F0DDCF03F013
:10A85000D890035004E6940E025C010E035805E202
:10A86000030EF36EF46A3FD03ED0DECF00F0DDCFB2
:10A8700001F0D890015004E6940E005C010E0158DE
:10A8800011E3DECF02F0DDCF03F0D890035004E6F1
:10A890005E0E025C020E035805E2040EF36EF46ACB
:10A8A00022D021D0DECF00F0DDCF01F0D8900150D2
:10A8B00004E65E0E005C020E015811E3DECF02F0EA
:10A8C000DDCF03F0D890035004E6280E025C030E9F
:10A8D000035805E2050EF36EF46A05D004D0060EA7
:10A8E000F36EF46A00D0020EE15C02E2E16AE55226
:10A8F000E16EE552E7CFD9FF1200D9CFE6FFE1CFF5
:10A90000D9FFFD0EDBCF20F0FE0EDBCF21F0020ED3
:10A91000201801E121504EE0010E201801E12150E4
:10A9200027E0205001E1215001E066D01E0EE66EC6
:10A93000B40EE66E5F0EE66E7CEC6CF0E552E5520E
:10A94000E552210EE66EB40EE66E5F0EE66E7CEC0E
:10A950006CF0E552E552E552240EE66EB40EE66E5A
:10A960005F0EE66E7CEC6CF0E552E552E55244D0A9
:10A970002F0EE66EB40EE66E5F0EE66E7CEC6CF0AB
:10A98000E552E552E552320EE66EB40EE66E5F0E0B
:10A99000E66E7CEC6CF0E552E552E552350EE66E63
:10A9A000B40EE66E5F0EE66E7CEC6CF0E552E5529E
:10A9B000E55222D0410EE66EB40EE66E5F0EE66EF4
:10A9C0007CEC6CF0E552E552E552440EE66EB40EB6
:10A9D000E66E5F0EE66E7CEC6CF0E552E552E552F9
:10A9E000470EE66EB40EE66E5F0EE66E7CEC6CF023
:10A9F000E552E552E55200D0E552E7CFD9FF12000B
:10AA0000D9CFE6FFE1CFD9FF090EE126010EF36EA3
:10AA1000060EF3CFDBFF070EDB6A010EF36E080EA6
:10AA2000F3CFDBFF080EDB502FE0E66AA6EC6BF0FD
:10AA3000E552120EE66EE66ADB0EE66EF80EE66E84
:10AA4000A8EC6CF0E552E552E552E552120EE66EC6
:10AA5000030EE66ECD0EE66EF80EE66EA8EC6CF018
:10AA6000E552E552E552E552120EE66E050EE66E2F
:10AA7000C00EE66EF80EE66EA8EC6CF0E552E552FC
:10AA8000E552E552080EDB6AD950060FE96EDACFBF
:10AA9000EAFF010EEE1801E1ED5011E1040EE66E41
:10AAA000E66AE66A000EE66EE66A030EE66EE668A1
:10AAB0005EEC6EF0006E070EE15E005010D0040EEA
:10AAC000E66EE66AE66A000EE66EE66A050EE66E79
:10AAD000E6685EEC6EF0006E070EE15E005093ECEF
:10AAE00050F0000911E0D950060FE96EDACFEAFF05
:10AAF000010EEE1801E1ED5004E10001010E6A6F54
:10AB000002D000016A6BC2D036EC7AF0010EE66E1C
:10AB1000CEEC79F0E552040EF3CFDBFF050EF4CF57
:10AB2000DBFF040EDBCF00F0050EDBCF01F0D89089
:10AB3000015004E6840E005C030E01581BE2040E73
:10AB4000DBCF00F0050EDBCF01F0D890015004E61A
:10AB5000840E005C030E01580CE2010EE66ECEEC92
:10AB600079F0E552040EF3CFDBFF050EF4CFDBFFE7
:10AB7000E6D78CD0E66ACEEC79F0E552F3CFDEFF73
:10AB8000F4CFDDFF030EE66ECEEC79F0E552020E57
:10AB9000F3CFDBFF030EF4CFDBFFDECF00F0DDCF22
:10ABA00001F0D890015004E6840E005C030E0158B9
:10ABB0002DE2DECF00F0DDCF01F0D890015004E6A9
:10ABC000840E005C030E015809E2E66ACEEC79F0CF
:10ABD000E552F3CFDEFFF4CFDDFFEBD7060EDBCF80
:10ABE00000F0070EDBCF01F0D890015004E6020E12
:10ABF000005C000E01580AE2060EDB2A070E01E394
:10AC0000DB2A010EF36E080EF3CFDBFF020EDBCF63
:10AC100000F0030EDBCF01F0D890015004E6840E63
:10AC2000005C030E015831E2020EDBCF00F0030E90
:10AC3000DBCF01F0D890015004E6840E005C030ED7
:10AC400001580CE2030EE66ECEEC79F0E552020EEE
:10AC5000F3CFDBFF030EF4CFDBFFE6D7060EDBCF2F
:10AC600000F0070EDBCF01F0013404E200500108D0
:10AC7000000E01540AE2060EDB06070E01E2DB06B7
:10AC8000010EF36E080EF3CFDBFFCCD6090EE15CAC
:10AC900002E2E16AE552E16EE552E7CFD9FF120028
:10ACA000D9CFE6FFE1CFD9FF090EE126010EF36E01
:10ACB000060EF3CFDBFF070EDB6A010EF36E080E04
:10ACC000F3CFDBFF080EDB502FE0E66AA6EC6BF05B
:10ACD000E552120EE66EE66AB10EE66EF80EE66E0C
:10ACE000A8EC6CF0E552E552E552E552120EE66E24
:10ACF000030EE66EAD0EE66EF80EE66EA8EC6CF096
:10AD0000E552E552E552E552120EE66E050EE66E8C
:10AD1000A90EE66EF80EE66EA8EC6CF0E552E55270
:10AD2000E552E552080EDB6AD950060FE96EDACF1C
:10AD3000EAFF010EEE1801E1ED5011E1040EE66E9E
:10AD4000E66AE66A000EE66EE66A030EE66EE668FE
:10AD50005EEC6EF0006E070EE15E005010D0040E47
:10AD6000E66EE66AE66A000EE66EE66A050EE66ED6
:10AD7000E6685EEC6EF0006E070EE15E005093EC4C
:10AD800050F0000911E0D950060FE96EDACFEAFF62
:10AD9000010EEE1801E1ED5004E10001010E6C6FAF
:10ADA00002D000016C6BC2D036EC7AF0010EE66E78
:10ADB000CEEC79F0E552040EF3CFDBFF050EF4CFB5
:10ADC000DBFF040EDBCF00F0050EDBCF01F0D890E7
:10ADD000015004E6840E005C030E01581BE2040ED1
:10ADE000DBCF00F0050EDBCF01F0D890015004E678
:10ADF000840E005C030E01580CE2010EE66ECEECF0
:10AE000079F0E552040EF3CFDBFF050EF4CFDBFF44
:10AE1000E6D78CD0E66ACEEC79F0E552F3CFDEFFD0
:10AE2000F4CFDDFF030EE66ECEEC79F0E552020EB4
:10AE3000F3CFDBFF030EF4CFDBFFDECF00F0DDCF7F
:10AE400001F0D890015004E6840E005C030E015816
:10AE50002DE2DECF00F0DDCF01F0D890015004E606
:10AE6000840E005C030E015809E2E66ACEEC79F02C
:10AE7000E552F3CFDEFFF4CFDDFFEBD7060EDBCFDD
:10AE800000F0070EDBCF01F0D890015004E6020E6F
:10AE9000005C000E01580AE2060EDB2A070E01E3F1
:10AEA000DB2A010EF36E080EF3CFDBFF020EDBCFC1
:10AEB00000F0030EDBCF01F0D890015004E6840EC1
:10AEC000005C030E015831E2020EDBCF00F0030EEE
:10AED000DBCF01F0D890015004E6840E005C030E35
:10AEE00001580CE2030EE66ECEEC79F0E552020E4C
:10AEF000F3CFDBFF030EF4CFDBFFE6D7060EDBCF8D
:10AF000000F0070EDBCF01F0013404E2005001082D
:10AF1000000E01540AE2060EDB06070E01E2DB0614
:10AF2000010EF36E080EF3CFDBFFCCD6090EE15C09
:10AF300002E2E16AE552E16EE552E7CFD9FF120085
:10AF4000D9CFE6FFE1CFD9FF1B0EE126120EDB6A57
:10AF5000130EDB6A010EF36E140EF3CFDBFF150E3A
:10AF6000DB6A160EDB6A170EDB6A180EDB6A190E37
:10AF7000DB6A1A0EDB6A150E60C0DBFF160E61C0BD
:10AF8000DBFF170E62C0DBFF180E63C0DBFF190E7C
:10AF900064C0DBFF1A0E65C0DBFF140EDB506CE0F3
:10AFA000E66AA6EC6BF0E552190EE66EE66A9B0EB9
:10AFB000E66EF80EE66EA8EC6CF0E552E552E5524E
:10AFC000E552190EDBCFE6FF1A0EDBCFE6FF170EB8
:10AFD000DBCFE6FF180EDBCFE6FF150EDBCFE6FF7B
:10AFE000160EDBCFE6FF8C0E006EF80E016E026AC5
:10AFF00000C0E6FF01C0E6FF02C0E6FFD950080F1F
:10B00000E66E000EDA20E66E09EC7DF0036E0B0EA4
:10B01000E15E03501E0EE66E030EE66ED950080F79
:10B02000E66E000EDA20E66EE2EC6CF0E552E552D8
:10B03000E552E55200016C511FE06D510FE0540ED6
:10B04000E66E030EE66E890EE66EF80EE66EA8EC6E
:10B050006CF0E552E552E552E5520ED0540EE66E24
:10B06000030EE66E860EE66EF80EE66EA8EC6CF049
:10B07000E552E552E552E552120EDBCFE6FF130E24
:10B08000DBCFE6FF3ADCE552E55293EC50F00009E5
:10B090001AE0150EDBCF60F0160EDBCF61F0170E55
:10B0A000DBCF62F0180EDBCF63F0190EDBCF64F05C
:10B0B0001A0EDBCF65F00001010E6E6F1B0EE15C16
:10B0C00001E359D356D336EC7AF0E66ACEEC79F048
:10B0D000E552F3CFDEFFF4CFDDFF030EE66ECEECDC
:10B0E00079F0E552020EF3CFDBFF030EF4CFDBFF66
:10B0F000DECF00F0DDCF01F0D890015004E6840EE1
:10B10000005C030E01582DE2DECF00F0DDCF01F030
:10B11000D890015004E6840E005C030E015809E249
:10B12000E66ACEEC79F0E552F3CFDEFFF4CFDDFF37
:10B13000EBD7120EDBCF00F0130EDBCF01F0D8906F
:10B14000015004E6020E005C000E01580AE2120EE5
:10B15000DB2A130E01E3DB2A010EF36E140EF3CF8C
:10B16000DBFF020EDBCF00F0030EDBCF01F0D89047
:10B17000015004E6840E005C030E015831E2020E19
:10B18000DBCF00F0030EDBCF01F0D890015004E6D6
:10B19000840E005C030E01580CE2030EE66ECEEC4A
:10B1A00079F0E552020EF3CFDBFF030EF4CFDBFFA5
:10B1B000E6D7120EDBCF00F0130EDBCF01F0013427
:10B1C00004E200500008000E01540AE2120EDB06F1
:10B1D000130E01E2DB06010EF36E140EF3CFDBFF5C
:10B1E00036EC7AF0010EE66ECEEC79F0E552040E04
:10B1F000F3CFDBFF050EF4CFDBFF020EE66ECEECE5
:10B2000079F0E552060EF3CFDBFF070EF4CFDBFF3C
:10B21000040EDBCF00F0050EDBCF01F0D89001501B
:10B2200004E6200E005C030E01580FE3060EDBCF90
:10B2300002F0070EDBCF03F0D890035004E6200E97
:10B24000025C030E035801E393D2040EDBCF00F03F
:10B25000050EDBCF01F0060EDBCF02F0070EDBCFD1
:10B2600003F001500318E8AE02D0033404D00250BA
:10B27000005C0350015801E32CD1120EDBCF20F00B
:10B28000130EDBCF21F0010E201801E1215001E166
:10B29000C5D0020E201801E1215001E1BFD020509D
:10B2A00001E1215001E014D100016C5155E1D95068
:10B2B000150F026EDACF03F0020E206E216A120E15
:10B2C000DBCF25F0130EDBCF26F08AEC73F00250B3
:10B2D0001E24E96E03501F20EA6EEECF00F0EFCF80
:10B2E00001F0D890015004E6170E005C000E0158E2
:10B2F0001AE2D950150F006EDACF01F0020E206E5F
:10B30000216A120EDBCF25F0130EDBCF26F08AEC7C
:10B3100073F000501E24E96E01501F20EA6EEE2AE1
:10B32000000EEF2218D0D950150F006EDACF01F0C1
:10B33000020E206E216A120EDBCF25F0130EDBCF3A
:10B3400026F08AEC73F000501E24E96E01501F2095
:10B35000EA6EEE6AED6A5CD0D950150F026EDACF54
:10B3600003F0020E206E216A120EDBCF25F0130EC1
:10B37000DBCF26F08AEC73F002501E24E96E0350F6
:10B380001F20EA6EEECF00F0EFCF01F0D890015011
:10B3900004E60C0E005C000E01581AE2D950150F9D
:10B3A000006EDACF01F0020E206E216A120EDBCFA2
:10B3B00025F0130EDBCF26F08AEC73F000501E242C
:10B3C000E96E01501F20EA6EEE2A000EEF2220D017
:10B3D000D950150F006EDACF01F0020E206E216AEF
:10B3E000120EDBCF25F0130EDBCF26F08AEC73F0C4
:10B3F00000501E24E96E01501F20EA6E010EEE6E11
:10B40000ED6A00016D5102E06D6B02D0010E6D6FAF
:10B41000010EF36E140EF3CFDBFF5AD0D950150F87
:10B42000026EDACF03F0020E206E216A120EDBCF1D
:10B4300025F0130EDBCF26F08AEC73F002501E24A9
:10B44000E96E03501F20EA6EEECF00F0EFCF01F05F
:10B45000D890015004E63B0E005C000E01581AE241
:10B46000D950150F006EDACF01F0020E206E216A5E
:10B47000120EDBCF25F0130EDBCF26F08AEC73F033
:10B4800000501E24E96E01501F20EA6EEE2A000EC5
:10B49000EF2218D0D950150F006EDACF01F0020E4E
:10B4A000206E216A120EDBCF25F0130EDBCF26F0C3
:10B4B0008AEC73F000501E24E96E01501F20EA6EE2
:10B4C000EE6AED6A010EF36E140EF3CFDBFF00D0CF
:10B4D0002AD1120EDBCF20F0130EDBCF21F0010EAC
:10B4E000201801E1215001E1C4D0020E201801E131
:10B4F000215001E1BED0205001E1215001E013D1E3
:10B5000000016C5155E1D950150F026EDACF03F0EE
:10B51000020E206E216A120EDBCF25F0130EDBCF58
:10B5200026F08AEC73F002501E24E96E03501F20AF
:10B53000EA6EEECF00F0EFCF01F0013404E20050EC
:10B540000008000E01541AE2D950150F006EDACF30
:10B5500001F0020E206E216A120EDBCF25F0130ED1
:10B56000DBCF26F08AEC73F000501E24E96E015008
:10B570001F20EA6EEE06000EEF5A19D0D950150FB3
:10B58000006EDACF01F0020E206E216A120EDBCFC0
:10B5900025F0130EDBCF26F08AEC73F000501E244A
:10B5A000E96E01501F20EA6E170EEE6EED6A5BD059
:10B5B000D950150F026EDACF03F0020E206E216A09
:10B5C000120EDBCF25F0130EDBCF26F08AEC73F0E2
:10B5D00002501E24E96E03501F20EA6EEECF00F0E9
:10B5E000EFCF01F0013404E200500108000E0154D5
:10B5F0001AE2D950150F006EDACF01F0020E206E5C
:10B60000216A120EDBCF25F0130EDBCF26F08AEC79
:10B6100073F000501E24E96E01501F20EA6EEE0602
:10B62000000EEF5A20D0D950150F006EDACF01F07E
:10B63000020E206E216A120EDBCF25F0130EDBCF37
:10B6400026F08AEC73F000501E24E96E01501F2092
:10B65000EA6E0C0EEE6EED6A00016D5102E06D6B4C
:10B6600002D0010E6D6F010EF36E140EF3CFDBFFEF
:10B670005AD0D950150F026EDACF03F0020E206EA9
:10B68000216A120EDBCF25F0130EDBCF26F08AECF9
:10B6900073F002501E24E96E03501F20EA6EEECFB5
:10B6A00000F0EFCF01F0013404E200500008000E7A
:10B6B00001541AE2D950150F006EDACF01F0020ED4
:10B6C000206E216A120EDBCF25F0130EDBCF26F0A1
:10B6D0008AEC73F000501E24E96E01501F20EA6EC0
:10B6E000EE06000EEF5A19D0D950150F006EDACFC2
:10B6F00001F0020E206E216A120EDBCF25F0130E30
:10B70000DBCF26F08AEC73F000501E24E96E015066
:10B710001F20EA6E3B0EEE6EED6A010EF36E140E04
:10B72000F3CFDBFF00D0040EDBCF00F0050EDBCF44
:10B7300001F0D890015004E6200E005C030E015881
:10B7400017E2010EE66ECEEC79F0E552040EF3CF6F
:10B75000DBFF050EF4CFDBFF020EE66ECEEC79F0D8
:10B76000E552060EF3CFDBFF070EF4CFDBFFDBD78E
:10B7700014D4E16AE552E16EE552E7CFD9FF120039
:10B78000D9CFE6FFE1CFD9FF190EE126080EDB6A1B
:10B79000090EDB6A010EF36E140EF3CFDBFF150EFC
:10B7A000DB6A160EDB6A170EDB6A180EDB6A150EF3
:10B7B00066C0DBFF160E67C0DBFF170E68C0DBFF3D
:10B7C000180E69C0DBFF140EDB5044E0E66AA6ECFD
:10B7D0006BF0E552190EE66EE66A780EE66EF80E2C
:10B7E000E66EA8EC6CF0E552E552E552E552170E14
:10B7F000DBCFE6FF180EDBCFE6FF150EDBCFE6FF53
:10B80000160EDBCFE6FF6E0E006EF80E016E026ABA
:10B8100000C0E6FF01C0E6FF02C0E6FFD9500A0FF4
:10B82000E66E000EDA20E66E09EC7DF0036E090E7E
:10B83000E15E03501E0EE66E030EE66ED9500A0F4F
:10B84000E66E000EDA20E66EE2EC6CF0E552E552B0
:10B85000E552E552080EDBCFE6FF090EDBCFE6FF2F
:10B860007DEC54F0E552E55293EC50F0000911E004
:10B87000150EDBCF66F0160EDBCF67F0170EDBCFB1
:10B8800068F0180EDBCF69F0190EE15C01E38CD291
:10B8900089D236EC7AF0E66ACEEC79F0E552F3CF55
:10B8A000DEFFF4CFDDFF030EE66ECEEC79F0E5525D
:10B8B000020EF3CFDBFF030EF4CFDBFFDECF00F091
:10B8C000DDCF01F0D890015004E6840E005C030E39
:10B8D00001582DE2DECF00F0DDCF01F0D89001500D
:10B8E00004E6840E005C030E015809E2E66ACEEC21
:10B8F00079F0E552F3CFDEFFF4CFDDFFEBD7080E92
:10B90000DBCF00F0090EDBCF01F0D890015004E648
:10B91000010E005C000E01580AE2080EDB2A090E37
:10B9200001E3DB2A010EF36E140EF3CFDBFF020EF0
:10B93000DBCF00F0030EDBCF01F0D890015004E61E
:10B94000840E005C030E015831E2020EDBCF00F0E2
:10B95000030EDBCF01F0D890015004E6840E005CAA
:10B96000030E01580CE2030EE66ECEEC79F0E552C0
:10B97000020EF3CFDBFF030EF4CFDBFFE6D7080E9A
:10B98000DBCF00F0090EDBCF01F0013404E2005000
:10B990000008000E01540AE2080EDB06090E01E25F
:10B9A000DB06010EF36E140EF3CFDBFF010EE66E25
:10B9B000CEEC79F0E552040EF3CFDBFF050EF4CFA9
:10B9C000DBFF020EE66ECEEC79F0E552060EF3CF09
:10B9D000DBFF070EF4CFDBFF040EDBCF00F0050E1C
:10B9E000DBCF01F0D890015004E6200E005C030E7E
:10B9F00001580FE3060EDBCF02F0070EDBCF03F09A
:10BA0000D890035004E6200E025C030E035801E3B5
:10BA1000C8D1040EDBCF00F0050EDBCF01F0060E1F
:10BA2000DBCF02F0070EDBCF03F001500318E8AEC6
:10BA300002D0033404D00250005C0350015801E3EB
:10BA4000C7D0080EDBCF20F0090EDBCF21F0010EAE
:10BA5000201801E1215060E0205001E1215001E077
:10BA6000B6D0D950150F026EDACF03F0020E206E59
:10BA7000216A080EDBCF25F0090EDBCF26F08AEC19
:10BA800073F002501E24E96E03501F20EA6EEECFC1
:10BA900000F0EFCF01F0D890015004E61F0E005CDB
:10BAA000000E01581AE2D950150F006EDACF01F0DE
:10BAB000020E206E216A080EDBCF25F0090EDBCFC7
:10BAC00026F08AEC73F000501E24E96E01501F200E
:10BAD000EA6EEE2A000EEF2219D0D950150F006E33
:10BAE000DACF01F0020E206E216A080EDBCF25F0BE
:10BAF000090EDBCF26F08AEC73F000501E24E96EAD
:10BB000001501F20EA6E010EEE6EED6A010EF36E1B
:10BB1000140EF3CFDBFF5BD0D950150F026EDACFD6
:10BB200003F0020E206E216A080EDBCF25F0090E0D
:10BB3000DBCF26F08AEC73F002501E24E96E03502E
:10BB40001F20EA6EEECF00F0EFCF01F0D890015049
:10BB500004E60C0E005C000E01581AE2D950150FD5
:10BB6000006EDACF01F0020E206E216A080EDBCFE4
:10BB700025F0090EDBCF26F08AEC73F000501E246E
:10BB8000E96E01501F20EA6EEE2A000EEF2219D056
:10BB9000D950150F006EDACF01F0020E206E216A27
:10BBA000080EDBCF25F0090EDBCF26F08AEC73F010
:10BBB00000501E24E96E01501F20EA6E010EEE6E49
:10BBC000ED6A010EF36E140EF3CFDBFF00D0C4D08C
:10BBD000080EDBCF20F0090EDBCF21F0020E20187B
:10BBE00001E121505FE0205001E1215001E0B4D09B
:10BBF000D950150F026EDACF03F0020E206E216AC3
:10BC0000080EDBCF25F0090EDBCF26F08AEC73F0AF
:10BC100002501E24E96E03501F20EA6EEECF00F0A2
:10BC2000EFCF01F0013404E200500108000E01548E
:10BC30001AE2D950150F006EDACF01F0020E206E15
:10BC4000216A080EDBCF25F0090EDBCF26F08AEC47
:10BC500073F000501E24E96E01501F20EA6EEE06BC
:10BC6000000EEF5A19D0D950150F006EDACF01F03F
:10BC7000020E206E216A080EDBCF25F0090EDBCF05
:10BC800026F08AEC73F000501E24E96E01501F204C
:10BC9000EA6E1F0EEE6EED6A010EF36E140EF3CF18
:10BCA000DBFF5AD0D950150F026EDACF03F0020E27
:10BCB000206E216A080EDBCF25F0090EDBCF26F0BF
:10BCC0008AEC73F002501E24E96E03501F20EA6EC6
:10BCD000EECF00F0EFCF01F0013404E20050000895
:10BCE000000E01541AE2D950150F006EDACF01F0A0
:10BCF000020E206E216A080EDBCF25F0090EDBCF85
:10BD000026F08AEC73F000501E24E96E01501F20CB
:10BD1000EA6EEE2A000EEF2219D0D950150F006EF0
:10BD2000DACF01F0020E206E216A080EDBCF25F07B
:10BD3000090EDBCF26F08AEC73F000501E24E96E6A
:10BD400001501F20EA6E0C0EEE6EED6A010EF36ECE
:10BD5000140EF3CFDBFF00D0040EDBCF00F0050E96
:10BD6000DBCF01F0D890015004E6200E005C030EFA
:10BD7000015817E2010EE66ECEEC79F0E552040EA2
:10BD8000F3CFDBFF050EF4CFDBFF020EE66ECEEC49
:10BD900079F0E552060EF3CFDBFF070EF4CFDBFFA1
:10BDA000DBD711D5E16AE552E16EE552E7CFD9FF65
:10BDB0001200D9CFE6FFE1CFD9FF090EE126010E2F
:10BDC000F36E060EF3CFDBFF070EDB6A010EF36E98
:10BDD000080EF3CFDBFF080EDB502FE0E66AA6EC7F
:10BDE0006BF0E5521E0EE66EE66A630EE66EF80E26
:10BDF000E66EA8EC6CF0E552E552E552E552120E03
:10BE0000E66E030EE66E600EE66EF80EE66EA8ECC9
:10BE10006CF0E552E552E552E552120EE66E050E63
:10BE2000E66E5C0EE66EF80EE66EA8EC6CF0E5527F
:10BE3000E552E552E552080EDB6AD950060FE96E6D
:10BE4000DACFEAFF010EEE1801E1ED5011E1040E28
:10BE5000E66EE66AE66A000EE66EE66A030EE66ED7
:10BE6000E6685EEC6EF0006E070EE15E005010D0EA
:10BE7000040EE66EE66AE66A000EE66EE66A050EF7
:10BE8000E66EE6685EEC6EF0006E070EE15E005056
:10BE900093EC50F0000911E0D950060FE96EDACFAB
:10BEA000EAFF010EEE1801E1ED5004E10001010E80
:10BEB0006B6F02D000016B6BC2D0010EE66ECEEC50
:10BEC00079F0E552040EF3CFDBFF050EF4CFDBFF74
:10BED000040EDBCF00F0050EDBCF01F0D89001504F
:10BEE00004E6840E005C030E01581BE2040EDBCF57
:10BEF00000F0050EDBCF01F0D890015004E6840E6F
:10BF0000005C030E01580CE2010EE66ECEEC79F0F7
:10BF1000E552040EF3CFDBFF050EF4CFDBFFE6D7CF
:10BF20008ED036EC7AF0E66ACEEC79F0E552F3CFBB
:10BF3000DEFFF4CFDDFF030EE66ECEEC79F0E552C6
:10BF4000020EF3CFDBFF030EF4CFDBFFDECF00F0FA
:10BF5000DDCF01F0D890015004E6840E005C030EA2
:10BF600001582DE2DECF00F0DDCF01F0D890015076
:10BF700004E6840E005C030E015809E2E66ACEEC8A
:10BF800079F0E552F3CFDEFFF4CFDDFFEBD7060EFD
:10BF9000DBCF00F0070EDBCF01F0D890015004E6B4
:10BFA000020E005C000E01580AE2060EDB2A070EA4
:10BFB00001E3DB2A010EF36E080EF3CFDBFF020E66
:10BFC000DBCF00F0030EDBCF01F0D890015004E688
:10BFD000840E005C030E015831E2020EDBCF00F04C
:10BFE000030EDBCF01F0D890015004E6840E005C14
:10BFF000030E01580CE2030EE66ECEEC79F0E5522A
:10C00000020EF3CFDBFF030EF4CFDBFFE6D7060E05
:10C01000DBCF00F0070EDBCF01F0013404E200506B
:10C020000108000E01540AE2060EDB06070E01E2CB
:10C03000DB06010EF36E080EF3CFDBFFCCD6090E44
:10C04000E15C02E2E16AE552E16EE552E7CFD9FF39
:10C050001200D9CFE6FFE1CFD9FFFD0EDBCF20F0F4
:10C06000FE0EDBCF21F0060E201801E1215021E069
:10C07000050E201801E1215019E0040E201801E1FD
:10C08000215011E0030E201801E1215009E0020EB9
:10C09000201801E1215001E00ED000EC55F00BD04A
:10C0A00050EC56F008D0A0EC57F005D0C0EC5BF097
:10C0B00002D07FDE00D0E66AA6EC6BF0E552E552D6
:10C0C000E7CFD9FF1200D9CFE6FFE1CFD9FF0B0EA2
:10C0D000E126010EF36E080EF3CFDBFF090EDB6ADB
:10C0E000010EF36E0A0EF3CFDBFF010EE66ECEEC0F
:10C0F00079F0E552020EF3CFDBFF030EF4CFDBFF46
:10C10000020EE66ECEEC79F0E552040EF3CFDBFFC3
:10C11000050EF4CFDBFF020EDBCF00F0030EDBCF0A
:10C1200001F0D890015004E6200E005C030E015887
:10C130000FE3040EDBCF02F0050EDBCF03F0D89047
:10C14000035004E6200E025C030E035801E38ED078
:10C15000020EDBCF00F0030EDBCF01F0040EDBCFCD
:10C1600002F0050EDBCF03F001500318E8AE02D059
:10C17000033404D00250005C0350015827E2FD0E46
:10C18000DBCF00F0FE0EDBCF01F0013404E2005003
:10C190000208000E01540FE2FD0EDBCF00F0FE0E90
:10C1A000DBCF01F00006000E015A00C0F3FF01C012
:10C1B000F4FF5CD036D0FD0EDBCF00F0FE0EDBCFFF
:10C1C00001F000C0F3FF01C0F4FF50D0FD0EDBCF43
:10C1D00000F0FE0EDBCF01F0D890015004E6060E11
:10C1E000005C000E015812E2010EE76EFD0EDBCF7F
:10C1F00000F0FE0EDBCF01F0E7500026000E01221A
:10C2000000C0F3FF01C0F4FF31D00BD0FD0EDBCF37
:10C2100000F0FE0EDBCF01F000C0F3FF01C0F4FF21
:10C2200025D0020EDBCF00F0030EDBCF01F0D8905B
:10C23000015004E6200E005C030E015817E2010EC7
:10C24000E66ECEEC79F0E552020EF3CFDBFF030E83
:10C25000F4CFDBFF020EE66ECEEC79F0E552040E71
:10C26000F3CFDBFF050EF4CFDBFFDBD70B0EE15C7A
:10C2700002E2E16AE552E16EE552E7CFD9FF120032
:10C28000D9CFE6FFE1CFD9FF0A0EE126F29A64C0CA
:10C29000E6FF65C0E6FF62C0E6FF63C0E6FF60C080
:10C2A000E6FF61C0E6FF8C0E006EF80E016E026ABA
:10C2B00000C0E6FF01C0E6FF02C0E6FFD9CFE6FFFF
:10C2C000DACFE6FF09EC7DF0036E0B0EE15E035062
:10C2D0003C0EE66EE66AD9CFE6FFDACFE6FFE2EC87
:10C2E0006CF0E552E552E552E55200016C511DE05B
:10C2F0006D510EE0720EE66EE66A890EE66EF80E7D
:10C30000E66EA8EC6CF0E552E552E552E5520DD030
:10C31000720EE66EE66A860EE66EF80EE66EA8EC23
:10C320006CF0E552E552E552E552F28A0A0EE15C04
:10C3300002E2E16AE552E16EE552E7CFD9FF120071
:10C34000D9CFE6FFE1CFD9FF040EE126DE6ADD6A30
:10C35000DECF00F0DDCF01F0D890015004E63C0EB6
:10C36000005C000E015801E343D1006A016A820EAD
:10C37000026E420E036E086A096AF00E0A6E410EE2
:10C380000B6E00C0E6FF01C0E6FF02C0E6FF03C07F
:10C39000E6FF08C0E6FF09C0E6FF0AC0E6FF0BC0E3
:10C3A000E6FFDECF14F0DDCF15F0060E1502F3CF59
:10C3B00015F01402F3CF14F0F450152614C020F039
:10C3C00015C021F04DEC72F01FC010F020C011F02C
:10C3D00021C012F022C013F010C0E6FF11C0E6FF2A
:10C3E00012C0E6FF13C0E6FFB6EC7EF0E552E55260
:10C3F000E552E552E552E7CF0BF0E552E7CF0AF000
:10C40000E552E7CF09F0E552E7CF08F0E552E7CF74
:10C4100003F0E552E7CF02F0E552E7CF01F0E55235
:10C42000E7CF00F01EC00CF01FC00DF020C00EF0D2
:10C4300021C00FF00CC024F00DC025F00EC026F076
:10C440000FC027F008C01FF009C020F00AC021F07B
:10C450000BC022F0F7EC72F01FC004F020C005F012
:10C4600021C006F022C007F004C024F005C025F06A
:10C4700006C026F007C027F000C01FF001C020F062
:10C4800002C021F003C022F061EC72F0B7EC73F04F
:10C49000020E21C0DBFF006A016AF80E026E410E37
:10C4A000036E086A096AF00E0A6E410E0B6E00C038
:10C4B000E6FF01C0E6FF02C0E6FF03C0E6FF08C0DA
:10C4C000E6FF09C0E6FF0AC0E6FF0BC0E6FFDECFCD
:10C4D00014F0DDCF15F0060E1502F3CF15F014029F
:10C4E000F3CF14F0F450152614C020F015C021F03D
:10C4F0004DEC72F01FC010F020C011F021C012F0FE
:10C5000022C013F010C0E6FF11C0E6FF12C0E6FF24
:10C5100013C0E6FF8EEC7EF0E552E552E552E5529F
:10C52000E552E7CF0BF0E552E7CF0AF0E552E7CF4F
:10C5300009F0E552E7CF08F0E552E7CF03F0E55206
:10C54000E7CF02F0E552E7CF01F0E552E7CF00F088
:10C550001EC00CF01FC00DF020C00EF021C00FF067
:10C560000CC024F00DC025F00EC026F00FC027F03F
:10C5700008C01FF009C020F00AC021F00BC022F053
:10C58000F7EC72F01FC004F020C005F021C006F0E7
:10C5900022C007F004C024F005C025F006C026F034
:10C5A00007C027F000C01FF001C020F002C021F03A
:10C5B00003C022F061EC72F0B7EC73F0030E21C0FF
:10C5C000DBFFE66ADBCFE6FF020EDBCFE6FF030E02
:10C5D000DBCFE6FF020EDBCFE6FF72EC70F0006E01
:10C5E000050EE15E0050DF2A010E01E3DB2AB0D622
:10C5F000040EE15C02E2E16AE552E16EE552E7CF4A
:10C60000D9FF120000013B0E641901E1655104E0FD
:10C61000642B000E652333D0646B656B3B0E62198F
:10C6200001E1635104E0622B000E632328D06C51BA
:10C630000CE00C0E601901E1615104E0602B000E6A
:10C64000612302D0606B616B0BD0180E601901E1A1
:10C65000615104E0602B000E612302D0606B616BBE
:10C660001F0E661901E1675104E0662B000E672377
:10C6700006D0010E666F676B682B000E69231200EF
:10C68000D9CFE6FFE1CFD9FF0A0EE12668C0E6FF69
:10C6900069C0E6FF66C0E6FF67C0E6FF6E0E006E8B
:10C6A000F80E016E026A00C0E6FF01C0E6FF02C09C
:10C6B000E6FFD9CFE6FFDACFE6FF09EC7DF0036EA7
:10C6C000090EE15E03505A0EE66E070EE66ED9CFF4
:10C6D000E6FFDACFE6FFE2EC6CF0E552E552E55218
:10C6E000E5520A0EE15C02E2E16AE552E16EE552D2
:10C6F000E7CFD9FF120000016B510AE0060EE66E8B
:10C70000E66A410EE66E7CEC6CF0E552E552E552CD
:10C710001200D9CFE6FFE1CFD9FF0A0EE126040EC1
:10C72000DB6A050EDB6A060EDB6A070EDB6A020EA9
:10C73000F36E080EF3CFDBFF090EDB6A130EC26E39
:10C74000080EDBCFDEFFDBCFDDFF9ADDE66A020EEF
:10C75000E66E4F0EE66EF80EE66EA8EC6CF0E55253
:10C76000E552E552E552E66A030EE66E3E0EE66ECF
:10C77000F80EE66EA8EC6CF0E552E552E552E55293
:10C78000E66A040EE66E350EE66EF80EE66EA8EC6E
:10C790006CF0E552E552E552E552E66A050EE66EAA
:10C7A0002C0EE66EF80EE66EA8EC6CF0E552E55243
:10C7B000E552E552E66A060EE66E260EE66EF80EC5
:10C7C000E66EA8EC6CF0E552E552E552E552E6EC77
:10C7D00053F0080EF3CFDBFF090EF4CFDBFF8BDF46
:10C7E0004FDF640EE66EE66AE66A000EE66EE66A03
:10C7F000080EDBCFE6FFE6685EEC6EF0006E070E1B
:10C80000E15E005093EC50F0000909E0080EDBCF28
:10C81000E6FF090EDBCFE6FF1CDCE552E552080E11
:10C82000DB50DF1804E1090EDB50DE52DD1804E0B6
:10C83000E66AA6EC6BF0E55236EC7AF0010EE66E95
:10C84000CEEC79F0E552020EF3CFDBFF030EF4CF0E
:10C85000DBFF020EDBCF00F0030EDBCF01F0D89040
:10C86000015004E6840E005C030E015822E2020E21
:10C87000DBCF00F0030EDBCF01F0D890015004E6CF
:10C88000840E005C030E01580CE2010EE66ECEEC45
:10C8900079F0E552020EF3CFDBFF030EF4CFDBFF9E
:10C8A000E6D7E66AA6EC6BF0E5520A0EE15C04E21C
:10C8B00001D044D7E16AE552E16EE552E7CFD9FFF6
:10C8C0001200D9CFE6FFE1CFD9FFE652020EDF6EAC
:10C8D00089EC50F0DF5004E0DF50C214DF6EFAD76D
:10C8E00000016E5104E02CDD06DFCADE01D011DF4D
:10C8F00093EC50F0000901E00CDFECD7E552E55273
:06C90000E7CFD9FF120091
:0AC90600BFEC69F0FB0EDBCFF3FF7E
:10C91000DB06F35000090AE00DEC6AF0FA0E78EC41
:10C920006AF0F3E1011CF1E1010E01D0000EEEEF1F
:10C9300069F0BFEC69F03B0EE12402E3E168E652E6
:10C94000E16E010EDB6A020EDB6AF90EDBCFF6FF49
:10C95000FA0EDBCFF7FFFB0EDBCFF8FF0800F55038
:10C96000DF6EDF5002E112EF69F0250EDF5C02E0BE
:10C9700005EF69F0030EDB6A040EDB6A050EDB6A65
:10C98000060EDB6A070EDB6A27EC69F02D0EDF5C12
:10C990000CE02B0EDF5C09E0200EDF5C06E0230ECE
:10C9A000DF5C03E0300EDF5C1AE1DF50300A14E098
:10C9B000130A0FE0030A0AE00B0A05E0060AE4E1A5
:10C9C000030EDB80E1D7030EDB82DED7030EDB84B0
:10C9D000DBD7030EDB86D8D7030EDB88D5D72A0E2C
:10C9E000DF5C1BE123EC69F071EC69F010E0030EF1
:10C9F000DB8020682168130EDBCF25F0140EDBCF1F
:10CA000026F08AEC73F0040E1EC0DBFF03D0130E79
:10CA10005AEC69F027EC69F00BD0090EDB6AC8EC20
:10CA200069F003E03CEC6AF0FAD7090E5AEC69F0C1
:10CA3000030EDBB0DB982E0EDF5C1BE127EC69F008
:10CA40002A0EDF5C0BE123EC69F071EC69F003E185
:10CA5000130EACEC69F027EC69F00BD0090EDB6A21
:10CA6000C8EC69F003E03CEC6AF0FAD7090EACECD4
:10CA700069F0680EDF5C07E127EC69F0680EDF5CA7
:10CA80001DE1030E18D0740EDF5C17E07A0EDF5C38
:10CA900014E0480EDF5C06E0540EDF5C03E05A0E43
:10CAA000DF5C02E1020E07D06C0EDF5C03E06A0E71
:10CAB000DF5C04E1010EFFEC69F0C9DBDF506E0AB8
:10CAC00001E17FD31E0A01E192D1200A01E18FD159
:10CAD0003F0A01E149D11A0A01E146D10D0A01E1FB
:10CAE00043D1200A01E140D13A0A01E13DD1200AB7
:10CAF00001E13AD1260A01E135D10D0A01E132D135
:10CB00001A0A01E1D9D0200A4AE0300A1FE0460A99
:10CB10000EE0250A01E083D3D950F90FE96EFF0E2C
:10CB2000DA20EA6E010EEE5E000EEE5AEE5A0DECC1
:10CB30006AF0250EE66E95DB03E1011C01E169D385
:10CB400009EC6AF001E26BD3DB2A69D3080EDB6AD9
:10CB5000040EDB50010806E2040EDB04D1EC69F0A0
:10CB6000DB508BDB080EDB5009E0030EDB50010BC2
:10CB700005E172DB01E04DD3080EDB6A64DBEFCF29
:10CB8000DFFF81EC6AF003E1011C01E142D309EC13
:10CB90006AF001E3DB2A60DB01E141D33AD3070EFF
:10CBA000DB5002080FE14DEC6AF0030E14EC6AF062
:10CBB0000E0EEECFDBFF0F0EEECFDBFF100EEECF33
:10CBC000DBFF20D0F70EDBCF03F0F80EDBCF04F055
:10CBD000020E035E000E045AF70E03C0DBFFF80ED0
:10CBE00004C0DBFF03C0E9FF04C0EAFF04EC6AF005
:10CBF000026A0E0E00C0DBFF0F0E01C0DBFF100E3D
:10CC000002C0DBFF0E0EDBCFE6FF0F0EDBCFE6FF31
:10CC1000100EDBCFE6FF36EC7EF0E552E552E55232
:10CC2000130E1FC0DBFF140E20C0DBFF060EDB500F
:10CC300005E0130E48EC6AF001E26ADB6CEC6AF086
:10CC400002E2130E37DB2FEC6AF006E0040E48EC2C
:10CC50006AF002E2050E2EDB030EDBB005D0FCDA33
:10CC600001E0D7D2080EDB6A090EDB6A0E0EDBCFBD
:10CC7000F6FF0F0EDBCFF7FF100EDBCFF8FF08003B
:10CC8000F550DF6EDF5014E072EC6AF011E281ECD7
:10CC90006AF003E1011C01E1BCD2BBDB01E3DB2A4A
:10CCA000090EDB2AD9500E0FE96E000ECBDBE7D759
:10CCB000D3DA01E1B4D2ADD2C6DA110EEECFDBFF8A
:10CCC000120EEDCFDBFF110EDBCFE6FF120EDBCF36
:10CCD000E6FF28EC7EF0E552E552130EF3CFDBFFC2
:10CCE000140EF4CFDBFF060EDB5004E0130ED0DB96
:10CCF00001E20EDB6CEC6AF002E2130EDBDAAFDB72
:10CD000005E0040EC5DB02E2050ED4DA030EDBB04B
:10CD100005D0A2DA01E07DD2080EDB6A090EDB6ADB
:10CD2000110EDBCFE9FF120EDBCFEAFFEFCFDFFF03
:10CD3000DF5014E0D7DB12E2E4DB03E1011C01E188
:10CD400068D267DB01E3DB2A090EDB2A110EDB2A3E
:10CD5000DBCFE9FF120EE8E3DB2AE6D77DDA01E15B
:10CD60005ED257D2030EDB8E070EDB0410E195DB9B
:10CD7000040E5ADB0A0EEECFDBFF0B0EEECFDBFF0D
:10CD80000C0EEECFDBFF0D0EEECFDBFF6CD0070EEF
:10CD9000DB5003082CE1030EDBAE0DD0B2DA020E3D
:10CDA00076DAEFCF00F0016A026A036A00AE39D08A
:10CDB0000168026835D0F70EDBCF01F0F80EDBCF4B
:10CDC00002F0020E015E000E025AF70E01C0DBFFF8
:10CDD000F80E02C0DBFF01C0E9FF02C0EAFFEFCF9F
:10CDE00000F00A0E00C0DBFF0B0EDB6A38D0070E26
:10CDF000DB50020809E1030EDBAE04D059DB02AEC2
:10CE000010D00ED055DB0DD0030EDBAE12D079DA88
:10CE1000020E3DDAF9DA026A036A01AE02D0026854
:10CE20000368E2DA0C0E02C0DBFF0D0E03C0DBFF6D
:10CE30001AD0F70EDBCF02F0F80EDBCF03F0020EB4
:10CE4000025E000E035AF70E02C0DBFFF80E03C0AD
:10CE5000DBFF02C0E9FF03C0EAFFD6DAC5DA0C0E39
:10CE6000DB6A0D0EDB6A060EDB5005E1010EF36E88
:10CE7000050EF3CFDBFF150EDB6A160EDB6AD95009
:10CE8000370F006E000EDA20016E390E00C0DBFF96
:10CE90003A0E01C0DBFF380EDB6A080EDB6A0A0EB1
:10CEA000AEDADF50780A12E0200A10E0280A0CE01F
:10CEB000200A0AE03F0A06E00D0A02E0200A08E123
:10CEC000020E05D0080E03D0080EDF26100E97DAEA
:10CED000030EDBBE02D0DB92DB94DB50800B24E040
:10CEE0008ADAD890030EEB50000A08E6000EEE5CDA
:10CEF000000EEE58000EEE58000EEE5815E213DA52
:10CF00002368246825682668F0EC7DF00A0E1AC0B4
:10CF1000DBFF0B0E1BC0DBFF0C0E1CC0DBFF0D0E7E
:10CF20001DC0DBFF2D0E08D0030EDBA202D02B0E9E
:10CF300003D0DBA408D0200EF36E170EF3CFDBFF77
:10CF4000150EDB2A02D0170EDB6A050EDB5003E15B
:10CF5000B7D901E189D0AA0E006EFE0E016E000E57
:10CF6000026E070EDBCF03F0046A056A066A03C08F
:10CF700023F004C024F005C025F006C026F0D3D964
:10CF8000DDEC7EF000501A24F36E01501B20F46E8D
:10CF900002501C20F86EF4CFF7FFF3CFF6FF080025
:10CFA000090EF5CFDBFF580EDF5C0FE1610EF36E6B
:10CFB000090E7BD90AE3200E006E090EDBCFE7FFD6
:10CFC0000050E75E090EE7CFDBFF070EDBCF00F076
:10CFD000016A026A036A0FDA00C023F001C024F07C
:10CFE00002C025F003C026F0EECF1EF0EECF1FF0FA
:10CFF000EECF20F0EFCF21F0DDEC7EF021C0EDFF91
:10D0000020C0EDFF1FC0EDFF1EC0EFFF390EDBCFCC
:10D01000E9FFDB063A0EDBCFEAFF01E2DB06090E91
:10D02000DBCFEFFF150EDB2A4BD995E1030EDBA614
:10D030001DD06F0EDF5C06E1C1D918E3150EDB28A9
:10D040005BDA14D0780EDF5C09E0580EDF5C06E096
:10D05000620EDF5C03E0420EDF5C08E1020EF36E5D
:10D06000160EF3CFDBFF02D0150EDB6A030EDB508A
:10D07000100B0EE0040EDBCF00F0050EDB50D88065
:10D08000005406E2060EDB5003E1040EDB5034DAF6
:10D0900095D90AE2050EDBCFE7FF150EDB50E75E00
:10D0A000050EE7CFDBFF02D0050EDB6A040EDBCFF7
:10D0B00000F0160E45D9D880005414E2160EDBCFCE
:10D0C000E6FF150EDBCFE6FF040EDBCFE6FF050E15
:10D0D000DB50E552E75CE552D880E754E552D88052
:10D0E000E7545FD9030EDB50010B0BE1080EDB5058
:10D0F00008E0B2D801E08DD0080EDB50BED8080E93
:10D10000DB6A170EDB5007E088D9170EF1D903E16F
:10D11000011C01E17ED0160EDB5016E07ED9300EE8
:10D12000E66E9FD802E1011C74E077D9DFCFE6FFFD
:10D13000AEEC7DF0E552E552E552F4CF01F000018E
:10D14000F31C02E1011C65E0050EDBCF00F0160EBA
:10D15000DB50D880005409E2050EDBCFE7FF160E46
:10D16000DB50E75E050EE7CFDBFF300EE66E050E07
:10D17000CBD94FE1390EDB2ADBCFE9FF3A0E01E3D1
:10D18000DB2ADBCFEAFF090EEFCFDBFFDB500EE03F
:10D1900044D9090EADD902E1011C3BE0390EDB2A6E
:10D1A000DBCFE9FF3A0EEDE3DB2AEBD755D831E1CF
:10D1B000160EDBCFE6FF080EC3D8E552E7245DD894
:10D1C0002ED0070EDB50030A1CE0010A14E0030A0C
:10D1D00007E07BD9DBCFEEFF020EDBCFEDFF1FD0E8
:10D1E000F5D8056A03AE02D0046805682CD8BCD80F
:10D1F00005C0EEFF14D0EAD803BE046824D8B4D822
:10D200000ED063D9DBCFEFFF0AD07BD905E1011C3B
:10D2100003E1F368F46810D0FCD801E3DB2A79D984
:10D22000AEEF64F0010EDBCF00F0020EDBCF01F0B9
:10D2300000C0F3FF01C0F4FF3B0EE15C02E2E16AD3
:10D24000E552E16ECBD029D9020E14EF6AF061D914
:10D250000800F550DF6E1200200EE66E080E84EF17
:10D260006AF0AEEC7DF0E552E552E552F3CF00F006
:10D27000F4CF01F00001F31C1200006E016AD950D6
:10D28000010F4DD90050EE260150ED221200045E30
:10D29000000E055AF70E04C0DBFFF80E05C0DBFFD9
:10D2A00004C0E9FF05C0EAFF1200DBCFF4FFF35032
:10D2B000F45C1200DB50E76E040EE7CFDBFF1200D8
:10D2C0000A0EDBCF00F00B0EDBCF01F00C0EDBCF34
:10D2D00002F00D0EDBCF03F000500110021003101E
:10D2E0001200130EEECFDBFF140EEDCFDBFF130E9B
:10D2F000DBCF00F0140EDBCF01F00001800E011433
:10D300001200F70EDBCF04F0F80EDBCF05F01200B1
:10D31000050EDB50E66ED950130F01D9E552E750E8
:10D32000EE6EED6A12000A0EDBCF1EF00B0EDBCFA5
:10D330001FF00C0EDBCF20F00D0EDBCF21F0120022
:10D34000DBCFE6FF150EDBCFE6FF050EDB50E55227
:10D35000E724E552E7241200DB50CED8010EF36E2D
:10D36000060EF3CFDBFF1200EE50EFCFEAFFE96EBF
:10D3700002C0EEFF03C0EEFF04C0EEFF1200D9CFE3
:10D38000E6FFDACFE6FFE1CFD9FFE2CFDAFF120006
:10D39000DFCFE6FFE66A17EC7FF0E552E552F35087
:10D3A0001200E76E080EE7CFDBFF1200EECF00F0B1
:10D3B000EECF01F0EFCF02F0036A1200050EDBCFD3
:10D3C00000F0150EDB50D88000541200010EDBCFA8
:10D3D00002F0020EDBCF03F0046A1200E552E5CF43
:10D3E000DAFFE7CFD9FF12000A0E00C0DBFF0B0EF9
:10D3F00001C0DBFF1200D9500A0F8FEF6AF0F36E05
:10D40000070EF3CFDBFF1200EECF00F0EFCF01F0FD
:10D410001200010EDB2A020E1200FC0EDBCFE6FF2B
:10D42000FD0EDBCFE6FF1200005E000E015AF70E84
:10D4300000C0DBFFF80E01C0DBFF00C0E9FF01C048
:10D44000EAFF1200DA20EA6EEF2AEECFF6FF000EB6
:10D45000EF22EECFF7FFEF22EECFF8FF1200040E1F
:10D46000DBCFE6FF130EDB50E552E75C9ADFDB50C3
:10D4700004DF060EDB501200090EDB500A0DF350DC
:10D48000DF24D00FE76E090EE7CFDBFF27EF69F04F
:10D49000DB50F36E050E55EF69F0F70EDBCF00F0B1
:10D4A000F80EDBCF01F01200DFCFE6FF31EF69F0BD
:10D4B00028DF030EECDED6EF69F083EC64F0E55272
:10D4C000E552E552E55200091200BDDEEE50EFCF05
:10D4D000EAFFE96E010E1200130EDB50F36E040E2C
:10D4E00055EF69F0040EDB50F36E090E55EF69F04D
:10D4F000DBCFE6FF31EF69F0E76E050EE7CFDBFF2C
:10D5000012008BDF54EF6AF0DBCFE6FF86DF5DEFC2
:10D510006AF0D950F90FE96EFF0E22EF6AF0E96E5A
:08D52000000EDA20EA6E120091
:08D52800D9CFE6FFE1CFD9FFE6
:10D53000020EE126FD0EDBCF00F0DB06FE0EDBCF98
:10D5400001F001E2DB060050011011E0DE6ADD6A45
:10D55000DECF00F0DDCF01F0E30E005C0D0E0158D0
:10D5600005E2DF2A010E01E3DB2AF2D7E3D7020E40
:10D57000E15C02E2E16AE552E16EE552E7CFD9FFF4
:10D580001200D9CFE6FFE1CFD9FF060EE1268D923A
:10D5900096928D9096908D8496948A9A939A8C9276
:10D5A000DE6ADE6ADE6ADD6ADD52DD52D9CFE9FF6E
:10D5B000DACFEAFF640EEE5C000EEE58000EEE5875
:10D5C000000EEE580AE2D9CFE9FFDACFEAFFEE2AE1
:10D5D000000EEE22EE22EE22E9D78C82DE6ADE6AAF
:10D5E000DE6ADD6ADD52DD52D9CFE9FFDACFEAFF2C
:10D5F000640EEE5C000EEE58000EEE58000EEE5873
:10D600000AE2D9CFE9FFDACFEAFFEE2A000EEE22D6
:10D61000EE22EE22E9D7AE0EE66E70D8E552DB0EB2
:10D62000E66E6CD8E552230EE66E68D8E552D90E48
:10D63000E66E64D8E552220EE66E60D8E552A10E81
:10D64000E66E5CD8E552C80EE66E58D8E552DA0EA2
:10D65000E66E54D8E552120EE66E50D8E552A80E8A
:10D66000E66E4CD8E5523F0EE66E48D8E552D50E30
:10D67000E66E44D8E552A00EE66E40D8E552810E23
:10D68000E66E3CD8E552600EE66E38D8E552D30E11
:10D69000E66E34D8E552E66A31D8E552A60EE66E5B
:10D6A0002DD8E552AD0EE66E29D8E5528B0EE66E0A
:10D6B00025D8E552AF0EE66E21D8E5520A0EE66E89
:10D6C000E66A32DFE552E552A40EE66E17D8E5525F
:10D6D000400EE66E13D8E552020EE66E0FD8E55204
:10D6E000100EE66E0BD8E552060EE15C02E2E16A2E
:10D6F000E552E16EE552E7CFD9FF1200D9CFE6FF40
:10D70000E1CFD9FF956AFE0EDB508C6E8D808D8245
:10D710008A9A8D948D928D828D849568E552E7CF9B
:10D72000D9FF1200D9CFE6FFE1CFD9FF956AFE0EEF
:10D73000DB508C6E8D808D828A8A8D948D928D8245
:10D740008D849568E552E7CFD9FF1200D9CFE6FF67
:10D75000E1CFD9FF020EE126B00EDF6EB80EDF5C1E
:10D7600023E2DFCFE6FFCADFE552020EE66EC6DF38
:10D77000E552100EE66EC2DFE552010EDB6ADB50A9
:10D78000006E016AD890015004E6840E005C000E21
:10D79000015808E2FE0EDBCFE6FFC4DFE552010EC2
:10D7A000DB2AEDD7DF2ADAD7020EE15C03E200D0F4
:10D7B000E16AE552E16EE552E7CFD9FF1200D9CF19
:10D7C000E6FFE1CFD9FF200E006EFE0EDBCFE7FFB4
:10D7D0000050E75EFE0EE7CFDBFFDBCFF6FFF76A18
:10D7E000F6BEF768050EF702F3CFF7FFF602F3CFA8
:10D7F000F6FFF450F7262E0EF626F50EF722080057
:10D80000F550E66E8FDFE552FE0EDBCFF6FFF76ACE
:10D81000F6BEF768050EF702F3CFF7FFF602F3CF77
:10D82000F6FFF450F7262E0EF626F50EF722010E1F
:10D83000F626000EF7220800F550E66E73DFE5527B
:10D84000FE0EDBCFF6FFF76AF6BEF768050EF702AD
:10D85000F3CFF7FFF602F3CFF6FFF450F7262E0EC4
:10D86000F626F50EF722020EF626000EF722080025
:10D87000F550E66E57DFE552FE0EDBCFF6FFF76A96
:10D88000F6BEF768050EF702F3CFF7FFF602F3CF07
:10D89000F6FFF450F7262E0EF626F50EF722030EAD
:10D8A000F626000EF7220800F550E66E3BDFE55243
:10D8B000FE0EDBCFF6FFF76AF6BEF768050EF7023D
:10D8C000F3CFF7FFF602F3CFF6FFF450F7262E0E54
:10D8D000F626F50EF722040EF626000EF7220800B3
:10D8E000F550E66E1FDFE552E66A1CDFE55200D018
:10D8F000E552E7CFD9FF1200D9CFE6FFE1CFD9FF3C
:10D90000E652FD0EDBCFE6FFF9DEE552020E006EB9
:10D91000FC0EDBCFE7FF0050E726FC0EE7CFDBFF76
:10D92000DB500F0BE66EEADEE552FC0EDB380F0B28
:10D930000F0B100FE66EE2DEE552FE0EDBCFE6FFC8
:10D940003EDFE55200D0E552E552E7CFD9FF1200A5
:10D95000D9CFE6FFE1CFD9FFFC0EDB50B00FE76E69
:10D96000FC0EE7CFDBFFFB0EDBCFE6FFFC0EDBCFD1
:10D97000E6FFFD0EDBCFF6FFFE0EDBCFF7FF080064
:10D98000F550E66EB9DFE552E552E552FD0EDB2AB1
:10D99000DBCFF6FFFE0E01E3DB2ADBCFF7FF08004B
:10D9A000F5500CE0FD0EDBCFF6FFFE0EDBCFF7FFF0
:10D9B0000800F550E66E03DFE552E8D7E552E7CF01
:10D9C000D9FF1200D9CFE6FFE1CFD9FFFC0EDB5023
:10D9D000B00FE76EFC0EE7CFDBFFFB0EDBCFE6FF01
:10D9E000FC0EDBCFE6FFFD0EDBCFE9FFFE0EDBCF4B
:10D9F000EAFFEF50E66E80DFE552E552E552FD0E9C
:10DA0000DB2ADBCFE9FFFE0E01E3DB2ADBCFEAFFF7
:10DA1000EF500BE0FD0EDBCFE9FFFE0EDBCFEAFFA0
:10DA2000EF50E66ECCDEE552EAD7E552E7CFD9FFFC
:10DA30001200D9CFE6FFE1CFD9FF050EE126030E94
:10DA4000DB6A040EDB6A020E006EFA0EDBCFE7FF24
:10DA50000050E726FA0EE7CFDBFFF90EDB50B00FE0
:10DA6000DF6EFB0EDB50B00FDF5C35E2DFCFE6FF91
:10DA700045DEE552FA0EDB500F0BE66E3FDEE55257
:10DA8000FA0EDB380F0B0F0B1009E66E37DEE5528E
:10DA9000010EDB6AFC0EDB50F36E010EDBCFF4FFF0
:10DAA000F350F45C16E2030EDB2A040E01E3DB2ADA
:10DAB000FD0EDBCFF6FFDB2AFE0EDBCFF7FF01E327
:10DAC000DB2A0800F550E66E2DDEE552010EDB2A5A
:10DAD000E1D7DF2AC6D7050EE15C03E200D0E16A98
:10DAE000E552E16EE552E7CFD9FF1200D9CFE6FF4C
:10DAF000E1CFD9FF020EE126DE6ADD6ADECF00F05B
:10DB0000DDCF01F0FC0EDBCF02F0FD0EDBCF03F02A
:10DB100001500318E8AE02D0033404D00250005C78
:10DB2000035001581BE2FA0EDB50026E036ADE500E
:10DB30000224006EDD500320016E0050E66EFB0EE5
:10DB4000DBCFE6FFFE0EDBCFE6FFD6DEE552E55289
:10DB5000E552DF2A010E01E3DB2AD0D7020EE15C99
:10DB600002E2E16AE552E16EE552E7CFD9FF120029
:10DB7000D9CFE6FFE1CFD9FF020EE126FE0EDB5042
:10DB8000B00FE76EFE0EE7CFDBFFDE6ADD6ADECFA9
:10DB900000F0DDCF01F0D890015004E6180E005CD3
:10DBA000000E01581AE2FD0EDB50026E036ADE50D1
:10DBB0000224006EDD500320016E0050E66EFE0E62
:10DBC000DBCFE6FF2D0EE66E97DEE552E552E5521D
:10DBD000DF2A010E01E3DB2ADAD7DE6ADD6ADECF57
:10DBE00000F0DDCF01F0D890015004E6180E005C83
:10DBF000000E01581BE2FD0EDB50026E036ADE5080
:10DC00000224006EDD500320016E0050E66EFE0E11
:10DC1000DB50040FE66E2D0EE66E6EDEE552E55229
:10DC2000E552DF2A010E01E3DB2AD9D7DE6ADD6A7D
:10DC3000DECF00F0DDCF01F0D890015004E6050EF4
:10DC4000005C000E015830E2FD0EDBCFE6FFFE0E59
:10DC5000DB50026E036ADE500224006EDD500320AA
:10DC6000016E0050E66E7C0EE66E46DEE552E55231
:10DC7000E552FD0EDB50190FE66EFE0EDB50026E14
:10DC8000036ADE500224006EDD500320016E005056
:10DC9000E66E7C0EE66E30DEE552E552E552DF2A96
:10DCA000010E01E3DB2AC4D7020EE15C02E2E16A65
:10DCB000E552E16EE552E7CFD9FF1200D9CFE6FF7A
:10DCC000E1CFD9FF020EE126FD0EDB50B00FE76E6B
:10DCD000FD0EE7CFDBFFDB50DF6EDF50006E016A29
:10DCE000FD0EDB50046E056AFB0EDB500424026E51
:10DCF000FC0EDB500520036E03500118E8AE02D085
:10DD0000013404D00050025C0150035836E3DFCFE9
:10DD1000E6FFF4DCE552020EE66EF0DCE552100E92
:10DD2000E66EECDCE552FA0EDB50E76E010EE7CF53
:10DD3000DBFFDB50006E016AFA0EDB50046E056AF1
:10DD4000F80EDB500424026EF90EDB500520036E42
:10DD500001500318E8AE02D0033404D00250005C36
:10DD60000350015808E2FE0EDBCFE6FFDBDCE55294
:10DD7000010EDB2ADED7DF2AB0D7020EE15C03E218
:10DD800000D0E16AE552E16EE552E7CFD9FF12001B
:10DD9000D9CFE6FFE1CFD9FFE65295688D808D821D
:10DDA0008A8A8D948D900000000000000000000021
:10DDB000000000008D8000008D9000008350DF6E19
:10DDC0008D808D84E552E552E7CFD9FF1200D9CF7F
:10DDD000E6FFE1CFD9FF020EE126FD0EDBCFE9FF22
:10DDE000FE0EDBCFEAFFEF50DE6EDD6AF90EDBCF11
:10DDF000E9FFFA0EDBCFEAFFEF50E66EFD0EDBCF58
:10DE0000E9FFFE0EDBCFEAFFE552E750EF6EF90EB9
:10DE1000DBCFE9FFFA0EDBCFEAFFDFCFEFFFFB0E30
:10DE2000DBCFE9FFFC0EDBCFEAFFEF50DE6EDD6AF1
:10DE3000F70EDBCFE9FFF80EDBCFEAFFEF50E66E1F
:10DE4000FB0EDBCFE9FFFC0EDBCFEAFFE552E7502C
:10DE5000EF6EF70EDBCFE9FFF80EDBCFEAFFDFCF87
:10DE6000EFFF020EE15C02E2E16AE552E16EE5528B
:10DE7000E7CFD9FF1200D9CFE6FFE1CFD9FFE652B5
:10DE8000E00EE66E7EEC6BF0E55282DFDF6EFE0E9A
:10DE9000DB50DF1ADFCFE6FF92EC6BF0E552EE0EBF
:10DEA000E66E7EEC6BF0E552E552E552E7CFD9FF26
:10DEB0001200D9CFE6FFE1CFD9FFFE0EDB50B00F45
:10DEC000E66E7EEC6BF0E552020E006EFD0EDBCFCF
:10DED000E7FF0050E726FD0EE7CFDBFFDB500F0B1F
:10DEE000E66E7EEC6BF0E552FD0EDB380F0B0F0B90
:10DEF000100FE66E7EEC6BF0E552E552E7CFD9FFEE
:10DF00001200D9CFE6FFE1CFD9FF040EE126DF6A88
:10DF1000FD0EDB40E840E8401F0BE76E020EE7CF46
:10DF2000DBFFFD0EDB50070BE76E030EE7CFDBFFD9
:10DF3000010EDB6A030EDB50070815E3FC0EDB5015
:10DF400012E0010EF36E030EDB5004E0D890F336BE
:10DF5000E806FCE1F350DF12010EDB2AFC0EDB06C3
:10DF6000030EDB2AE7D7FE0EDBCFE6FF020EDBCF88
:10DF7000E6FF9FDFE552E552DFCFE6FF7CDFE552AB
:10DF8000FB0EDBCF00F0000EE76E0018E8AE02D00B
:10DF9000003403D0E750D880005419E2FE0EDB5065
:10DFA000016E026AD890025004E6830E015C000EF6
:10DFB00002580DE2FE0EDB28E66E020EDBCFE6FF16
:10DFC00078DFE552E552DFCFE6FF55DFE552FB0E85
:10DFD000DBCF00F0010EE76E0018E8AE02D000348F
:10DFE00003D0E750D880005411E2FE0EDB50000849
:10DFF0000DE2FE0EDB04E66E020EDBCFE6FF59DF1C
:10E00000E552E552DFCFE6FF36DFE552010EDB5089
:10E01000006E040EE15C03E200D0E16AE552E16EBD
:10E020000050E552E7CFD9FF1200D9CFE6FFE1CF8C
:10E03000D9FF020EE126010EDF6EFC0EDBCF00F0F1
:10E04000000EE76E0018E8AE02D0003403D0E750AF
:10E05000D880005407E2FD0EDB50000803E2FD0EFD
:10E06000DB06DF2AFC0EDBCF00F0010EE76E0018A6
:10E07000E8AE02D0003403D0E750D880005408E264
:10E08000FD0EDB50DF24016E3F0E015C01E2DF2A52
:10E09000DF501EE0E66ADFCFE6FFFD0EDBCFE6FFD6
:10E0A000FE0EDBCFE6FF2DDFE552E552E552E552ED
:10E0B000E76E010EE7CFDBFFDB50DF5EFD0EDBCF4F
:10E0C000E7FF010EDB50E726FD0EE7CFDBFFE0D7D1
:10E0D000020EE15C02E2E16AE552E16EE552E7CF51
:10E0E000D9FF1200D9CFE6FFE1CFD9FF160EE12606
:10E0F000FD0EDBCF00F0FB0EDB50D88000541DE29C
:10E10000D950FB0FE66EFF0EDA20E66ED950FC0FF9
:10E11000E66EFF0EDA20E66ED950FD0FE66EFF0EBA
:10E12000DA20E66ED950FE0FE66EFF0EDA20E66EBC
:10E130004EDE006E080EE15E0050FB0EDBCFE6FF08
:10E14000FD0EDB50E552E75C010FE76E060EE7CFF0
:10E15000DBFFFE0EDB50F36EFC0EDBCFF4FFF35063
:10E16000F45C14E3FC0EDBCFE6FFFE0EDB50E55261
:10E17000E75C010FE76E050EE7CFDBFF010EF36EE4
:10E18000070EF3CFDBFF080EDB6A10D0FE0EDBCFED
:10E19000E6FFFC0EDB50E552E75C010FE76E050E73
:10E1A000E7CFDBFF070EDB68080EDB68050EDB50F0
:10E1B000F36E060EDBCFF4FFF350F45C01E2CCD03B
:10E1C000060EDB50640D0D0EF3CFDBFF0E0EF4CF09
:10E1D000DBFF050EDB50006E016A0D0EDBCF20F079
:10E1E0000E0EDBCF21F000C025F001C026F064EC5C
:10E1F00073F00B0E20C0DBFF0C0E21C0DBFFFE0E08
:10E20000DB50DF6EFD0EDB50E76E010EE7CFDBFF6C
:10E21000150EDB6AFC0EDB50006E016A00C020F0B8
:10E2200001C021F0070EDBCF25F0080EDBCF26F072
:10E230008AEC73F0090E1EC0DBFF0A0E1FC0DBFF65
:10E24000DF50026E036A02C020F003C021F0070E07
:10E25000DBCF25F0080EDBCF26F08AEC73F01EC072
:10E2600000F01FC001F0090EDBCF04F00A0EDBCF77
:10E2700005F005500118E8AE02D0013404D000507A
:10E28000045C0150055867E3640E026E036A150EC4
:10E29000DB50E76E0B0EDBCF00F00C0EDBCF01F096
:10E2A000E7500026000E0122130E00C0DBFF140E03
:10E2B00001C0DBFF00C020F001C021F002C025F04A
:10E2C00003C026F064EC73F0020E20C0DBFF130ED7
:10E2D000DBCF00F0140EDBCF01F0640E256E266A52
:10E2E00000C020F001C021F064EC73F01CC000F00D
:10E2F0001DC001F0150E00C0DBFF020EDB5027E051
:10E30000FA0EDBCFE6FF020EDBCFE6FF010EDBCF1E
:10E31000E6FFDFCFE6FFF5DDE552E552E552E552D7
:10E32000E76E040EE7CFDBFF020EDBCFE7FF040E44
:10E33000DB50E75E020EE7CFDBFF010EDBCFE7FF2E
:10E34000040EDB50E726010EE7CFDBFFD6D7070E22
:10E35000DB50DF2675D785D0050EDB50640D110E1E
:10E36000F3CFDBFF120EF4CFDBFF060EDB50006EA7
:10E37000016A110EDBCF20F0120EDBCF21F000C0BE
:10E3800025F001C026F064EC73F00F0E20C0DBFF17
:10E39000100E21C0DBFFFE0EDB50DF6EFD0EDB50EA
:10E3A000E76E010EE7CFDBFF150EDB6A010EDBCF58
:10E3B00000F0FB0EDB50D880005453E3640E026E75
:10E3C000036A150EDB50E76E0F0EDBCF00F0100E68
:10E3D000DBCF01F0E7500026000E0122130E00C033
:10E3E000DBFF140E01C0DBFF00C020F001C021F0F4
:10E3F00002C025F003C026F064EC73F0030E20C0C9
:10E40000DBFF130EDBCF00F0140EDBCF01F0640E48
:10E41000256E266A00C020F001C021F064EC73F084
:10E420001CC000F01DC001F0150E00C0DBFF030E84
:10E43000DBCFF3FFDB06F350000910E0FA0EDBCF71
:10E44000E6FF010EDBCFE6FFDFCFE6FFEEDDE552B4
:10E45000E552E552070EDB50DF26E9D7010EDB2A35
:10E46000A5D7150EDB5032080CE2FA0EDBCFE6FF23
:10E47000010EDBCFE6FFDFCFE6FFD7DDE552E55249
:10E48000E552160EE15C02E2E16AE552E16EE55208
:06E49000E7CFD9FF1200E6
:0AE49600199E08D0199E21AE05D092
:10E4A000206C211EE86A2122198E21C01BF020C099
:10E4B0001AF02B6A2A6A8E0E1C6E1D6AFAEF73F030
:10E4C000277E196A36EC74F04EEC74F019B6DEEF64
:10E4D00073F019A20AD019AA03D019BEDEEF73F0A7
:10E4E00019A4EAEF73F0E7EF73F019AA05D019AC9D
:10E4F000EAEF73F0E7EF73F019A00AD019A808D07B
:10E5000019BE04D019A402D0F3EF73F0F7EF73F043
:10E510002A6A1D6A2750225C296E10E31FC02BF067
:10E5200020C01AF021C01BF022C028F024C01FF028
:10E5300025C020F026C021F0193A09D024C02BF0C4
:10E5400025C01AF026C01BF027C028F0296C199EA0
:10E5500019BC198E28C01CF019B026EF74F01A0EE1
:10E56000296026EF74F01C6A226A19A408D01F6C77
:10E57000201E211E221EE86A20222122222219ACFE
:10E5800008D02B6C1A1E1B1E1C1EE86A1A221B22A6
:10E590001C221E6A295207E02234213220321F3207
:10E5A0001E32292EF9D71F502B2620501A22215017
:10E5B0001B2222501C221EC02AF0199E1CAE0BD01A
:10E5C0002A6C2B1E1A1E1B1E1C1EE86A2B221A22E6
:10E5D0001B221C22198E1CA006D0D8801B321A3296
:10E5E0002B322A32282A28C01CF0FAEF73F0196A5D
:10E5F00036EC74F04EEC74F019B6DEEF73F019A23D
:10E6000005D019B8DEEF73F0E5EF73F019AA05D065
:10E6100019B0DEEF73F0E5EF73F019B002D019A86E
:10E6200002D0F1EF73F01D6A275022241C6EE86AB5
:10E630001D227E0E1C5EE86A1D5A2A6A2B6A1A6A1F
:10E640001B6A26502102F4CF1BF0F3CF1AF025509D
:10E650002102F3502B26F4501A22000E1B222650C2
:10E660002002F3502B26F4501A22000E1B222450B5
:10E670002102F3502A26F4502B22000E1A221B22CC
:10E6800025502002F3502A26F4502B22000E1A2285
:10E690001B2226501F02F3502A26F4502B22000E74
:10E6A0001A221B2224502002F4502A26000E2B226C
:10E6B0001A221B2225501F02F4502A26000E2B225C
:10E6C0001A221B22FAEF73F0186A26AE6DEF73F070
:10E6D000256C261EE86A2622181E21AE75EF73F0FF
:10E6E000206C211EE86A2122181E01EC7FF021BE59
:10E6F00085EF73F018AE000C206C211EE86A212211
:10E700001C6C1D1EE86A1D22000C18BE7CEF73F005
:10E710001988FF0C21C02BF020C02AF020502502C0
:10E72000F4CF1FF0F3CF1EF021502602F4CF21F0DA
:10E73000F3CF20F02502F3501F26F4502022E86A80
:10E7400021222A502602F3501F26F4502022E86A84
:10E75000212226AEB0EF73F02A50205E2B50215AB2
:10E760002BAE000C2550205E2650215A000C196A51
:10E7700036EC74F019B6C1EF73F019A20AD019B4CF
:10E7800003D07F0E216E19D0800E216E16D0216A23
:10E7900014D019B0FCD7870E2260F1D77E0E226408
:10E7A000F6D7860E225C04E0D8902132222AF9D7CF
:10E7B00019A403D0216C21AEEAD712007F0E226E7D
:10E7C000FF0E216E206E1F6E12007F0E19BEFF0E0F
:10E7D000226E02D07F0E226E800E216E206A1F6A8A
:10E7E000F3D719AE04D0800E226E216AF7D7226AC1
:10E7F000216AF4D71B501A102B102A10F8E01DBE06
:10E80000F0D71BBE0CD01C501D10EBE0D8902A3660
:10E810002B361A361B361C06D8A01D06F2D71D5003
:10E82000D4E11C28D2E02AAE11D07F0E2A1402E1D6
:10E830002BA00CD02B2AE86A1A221B2207E3D880CF
:10E840001B321A322B321C2A1C28BFE01C50C9E094
:10E850002BC01FF01AC020F01B34216E1C30226E1A
:10E860002132229E19BE228EE4EF73F02136223629
:10E8700002E31984197E06E11980226A216A206A5E
:10E880001F6A1200222803E0D88021321200D8909B
:10E89000213202E11982120019861200263627362B
:10E8A00002E3198C197E06E11988276A266A256A0F
:10E8B000246A1200272803E0D88026321200D8905C
:10E8C0002632EAE1198A1200199E0CD0199E21AE57
:10E8D00009D01E6C1F1E201E211EE86A1F22202246
:10E8E0002122198E21C01BF020C01AF01FC02BF06E
:10E8F0001EC02AF09E0E1C6E1D6AFAEF73F0196A94
:10E9000036EC74F04EEC74F019B6DEEF73F019A229
:10E9100005D019BADEEF73F0E5EF73F019BAF1EF35
:10E9200073F019A005D019B8DEEF73F0F1EF73F0B2
:10E9300019B8E5EF73F01D6A7F0E22241C6EE86A99
:10E940001D2227501C5EE86A1D5A1A0E286E226A84
:10E950002A6A2B6A1A6A1B6A24501F5E2550205AA5
:10E960002650215A000E225A09E724501F2625500E
:10E97000202226502122000E222201D02A8AD8905D
:10E980001F36203621362236D8902A362B361A36B4
:10E990001B36282EE1D7215020101F10D8A42A8A18
:10E9A000FAEF73F0196A36EC74F019B6DCEF74F014
:10E9B00019A20ED019B405D07F0E216EFF0E206E65
:10E9C0001FD0800E216E206A1BD0216A206A18D0C9
:10E9D00019B0FBD78F0E2260EDD77E0E2264F5D7DB
:10E9E0008E0E225C05E0D89021322032222AF8D700
:10E9F00019A406D0206C211EE86A212221AEE5D799
:10EA00001200196A36EC74F019B60BEF75F019A202
:10EA10000FD019B407D07F0E216EFF0E206E1F6E2F
:10EA20001E6E25D0800E216E01D0216A000EF6D711
:10EA300019B0FBD71E6A9F0E2260EBD77E0E2264B0
:10EA4000F4D79E0E225C07E0D890213220321F328C
:10EA50001E32222AF6D719A40AD01E6C1F1E201EB1
:10EA6000211EE86A1F222022212221AEDED71200B9
:10EA700041EC75F019B6000C19B0000C19A4000C8B
:10EA8000010C196A36EC74F04EEC74F019B61200F1
:10EA900019AE08D019A004D019A802D0198012000C
:10EAA000199012002750225C0BE12650215C08E1EE
:10EAB0002550205C05E124501F5C02E11980120002
:10EAC000D8A002D0198E10D0225027C022F0276E75
:10EAD000215026C021F0266E205025C020F0256E42
:10EAE0001F5024C01FF0246E2750225C10E0FF0F3F
:10EAF00009E0199019B403D019AE1984120019AEA7
:10EB000019941200272AD890263225322432245014
:10EB10001F5E2550205A2650215A21BEEAD7D89090
:0CEB20001F3620362136222EF8D7C8D729
:04EB2C00D9CFE6FF58
:10EB3000DACFE6FFE1CFD9FFE2CFDAFF220EE12400
:10EB400002E3E168E652E16ED950130FE66E000E63
:10EB5000DA20E66EA8DA85EC7BF0006E060EE15C4A
:10EB600002E2E16AE552E16E0050E76E0E0EE7CF79
:10EB7000DBFFDB50840B0CE0210E00019D6F9E6BD0
:10EB80000F0EDB68100EDB68110EDB687F0E6ED097
:10EB90008ADA36DA020E1EC0DBFF030E1FC0DBFF6F
:10EBA000040E20C0DBFF050E21C0DBFF87DA246ADC
:10EBB000100E256E490E266E460E14DA38EC75F0EE
:10EBC000010A32E07BDA67DA0DDA7FEC74F0BFD944
:10EBD000060EDBCF1FF0070EDBCF20F0080EDBCFD9
:10EBE00021F0090EDBCF22F001EC75F066EC74F039
:10EBF000AED964DA060EDBCF08F0070EDBCF09F0E2
:10EC0000080EDBCF0AF0090EDBCF0BF044DA276EDB
:10EC100008C01FF009C020F00AC021F00BC022F08C
:10EC200048DA60EC72F0C4D9F90EDB5012E00E0E37
:10EC3000DB040BE1FA0EDBCF00F0FB0EDBCF01F0C3
:10EC4000FC0EDBCF02F0FD0E52D167D9266AF8D94F
:10EC500047D00E0EDB0419E10F0EDB6A100EDB6AE3
:10EC6000800EF36E110EF3CFDBFF3F0EF36E120E2C
:10EC7000F3CFDBFF0F0EDBCF00F0100EDBCF01F088
:10EC8000110EDBCF02F0120E32D1190EDB6A45D91C
:10EC9000800E266ED5D9006A016A026A3F0E036EA5
:10ECA000D950060FE96E000EDA20EA6EEECF1FF0A3
:10ECB000EECF20F0EECF21F0EFCF22F000C024F015
:10ECC00001C025F002C026F003C027F060EC72F00E
:10ECD00022C0EDFF21C0EDFF20C0EDFF1FC0EFFF00
:10ECE000DF50010B0AE0190EDB5002E0000E01D0EC
:10ECF000010EE76E190EE7CFDBFF8CD9060EDBCFD6
:10ED00000CF0070EDBCF0DF0080EDBCF0EF0090E76
:10ED1000DBCF0FF0246A256A490E266E400E276E5F
:10ED20000CC01FF00DC020F00EC021F00FC022F06B
:10ED3000F7EC72F05CD9A6D995D960EC72F077D96E
:10ED4000060EDBCF14F0070EDBCF15F0080EDBCF7D
:10ED500016F0090EDBCF17F0220E246EAA0E256ED8
:10ED60007D0E266E3A0E276E14C01FF015C020F0DF
:10ED700016C021F017C022F0F7EC72F01FC010F09F
:10ED800020C011F021C012F022C013F0EDD860ECC9
:10ED900072F00A0E1FC0DBFF0B0E20C0DBFF0C0E53
:10EDA00021C0DBFF0D0E22C0DBFFD9500A0FE96E38
:10EDB000000EEAD825D91EC000F01FC001F020C007
:10EDC00002F021C003F0246A256A800E266E390EF7
:10EDD000276E1EC01FF04FD938EC75F0010A13E101
:10EDE000D9500A0FE96E000EDA20EA6E020EEECF5D
:10EDF000DBFF030EEECFDBFF040EEECFDBFF050ED5
:10EE0000EECFDBFF68D0E1D80A0EDBCF24F00B0E8B
:10EE1000DBCF25F00C0EDBCF26F00D0EDBCF27F07D
:10EE2000F7EC72F01A0E1FC0DBFF1B0E20C0DBFFD9
:10EE30001C0E21C0DBFF1D0E22C0DBFF5B0E1F6E10
:10EE40009C0E206E2E0E216E360E226E72D8CFD8FA
:10EE5000220E246EB20E256E4F0E266EB90E32D9DA
:10EE60009ED83E0E246E870E256E080E266E3C0E32
:10EE700029D9DDD8A40E246EAA0E256E2A0E266E80
:10EE8000BE0E20D91E0E1FC0DBFF1F0E20C0DBFFF1
:10EE9000200E21C0DBFF210E22C0DBFF0A0EDBCFDC
:10EEA00000F00B0EDBCF01F00C0EDBCF02F00D0EED
:10EEB000DBCF03F08AD81E0EDBCF24F01F0EDBCF92
:10EEC00025F0200EDBCF26F0210EDBCF27F0F1D886
:10EED00061EC72F06DD8190EDB5008E09BD8246A03
:10EEE000256A800E266EBF0EF0D803D042D8DBCF45
:10EEF00003F000C01EF001C01FF002C020F003C0EC
:10EF000021F0220EE15C02E2E16AE552E16EE55297
:10EF1000E5CFDAFFE7CFD9FF12007CD8830E246E4D
:10EF2000F90E256EA20E266E3E0ECFD8246A256AF3
:10EF300012001A0EDBCF24F01B0EDBCF25F01C0EC7
:10EF4000DBCF26F01D0EDBCF27F0F7EF72F0060EB9
:10EF50001FC0DBFF070E20C0DBFF080E21C0DBFF58
:10EF6000090E22C0DBFF12008DD800C01FF03BEF5E
:10EF700078F0020EDBCF00F0030EDBCF01F0040EC1
:10EF8000DBCF02F0050E1200DA20EA6EEECFE6FFCC
:10EF9000EECFE6FFEECFE6FFEFCFE6FF12001FC099
:10EFA00004F020C005F021C006F022C007F01200D6
:10EFB000020E1FC0DBFF030E20C0DBFF040E21C0CA
:10EFC000DBFF050E22C0DBFF12000A0EDBCF1FF0B5
:10EFD0000B0EDBCF20F00C0EDBCF21F00D0EDBCFC4
:10EFE00022F01200276E00C01FF03BEF78F01FC028
:10EFF00008F020C009F021C00AF022C00BF0120076
:10F000005BEC7EF0E552E552E552E5521200276EC8
:10F0100061EF72F0020EDBCF04F0030EDBCF05F0E0
:10F02000040EDBCF06F0050EDBCF07F012001FC089
:10F0300000F020C001F021C002F022C003F0120055
:10F040003F0EE5DFD2EC74F020C0DEFF21C0DDFF13
:10F05000000EDFCF20F0010EDBCF21F04DEC72F07F
:10F06000A7EF77F004C01FF005C020F006C021F024
:10F0700007C022F0120001C020F002C021F003C03E
:10F0800022F012001FC024F020C025F021C026F07D
:10F0900022C027F01200DB0E246E0F0E256EC90E63
:10F0A000266E400E1200D950FA0FE96EFF0EC4EF23
:10F0B00077F0F7EC72F073DFB4EF77F05ADFDBCF65
:10F0C00003F01200A4DF99EF77F0276ECBDFF7ECA7
:06F0D00072F017EF78F06A
:0AF0D600D9CFE6FFE1CFD9FF030E0A
:10F0E000E12659D8736A820E726E739C949493963B
:10F0F000958C7288728A949EE66AD0D8E552E76E43
:10F10000020EE7CFDBFF0000D950020FE96EDACF25
:10F11000EAFFEF50070B020801E00000140EE66E54
:10F12000BDD8E552E76E020EE7CFDBFF020EDB969D
:10F13000DB88020EDB80DB92DB94020EDBCFE6FF86
:10F14000140EE66E3AD8E552E552010EE66EA6D8E8
:10F15000E552DE6EDD6A0000110EE66E9FD8E552C4
:10F16000DE6EDD6A0000E66A110EE66E26D8E55214
:10F17000E5520000110EE66E91D8E552DE6EDD6AB2
:10F180000000030EE15C02E2E16AE552E16EE55245
:10F19000E7CFD9FF1200550EA76EAA0EA76E0E017B
:10F1A000FF91090ECC6F0A0ED36F170EFB6F550E31
:10F1B000A76EAA0EA76EFF811200D9CFE6FFE1CF9E
:10F1C000D9FFE652DF6AFE0EDB50140804E0FE0EA3
:10F1D000DB50340806E1140EE66E60D8E552E00B11
:10F1E000DF6E8B9EA49EFE0EDB50756EA4AEFED726
:10F1F000000000000000000000000000000000000F
:10F2000000000000000000000000000000000000FE
:10F2100000000000000000000000000000000000EE
:10F2200000000000000000000000000000000000DE
:10F2300000000000000000000000000000000000CE
:10F2400000000000000000000000000000000000BE
:10F2500000000000000000000000000000000000AE
:10F26000000000000000000000000000000000009E
:10F27000A49EFE0EDB500A0805E1FD0EDB507F0B5D
:10F28000756E04D0FD0EDB50DF10756EA4AEFED798
:10F290008B8EE552E552E7CFD9FF1200D9CFE6FFBA
:10F2A000E1CFD9FF8B9EA49EFE0EDB508009756EC8
:10F2B000A4AEFED700000000000000000000000027
:10F2C000000000000000000000000000000000003E
:10F2D000000000000000000000000000000000002E
:10F2E000000000000000000000000000000000001E
:10F2F000000000000000000000000000000000000E
:10F3000000000000000000000000000000000000FD
:10F3100000000000000000000000000000000000ED
:10F3200000000000000000000000000000000000DD
:10F3300000000000A49E756AA4AEFED78B8E7550A7
:0AF3400000D0E552E7CFD9FF12001C
:06F34A00030EB16EB39248
:10F35000B390B396B288B28EB290B292A494B38EA8
:10F3600012002F0E926E0F01E00E486F1F0E496FB4
:10F37000C18EC19CC70EC1140809C16EF80EC1141C
:10F380000209C16E498FC29CC29EC30EC2140809F5
:10F39000C26EC2801200D9DFB1EF79F0D9CFE6FF9B
:10F3A000E1CFD9FF020EE126FE0EDB500F0BF36E0C
:10F3B000F346F346C30EC214F310C26EFE0EDB50CA
:10F3C000EA6A990FE96E000EEA22EF503F0BF36EE6
:10F3D000F346F346030EB114F310B16EB38EB3824D
:10F3E000000000000000000000000000000000001D
:10F3F000000000000000000000000000000000000D
:10F400000000000000000000B392B2800000000085
:10F4100000000000000000000000000000000000EC
:10F4200000000000000000000000000000000000DC
:10F4300000000000B2909E9CC2829EACFED7C3CF5B
:10F44000DEFFC4CFDDFFDECF00F0DDCF01F000C076
:10F45000F3FF01C0F4FF00D0020EE15C02E2E16ABA
:10F46000E552E16EE552E7CFD9FF1200D9CFE6FFB2
:10F47000E1CFD9FF030EE126020EDB6A040EF36E24
:10F48000020EDBCFF4FFF350F45C21E22AD8EF6ADE
:10F4900030D80CE226D8EF501F0803E122D8EF6ADB
:10F4A00013D01FD8EF2A25D8F5E30ED02CD80CE2C4
:10F4B00018D8EF50E10803E114D8EF6A05D011D84D
:10F4C000EF062BD820D8F4E3020EDB2AD7D7030EA1
:10F4D000E15C02E2E16AE552E16EE552E7CFD9FF75
:10F4E0001200020EDB50EA6A990FE96E000EEA2262
:10F4F000120013D8DECF00F0DDCF01F0200E005C4B
:10F50000030E01581200D9CFE9FFDACFEAFF200E2F
:10F51000D880EE54030EED541200020EDBCFE6FF4E
:0EF520003DDFE552F3CFDEFFF4CFDDFF12003A
:02F52E000000DB
:10F5300000000000004F00000007000700147F14C7
:10F540007F14242A7F2A1223130864623649552225
:10F55000500005030000001C2241000041221C0055
:10F5600014083E081408083E08080050300000083F
:10F5700008080808006060000020100804023E51DE
:10F5800049453E00427F4000426151494621414584
:10F590004B311814127F1027454545393C4A4949DB
:10F5A0003001710905033649494936064949291E82
:10F5B00000363600000056360000081422410014C0
:10F5C000141414140041221408020151090632498E
:10F5D00079413E7E1111117E7F494949363E4141B4
:10F5E00041227F4141221C7F494949417F09090944
:10F5F000013E4149497A7F0808087F00417F410068
:10F600002040413F017F081422417F404040407F1D
:10F61000020C027F7F0408107F3E4141413E7F097A
:10F620000909063E4151215E7F091929464649498B
:10F63000493101017F01013F4040403F1F204020F0
:10F640001F3F4038403F63140814630708700807E1
:10F650006151494543007F414100020408102000E8
:10F6600041417F000402010204404040404000014B
:10F6700002040020545454787F48444438384444A9
:10F680004420384444487F3854545418087E0901B3
:10F69000020C5252523E7F0804047800447D400020
:10F6A0002040443D007F1028440000417F40007C02
:10F6B000041804787C0804047838444444387C14E2
:10F6C000141408081414187C7C08040408485454C2
:10F6D0005420043F4440203C4040207C1C204020DB
:10F6E0001C3C4030403C44281028440C5050503CB6
:10F6F0004464544C44000836410000007F00002060
:09F700001008102006090009069A
:06F70A00D9CFE6FFDACFC3
:10F71000E6FFE1CFD9FFE2CFDAFFE65200680168E9
:10F720007F0E026E036AD950FA0FE96EFF0EDA20DF
:10F73000EA6EEE500016EE500116EE500216EE5034
:10F7400003166AD800C0EEFF01C0EEFF02C0EEFF54
:10F7500003C0EEFFFD0EDB50800B02E0010E01D076
:10F76000000EE66E59D8060EE926000EEA22E55292
:10F77000E750EF6EFC0EDBCF00F0FD0EDBCF01F0AB
:10F78000D89000360136FC0E00C0DBFFFD0E01C034
:10F79000DBFFDB50E66E40D8040EE926000EEA22BD
:10F7A000E552E750EE6EED6AFD0EDB50006E016A29
:10F7B000FF0E001818E1015016E12ED8EECF00F030
:10F7C000EECF01F0EECF02F0EFCF03F000500110CA
:10F7D0000210031006E0210E00019D6F9E6B800E4B
:10F7E0000BD0040E09D0FD0EDB5008E115D8EE6AEF
:10F7F000EE6AEE6AEE6A010EDF6E06D0020EDF6E72
:10F800000BD8EE52EE52EE8EDF50E552E552E5CFC8
:10F81000DAFFE7CFD9FF1200F80EDBCFE9FFF90ED0
:06F82000DBCFEAFF12003D
:0AF82600416C61726D00536574209F
:10F8300044617465005365742054696D650031320C
:10F84000482F32344820496E74657276616C0044EA
:10F850006973706C6179204D6F6465004F46460096
:10F860004F4E00416C61726D204D656E7500253004
:10F8700032642F253032640053657420446174650E
:10F88000204D656E7500504D00414D0025303264AD
:10F890003A253032643A253032640053657420547E
:10F8A000696D65204D656E7500323448003132480F
:10F8B00000486F75727320496E74657276616C00D2
:10F8C000416E616C6F6720436C6F636B00446967C6
:10F8D0006974616C20436C6F636B00446973706C76
:10F8E0006179204D6F6465204D656E750020457807
:10F8F00065637574656400746F2072657475726EEB
:10F9000000507265737320427574746F6E00457891
:10F91000656375746564004F7065726174696F6EBC
:01F9200000E6
:01F9210000E5
:0EF9220000019FB122D09F838B809490550EE0
:10F93000A76EAA0EA76E0E01FF910E0ED16F550E87
:10F94000A76EAA0EA76EFF810F0EBA6ECF0EBA1465
:10F950000009BA6EBB6A0F01526B800ECB6E040EAB
:10F96000CA6EA496600E776E7F0E766E120000014E
:10F970009F919F938B809490120000019FA109D0CA
:10F980008B50010B04E19450010B01E1010C9F919C
:10F99000C8DF00019FA3C5DFA4A63AD0A496BA5041
:10F9A000300BE842E842E842E842030819E1400E21
:10F9B000BB5C10E18B909490BA6ACA6A0E01D16B5D
:10F9C0000F01526BCB68766A7768A49600019F811D
:10F9D0009F93010CBB2ACF0EBA140009BA6E000C1B
:10F9E000BA0EE96E0F0EEA6EEF50300BE842E842B5
:10F9F000E842E842E82AE850030BF36EF46EF3465F
:10FA0000F346F346F346CF0EEF14F310EF6EF450C7
:02FA1000000CE8
:0EFA1200D9CFE6FFDACFE6FFE1CFD9FFE2CF92
:10FA2000DAFFE652E652E652E652D950F90F006E7E
:10FA3000FF0EDA20016E020E00C0DBFF030E01C0D4
:10FA4000DBFF020EDBCFE6FF030EDBCFE6FFF90E96
:10FA5000DBCFE6FFFA0EDBCFE6FFFB0EDBCFE6FFE8
:10FA6000D950FC0FE66EFF0EDA20E66E99EC64F0DA
:10FA7000006E070EE15C02E2E16AE552E16E0050C1
