:020000040000FA
:06000000EEEF08F0120013
:020006001200E6
:0600080004EF50F01200AD
:060018000CEF50F0120095
:02001E00D9CF38
:10002000E6FFDACFE6FFE1CFD9FFE2CFDAFF220E1B
:10003000E12402E3E168E652E16ED950130FE66E67
:10004000000EDA20E66EA8DA89EC05F0006E060EE6
:10005000E15C02E2E16AE552E16E0050E76E0E0EED
:10006000E7CFDBFFDB50840B0CE0210E0001AD6F0E
:10007000AE6B0F0EDB68100EDB68110EDB687F0EB7
:100080006ED08ADA36DA020E1EC0DBFF030E1FC006
:10009000DBFF040E20C0DBFF050E21C0DBFF87DA8B
:1000A000246A100E256E490E266E460E14DA71EC87
:1000B0007EF0010A32E07BDA67DA0DDAE7EC7DF0F8
:1000C000BFD9060EDBCF1FF0070EDBCF20F0080EE6
:1000D000DBCF21F0090EDBCF22F03AEC7EF0CEEC44
:1000E0007DF0AED964DA060EDBCF08F0070EDBCF69
:1000F00009F0080EDBCF0AF0090EDBCF0BF044DA73
:10010000276E08C01FF009C020F00AC021F00BC004
:1001100022F048DAC0EC7BF0C4D9F90EDB5012E0D3
:100120000E0EDB040BE1FA0EDBCF00F0FB0EDBCF93
:1001300001F0FC0EDBCF02F0FD0E52D167D9266A2A
:10014000F8D947D00E0EDB0419E10F0EDB6A100E52
:10015000DB6A800EF36E110EF3CFDBFF3F0EF36E02
:10016000120EF3CFDBFF0F0EDBCF00F0100EDBCF54
:1001700001F0110EDBCF02F0120E32D1190EDB6A44
:1001800045D9800E266ED5D9006A016A026A3F0EF3
:10019000036ED950060FE96E000EDA20EA6EEECF3C
:1001A0001FF0EECF20F0EECF21F0EFCF22F000C015
:1001B00024F001C025F002C026F003C027F0C0ECF7
:1001C0007BF022C0EDFF21C0EDFF20C0EDFF1FC07E
:1001D000EFFFDF50010B0AE0190EDB5002E0000ECA
:1001E00001D0010EE76E190EE7CFDBFF8CD9060EAA
:1001F000DBCF0CF0070EDBCF0DF0080EDBCF0EF0DF
:10020000090EDBCF0FF0246A256A490E266E400ED8
:10021000276E0CC01FF00DC020F00EC021F00FC0E3
:1002200022F057EC7CF05CD9A6D995D9C0EC7BF0D4
:1002300077D9060EDBCF14F0070EDBCF15F0080ED2
:10024000DBCF16F0090EDBCF17F0220E246EAA0EBC
:10025000256E7D0E266E3A0E276E14C01FF015C057
:1002600020F016C021F017C022F057EC7CF01FC020
:1002700010F020C011F021C012F022C013F0EDD810
:10028000C0EC7BF00A0E1FC0DBFF0B0E20C0DBFFB3
:100290000C0E21C0DBFF0D0E22C0DBFFD9500A0F70
:1002A000E96E000EEAD825D91EC000F01FC001F08B
:1002B00020C002F021C003F0246A256A800E266E59
:1002C000390E276E1EC01FF04FD971EC7EF0010A67
:1002D00013E1D9500A0FE96E000EDA20EA6E020E21
:1002E000EECFDBFF030EEECFDBFF040EEECFDBFF26
:1002F000050EEECFDBFF68D0E1D80A0EDBCF24F08D
:100300000B0EDBCF25F00C0EDBCF26F00D0EDBCF76
:1003100027F057EC7CF01A0E1FC0DBFF1B0E20C02D
:10032000DBFF1C0E21C0DBFF1D0E22C0DBFF5B0EBE
:100330001F6E9C0E206E2E0E216E360E226E72D80F
:10034000CFD8220E246EB20E256E4F0E266EB90E39
:1003500032D99ED83E0E246E870E256E080E266E6C
:100360003C0E29D9DDD8A40E246EAA0E256E2A0EC5
:10037000266EBE0E20D91E0E1FC0DBFF1F0E20C032
:10038000DBFF200E21C0DBFF210E22C0DBFF0A0EA7
:10039000DBCF00F00B0EDBCF01F00C0EDBCF02F059
:1003A0000D0EDBCF03F08AD81E0EDBCF24F01F0E1C
:1003B000DBCF25F0200EDBCF26F0210EDBCF27F0A0
:1003C000F1D8C1EC7BF06DD8190EDB5008E09BD85A
:1003D000246A256A800E266EBF0EF0D803D042D85C
:1003E000DBCF03F000C01EF001C01FF002C020F000
:1003F00003C021F0220EE15C02E2E16AE552E16E07
:10040000E552E5CFDAFFE7CFD9FF12007CD8830EA3
:10041000246EF90E256EA20E266E3E0ECFD8246AEB
:10042000256A12001A0EDBCF24F01B0EDBCF25F05D
:100430001C0EDBCF26F01D0EDBCF27F057EF7CF034
:10044000060E1FC0DBFF070E20C0DBFF080E21C019
:10045000DBFF090E22C0DBFF12008DD800C01FF0A9
:10046000B4EF02F0020EDBCF00F0030EDBCF01F0A1
:10047000040EDBCF02F0050E1200DA20EA6EEECF9A
:10048000E6FFEECFE6FFEECFE6FFEFCFE6FF12008E
:100490001FC004F020C005F021C006F022C007F004
:1004A0001200020E1FC0DBFF030E20C0DBFF040E94
:1004B00021C0DBFF050E22C0DBFF12000A0EDBCFDE
:1004C0001FF00B0EDBCF20F00C0EDBCF21F00D0E5A
:1004D000DBCF22F01200276E00C01FF0B4EF02F055
:1004E0001FC008F020C009F021C00AF022C00BF0A4
:1004F000120010EC08F0E552E552E552E552120008
:10050000276EC1EF7BF0020EDBCF04F0030EDBCFD2
:1005100005F0040EDBCF06F0050EDBCF07F012006E
:100520001FC000F020C001F021C002F022C003F083
:1005300012003F0EE5DF17EC7DF020C0DEFF21C08A
:10054000DDFF000EDFCF20F0010EDBCF21F0ADECA0
:100550007BF020EF02F004C01FF005C020F006C0C1
:1005600021F007C022F0120001C020F002C021F0EB
:1005700003C022F012001FC024F020C025F021C0CB
:1005800026F022C027F01200DB0E246E0F0E256E1F
:10059000C90E266E400E1200D950FA0FE96EFF0EFA
:1005A0003DEF02F057EC7CF073DF2DEF02F05ADFE5
:1005B000DBCF03F01200A4DF12EF02F0276ECBDFD7
:0805C00057EC7CF090EF02F013
:0805C800000000000000004FDC
:1005D00000000007000700147F147F14242A7F2ADC
:1005E00012231308646236495522500005030000A7
:1005F000001C2241000041221C0014083E0814087F
:10060000083E08080050300000080808080800608C
:1006100060000020100804023E5149453E00427F20
:10062000400042615149462141454B311814127F27
:100630001027454545393C4A4949300171090503B0
:100640003649494936064949291E00363600000018
:1006500056360000081422410014141414140041EA
:100660002214080201510906324979413E7E1111D6
:10067000117E7F494949363E414141227F41412215
:100680001C7F494949417F090909013E4149497A8D
:100690007F0808087F00417F41002040413F017FE3
:1006A000081422417F404040407F020C027F7F04BB
:1006B00008107F3E4141413E7F090909063E4151F4
:1006C000215E7F09192946464949493101017F01C7
:1006D000013F4040403F1F2040201F3F4038403FE7
:1006E0006314081463070870080761514945430003
:1006F0007F41410002040810200041417F000402B4
:1007000001020440404040400001020400205454D3
:1007100054787F484444383844444420384444485A
:100720007F3854545418087E0901020C5252523E2C
:100730007F0804047800447D40002040443D007F51
:100740001028440000417F40007C041804787C0895
:1007500004047838444444387C14141408081414ED
:10076000187C7C080404084854545420043F444036
:10077000203C4040207C1C2040201C3C4030403C21
:1007800044281028440C5050503C4464544C4400BD
:100790000836410000007F000020100810200609E4
:1007A000000906000F0F0F00FF0F0000FFFF00F011
:1007B0000FFFF00F0F0FF0000F0F0F000000FF00F2
:1007C000000000FF000000F0FF00000F0F0F0F0FF0
:1007D00000F00F0000000000F00FF00F0F0FF0000E
:1007E0000F0F0F00F0000000FF00000FF0000F0FD0
:1007F0000FFFF00000000F000F0F0FFFFFF00F00C2
:10080000FF000000F0FF00000F0F0F00F0000000DD
:10081000FF0F0F0F0FF0FF0F0F0F0F000F0F0F0045
:10082000FF000000FFFFF0F0F00000F00F0F0000ED
:100830000F00000000FF0000000000F00F000F0F8D
:100840000F0FFF000F0F0F00FF000000FF0FF0F071
:10085000F00FF00F0F0FF0000F0F0000000000F07E
:100860000F0FF0F0F0FFF00F0F0FF000000000008E
:100870000000000000000000000000000000000078
:100880000000000000000000000000000000000068
:0D089000000000000000000000000000005B
:01089D00005A
:02089E00D9CFB0
:1008A000E6FFE1CFD9FF030EE12659D8736A820E25
:1008B000726E739C94949396958C7288728A949EAF
:1008C000E66AD0D8E552E76E020EE7CFDBFF000004
:1008D000D950020FE96EDACFEAFFEF50070B02089A
:1008E00001E00000140EE66EBDD8E552E76E020E80
:1008F000E7CFDBFF020EDB96DB88020EDB80DB92AC
:10090000DB94020EDBCFE6FF140EE66E3AD8E5521A
:10091000E552010EE66EA6D8E552DE6EDD6A0000F5
:10092000110EE66E9FD8E552DE6EDD6A0000E66AC3
:10093000110EE66E26D8E552E5520000110EE66E65
:1009400091D8E552DE6EDD6A0000030EE15C02E242
:10095000E16AE552E16EE552E7CFD9FF1200550E8C
:10096000A76EAA0EA76E0E01FF91090ECC6F0A0E9C
:10097000D36F170EFB6F550EA76EAA0EA76EFF81E1
:100980001200D9CFE6FFE1CFD9FFE652DF6AFE0EB3
:10099000DB50140804E0FE0EDB50340806E1140EB0
:1009A000E66E60D8E552E00BDF6E8B9EA49EFE0ED5
:1009B000DB50756EA4AEFED7000000000000000002
:1009C0000000000000000000000000000000000027
:1009D0000000000000000000000000000000000017
:1009E0000000000000000000000000000000000007
:1009F00000000000000000000000000000000000F7
:100A000000000000000000000000000000000000E6
:100A100000000000000000000000000000000000D6
:100A200000000000000000000000000000000000C6
:100A30000000000000000000A49EFE0EDB500A082B
:100A400005E1FD0EDB507F0B756E04D0FD0EDB5013
:100A5000DF10756EA4AEFED78B8EE552E552E7CF60
:100A6000D9FF1200D9CFE6FFE1CFD9FF8B9EA49E1C
:100A7000FE0EDB508009756EA4AEFED700000000AC
:100A80000000000000000000000000000000000066
:100A90000000000000000000000000000000000056
:100AA0000000000000000000000000000000000046
:100AB0000000000000000000000000000000000036
:100AC0000000000000000000000000000000000026
:100AD0000000000000000000000000000000000016
:100AE0000000000000000000000000000000000006
:100AF000000000000000000000000000A49E756AD5
:100B0000A4AEFED78B8E755000D0E552E7CFD9FF4B
:020B10001200D1
:0E0B1200D9CFE6FFDACFE6FFE1CFD9FFE2CF81
:100B2000DAFFE652006801687F0E026E036AD95050
:100B3000FA0FE96EFF0EDA20EA6EEE500016EE5064
:100B40000116EE500216EE5003166AD800C0EEFFF2
:100B500001C0EEFF02C0EEFF03C0EEFFFD0EDB5052
:100B6000800B02E0010E01D0000EE66E59D8060E91
:100B7000E926000EEA22E552E750EF6EFC0EDBCFCD
:100B800000F0FD0EDBCF01F0D89000360136FC0EF0
:100B900000C0DBFFFD0E01C0DBFFDB50E66E40D87E
:100BA000040EE926000EEA22E552E750EE6EED6AE9
:100BB000FD0EDB50006E016AFF0E001818E10150B7
:100BC00016E12ED8EECF00F0EECF01F0EECF02F01E
:100BD000EFCF03F0005001100210031006E0210EC9
:100BE0000001AD6FAE6B800E0BD0040E09D0FD0E70
:100BF000DB5008E115D8EE6AEE6AEE6AEE6A010E85
:100C0000DF6E06D0020EDF6E0BD8EE52EE52EE8E85
:100C1000DF50E552E552E5CFDAFFE7CFD9FF12000A
:0E0C2000F80EDBCFE9FFF90EDBCFEAFF120082
:020C2E000001C3
:100C3000AFB122D0AF838B809490550EA76EAA0ED1
:100C4000A76E0E01FF910E0ED16F550EA76EAA0E64
:100C5000A76EFF810F0EBA6ECF0EBA140009BA6EDE
:100C6000BB6A0F01526B800ECB6E040ECA6EA49647
:100C7000600E776E7F0E766E12000001AF91AF931B
:100C80008B80949012000001AFA109D08B50010B12
:100C900004E19450010B01E1010CAF91C8DF0001A8
:100CA000AFA3C5DFA4A63AD0A496BA50300BE84251
:100CB000E842E842E842030819E1400EBB5C10E15B
:100CC0008B909490BA6ACA6A0E01D16B0F01526B75
:100CD000CB68766A7768A4960001AF81AF93010C68
:100CE000BB2ACF0EBA140009BA6E000CBA0EE96E18
:100CF0000F0EEA6EEF50300BE842E842E842E8425D
:100D0000E82AE850030BF36EF46EF346F346F3461D
:0E0D1000F346CF0EEF14F310EF6EF450000C0C
:020D1E00416C26
:100D200061726D005365742044617465005365748D
:100D30002054696D65003132482F32344820496EA5
:100D400074657276616C00446973706C6179204DD2
:100D50006F6465004F464600253032643A253032D4
:100D60006400416C61726D204D656E7500253032F6
:100D7000642F25303264005365742044617465200B
:100D80004D656E7500504D00414D00253032643A7E
:100D9000253032643A25303264005365742054693A
:100DA0006D65204D656E7500323448003132480063
:100DB000486F75727320496E74657276616C00417C
:100DC0006E616C6F6720436C6F636B004469676989
:100DD00074616C20436C6F636B00446973706C6169
:0C0DE00079204D6F6465204D656E750034
:040DEC00D9CFE6FF76
:100DF000DACFE6FFE1CFD9FFE2CFDAFFE652E652E3
:100E0000E652E652D950F90F006EFF0EDA20016E5D
:100E1000020E00C0DBFF030E01C0DBFF020EDBCFC2
:100E2000E6FF030EDBCFE6FFF90EDBCFE6FFFA0E9F
:100E3000DBCFE6FFFB0EDBCFE6FFD950FC0FE66E03
:100E4000FF0EDA20E66E47EC6DF0006E070EE15CF7
:100E500002E2E16AE552E16E0050F3CFDEFFF4CF2B
:100E6000DDFFFC0EDBCFE9FFFD0EDBCFEAFFEF6A13
:100E7000DECF00F0DDCF01F000C0F3FF01C0F4FFD2
:100E8000040EE15C02E2E16AE552E16EE552E5CF73
:080E9000DAFFE7CFD9FF1200E1
:080E98001E0EF66EA00EF76EAF
:100EA000000EF86E00010900F5509E6F0900F55024
:100EB0009F6F03E19E6701D03DD00900F550996F07
:100EC0000900F5509A6F0900F5509B6F0900090061
:100ED000F550E96E0900F550EA6E090009000900B5
:100EE000F5509C6F0900F5509D6F09000900F6CF81
:100EF000A0F0F7CFA1F0F8CFA2F099C0F6FF9AC00A
:100F0000F7FF9BC0F8FF00019C5302E19D5307E0EF
:100F10000900F550EE6E9C07F8E29D07F9D7A0C0D6
:100F2000F6FFA1C0F7FFA2C0F8FF00019E07000E68
:060F30009F5BBFD7120019
:0A0F3600D9CFE6FFDACFE6FFE1CFE6
:100F4000D9FFE2CFDAFFFB0EDBCF00F0FC0EDBCFE8
:100F500001F00001800E01141AE1FB0EDBCFE9FF66
:100F6000FC0EDBCFEAFFEECFF3FFEDCFF4FFEE2A6E
:100F7000000EEF22F3CFE9FFF4CFEAFFFD0EDBCF47
:100F8000EFFFEF50016AF36E01C0F4FF10D0FB0ECB
:100F9000DB50FE0806E1FD0EDBCFE6FFFCEC08F0BF
:100FA00005D0FD0EDBCFE6FF03EC50F0E552E55235
:0A0FB000E5CFDAFFE7CFD9FF12000A
:060FBA00FE0EE3CFE9FF8B
:100FC000FF0EE3CFEAFFF36AF46AEE5203E0F34A5E
:100FD000F42AFBD71200FF0EE3CFF8FFE552FF0E15
:100FE000E3CFF7FFE552FF0EE3CFF6FFE552E66AE7
:100FF000E66AE66A0900F55209E0FD0EE32A05E11A
:10100000FE0EE32A02E1FF0EE32AF4D7FD0EE3CF42
:101010001FF0FE0EE3CF20F0FF0EE3CF21F0120011
:10102000D9CFE6FFDACFE6FFE1CFD9FFE2CFDAFF93
:10103000E652E652D950FD0F006EFF0EDA2000C0D6
:10104000DEFFDD6EDECFE9FFDDCFEAFFEF9EFA0EB9
:10105000DBCF00F0FB0EDBCF01F0FC0EDBCF02F0AC
:10106000FD0EDBCF03F000C01EF001C01FF002C078
:1010700020F003C021F0E552E552E552E5CFDAFF5A
:06108000E7CFD9FF1200CA
:0A108600D9CFE6FFDACFE6FFE1CF95
:10109000D9FFE2CFDAFF010EE66ED950FA0FE96E02
:1010A000FF0EDA20EA6EEECFE6FFEECFE6FFEECFE0
:1010B000E6FFEFCFE6FF0FEC00F0006E050EE15CFF
:1010C00002E2E16AE552E16E0050E552E5CFDAFF57
:0610D000E7CFD9FF12007A
:0A10D600D9CFE6FFDACFE6FFE1CF45
:1010E000D9FFE2CFDAFFE66AD950FA0FE96EFF0EB8
:1010F000DA20EA6EEECFE6FFEECFE6FFEECFE6FFB8
:10110000EFCFE6FF0FEC00F0006E050EE15C02E2AF
:10111000E16AE552E16E0050E552E5CFDAFFE7CF34
:04112000D9FF1200E1
:0C1124001D6A1C6A1B6A1A6A200EE76E26
:10113000D8901E361F36203621361A361B361C36FE
:101140001D3623501A5C24501B5825501C5826501D
:101150001D5809E323501A5E24501B5A25501C5A6F
:0C11600026501D5A1E2AE72EE4D712006C
:04116C001D6A1C6A72
:10117000100EE76ED890203621361C361D362550CD
:101180001C5C26501D5805E325501C5E26501D5A38
:08119000202AE72EF0D712001F
:08119800F36AF46AFF0EE12482
:1011A000E96EFF0EE220EA6EED6607D02F0EEF64C7
:0C11B00004D03A0EEF6001D0F32A1200C8
:0411BC00C00EF36E00
:1011C00000EE00F00E0E01D81200EA6002D0EE6AC6
:0C11D000FCD7F350E9601200EE6AFCD777
:0411DC001DEE00F014
:1011E0002DEE00F0F86A199C4CEC07F003EC00F0CF
:0811F000A4EC6CF0FBD7120027
:0811F800FF0EE350ADBA04D074
:10120000B06AAC8EAD8A949CADA2FED7AE6EF36E82
:04121000F46A12006A
:0C121400303132333435363738396162FE
:05122000636465660037
:0B1225000000000000000000000001BD
:101230000001000100000000000041001F0020002C
:0912400000140000000000000091
:06A00000EEEF08F0120073
:02A00600120046
:06A008001CEF50F01200F5
:06A0180084EF50F012007D
:02A01E0002003E
:10A020002512000060000000240000009D080000D0
:08A03000AF0000000100000078
:08A03800DACFE4FFE2CFDAFF0A
:10A04000E9CFE4FFEACFE4FFF6CFE4FFF7CFE4FF88
:10A05000F5CFE4FFF3CFE4FFF4CFE4FFFACFE4FF62
:10A0600000EE18F0140EE80403E3EECFE4FFFBD794
:10A0700000EE00F0180EE80403E3EECFE4FFFBD798
:10A08000E652F2A41DD0480ED76EE30ED66E000144
:10A090007B5113E07E5102E0A60E01D0A70EE66EC2
:10A0A0002CEC74F0E55200017E5102E0000E01D06C
:10A0B000010E7E6F7C07000E7D5B11EC67F0F29461
:10A0C000E55200EE17F0180EE80403E3E5CFEDFFCC
:10A0D000FBD700EE2BF0140EE80403E3E5CFEDFF11
:10A0E000FBD7E5CFFAFFE5CFF4FFE5CFF3FFE5CFF0
:10A0F000F5FFE5CFF7FFE5CFF6FFE5CFEAFFE5CFC8
:10A10000E9FFE5CFDAFF1100D8CFE4FFE0CFE4FFAD
:10A11000E46EDACFE4FFE2CFDAFFE652E552E5CFB4
:10A12000DAFFE550E5CFE0FFE5CFD8FF1000F5EC12
:10A130007EF060EC7FF04FEC04F06FEC73F0E66AB9
:10A1400054EC74F0E552120043EC06F0000901E112
:10A15000FBD70F014869496997EF50F081B01FD0D4
:10A16000000180C000F081C001F082C002F083C015
:10A1700003F0802B000E812382238323D8800A0ED4
:10A180000054000E0154000E0254000E035406E267
:10A19000806B816B826B836B010E7F6F11D000012E
:10A1A0007F050EE1805181118211831104E17F6BE3
:10A1B000010E08D005D08007000E815B825B835BB7
:10A1C000000E00D01200D9CFE6FFE1CFD9FF020E7A
:10A1D000E126DE6ADD6A130EC26EC450026E02C052
:10A1E00003F0026AC35000010224006E000E032037
:10A1F000016E00C0DEFF01C0DDFFDECF00F0DDCF6D
:10A2000001F0800E011411E1DECF02F0DDCF03F08A
:10A21000D890035004E6CC0E025C000E035805E211
:10A22000020EF36EF46A5CD05BD0DECF00F0DDCFBF
:10A2300001F0D890015004E6CC0E005C000E0158ED
:10A2400011E3DECF02F0DDCF03F0D890035004E637
:10A25000940E025C010E035805E2030EF36EF46ADD
:10A260003FD03ED0DECF00F0DDCF01F0D8900150DE
:10A2700004E6940E005C010E015811E3DECF02F0FB
:10A28000DDCF03F0D890035004E65E0E025C020EB0
:10A29000035805E2040EF36EF46A22D021D0DECF1B
:10A2A00000F0DDCF01F0D890015004E65E0E005CB6
:10A2B000020E015811E3DECF02F0DDCF03F0D8909B
:10A2C000035004E6280E025C030E035805E2050E57
:10A2D000F36EF46A05D004D0060EF36EF46A00D073
:10A2E000020EE15C02E2E16AE552E16EE552E7CF7F
:10A2F000D9FF1200D9CFE6FFE1CFD9FFFD0EDBCFAA
:10A3000020F0FE0EDBCF21F0020E201801E12150DB
:10A310004EE0010E201801E1215027E0205001E11C
:10A32000215001E066D01E0EE66EB40EE66E5F0EA2
:10A33000E66E2AEC75F0E552E552E552210EE66E26
:10A34000B40EE66E5F0EE66E2AEC75F0E552E5524D
:10A35000E552240EE66EB40EE66E5F0EE66E2AEC53
:10A3600075F0E552E552E55244D02F0EE66EB40E7C
:10A37000E66E5F0EE66E2AEC75F0E552E552E552A8
:10A38000320EE66EB40EE66E5F0EE66E2AEC75F0E7
:10A39000E552E552E552350EE66EB40EE66E5F0EFE
:10A3A000E66E2AEC75F0E552E552E55222D0410EF8
:10A3B000E66EB40EE66E5F0EE66E2AEC75F0E552C0
:10A3C000E552E552440EE66EB40EE66E5F0EE66EA2
:10A3D0002AEC75F0E552E552E552470EE66EB40EF2
:10A3E000E66E5F0EE66E2AEC75F0E552E552E55238
:10A3F00000D0E552E7CFD9FF1200D9CFE6FFE1CF79
:10A40000D9FF090EE126010EF36E060EF3CFDBFF36
:10A41000070EDB6A010EF36E080EF3CFDBFF080EAA
:10A42000DB502FE0E66A54EC74F0E552120EE66E53
:10A43000E66ADA0EE66E0D0EE66E56EC75F0E55243
:10A44000E552E552E552120EE66E030EE66ECC0EB4
:10A45000E66E0D0EE66E56EC75F0E552E552E552ED
:10A46000E552120EE66E050EE66EBF0EE66E0D0E9E
:10A47000E66E56EC75F0E552E552E552E552080EEF
:10A48000DB6AD950060FE96EDACFEAFF010EEE184B
:10A4900001E1ED5011E1040EE66EE66AE66A000E97
:10A4A000E66EE66A030EE66EE6680CEC77F0006E88
:10A4B000070EE15E005010D0040EE66EE66AE66A12
:10A4C000000EE66EE66A050EE66EE6680CEC77F0C6
:10A4D000006E070EE15E005041DE000911E0D95028
:10A4E000060FE96EDACFEAFF010EEE1801E1ED503A
:10A4F00004E10001010E6E6F02D000016E6BC2D04C
:10A5000060EC7FF0010EE66EF8EC7EF0E552040E92
:10A51000F3CFDBFF050EF4CFDBFF040EDBCF00F043
:10A52000050EDBCF01F0D890015004E6840E005CEC
:10A53000030E01581BE2040EDBCF00F0050EDBCF4B
:10A5400001F0D890015004E6840E005C030E01581F
:10A550000CE2010EE66EF8EC7EF0E552040EF3CF4D
:10A56000DBFF050EF4CFDBFFE6D78CD0E66AF8EC14
:10A570007EF0E552F3CFDEFFF4CFDDFF030EE66E93
:10A58000F8EC7EF0E552020EF3CFDBFF030EF4CFC2
:10A59000DBFFDECF00F0DDCF01F0D890015004E604
:10A5A000840E005C030E01582DE2DECF00F0DDCFFB
:10A5B00001F0D890015004E6840E005C030E0158AF
:10A5C00009E2E66AF8EC7EF0E552F3CFDEFFF4CF65
:10A5D000DDFFEBD7060EDBCF00F0070EDBCF01F07F
:10A5E000D890015004E6020E005C000E01580AE209
:10A5F000060EDB2A070E01E3DB2A010EF36E080EBE
:10A60000F3CFDBFF020EDBCF00F0030EDBCF01F058
:10A61000D890015004E6840E005C030E015831E22C
:10A62000020EDBCF00F0030EDBCF01F0D89001501B
:10A6300004E6840E005C030E01580CE2030EE66E85
:10A64000F8EC7EF0E552020EF3CFDBFF030EF4CF01
:10A65000DBFFE6D7060EDBCF00F0070EDBCF01F005
:10A66000013404E200500108000E01540AE2060E13
:10A67000DB06070E01E2DB06010EF36E080EF3CFD8
:10A68000DBFFCDD6090EE15C02E2E16AE552E16E44
:10A69000E552E7CFD9FF1200D9CFE6FFE1CFD9FFCE
:10A6A000090EE126010EF36E060EF3CFDBFF070E57
:10A6B000DB6A010EF36E080EF3CFDBFF080EDB50F2
:10A6C0002FE0E66A54EC74F0E552120EE66EE66A8C
:10A6D000B00EE66E0D0EE66E56EC75F0E552E552E4
:10A6E000E552E552120EE66E030EE66EAC0EE66E15
:10A6F0000D0EE66E56EC75F0E552E552E552E55268
:10A70000120EE66E050EE66EA80EE66E0D0EE66EF5
:10A7100056EC75F0E552E552E552E552080EDB6A5B
:10A72000D950060FE96EDACFEAFF010EEE1801E10B
:10A73000ED5011E1040EE66EE66AE66A000EE66E82
:10A74000E66A030EE66EE6680CEC77F0006E070E24
:10A75000E15E005010D0040EE66EE66AE66A000E76
:10A76000E66EE66A050EE66EE6680CEC77F0006EC3
:10A77000070EE15E0050F2DC000913E0D950060F2D
:10A78000E96EDACFEAFF010EEE1801E1ED5004E1C7
:10A790000001010E706F02D00001706B7EEC68F05A
:10A7A000C2D060EC7FF0010EE66EF8EC7EF0E55270
:10A7B000040EF3CFDBFF050EF4CFDBFF040EDBCF7F
:10A7C00000F0050EDBCF01F0D890015004E6840EB6
:10A7D000005C030E01581BE2040EDBCF00F0050EF7
:10A7E000DBCF01F0D890015004E6840E005C030E2C
:10A7F00001580CE2010EE66EF8EC7EF0E552040E14
:10A80000F3CFDBFF050EF4CFDBFFE6D78CD0E66A93
:10A81000F8EC7EF0E552F3CFDEFFF4CFDDFF030E60
:10A82000E66EF8EC7EF0E552020EF3CFDBFF030E8E
:10A83000F4CFDBFFDECF00F0DDCF01F0D890015088
:10A8400004E6840E005C030E01582DE2DECF00F01A
:10A85000DDCF01F0D890015004E6840E005C030EB9
:10A86000015809E2E66AF8EC7EF0E552F3CFDEFF2C
:10A87000F4CFDDFFEBD7060EDBCF00F0070EDBCF0A
:10A8800001F0D890015004E6020E005C000E015861
:10A890000AE2060EDB2A070E01E3DB2A010EF36E45
:10A8A000080EF3CFDBFF020EDBCF00F0030EDBCF91
:10A8B00001F0D890015004E6840E005C030E0158AC
:10A8C00031E2020EDBCF00F0030EDBCF01F0D890B7
:10A8D000015004E6840E005C030E01580CE2030EE6
:10A8E000E66EF8EC7EF0E552020EF3CFDBFF030ECE
:10A8F000F4CFDBFFE6D7060EDBCF00F0070EDBCF91
:10A9000001F0013404E200500108000E01540AE293
:10A91000060EDB06070E01E2DB06010EF36E080EE3
:10A92000F3CFDBFFCBD6090EE15C02E2E16AE55230
:10A93000E16EE552E7CFD9FF1200D9CFE6FFE1CFB4
:10A94000D9FF1B0EE126120EDB6A130EDB6A010E25
:10A95000F36E140EF3CFDBFF150EDB6A160EDB6A07
:10A96000170EDB6A180EDB6A190EDB6A1A0EDB6A39
:10A97000150E60C0DBFF160E61C0DBFF170E62C054
:10A98000DBFF180E63C0DBFF190E64C0DBFF1A0E7D
:10A9900065C0DBFF140EDB506CE0E66A54EC74F02B
:10A9A000E552190EE66EE66A9A0EE66E0D0EE66E3A
:10A9B00056EC75F0E552E552E552E552190EDBCF43
:10A9C000E6FF1A0EDBCFE6FF170EDBCFE6FF180E11
:10A9D000DBCFE6FF150EDBCFE6FF160EDBCFE6FF83
:10A9E0008B0E006E0D0E016E026A00C0E6FF01C004
:10A9F000E6FF02C0E6FFD950080FE66E000EDA202F
:10AA0000E66EF6EC06F0036E0B0EE15E03501E0ED2
:10AA1000E66E030EE66ED950080FE66E000EDA20E1
:10AA2000E66E90EC75F0E552E552E552E552000114
:10AA300070511FE071510FE0540EE66E030EE66E8A
:10AA4000880EE66E0D0EE66E56EC75F0E552E55298
:10AA5000E552E5520ED0540EE66E030EE66E850EFC
:10AA6000E66E0D0EE66E56EC75F0E552E552E552D7
:10AA7000E552120EDBCFE6FF130EDBCFE6FF3ADC2A
:10AA8000E552E552AEEC50F000091AE0150EDBCFAE
:10AA900060F0160EDBCF61F0170EDBCF62F0180E00
:10AAA000DBCF63F0190EDBCF64F01A0EDBCF65F05D
:10AAB0000001010E726F1B0EE15C01E38FD28CD29C
:10AAC00060EC7FF0E66AF8EC7EF0E552F3CFDEFF53
:10AAD000F4CFDDFF030EE66EF8EC7EF0E552020ED9
:10AAE000F3CFDBFF030EF4CFDBFFDECF00F0DDCFD3
:10AAF00001F0D890015004E6840E005C030E01586A
:10AB00002DE2DECF00F0DDCF01F0D890015004E659
:10AB1000840E005C030E015809E2E66AF8EC7EF050
:10AB2000E552F3CFDEFFF4CFDDFFEBD7120EDBCF24
:10AB300000F0130EDBCF01F0D890015004E6020EB6
:10AB4000005C000E01580AE2120EDB2A130E01E32C
:10AB5000DB2A010EF36E140EF3CFDBFF020EDBCF08
:10AB600000F0030EDBCF01F0D890015004E6840E14
:10AB7000005C030E015831E2020EDBCF00F0030E41
:10AB8000DBCF01F0D890015004E6840E005C030E88
:10AB900001580CE2030EE66EF8EC7EF0E552020E70
:10ABA000F3CFDBFF030EF4CFDBFFE6D7120EDBCFD4
:10ABB00000F0130EDBCF01F0013404E20050000876
:10ABC000000E01540AE2120EDB06130E01E2DB0650
:10ABD000010EF36E140EF3CFDBFF60EC7FF0010E7D
:10ABE000E66EF8EC7EF0E552040EF3CFDBFF050EC7
:10ABF000F4CFDBFF020EE66EF8EC7EF0E552060EB7
:10AC0000F3CFDBFF070EF4CFDBFF040EDBCF00F04A
:10AC1000050EDBCF01F0D890015004E6200E005C59
:10AC2000030E01580FE3060EDBCF02F0070EDBCF59
:10AC300003F0D890035004E6200E025C030E035884
:10AC400001E3C9D1040EDBCF00F0050EDBCF01F02C
:10AC5000060EDBCF02F0070EDBCF03F00150031826
:10AC6000E8AE02D0033404D00250005C0350015817
:10AC700001E399D0120EDBCF20F0130EDBCF21F0D1
:10AC8000020E201801E1215073E0010E201801E1AD
:10AC9000215054E0205001E1215001E083D0000117
:10ACA000705129E1D950150FE96EDACFEAFF170E7E
:10ACB000EE1801E1ED5007E1150EDB6A160EDB6AB6
:10ACC000010E716F17D0150EDB2A160E01E3DB2A79
:10ACD000150EDBCF00F0160EDBCF01F0D89001503F
:10ACE00004E60C0E005C000E015802E3716B02D00A
:10ACF000010E716F1DD0D950150FE96EDACFEAFF42
:10AD00000C0EEE1801E1ED500EE1010EF36E150E82
:10AD1000F3CFDBFF160EDB6A715102E0716B02D0DC
:10AD2000010E716F05D0150EDB2A160E01E3DB2A2A
:10AD3000010EF36E140EF3CFDBFF34D0D950170F92
:10AD4000E96EDACFEAFF3B0EEE1801E1ED5005E1C6
:10AD5000170EDB6A180EDB6A05D0170EDB2A180EF9
:10AD600001E3DB2A010EF36E140EF3CFDBFF1AD0E2
:10AD7000D950190FE96EDACFEAFF3B0EEE1801E168
:10AD8000ED5005E1190EDB6A1A0EDB6A05D0190ECB
:10AD9000DB2A1A0E01E3DB2A010EF36E140EF3CF49
:10ADA000DBFF00D0F3D0120EDBCF20F0130EDBCF91
:10ADB00021F0020E201801E1215001E1C7D0010E5F
:10ADC000201801E1215001E1A1D0205001E12150E2
:10ADD00001E0DCD00001705166E1150EDBCF00F020
:10ADE000160EDBCF01F0013404E200500D08000E16
:10ADF000015406E2150EDB06160E01E2DB0652D008
:10AE0000D950150FE96EDACFEAFF0D0EEE1801E109
:10AE1000ED5008E1150EDB06160E01E2DB06010E11
:10AE2000716F40D0150EDBCF00F0160EDBCF01F0B6
:10AE3000013404E200500C08000E015413E3150E17
:10AE4000DBCF02F0160EDBCF03F0033404E2025036
:10AE50000108000E035406E2150EDB06160E01E291
:10AE6000DB0620D0D950150FE96EDACFEAFF010ECC
:10AE7000EE1801E1ED5007E1150EDB06160E01E2BA
:10AE8000DB06716B0FD0D950150FE96EDACFEAFFF0
:10AE9000EE50ED1007E1170EF36E150EF3CFDBFF4A
:10AEA000160EDB6A2DD0150EDBCF00F0160EDBCFB1
:10AEB00001F0013404E200500C08000E015413E3C9
:10AEC000150EDBCF02F0160EDBCF03F0033404E2E5
:10AED00002500108000E035406E2150EDB06160EA2
:10AEE00001E2DB060DD00C0EF36E150EF3CFDBFF87
:10AEF000160EDB6A715102E0716B02D0010E716FA8
:10AF0000010EF36E140EF3CFDBFF40D0170EDBCF34
:10AF100000F0180EDBCF01F0013404E2005000080D
:10AF2000000E015406E2170EDB06180E01E2DB06E6
:10AF300007D03B0EF36E170EF3CFDBFF180EDB6A64
:10AF4000010EF36E140EF3CFDBFF20D0190EDBCF12
:10AF500000F01A0EDBCF01F0013404E200500008CB
:10AF6000000E015406E2190EDB061A0E01E2DB06A2
:10AF700007D03B0EF36E190EF3CFDBFF1A0EDB6A20
:10AF8000010EF36E140EF3CFDBFF00D0040EDBCF07
:10AF900000F0050EDBCF01F0D890015004E6200E42
:10AFA000005C030E015817E2010EE66EF8EC7EF02D
:10AFB000E552040EF3CFDBFF050EF4CFDBFF020EEC
:10AFC000E66EF8EC7EF0E552060EF3CFDBFF070EDF
:10AFD000F4CFDBFFDBD7DED4E16AE552E16EE55268
:10AFE000E7CFD9FF1200D9CFE6FFE1CFD9FF190E85
:10AFF000E126080EDB6A090EDB6A010EF36E140E01
:10B00000F3CFDBFF150EDB6A160EDB6A170EDB6A69
:10B01000180EDB6A150E6AC0DBFF160E6BC0DBFF75
:10B02000170E6CC0DBFF180E6DC0DBFF140EDB507B
:10B0300044E0E66A54EC74F0E552190EE66EE66AF6
:10B04000770EE66E0D0EE66E56EC75F0E552E552A3
:10B05000E552E552170EDBCFE6FF180EDBCFE6FF19
:10B06000150EDBCFE6FF160EDBCFE6FF6D0E006E92
:10B070000D0E016E026A00C0E6FF01C0E6FF02C0CD
:10B08000E6FFD9500A0FE66E000EDA20E66EF6EC07
:10B0900006F0036E090EE15E03501E0EE66E030E0F
:10B0A000E66ED9500A0FE66E000EDA20E66E90ECDE
:10B0B00075F0E552E552E552E552080EDBCFE6FFAA
:10B0C000090EDBCFE6FF7AEC51F0E552E552AEEC2B
:10B0D00050F0000913E0150EDBCF6AF0160EDBCF3F
:10B0E0006BF0170EDBCF6CF0180EDBCF6DF0190E86
:10B0F000E15C02E379EF5CF077EF5CF060EC7FF00D
:10B10000E66AF8EC7EF0E552F3CFDEFFF4CFDDFF28
:10B11000030EE66EF8EC7EF0E552020EF3CFDBFF95
:10B12000030EF4CFDBFFDECF00F0DDCF01F0D890CF
:10B13000015004E6840E005C030E01582DE2DECFC0
:10B1400000F0DDCF01F0D890015004E6840E005CE1
:10B15000030E015809E2E66AF8EC7EF0E552F3CFFF
:10B16000DEFFF4CFDDFFEBD7080EDBCF00F0090EDA
:10B17000DBCF01F0D890015004E6010E005C000E18
:10B1800001580AE2080EDB2A090E01E3DB2A010E50
:10B19000F36E140EF3CFDBFF020EDBCF00F0030ED5
:10B1A000DBCF01F0D890015004E6840E005C030E62
:10B1B000015831E2020EDBCF00F0030EDBCF01F0CD
:10B1C000D890015004E6840E005C030E01580CE296
:10B1D000030EE66EF8EC7EF0E552020EF3CFDBFFD5
:10B1E000030EF4CFDBFFE6D7080EDBCF00F0090E2D
:10B1F000DBCF01F0013404E200500008000E0154DE
:10B200000AE2080EDB06090E01E2DB06010EF36E10
:10B21000140EF3CFDBFF010EE66EF8EC7EF0E55284
:10B22000040EF3CFDBFF050EF4CFDBFF020EE66E5C
:10B23000F8EC7EF0E552060EF3CFDBFF070EF4CFFD
:10B24000DBFF040EDBCF00F0050EDBCF01F0D89062
:10B25000015004E6200E005C030E01580FE3060EB9
:10B26000DBCF02F0070EDBCF03F0D890035004E6EB
:10B27000200E025C030E035801E337D3040EDBCF2C
:10B2800000F0050EDBCF01F0060EDBCF02F0070E5B
:10B29000DBCF03F001500318E8AE02D0033404D032
:10B2A0000250005C0350015801E3BDD1080EDBCF12
:10B2B00020F0090EDBCF21F0010E201801E1215012
:10B2C00001E155D1205001E1215001E0ABD1170E31
:10B2D000DBCF20F0180EDBCF21F0020E201801E1A9
:10B2E000215001E1E8D0040E201801E1215001E1D4
:10B2F0008CD0060E201801E1215001E186D0090E04
:10B30000201801E1215001E180D00B0E201801E14D
:10B31000215001E17AD0010E201801E121501FE0F7
:10B32000030E201801E121501AE0050E201801E15A
:10B33000215015E0070E201801E1215010E0080E01
:10B34000201801E121500BE00A0E201801E12150E4
:10B3500006E00C0E201801E1215001E002D1D95085
:10B36000150F026EDACF03F0020E206E216A080E6E
:10B37000DBCF25F0090EDBCF26F0EAEC7CF00250A3
:10B380001E24E96E03501F20EA6EEECF00F0EFCFCF
:10B3900001F0D890015004E61F0E005C000E015829
:10B3A0001AE2D950150F006EDACF01F0020E206EAE
:10B3B000216A080EDBCF25F0090EDBCF26F0EAEC80
:10B3C0007CF000501E24E96E01501F20EA6EEE2A28
:10B3D000000EEF2219D0D950150F006EDACF01F010
:10B3E000020E206E216A080EDBCF25F0090EDBCF9E
:10B3F00026F0EAEC7CF000501E24E96E01501F207C
:10B40000EA6E010EEE6EED6AACD0D950150F026EE9
:10B41000DACF03F0020E206E216A080EDBCF25F092
:10B42000090EDBCF26F0EAEC7CF002501E24E96E18
:10B4300003501F20EA6EEECF00F0EFCF01F0D8905E
:10B44000015004E61E0E005C000E01581AE2D950AD
:10B45000150F006EDACF01F0020E206E216A080E81
:10B46000DBCF25F0090EDBCF26F0EAEC7CF00050B4
:10B470001E24E96E01501F20EA6EEE2A000EEF2214
:10B4800019D0D950150F006EDACF01F0020E206EE0
:10B49000216A080EDBCF25F0090EDBCF26F0EAEC9F
:10B4A0007CF000501E24E96E01501F20EA6E010E50
:10B4B000EE6EED6A56D0D950150F026EDACF03F05A
:10B4C000020E206E216A080EDBCF25F0090EDBCFBD
:10B4D00026F0EAEC7CF002501E24E96E03501F2097
:10B4E000EA6EEECF00F0EFCF01F0D890015004E605
:10B4F0001C0E005C000E01581AE2D950150F006EA8
:10B50000DACF01F0020E206E216A080EDBCF25F0A3
:10B51000090EDBCF26F0EAEC7CF000501E24E96E29
:10B5200001501F20EA6EEE2A000EEF2219D0D950EA
:10B53000150F006EDACF01F0020E206E216A080EA0
:10B54000DBCF25F0090EDBCF26F0EAEC7CF00050D3
:10B550001E24E96E01501F20EA6E010EEE6EED6AA8
:10B5600000D0010EF36E140EF3CFDBFF5BD0D95089
:10B57000150F026EDACF03F0020E206E216A080E5C
:10B58000DBCF25F0090EDBCF26F0EAEC7CF0025091
:10B590001E24E96E03501F20EA6EEECF00F0EFCFBD
:10B5A00001F0D890015004E60C0E005C000E01582A
:10B5B0001AE2D950150F006EDACF01F0020E206E9C
:10B5C000216A080EDBCF25F0090EDBCF26F0EAEC6E
:10B5D0007CF000501E24E96E01501F20EA6EEE2A16
:10B5E000000EEF2219D0D950150F006EDACF01F0FE
:10B5F000020E206E216A080EDBCF25F0090EDBCF8C
:10B6000026F0EAEC7CF000501E24E96E01501F2069
:10B61000EA6E010EEE6EED6A010EF36E140EF3CFBC
:10B62000DBFF00D03DD1080EDBCF20F0090EDBCFD1
:10B6300021F0010E201801E1215001E1D7D0205066
:10B6400001E1215001E02CD1D950150F026EDACF63
:10B6500003F0020E206E216A080EDBCF25F0090EE2
:10B66000DBCF26F0EAEC7CF002501E24E96E03509A
:10B670001F20EA6EEECF00F0EFCF01F0013404E2BC
:10B6800000500108000E01541AE2D950150F006E47
:10B69000DACF01F0020E206E216A080EDBCF25F012
:10B6A000090EDBCF26F0EAEC7CF000501E24E96E98
:10B6B00001501F20EA6EEE06000EEF5A91D0170ED1
:10B6C000DBCF20F0180EDBCF21F0020E201801E1B5
:10B6D00021506CE0040E201801E121504DE0060ECF
:10B6E000201801E1215048E0090E201801E1215005
:10B6F00043E00B0E201801E121503EE0010E20181E
:10B7000001E121501FE0030E201801E121501AE051
:10B71000050E201801E1215015E0070E201801E167
:10B72000215010E0080E201801E121500BE00A0E14
:10B73000201801E1215006E00C0E201801E12150F3
:10B7400001E04ED0D950150F006EDACF01F0020E95
:10B75000206E216A080EDBCF25F0090EDBCF26F024
:10B76000EAEC7CF000501E24E96E01501F20EA6EC6
:10B770001F0EEE6EED6A34D0D950150F006EDACF81
:10B7800001F0020E206E216A080EDBCF25F0090EB3
:10B79000DBCF26F0EAEC7CF000501E24E96E01506D
:10B7A0001F20EA6E1E0EEE6EED6A1AD0D950150FEC
:10B7B000006EDACF01F0020E206E216A080EDBCF98
:10B7C00025F0090EDBCF26F0EAEC7CF000501E24B9
:10B7D000E96E01501F20EA6E1C0EEE6EED6A00D07D
:10B7E000010EF36E140EF3CFDBFF5AD0D950150FB4
:10B7F000026EDACF03F0020E206E216A080EDBCF54
:10B8000025F0090EDBCF26F0EAEC7CF002501E2476
:10B81000E96E03501F20EA6EEECF00F0EFCF01F08B
:10B82000013404E200500108000E01541AE2D9501C
:10B83000150F006EDACF01F0020E206E216A080E9D
:10B84000DBCF25F0090EDBCF26F0EAEC7CF00050D0
:10B850001E24E96E01501F20EA6EEE06000EEF5A1C
:10B8600019D0D950150F006EDACF01F0020E206EFC
:10B87000216A080EDBCF25F0090EDBCF26F0EAECBB
:10B880007CF000501E24E96E01501F20EA6E0C0E61
:10B89000EE6EED6A010EF36E140EF3CFDBFF00D0F7
:10B8A000040EDBCF00F0050EDBCF01F0D890015085
:10B8B00004E6200E005C030E015817E2010EE66E4E
:10B8C000F8EC7EF0E552040EF3CFDBFF050EF4CF6B
:10B8D000DBFF020EE66EF8EC7EF0E552060EF3CFCB
:10B8E000DBFF070EF4CFDBFFDBD716EF58F0E16A82
:10B8F000E552E16EE552E7CFD9FF1200D9CFE6FF5E
:10B90000E1CFD9FF170EE126010EF36E120EF3CF31
:10B91000DBFF130EDB6A140EDB6A150EDB6A010E09
:10B92000F36E160EF3CFDBFF160EDB5072E0E66A05
:10B9300054EC74F0E5521E0EE66EE66A620EE66E98
:10B940000D0EE66E56EC75F0E552E552E552E55205
:10B9500068C0E6FF69C0E6FF66C0E6FF67C0E6FFB5
:10B96000580E006E0D0E016E026A00C0E6FF01C0A7
:10B97000E6FF02C0E6FFD950080FE66E000EDA209F
:10B98000E66EF6EC06F0036E090EE15E03501E0E45
:10B99000E66E030EE66ED950080FE66E000EDA2052
:10B9A000E66E90EC75F0E552E552E552E552120E66
:10B9B000E66E050EE66E540EE66E0D0EE66E56EC65
:10B9C00075F0E552E552E552E552000170511FE075
:10B9D00071510FE0540EE66E030EE66E880EE66EB1
:10B9E0000D0EE66E56EC75F0E552E552E552E55265
:10B9F0000ED0540EE66E030EE66E850EE66E0D0E4C
:10BA0000E66E56EC75F0E552E552E552E552160E3B
:10BA1000DB6AD950120FE96EDACFEAFF010EEE1899
:10BA200001E1ED500BE1140EDBCFE6FF150EDBCF8D
:10BA3000E6FF7AEC51F0E552E55210D0040EE66EC6
:10BA4000E66AE66A000EE66EE66A050EE66EE668EF
:10BA50000CEC77F0006E070EE15E0050AEEC50F09B
:10BA600000091AE0D950120FE96EDACFEAFF010E91
:10BA7000EE1801E1ED5004E10001010E6F6F07D0F7
:10BA800000016F6B7B5102E0000E01D0010E170E1A
:10BA9000E15C01E383D280D2D950120FE96EDACF94
:10BAA000EAFF010EEE1801E1ED5001E0E9D160EC92
:10BAB0007FF0E66AF8EC7EF0E552F3CFDEFFF4CFDC
:10BAC000DDFF030EE66EF8EC7EF0E552020EF3CFDA
:10BAD000DBFF030EF4CFDBFFDECF00F0DDCF01F0A4
:10BAE000D890015004E6840E005C030E01583EE23B
:10BAF000DECF00F0DDCF01F0D890015004E6840ED7
:10BB0000005C030E015809E2E66AF8EC7EF0E552AB
:10BB1000F3CFDEFFF4CFDDFFEBD7140EDBCF00F069
:10BB2000150EDBCF01F0D890015004E6020E005C48
:10BB3000000E01581BE2140EDB2A150E01E3DB2A6E
:10BB4000010EF36E160EF3CFDBFFD950140FE96E22
:10BB5000DACFEAFF020EEE1801E1ED5007E1020E26
:10BB6000F36E120EF3CFDBFF130EDB6A020EDBCF98
:10BB700000F0030EDBCF01F0D890015004E6840EF4
:10BB8000005C030E015831E2020EDBCF00F0030E21
:10BB9000DBCF01F0D890015004E6840E005C030E68
:10BBA00001580CE2030EE66EF8EC7EF0E552020E50
:10BBB000F3CFDBFF030EF4CFDBFFE6D7140EDBCFB2
:10BBC00000F0150EDBCF01F0013404E20050000854
:10BBD000000E01540AE2140EDB06150E01E2DB062C
:10BBE000010EF36E160EF3CFDBFF010EE66EF8ECDE
:10BBF0007EF0E552040EF3CFDBFF050EF4CFDBFF42
:10BC0000020EE66EF8EC7EF0E552060EF3CFDBFF97
:10BC1000070EF4CFDBFF040EDBCF00F0050EDBCF09
:10BC200001F0D890015004E6200E005C030E01588C
:10BC30000FE3060EDBCF02F0070EDBCF03F0D89048
:10BC4000035004E6200E025C030E035801E317D1F3
:10BC5000040EDBCF00F0050EDBCF01F0060EDBCFCC
:10BC600002F0070EDBCF03F001500318E8AE02D05C
:10BC7000033404D00250005C0350015859E2140E02
:10BC8000DBCF20F0150EDBCF21F0010E201801E1F3
:10BC900021503BE0205001E1215001E048D000015B
:10BCA00070511BE1170E661901E1675105E1666BE2
:10BCB000676B010E716F10D0662B000E67230C0EA0
:10BCC00067AF02D0D89003D0665D000E675902E3DB
:10BCD000716B02D0010E716F12D00C0E661901E16A
:10BCE00067510AE1010E666F676B715102E0716B7B
:10BCF00002D0010E716F03D0662B000E6723010E78
:10BD0000F36E160EF3CFDBFF12D000013B0E681965
:10BD100001E1695103E1686B696B03D0682B000E88
:10BD20006923010EF36E160EF3CFDBFF00D082D035
:10BD3000140EDBCF20F0150EDBCF21F0010E201802
:10BD400001E1215062E0205001E1215001E072D078
:10BD50000001705139E1673504E266510D08000EAB
:10BD6000675504E26607000E675B2DD00D0E66195D
:10BD700001E1675106E16607000E675B010E716F16
:10BD800022D0673504E266510C08000E67550BE3BC
:10BD9000673504E266510108000E675504E2660744
:10BDA000000E675B10D0010E661901E1675105E1D5
:10BDB0006607000E675B716B06D06651671103E181
:10BDC000170E666F676B1BD0673504E266510C086F
:10BDD000000E67550BE3673504E266510108000E5B
:10BDE000675504E26607000E675B09D00C0E666FAC
:10BDF000676B715102E0716B02D0010E716F010E21
:10BE0000F36E160EF3CFDBFF15D00001693504E2A7
:10BE100068510008000E695504E26807000E695B6E
:10BE200003D03B0E686F696B010EF36E160EF3CFF5
:10BE3000DBFF00D0040EDBCF00F0050EDBCF01F0FE
:10BE4000D890015004E6200E005C030E015817E262
:10BE5000010EE66EF8EC7EF0E552040EF3CFDBFF48
:10BE6000050EF4CFDBFF020EE66EF8EC7EF0E55235
:10BE7000060EF3CFDBFF070EF4CFDBFFDBD78BD053
:10BE8000E66AF8EC7EF0E552F3CFDEFFF4CFDDFF9B
:10BE9000030EE66EF8EC7EF0E552020EF3CFDBFF08
:10BEA000030EF4CFDBFFDECF00F0DDCF01F0D89042
:10BEB000015004E6840E005C030E01582DE2DECF33
:10BEC00000F0DDCF01F0D890015004E6840E005C54
:10BED000030E015809E2E66AF8EC7EF0E552F3CF72
:10BEE000DEFFF4CFDDFFEBD7120EDBCF00F0130E39
:10BEF000DBCF01F0D890015004E6020E005C000E8A
:10BF000001580AE2120EDB2A130E01E3DB2A010EAE
:10BF1000F36E160EF3CFDBFF020EDBCF00F0030E45
:10BF2000DBCF01F0D890015004E6840E005C030ED4
:10BF3000015831E2020EDBCF00F0030EDBCF01F03F
:10BF4000D890015004E6840E005C030E01580CE208
:10BF5000030EE66EF8EC7EF0E552020EF3CFDBFF47
:10BF6000030EF4CFDBFFE6D7120EDBCF00F0130E8B
:10BF7000DBCF01F0013404E200500108000E01544F
:10BF80000AE2120EDB06130E01E2DB06010EF36E6F
:10BF9000160EF3CFDBFFC8D4E16AE552E16EE5523D
:10BFA000E7CFD9FF1200D9CFE6FFE1CFD9FFFD0ED1
:10BFB000DBCF20F0FE0EDBCF21F0060E201801E1D2
:10BFC000215021E0050E201801E1215019E0040E56
:10BFD000201801E1215011E0030E201801E1215049
:10BFE00009E0020E201801E1215001E00ED0FDEC25
:10BFF00051F00BD04CEC53F008D09DEC54F005D030
:10C00000F3EC57F002D07ADC00D0E66A54EC74F01E
:10C01000E552E552E7CFD9FF1200D9CFE6FFE1CFD5
:10C02000D9FF0A0EE126F29A0001705112E0613543
:10C0300004E260510C08000E615505E20C0E605FD1
:10C04000000E615B06D06051611103E10C0E606F60
:10C05000616B64C0E6FF65C0E6FF62C0E6FF63C0D7
:10C06000E6FF60C0E6FF61C0E6FF8B0E006E0D0EBE
:10C07000016E026A00C0E6FF01C0E6FF02C0E6FFF3
:10C08000D9CFE6FFDACFE6FFF6EC06F0036E0B0E33
:10C09000E15E03503C0EE66EE66AD9CFE6FFDACFEA
:10C0A000E6FF90EC75F0E552E552E552E5520001ED
:10C0B00070511DE071510EE0720EE66EE66A880E58
:10C0C000E66E0D0EE66E56EC75F0E552E552E55261
:10C0D000E5520DD0720EE66EE66A850EE66E0D0E26
:10C0E000E66E56EC75F0E552E552E552E552F28AFD
:10C0F0000A0EE15C02E2E16AE552E16EE552E7CF49
:10C10000D9FF1200D9CFE6FFE1CFD9FF060EE12615
:10C11000DE6ADD6ADECF00F0DDCF01F0D89001509D
:10C1200004E63C0E005C000E015801E36AD175C0C4
:10C1300020F076C021F0ADEC7BF01FC000F020C0F5
:10C1400001F021C002F022C003F079C020F07AC0D3
:10C1500021F0ADEC7BF01FC008F020C009F021C039
:10C160000AF022C00BF000C0E6FF01C0E6FF02C0EB
:10C17000E6FF03C0E6FF08C0E6FF09C0E6FF0AC00D
:10C18000E6FF0BC0E6FFDECF14F0DDCF15F0060EA4
:10C190001502F3CF15F01402F3CF14F0F450152666
:10C1A00014C020F015C021F0ADEC7BF01FC010F0E2
:10C1B00020C011F021C012F022C013F010C0E6FF21
:10C1C00011C0E6FF12C0E6FF13C0E6FF43EC08F023
:10C1D000E552E552E552E552E552E7CF0BF0E55264
:10C1E000E7CF0AF0E552E7CF09F0E552E7CF08F0D4
:10C1F000E552E7CF03F0E552E7CF02F0E552E7CF93
:10C2000001F0E552E7CF00F01EC00CF01FC00DF0AA
:10C2100020C00EF021C00FF00CC024F00DC025F09E
:10C220000EC026F00FC027F008C01FF009C020F094
:10C230000AC021F00BC022F057EC7CF01FC004F0C4
:10C2400020C005F021C006F022C007F004C024F091
:10C2500005C025F006C026F007C027F000C01FF07B
:10C2600001C020F002C021F003C022F0C1EC7BF03D
:10C2700017EC7DF0020E20C0DBFF030E21C0DBFFB8
:10C2800077C020F078C021F0ADEC7BF01FC000F04B
:10C2900020C001F021C002F022C003F079C020F0DC
:10C2A0007AC021F0ADEC7BF01FC008F020C009F08F
:10C2B00021C00AF022C00BF000C0E6FF01C0E6FF7B
:10C2C00002C0E6FF03C0E6FF08C0E6FF09C0E6FFC4
:10C2D0000AC0E6FF0BC0E6FFDECF14F0DDCF15F09D
:10C2E000060E1502F3CF15F01402F3CF14F0F4503C
:10C2F000152614C020F015C021F0ADEC7BF01FC056
:10C3000010F020C011F021C012F022C013F010C0B4
:10C31000E6FF11C0E6FF12C0E6FF13C0E6FF6BECBC
:10C3200008F0E552E552E552E552E552E7CF0BF051
:10C33000E552E7CF0AF0E552E7CF09F0E552E7CF43
:10C3400008F0E552E7CF03F0E552E7CF02F0E552FF
:10C35000E7CF01F0E552E7CF00F01EC00CF01FC0A0
:10C360000DF020C00EF021C00FF00CC024F00DC065
:10C3700025F00EC026F00FC027F008C01FF009C03E
:10C3800020F00AC021F00BC022F057EC7CF01FC057
:10C3900004F020C005F021C006F022C007F004C060
:10C3A00024F005C025F006C026F007C027F000C025
:10C3B0001FF001C020F002C021F003C022F0C1EC48
:10C3C0007BF017EC7DF0040E20C0DBFF050E21C0D2
:10C3D000DBFFE66A040EDBCFE6FF020EDBCFE6FFF3
:10C3E000040EDBCFE6FF020EDBCFE6FFD2EC79F0E6
:10C3F000006E050EE15E0050DF2A010E01E3DB2A2C
:10C4000089D6060EE15C02E2E16AE552E16EE55290
:10C41000E7CFD9FF1200D9CFE6FFE1CFD9FF040E55
:10C42000E126FB0EDBCF20F0FC0EDBCF21F0020E6D
:10C43000201801E1215001E146D3010E201801E14D
:10C44000215001E19BD1205001E1215002E007EF92
:10C4500067F075C020F076C021F0ADEC7BF01FC016
:10C4600000F020C001F021C002F022C003F079C02A
:10C4700020F07AC021F0ADEC7BF01FC008F020C0A6
:10C4800009F021C00AF022C00BF000C0E6FF01C095
:10C49000E6FF02C0E6FF03C0E6FF08C0E6FF09C0F2
:10C4A000E6FF0AC0E6FF0BC0E6FFFD0EDBCF14F08F
:10C4B000FE0EDBCF15F01E0E1502F3CF15F01402A1
:10C4C000F3CF14F0F450152614C020F015C021F05D
:10C4D000ADEC7BF01FC010F020C011F021C012F0B5
:10C4E00022C013F010C0E6FF11C0E6FF12C0E6FF45
:10C4F00013C0E6FF43EC08F0E552E552E552E55281
:10C50000E552E7CF0BF0E552E7CF0AF0E552E7CF6F
:10C5100009F0E552E7CF08F0E552E7CF03F0E55226
:10C52000E7CF02F0E552E7CF01F0E552E7CF00F0A8
:10C530001EC00CF01FC00DF020C00EF021C00FF087
:10C540000CC024F00DC025F00EC026F00FC027F05F
:10C5500008C01FF009C020F00AC021F00BC022F073
:10C5600057EC7CF01FC004F020C005F021C006F09D
:10C5700022C007F004C024F005C025F006C026F054
:10C5800007C027F000C01FF001C020F002C021F05A
:10C5900003C022F0C1EC7BF017EC7DF020C0DEFF81
:10C5A00021C0DDFF77C020F078C021F0ADEC7BF03A
:10C5B0001FC000F020C001F021C002F022C003F033
:10C5C00079C020F07AC021F0ADEC7BF01FC008F0FC
:10C5D00020C009F021C00AF022C00BF000C0E6FF25
:10C5E00001C0E6FF02C0E6FF03C0E6FF08C0E6FFA9
:10C5F00009C0E6FF0AC0E6FF0BC0E6FFFD0EDBCF79
:10C6000014F0FE0EDBCF15F01E0E1502F3CF15F061
:10C610001402F3CF14F0F450152614C020F015C006
:10C6200021F0ADEC7BF01FC010F020C011F021C054
:10C6300012F022C013F010C0E6FF11C0E6FF12C0D6
:10C64000E6FF13C0E6FF6BEC08F0E552E552E55259
:10C65000E552E552E7CF0BF0E552E7CF0AF0E5529D
:10C66000E7CF09F0E552E7CF08F0E552E7CF03F056
:10C67000E552E7CF02F0E552E7CF01F0E552E7CF10
:10C6800000F01EC00CF01FC00DF020C00EF021C045
:10C690000FF00CC024F00DC025F00EC026F00FC026
:10C6A00027F008C01FF009C020F00AC021F00BC01D
:10C6B00022F057EC7CF01FC004F020C005F021C030
:10C6C00006F022C007F004C024F005C025F006C023
:10C6D00026F007C027F000C01FF001C020F002C004
:10C6E00021F003C022F0C1EC7BF017EC7DF0020ECC
:10C6F00020C0DBFF030E21C0DBFF020EE66EDBCFA6
:10C7000020F0030EDBCF21F000017751205C006E9A
:10C7100078512158016E020E256E266A00C020F065
:10C7200001C021F0C4EC7CF020C000F021C001F079
:10C73000000177510024E66E7551DE5C026E765181
:10C74000DD58036E020E256E266A02C020F003C07B
:10C7500021F0C4EC7CF020C002F021C003F0000105
:10C7600075510224E66E77C0E6FF75C0E6FFD2EC95
:10C7700079F0046E050EE15E045049D375C020F0D7
:10C7800076C021F0ADEC7BF01FC000F020C001F0BE
:10C7900021C002F022C003F079C020F07AC021F05D
:10C7A000ADEC7BF01FC008F020C009F021C00AF0FA
:10C7B00022C00BF000C0E6FF01C0E6FF02C0E6FFAA
:10C7C00003C0E6FF08C0E6FF09C0E6FF0AC0E6FFB7
:10C7D0000BC0E6FFFD0EDBCF14F0FE0EDBCF15F035
:10C7E000060E1502F3CF15F01402F3CF14F0F45037
:10C7F000152614C020F015C021F0ADEC7BF01FC051
:10C8000010F020C011F021C012F022C013F010C0AF
:10C81000E6FF11C0E6FF12C0E6FF13C0E6FF43ECDF
:10C8200008F0E552E552E552E552E552E7CF0BF04C
:10C83000E552E7CF0AF0E552E7CF09F0E552E7CF3E
:10C8400008F0E552E7CF03F0E552E7CF02F0E552FA
:10C85000E7CF01F0E552E7CF00F01EC00CF01FC09B
:10C860000DF020C00EF021C00FF00CC024F00DC060
:10C8700025F00EC026F00FC027F008C01FF009C039
:10C8800020F00AC021F00BC022F057EC7CF01FC052
:10C8900004F020C005F021C006F022C007F004C05B
:10C8A00024F005C025F006C026F007C027F000C020
:10C8B0001FF001C020F002C021F003C022F0C1EC43
:10C8C0007BF017EC7DF020C0DEFF21C0DDFF77C0DC
:10C8D00020F078C021F0ADEC7BF01FC000F020C04C
:10C8E00001F021C002F022C003F079C020F07AC02C
:10C8F00021F0ADEC7BF01FC008F020C009F021C092
:10C900000AF022C00BF000C0E6FF01C0E6FF02C043
:10C91000E6FF03C0E6FF08C0E6FF09C0E6FF0AC065
:10C92000E6FF0BC0E6FFFD0EDBCF14F0FE0EDBCF03
:10C9300015F0060E1502F3CF15F01402F3CF14F024
:10C94000F450152614C020F015C021F0ADEC7BF09A
:10C950001FC010F020C011F021C012F022C013F04F
:10C9600010C0E6FF11C0E6FF12C0E6FF13C0E6FFED
:10C970006BEC08F0E552E552E552E552E552E7CF9F
:10C980000BF0E552E7CF0AF0E552E7CF09F0E552A8
:10C99000E7CF08F0E552E7CF03F0E552E7CF02F02A
:10C9A000E552E7CF01F0E552E7CF00F01EC00CF0F2
:10C9B0001FC00DF020C00EF021C00FF00CC024F0FD
:10C9C0000DC025F00EC026F00FC027F008C01FF0E4
:10C9D00009C020F00AC021F00BC022F057EC7CF017
:10C9E0001FC004F020C005F021C006F022C007F0EF
:10C9F00004C024F005C025F006C026F007C027F0CB
:10CA000000C01FF001C020F002C021F003C022F0DE
:10CA1000C1EC7BF017EC7DF0020E20C0DBFF030EB3
:10CA200021C0DBFF010EE66E020EDBCF20F0030E0D
:10CA3000DBCF21F000017751205C026E7851215844
:10CA4000036E050E256E266A02C020F003C021F099
:10CA5000C4EC7CF020C002F021C003F0020EDBCF5A
:10CA600020F0030EDBCF21F00250205C006E03505B
:10CA70002158016E0050E66E00017551DE5C066EB5
:10CA80007651DD58076E050E256E266A06C020F029
:10CA900007C021F0C4EC7CF020C006F021C007F0F4
:10CAA0000650DE5C046E0750DD58056E0450E66EDD
:10CAB00077C0E6FF75C0E6FFD2EC79F0086E050E90
:10CAC000E15E0850A4D175C020F076C021F0ADEC35
:10CAD0007BF01FC000F020C001F021C002F022C096
:10CAE00003F079C020F07AC021F0ADEC7BF01FC0DC
:10CAF00008F020C009F021C00AF022C00BF000C0ED
:10CB0000E6FF01C0E6FF02C0E6FF03C0E6FF08C083
:10CB1000E6FF09C0E6FF0AC0E6FF0BC0E6FFFD0E18
:10CB2000DBCF14F0FE0EDBCF15F0060E1502F3CFAF
:10CB300015F01402F3CF14F0F450152614C020F0B1
:10CB400015C021F0ADEC7BF01FC010F020C011F03B
:10CB500021C012F022C013F010C0E6FF11C0E6FFA2
:10CB600012C0E6FF13C0E6FF43EC08F0E552E552C1
:10CB7000E552E552E552E7CF0BF0E552E7CF0AF078
:10CB8000E552E7CF09F0E552E7CF08F0E552E7CFED
:10CB900003F0E552E7CF02F0E552E7CF01F0E552AE
:10CBA000E7CF00F01EC00CF01FC00DF020C00EF04B
:10CBB00021C00FF00CC024F00DC025F00EC026F0EF
:10CBC0000FC027F008C01FF009C020F00AC021F0F4
:10CBD0000BC022F057EC7CF01FC004F020C005F021
:10CBE00021C006F022C007F004C024F005C025F0E3
:10CBF00006C026F007C027F000C01FF001C020F0DB
:10CC000002C021F003C022F0C1EC7BF017EC7DF0F4
:10CC100020C0DEFF21C0DDFF77C020F078C021F00A
:10CC2000ADEC7BF01FC000F020C001F021C002F08D
:10CC300022C003F079C020F07AC021F0ADEC7BF087
:10CC40001FC008F020C009F021C00AF022C00BF07C
:10CC500000C0E6FF01C0E6FF02C0E6FF03C0E6FF3A
:10CC600008C0E6FF09C0E6FF0AC0E6FF0BC0E6FF0A
:10CC7000FD0EDBCF14F0FE0EDBCF15F0060E150215
:10CC8000F3CF15F01402F3CF14F0F450152614C0AE
:10CC900020F015C021F0ADEC7BF01FC010F020C0DB
:10CCA00011F021C012F022C013F010C0E6FF11C035
:10CCB000E6FF12C0E6FF13C0E6FF6BEC08F0E5529A
:10CCC000E552E552E552E552E7CF0BF0E552E7CFEA
:10CCD0000AF0E552E7CF09F0E552E7CF08F0E55258
:10CCE000E7CF03F0E552E7CF02F0E552E7CF01F0DE
:10CCF000E552E7CF00F01EC00CF01FC00DF020C0C1
:10CD00000EF021C00FF00CC024F00DC025F00EC0B5
:10CD100026F00FC027F008C01FF009C020F00AC09D
:10CD200021F00BC022F057EC7CF01FC004F020C0B3
:10CD300005F021C006F022C007F004C024F005C0B1
:10CD400025F006C026F007C027F000C01FF001C084
:10CD500020F002C021F003C022F0C1EC7BF017EC00
:10CD60007DF0020E20C0DBFF030E21C0DBFFE66A70
:10CD7000020EDBCF20F0030EDBCF21F00001775154
:10CD8000205C026E78512158036E050E256E266ACE
:10CD900002C020F003C021F0C4EC7CF020C002F0FF
:10CDA00021C003F0020EDBCF20F0030EDBCF21F019
:10CDB0000250205C006E03502158016E0050E66E58
:10CDC00000017551DE5C066E7651DD58076E050E6A
:10CDD000256E266A06C020F007C021F0C4EC7CF066
:10CDE00020C006F021C007F00650DE5C046E07503C
:10CDF000DD58056E0450E66E77C0E6FF75C0E6FFAD
:10CE0000D2EC79F0086E050EE15E085000D0040EF9
:10CE1000E15C02E2E16AE552E16EE552E7CFD9FF5B
:10CE20001200D9CFE6FFE1CFD9FF020EE12664C0A0
:10CE3000DEFF65C0DDFF3B0E000165AF02D0D8907C
:10CE400003D0645D000E655904E2642B000E652377
:10CE500003D0646B656B2CD800016E5103E0010EAA
:10CE6000736F1CD074511AE1020EE66EE66ADECFD3
:10CE7000E6FFDDCFE6FF0BEC62F0E552E552E5524E
:10CE8000E552020EE66EE66A64C0E6FF65C0E6FFA4
:10CE90000BEC62F0E552E552E552E552020EE15C20
:10CEA00002E2E16AE552E16EE552E7CFD9FF1200F6
:10CEB000D9CFE6FFE1CFD9FF020EE12662C0DEFF47
:10CEC00063C0DDFF3B0E000163AF02D0D89003D0FA
:10CED000625D000E635904E2622B000E632303D0EF
:10CEE000626B636B29D800016E511CE174511AE129
:10CEF000010EE66EE66ADECFE6FFDDCFE6FF0BEC65
:10CF000062F0E552E552E552E552010EE66EE66A40
:10CF100062C0E6FF63C0E6FF0BEC62F0E552E5524B
:10CF2000E552E552020EE15C02E2E16AE552E16E91
:10CF3000E552E7CFD9FF1200D9CFE6FFE1CFD9FF05
:10CF4000020EE12660C0DEFF61C0DDFF000170510E
:10CF500014E00C0E601901E161510BE1010E606FEC
:10CF6000616B715102E0716B02D0010E716F4CD890
:10CF700003D0602B000E61231ED0170E61AF02D0CC
:10CF8000D89003D0605D000E615904E2602B000E62
:10CF9000612303D0606B616B37D80C0E000161AF69
:10CFA00002D0D89003D0605D000E615902E3716B2E
:10CFB00002D0010E716F00016E511CE174511AE133
:10CFC000000EE66EE66ADECFE6FFDDCFE6FF0BEC95
:10CFD00062F0E552E552E552E552000EE66EE66A71
:10CFE00060C0E6FF61C0E6FF0BEC62F0E552E5527F
:10CFF000E552E552020EE15C02E2E16AE552E16EC1
:10D00000E552E7CFD9FF1200020E00016C1901E1D1
:10D010006D5161E0040E6C1901E16D514CE0060E9A
:10D020006C1901E16D5147E0090E6C1901E16D5178
:10D0300042E00B0E6C1901E16D513DE0010E6C19DF
:10D0400001E16D511FE0030E6C1901E16D511AE011
:10D05000050E6C1901E16D5115E0070E6C1901E127
:10D060006D5110E0080E6C1901E16D510BE00A0ED4
:10D070006C1901E16D5106E00C0E6C1901E16D5166
:10D0800001E039D01F0E6A1901E16B5104E06A2BEF
:10D09000000E6B230FD0010E6A6F6B6B0C0E6C19B8
:10D0A00001E16D5104E06C2B000E6D2303D0010EE5
:10D0B0006C6F6D6B20D01E0E6A1901E16B5104E09C
:10D0C0006A2B000E6B2306D0010E6A6F6B6B6C2B04
:10D0D000000E6D2310D01C0E6A1901E16B5104E0A3
:10D0E0006A2B000E6B2306D0010E6A6F6B6B6C2BE4
:10D0F000000E6D2300D0010E736F120000017051FD
:10D100000EE071510BE1613504E260510C08000E34
:10D11000615504E20C0E605F000E615B0DD0715131
:10D120000BE10C0E6027000E6123180E601901E15F
:10D13000615102E1606B616B120000016F510EE002
:10D140006651601902E16751611908E1685162197D
:10D1500002E16951631902E1010E7B6F7C517D117F
:10D1600005E17B6B6F6B140E7C6F7D6B1200D9CF6A
:10D17000E6FFE1CFD9FF0A0EE1266CC0E6FF6DC0E5
:10D18000E6FF6AC0E6FF6BC0E6FF6D0E006E0D0E97
:10D19000016E026A00C0E6FF01C0E6FF02C0E6FFC2
:10D1A000D9CFE6FFDACFE6FFF6EC06F0036E090E04
:10D1B000E15E03505A0EE66E070EE66ED9CFE6FF2B
:10D1C000DACFE6FF90EC75F0E552E552E552E55214
:10D1D0000A0EE15C02E2E16AE552E16EE552E7CF58
:10D1E000D9FF120000016F510BE0060EE66EB00E83
:10D1F000E66E410EE66E2AEC75F0E552E552E55218
:10D200001200D9CFE6FFE1CFD9FF100EE126040EC0
:10D21000DB6A050EDB6A060EDB6A070EDB6A020EAE
:10D22000F36E080EF3CFDBFF090EDB6A0A0EDB6A32
:10D23000140EF36E0B0EF3CFDBFF300EF36E0C0EFD
:10D24000F3CFDBFF420EF36E0D0EF3CFDBFF5A0E72
:10D25000F36E0E0EF3CFDBFF6E0EF36E0F0EF3CFF9
:10D26000DBFFDE6ADD6ADECF00F0DDCF01F0D890B3
:10D27000015004E6030E005C000E015801E352D297
:10D28000DECFE9FFDDCFEAFFD890E936EA36600E5F
:10D29000E926000EEA22EECF00F0EFCF01F00A0EF1
:10D2A000256E266A00C020F001C021F0C4EC7CF09D
:10D2B00020C000F021C001F0040E00C0DBFF050E0D
:10D2C00001C0DBFFDECFE9FFDDCFEAFFD890E93612
:10D2D000EA36600EE926000EEA22EECF00F0EFCF2C
:10D2E00001F00A0E256E266A00C020F001C021F070
:10D2F000C4EC7CF01CC000F01DC001F0060E00C0A4
:10D30000DBFF070E01C0DBFF020EDB6A030EDB6AE8
:10D31000020EDBCF00F0030EDBCF01F0D8900150FE
:10D3200004E6020E005C000E015801E3CAD1D95098
:10D33000040F026EDACF03F0020E206E216ADBCFFB
:10D3400025F0030EDBCF26F0EAEC7CF002501E2421
:10D35000E96E03501F20EA6EEECF00F0EFCF01F030
:10D36000090E001801E1015001E180D1080E0018FA
:10D3700001E1015001E155D1070E001801E1015012
:10D3800001E12AD1060E001801E1015001E1FFD0B0
:10D39000050E001801E1015001E1D4D0040E00187F
:10D3A00001E1015001E1A9D0030E001801E1015093
:10D3B00001E17ED0020E001801E1015054E0010E9F
:10D3C000001801E101502AE0005001E1015001E0A4
:10D3D00072D1D9500A0F026EDACF03F0020E206E1E
:10D3E000216ADECF25F0DDCF26F0EAEC7CF002509A
:10D3F0001E24006E03501F20016E020EDB5000241D
:10D40000E96E030EDB500120EA6EEF50E66E200E4F
:10D41000E66E76EC77F0E552E5524DD1D9500A0F21
:10D42000026EDACF03F0020E206E216ADECF25F005
:10D43000DDCF26F0EAEC7CF002501E24006E035093
:10D440001F20016E020EDB500024E96E030EDB503C
:10D450000120EA6EEF50E66E240EE66E76EC77F071
:10D46000E552E55228D1D9500A0F026EDACF03F007
:10D47000020E206E216ADECF25F0DDCF26F0EAEC29
:10D480007CF002501E24006E03501F20016E020E1D
:10D49000DB500024E96E030EDB500120EA6EEF50F2
:10D4A000E66E280EE66E76EC77F0E552E55203D193
:10D4B000D9500A0F026EDACF03F0020E206E216AF5
:10D4C000DECF25F0DDCF26F0EAEC7CF002501E2402
:10D4D000006E03501F20016E020EDB500024E96E27
:10D4E000030EDB500120EA6EEF50E66E2C0EE66E66
:10D4F00076EC77F0E552E552DED0D9500A0F026E95
:10D50000DACF03F0020E206E216ADECF25F0DDCFE8
:10D5100026F0EAEC7CF002501E24006E03501F201F
:10D52000016E020EDB500024E96E030EDB50012079
:10D53000EA6EEF50E66E300EE66E76EC77F0E5526E
:10D54000E552B9D0D9500A0F026EDACF03F0020EBD
:10D55000206E216ADECF25F0DDCF26F0EAEC7CF0EC
:10D5600002501E24006E03501F20016E020EDB507D
:10D570000024E96E030EDB500120EA6EEF50E66EE8
:10D58000340EE66E76EC77F0E552E55294D0D95041
:10D590000A0F026EDACF03F0020E206E216ADECF90
:10D5A00025F0DDCF26F0EAEC7CF002501E24006E60
:10D5B00003501F20016E020EDB500024E96E030EA3
:10D5C000DB500120EA6EEF50E66E380EE66E76EC28
:10D5D00077F0E552E5526FD0D9500A0F026EDACFDC
:10D5E00003F0020E206E216ADECF25F0DDCF26F09B
:10D5F000EAEC7CF002501E24006E03501F20016EE6
:10D60000020EDB500024E96E030EDB500120EA6EAF
:10D61000EF50E66E3C0EE66E76EC77F0E552E552A2
:10D620004AD0D9500A0F026EDACF03F0020E206EF4
:10D63000216ADECF25F0DDCF26F0EAEC7CF0025047
:10D640001E24006E03501F20016E020EDB500024CA
:10D65000E96E030EDB500120EA6EEF50E66E400EDD
:10D66000E66E76EC77F0E552E55225D0D9500A0FF8
:10D67000026EDACF03F0020E206E216ADECF25F0B3
:10D68000DDCF26F0EAEC7CF002501E24006E035041
:10D690001F20016E020EDB500024E96E030EDB50EA
:10D6A0000120EA6EEF50E66E440EE66E76EC77F0FF
:10D6B000E552E55200D0020EDB2A030E01E3DB2A1D
:10D6C00027D6280EE66EB30EE66E6F0EE66E2AECD7
:10D6D00075F0E552E552E552280EE66EB40EE66EA0
:10D6E0006F0EE66E2AEC75F0E552E552E552540EE7
:10D6F000E66EB30EE66E6F0EE66E2AEC75F0E5523E
:10D70000E552E552540EE66EB40EE66E6F0EE66E0E
:10D710002AEC75F0E552E552E552DF2A010E01E3ED
:10D72000DB2AA1D5100EE15C02E2E16AE552E16E6E
:10D73000E552E7CFD9FF1200D9CFE6FFE1CFD9FFFD
:10D740000A0EE126040EDB6A050EDB6A060EDB6AB2
:10D75000070EDB6A020EF36E080EF3CFDBFF090E35
:10D76000DB6A0001010E746FE66A54EC74F0E55256
:10D77000130EC26E080EDBCFDEFFDBCFDDFF0DEC3C
:10D7800060F0E66A020EE66E470EE66E0D0EE66E7D
:10D7900056EC75F0E552E552E552E552E66A030EA5
:10D7A000E66E360EE66E0D0EE66E56EC75F0E55240
:10D7B000E552E552E552E66A040EE66E2D0EE66E7F
:10D7C0000D0EE66E56EC75F0E552E552E552E55267
:10D7D000E66A050EE66E240EE66E0D0EE66E56EC5B
:10D7E00075F0E552E552E552E552E66A060EE66E40
:10D7F0001E0EE66E0D0EE66E56EC75F0E552E55225
:10D80000E552E552E3EC50F0080EF3CFDBFF090ED2
:10D81000F4CFDBFFE7DCABDC640EE66EE66AE66ABB
:10D82000000EE66EE66A080EDBCFE6FFE6680CEC5B
:10D8300077F0006E070EE15E0050AEEC50F000098C
:10D840000AE0080EDBCFE6FF090EDBCFE6FFD3ECE4
:10D850005FF0E552E552080EDB50DF1804E1090ED7
:10D86000DB50DE52DD1804E0E66A54EC74F0E55259
:10D8700060EC7FF0010EE66EF8EC7EF0E552020EF1
:10D88000F3CFDBFF030EF4CFDBFF020EDBCF00F0A4
:10D89000030EDBCF01F0D890015004E6840E005C4B
:10D8A000030E015822E2020EDBCF00F0030EDBCFA5
:10D8B00001F0D890015004E6840E005C030E01587C
:10D8C0000CE2010EE66EF8EC7EF0E552020EF3CFAC
:10D8D000DBFF030EF4CFDBFFE6D7E66A54EC74F00F
:10D8E000E5520A0EE15C04E201D042D7E16AE5525A
:10D8F000E16EE552E7CFD9FF1200000170511DE043
:10D9000071510EE0E66A070EE66E880EE66E0D0EA9
:10D91000E66E56EC75F0E552E552E552E5520DD053
:10D92000E66A070EE66E850EE66E0D0EE66E56ECA6
:10D9300075F0E552E552E552E5521200F29A52DCDA
:10D9400016DCDBDFF28A1200D9CFE6FFE1CFD9FF88
:10D95000020EE126DF6E010EDB6AA4EC50F0050E2C
:10D96000D56ED08EF184E00EF26ED58EDF5004E0DD
:10D97000DF50C214DF6EFAD70001725139E09DEC1E
:10D9800068F000016E5103E03CDCD8DF30D0010EBE
:10D99000DB502DE182EC60F0020EE66EE66A64C0B8
:10D9A000E6FF65C0E6FF0BEC62F0E552E552E5529A
:10D9B000E552010EE66EE66A62C0E6FF63C0E6FF6E
:10D9C0000BEC62F0E552E552E552E552000EE66ED0
:10D9D000E66A60C0E6FF61C0E6FF0BEC62F0E5526C
:10D9E000E552E552E552AADFDE52010EDD6E01D0AE
:10D9F000A3DE0001746BAEEC50F0000903E09CDE86
:10DA0000010EDB6A0001735121E0820EE66EE66AC8
:10DA1000E66A000EE66EE66AE66AE66A0CEC77F005
:10DA2000006E070EE15E0050820EE66EE66AE66A60
:10DA3000000EE66EE66A070EE66EE66A0CEC77F01C
:10DA4000006E070EE15E00500001736B8FD7020E6F
:10DA5000E15C02E2E16AE552E16EE552E7CFD9FF0F
:02DA60001200B2
:0EDA62006DEC72F0FB0EDBCFF3FFDB06F35032
:10DA700000090AE0BBEC72F0FA0E26EC73F0F3E159
:10DA8000011CF1E1010E01D0000E9CEF72F06DEC73
:10DA900072F03B0EE12402E3E168E652E16E010E12
:10DAA000DB6A020EDB6AF90EDBCFF6FFFA0EDBCF84
:10DAB000F7FFFB0EDBCFF8FF0800F550DF6EDF50FD
:10DAC00002E1C0EF71F0250EDF5C02E0B3EF71F010
:10DAD000030EDB6A040EDB6A050EDB6A060EDB6AE8
:10DAE000070EDB6AD5EC71F02D0EDF5C0CE02B0E1F
:10DAF000DF5C09E0200EDF5C06E0230EDF5C03E064
:10DB0000300EDF5C1AE1DF50300A14E0130A0FE038
:10DB1000030A0AE00B0A05E0060AE4E1030EDB80D3
:10DB2000E1D7030EDB82DED7030EDB84DBD7030EE7
:10DB3000DB86D8D7030EDB88D5D72A0EDF5C1BE146
:10DB4000D1EC71F01FEC72F010E0030EDB80206866
:10DB50002168130EDBCF25F0140EDBCF26F0EAECA4
:10DB60007CF0040E1EC0DBFF03D0130E08EC72F035
:10DB7000D5EC71F00BD0090EDB6A76EC72F003E0A5
:10DB8000EAEC72F0FAD7090E08EC72F0030EDBB083
:10DB9000DB982E0EDF5C1BE1D5EC71F02A0EDF5C0A
:10DBA0000BE1D1EC71F01FEC72F003E1130E5AECB3
:10DBB00072F0D5EC71F00BD0090EDB6A76EC72F0E6
:10DBC00003E0EAEC72F0FAD7090E5AEC72F0680E34
:10DBD000DF5C07E1D5EC71F0680EDF5C1DE1030E40
:10DBE00018D0740EDF5C17E07A0EDF5C14E0480E8C
:10DBF000DF5C06E0540EDF5C03E05A0EDF5C02E1FE
:10DC0000020E07D06C0EDF5C03E06A0EDF5C04E1FD
:10DC1000010EADEC72F0C9DBDF506E0A01E17FD37B
:10DC20001E0A01E192D1200A01E18FD13F0A01E1F0
:10DC300049D11A0A01E146D10D0A01E143D1200A76
:10DC400001E140D13A0A01E13DD1200A01E13AD196
:10DC5000260A01E135D10D0A01E132D11A0A01E1AA
:10DC6000D9D0200A4AE0300A1FE0460A0EE0250A11
:10DC700001E083D3D950F90FE96EFF0EDA20EA6E86
:10DC8000010EEE5E000EEE5AEE5ABBEC72F0250E5F
:10DC9000E66E95DB03E1011C01E169D3B7EC72F09C
:10DCA00001E26BD3DB2A69D3080EDB6A040EDB507A
:10DCB000010806E2040EDB047FEC72F0DB508BDB24
:10DCC000080EDB5009E0030EDB50010B05E172DBAF
:10DCD00001E04DD3080EDB6A64DBEFCFDFFF2FECF2
:10DCE00073F003E1011C01E142D3B7EC72F001E3F0
:10DCF000DB2A60DB01E141D33AD3070EDB50020897
:10DD00000FE1FBEC72F0030EC2EC72F00E0EEECFE0
:10DD1000DBFF0F0EEECFDBFF100EEECFDBFF20D0D0
:10DD2000F70EDBCF03F0F80EDBCF04F0020E035E3C
:10DD3000000E045AF70E03C0DBFFF80E04C0DBFF31
:10DD400003C0E9FF04C0EAFFB2EC72F0026A0E0EF3
:10DD500000C0DBFF0F0E01C0DBFF100E02C0DBFFB7
:10DD60000E0EDBCFE6FF0F0EDBCFE6FF100EDBCF94
:10DD7000E6FFEBEC07F0E552E552E552130E1FC04B
:10DD8000DBFF140E20C0DBFF060EDB5005E0130E98
:10DD9000F6EC72F001E26ADB1AEC73F002E2130EA9
:10DDA00037DBDDEC72F006E0040EF6EC72F002E216
:10DDB000050E2EDB030EDBB005D0FCDA01E0D7D276
:10DDC000080EDB6A090EDB6A0E0EDBCFF6FF0F0EC4
:10DDD000DBCFF7FF100EDBCFF8FF0800F550DF6E4A
:10DDE000DF5014E020EC73F011E22FEC73F003E14C
:10DDF000011C01E1BCD2BBDB01E3DB2A090EDB2AFB
:10DE0000D9500E0FE96E000ECBDBE7D7D3DA01E174
:10DE1000B4D2ADD2C6DA110EEECFDBFF120EEDCFCB
:10DE2000DBFF110EDBCFE6FF120EDBCFE6FFDDECF2
:10DE300007F0E552E552130EF3CFDBFF140EF4CFDB
:10DE4000DBFF060EDB5004E0130ED0DB01E20EDB3D
:10DE50001AEC73F002E2130EDBDAAFDB05E0040E1E
:10DE6000C5DB02E2050ED4DA030EDBB005D0A2DA80
:10DE700001E07DD2080EDB6A090EDB6A110EDBCFF2
:10DE8000E9FF120EDBCFEAFFEFCFDFFFDF5014E038
:10DE9000D7DB12E2E4DB03E1011C01E168D267DBBE
:10DEA00001E3DB2A090EDB2A110EDB2ADBCFE9FFB7
:10DEB000120EE8E3DB2AE6D77DDA01E15ED257D223
:10DEC000030EDB8E070EDB0410E195DB040E5ADB3C
:10DED0000A0EEECFDBFF0B0EEECFDBFF0C0EEECF0C
:10DEE000DBFF0D0EEECFDBFF6CD0070EDB5003081F
:10DEF0002CE1030EDBAE0DD0B2DA020E76DAEFCFF4
:10DF000000F0016A026A036A00AE39D00168026853
:10DF100035D0F70EDBCF01F0F80EDBCF02F0020EAA
:10DF2000015E000E025AF70E01C0DBFFF80E02C0C0
:10DF3000DBFF01C0E9FF02C0EAFFEFCF00F00A0EED
:10DF400000C0DBFF0B0EDB6A38D0070EDB50020887
:10DF500009E1030EDBAE04D059DB02AE10D00ED0C7
:10DF600055DB0DD0030EDBAE12D079DA020E3DDAAE
:10DF7000F9DA026A036A01AE02D002680368E2DAE3
:10DF80000C0E02C0DBFF0D0E03C0DBFF1AD0F70E34
:10DF9000DBCF02F0F80EDBCF03F0020E025E000EC4
:10DFA000035AF70E02C0DBFFF80E03C0DBFF02C00E
:10DFB000E9FF03C0EAFFD6DAC5DA0C0EDB6A0D0E04
:10DFC000DB6A060EDB5005E1010EF36E050EF3CFA2
:10DFD000DBFF150EDB6A160EDB6AD950370F006EB9
:10DFE000000EDA20016E390E00C0DBFF3A0E01C0D0
:10DFF000DBFF380EDB6A080EDB6A0A0EAEDADF5092
:10E00000780A12E0200A10E0280A0CE0200A0AE050
:10E010003F0A06E00D0A02E0200A08E1020E05D0E0
:10E02000080E03D0080EDF26100E97DA030EDBBEB3
:10E0300002D0DB92DB94DB50800B24E08ADAD890AC
:10E04000030EEB50000A08E6000EEE5C000EEE58E0
:10E05000000EEE58000EEE5815E213DA236824681D
:10E0600025682668C1EC7FF00A0E1AC0DBFF0B0E94
:10E070001BC0DBFF0C0E1CC0DBFF0D0E1DC0DBFF49
:10E080002D0E08D0030EDBA202D02B0E03D0DBA492
:10E0900008D0200EF36E170EF3CFDBFF150EDB2A30
:10E0A00002D0170EDB6A050EDB5003E1B7D901E1A0
:10E0B00089D0140E006E120E016E000E026E070E55
:10E0C000DBCF03F0046A056A066A03C023F004C0CC
:10E0D00024F005C025F006C026F0D3D992EC08F054
:10E0E00000501A24F36E01501B20F46E02501C20C5
:10E0F000F86EF4CFF7FFF3CFF6FF0800090EF5CF67
:10E10000DBFF580EDF5C0FE1610EF36E090E7BD969
:10E110000AE3200E006E090EDBCFE7FF0050E75E3A
:10E12000090EE7CFDBFF070EDBCF00F0016A026AC2
:10E13000036A0FDA00C023F001C024F002C025F00A
:10E1400003C026F0EECF1EF0EECF1FF0EECF20F092
:10E15000EFCF21F092EC08F021C0EDFF20C0EDFFE1
:10E160001FC0EDFF1EC0EFFF390EDBCFE9FFDB065E
:10E170003A0EDBCFEAFF01E2DB06090EDBCFEFFF51
:10E18000150EDB2A4BD995E1030EDBA61DD06F0ED1
:10E19000DF5C06E1C1D918E3150EDB285BDA14D089
:10E1A000780EDF5C09E0580EDF5C06E0620EDF5C93
:10E1B00003E0420EDF5C08E1020EF36E160EF3CFB1
:10E1C000DBFF02D0150EDB6A030EDB50100B0EE0F6
:10E1D000040EDBCF00F0050EDB50D880005406E2C1
:10E1E000060EDB5003E1040EDB5034DA95D90AE267
:10E1F000050EDBCFE7FF150EDB50E75E050EE7CF20
:10E20000DBFF02D0050EDB6A040EDBCF00F0160E3A
:10E2100045D9D880005414E2160EDBCFE6FF150E68
:10E22000DBCFE6FF040EDBCFE6FF050EDB50E55249
:10E23000E75CE552D880E754E552D880E7545FD9CF
:10E24000030EDB50010B0BE1080EDB5008E0B2D8E7
:10E2500001E08DD0080EDB50BED8080EDB6A170E29
:10E26000DB5007E088D9170EF1D903E1011C01E169
:10E270007ED0160EDB5016E07ED9300EE66E9FD8AB
:10E2800002E1011C74E077D9DFCFE6FF9BEC07F0D9
:10E29000E552E552E552F4CF01F00001F31C02E132
:10E2A000011C65E0050EDBCF00F0160EDB50D880B8
:10E2B000005409E2050EDBCFE7FF160EDB50E75EE8
:10E2C000050EE7CFDBFF300EE66E050ECBD94FE132
:10E2D000390EDB2ADBCFE9FF3A0E01E3DB2ADBCF85
:10E2E000EAFF090EEFCFDBFFDB500EE044D9090E49
:10E2F000ADD902E1011C3BE0390EDB2ADBCFE9FF9F
:10E300003A0EEDE3DB2AEBD755D831E1160EDBCF21
:10E31000E6FF080EC3D8E552E7245DD82ED0070EDD
:10E32000DB50030A1CE0010A14E0030A07E07BD972
:10E33000DBCFEEFF020EDBCFEDFF1FD0F5D8056A75
:10E3400003AE02D0046805682CD8BCD805C0EEFF27
:10E3500014D0EAD803BE046824D8B4D80ED063D948
:10E36000DBCFEFFF0AD07BD905E1011C03E1F368A5
:10E37000F46810D0FCD801E3DB2A79D95CEF6DF0AA
:10E38000010EDBCF00F0020EDBCF01F000C0F3FF87
:10E3900001C0F4FF3B0EE15C02E2E16AE552E16E8E
:10E3A000CBD029D9020EC2EF72F061D90800F55026
:10E3B000DF6E1200200EE66E080E32EF73F09BEC5B
:10E3C00007F0E552E552E552F3CF00F0F4CF01F04B
:10E3D0000001F31C1200006E016AD950010F4DD9E3
:10E3E0000050EE260150ED221200045E000E055A88
:10E3F000F70E04C0DBFFF80E05C0DBFF04C0E9FF29
:10E4000005C0EAFF1200DBCFF4FFF350F45C12000A
:10E41000DB50E76E040EE7CFDBFF12000A0EDBCF06
:10E4200000F00B0EDBCF01F00C0EDBCF02F00D0E77
:10E43000DBCF03F000500110021003101200130E86
:10E44000EECFDBFF140EEDCFDBFF130EDBCF00F0C2
:10E45000140EDBCF01F00001800E01141200F70E44
:10E46000DBCF04F0F80EDBCF05F01200050EDB5019
:10E47000E66ED950130F01D9E552E750EE6EED6A02
:10E4800012000A0EDBCF1EF00B0EDBCF1FF00C0EBE
:10E49000DBCF20F00D0EDBCF21F01200DBCFE6FF4B
:10E4A000150EDBCFE6FF050EDB50E552E724E55203
:10E4B000E7241200DB50CED8010EF36E060EF3CF28
:10E4C000DBFF1200EE50EFCFEAFFE96E02C0EEFF75
:10E4D00003C0EEFF04C0EEFF1200D9CFE6FFDACF93
:10E4E000E6FFE1CFD9FFE2CFDAFF1200DFCFE6FF90
:10E4F000E66ACCEC08F0E552E552F3501200E76E04
:10E50000080EE7CFDBFF1200EECF00F0EECF01F0F8
:10E51000EFCF02F0036A1200050EDBCF00F0150EFC
:10E52000DB50D88000541200010EDBCF02F0020E47
:10E53000DBCF03F0046A1200E552E5CFDAFFE7CF44
:10E54000D9FF12000A0E00C0DBFF0B0E01C0DBFF7B
:10E550001200D9500A0F3DEF73F0F36E070EF3CFA0
:10E56000DBFF1200EECF00F0EFCF01F01200010E42
:10E57000DB2A020E1200FC0EDBCFE6FFFD0EDBCF26
:10E58000E6FF1200005E000E015AF70E00C0DBFF2E
:10E59000F80E01C0DBFF00C0E9FF01C0EAFF120076
:10E5A000DA20EA6EEF2AEECFF6FF000EEF22EECF72
:10E5B000F7FFEF22EECFF8FF1200040EDBCFE6FFED
:10E5C000130EDB50E552E75C9ADFDB5004DF060EEA
:10E5D000DB501200090EDB500A0DF350DF24D00F80
:10E5E000E76E090EE7CFDBFFD5EF71F0DB50F36E7E
:10E5F000050E03EF72F0F70EDBCF00F0F80EDBCF65
:10E6000001F01200DFCFE6FFDFEF71F028DF030E2D
:10E61000ECDE84EF72F031EC6DF0E552E552E5523C
:10E62000E55200091200BDDEEE50EFCFEAFFE96EC1
:10E63000010E1200130EDB50F36E040E03EF72F0A6
:10E64000040EDB50F36E090E03EF72F0DBCFE6FF32
:10E65000DFEF71F0E76E050EE7CFDBFF12008BDF17
:10E6600002EF73F0DBCFE6FF86DF0BEF73F0D950DC
:10E67000F90FE96EFF0ED0EF72F0E96E000EDA20AE
:04E68000EA6E12002C
:0CE68400D9CFE6FFE1CFD9FF020EE1265E
:10E69000FD0EDBCF00F0DB06FE0EDBCF01F001E26A
:10E6A000DB060050011011E0DE6ADD6ADECF00F00B
:10E6B000DDCF01F0E30E005C0D0E015805E2DF2A0C
:10E6C000010E01E3DB2AF2D7E3D7020EE15C02E29E
:10E6D000E16AE552E16EE552E7CFD9FF1200D9CFEA
:10E6E000E6FFE1CFD9FF060EE1268D9296928D903E
:10E6F00096908D8496948A9A939A8C92DE6ADE6ABA
:10E70000DE6ADD6ADD52DD52D9CFE9FFDACFEAFFFA
:10E71000640EEE5C000EEE58000EEE58000EEE5841
:10E720000AE2D9CFE9FFDACFEAFFEE2A000EEE22A5
:10E73000EE22EE22E9D78C82DE6ADE6ADE6ADD6ACC
:10E74000DD52DD52D9CFE9FFDACFEAFF640EEE5C8D
:10E75000000EEE58000EEE58000EEE580AE2D9CF29
:10E76000E9FFDACFEAFFEE2A000EEE22EE22EE22D9
:10E77000E9D7AE0EE66E70D8E552DB0EE66E6CD8C9
:10E78000E552230EE66E68D8E552D90EE66E64D8DF
:10E79000E552220EE66E60D8E552A10EE66E5CD818
:10E7A000E552C80EE66E58D8E552DA0EE66E54D839
:10E7B000E552120EE66E50D8E552A80EE66E4CD821
:10E7C000E5523F0EE66E48D8E552D50EE66E44D8C7
:10E7D000E552A00EE66E40D8E552810EE66E3CD8BA
:10E7E000E552600EE66E38D8E552D30EE66E34D8A8
:10E7F000E552E66A31D8E552A60EE66E2DD8E5520E
:10E80000AD0EE66E29D8E5528B0EE66E25D8E552A0
:10E81000AF0EE66E21D8E5520A0EE66EE66A32DFEA
