:020000040000FA
:06000000A5EF07F012005D
:020006001200E6
:0600080004EF50F01200AD
:060018000CEF50F0120095
:02001E00D9CF38
:10002000E6FFDACFE6FFE1CFD9FFE2CFDAFF220E1B
:10003000E12402E3E168E652E16ED950130FE66E67
:10004000000EDA20E66EA8DA1EEC04F0006E060E52
:10005000E15C02E2E16AE552E16E0050E76E0E0EED
:10006000E7CFDBFFDB50840B0CE0210E00019D6F1E
:100070009E6B0F0EDB68100EDB68110EDB687F0EC7
:100080006ED08ADA36DA020E24C0DBFF030E25C0FA
:10009000DBFF040E26C0DBFF050E27C0DBFF87DA7F
:1000A0002A6A100E2B6E490E2C6E460E14DA21ECC5
:1000B0007DF0010A32E07BDA67DA0DDA70EC7AF073
:1000C000BFD9060EDBCF25F0070EDBCF26F0080EDA
:1000D000DBCF27F0090EDBCF28F0EAEC7CF0D1EC87
:1000E0007CF0AED964DA060EDBCF08F0070EDBCF6A
:1000F00009F0080EDBCF0AF0090EDBCF0BF044DA73
:100100002D6E08C025F009C026F00AC027F00BC0EC
:1001100028F048DA30EC7BF0C4D9F90EDB5012E05D
:100120000E0EDB040BE1FA0EDBCF00F0FB0EDBCF93
:1001300001F0FC0EDBCF02F0FD0E52D167D92C6A24
:10014000F8D947D00E0EDB0419E10F0EDB6A100E52
:10015000DB6A800EF36E110EF3CFDBFF3F0EF36E02
:10016000120EF3CFDBFF0F0EDBCF00F0100EDBCF54
:1001700001F0110EDBCF02F0120E32D1190EDB6A44
:1001800045D9800E2C6ED5D9006A016A026A3F0EED
:10019000036ED950060FE96E000EDA20EA6EEECF3C
:1001A00025F0EECF26F0EECF27F0EFCF28F000C0FD
:1001B0002AF001C02BF002C02CF003C02DF030EC6F
:1001C0007BF028C0EDFF27C0EDFF26C0EDFF25C066
:1001D000EFFFDF50010B0AE0190EDB5002E0000ECA
:1001E00001D0010EE76E190EE7CFDBFF8CD9060EAA
:1001F000DBCF0CF0070EDBCF0DF0080EDBCF0EF0DF
:10020000090EDBCF0FF02A6A2B6A490E2C6E400EC6
:100210002D6E0CC025F00DC026F00EC027F00FC0CB
:1002200028F0C3EC7AF05CD9A6D995D930EC7BF0F4
:1002300077D9060EDBCF14F0070EDBCF15F0080ED2
:10024000DBCF16F0090EDBCF17F0220E2A6EAA0EB6
:100250002B6E7D0E2C6E3A0E2D6E14C025F015C03F
:1002600026F016C027F017C028F0C3EC7AF025C09E
:1002700010F026C011F027C012F028C013F0EDD8FE
:1002800030EC7BF00A0E25C0DBFF0B0E26C0DBFF37
:100290000C0E27C0DBFF0D0E28C0DBFFD9500A0F64
:1002A000E96E000EEAD825D924C000F025C001F07F
:1002B00026C002F027C003F02A6A2B6A800E2C6E3B
:1002C000390E2D6E24C025F04FD921EC7DF0010AA6
:1002D00013E1D9500A0FE96E000EDA20EA6E020E21
:1002E000EECFDBFF030EEECFDBFF040EEECFDBFF26
:1002F000050EEECFDBFF68D0E1D80A0EDBCF2AF087
:100300000B0EDBCF2BF00C0EDBCF2CF00D0EDBCF6A
:100310002DF0C3EC7AF01A0E25C0DBFF1B0E26C0B1
:10032000DBFF1C0E27C0DBFF1D0E28C0DBFF5B0EB2
:10033000256E9C0E266E2E0E276E360E286E72D8F7
:10034000CFD8220E2A6EB20E2B6E4F0E2C6EB90E27
:1003500032D99ED83E0E2A6E870E2B6E080E2C6E5A
:100360003C0E29D9DDD8A40E2A6EAA0E2B6E2A0EB9
:100370002C6EBE0E20D91E0E25C0DBFF1F0E26C020
:10038000DBFF200E27C0DBFF210E28C0DBFF0A0E9B
:10039000DBCF00F00B0EDBCF01F00C0EDBCF02F059
:1003A0000D0EDBCF03F08AD81E0EDBCF2AF01F0E16
:1003B000DBCF2BF0200EDBCF2CF0210EDBCF2DF08E
:1003C000F1D831EC7BF06DD8190EDB5008E09BD8EA
:1003D0002A6A2B6A800E2C6EBF0EF0D803D042D84A
:1003E000DBCF03F000C024F001C025F002C026F0EE
:1003F00003C027F0220EE15C02E2E16AE552E16E01
:10040000E552E5CFDAFFE7CFD9FF12007CD8830EA3
:100410002A6EF90E2B6EA20E2C6E3E0ECFD82A6AD3
:100420002B6A12001A0EDBCF2AF01B0EDBCF2BF04B
:100430001C0EDBCF2CF01D0EDBCF2DF0C3EF7AF0BE
:10044000060E25C0DBFF070E26C0DBFF080E27C007
:10045000DBFF090E28C0DBFF12008DD800C025F09D
:10046000B4EF02F0020EDBCF00F0030EDBCF01F0A1
:10047000040EDBCF02F0050E1200DA20EA6EEECF9A
:10048000E6FFEECFE6FFEECFE6FFEFCFE6FF12008E
:1004900025C004F026C005F027C006F028C007F0EC
:1004A0001200020E25C0DBFF030E26C0DBFF040E88
:1004B00027C0DBFF050E28C0DBFF12000A0EDBCFD2
:1004C00025F00B0EDBCF26F00C0EDBCF27F00D0E48
:1004D000DBCF28F012002D6E00C025F0B4EF02F043
:1004E00025C008F026C009F027C00AF028C00BF08C
:1004F0001200DDEC06F0E552E552E552E55212003D
:100500002D6E31EF7BF0020EDBCF04F0030EDBCF5C
:1005100005F0040EDBCF06F0050EDBCF07F012006E
:1005200025C000F026C001F027C002F028C003F06B
:1005300012003F0EE5DF1AEC7CF026C0DEFF27C07C
:10054000DDFF000EDFCF26F0010EDBCF27F05DECE4
:100550007AF020EF02F004C025F005C026F006C0B6
:1005600027F007C028F0120001C026F002C027F0D3
:1005700003C028F0120025C02AF026C02BF027C0A7
:100580002CF028C02DF01200DB0E2A6E0F0E2B6E01
:10059000C90E2C6E400E1200D950FA0FE96EFF0EF4
:1005A0003DEF02F0C3EC7AF073DF2DEF02F05ADF7B
:1005B000DBCF03F01200A4DF12EF02F02D6ECBDFD1
:0805C000C3EC7AF090EF02F0A9
:0805C800D9CFE6FFE1CFD9FF16
:1005D000030EE12659D8736A820E726E739C94944E
:1005E0009396958C7288728A949EE66AD0D8E5526A
:1005F000E76E020EE7CFDBFF0000D950020FE96E75
:10060000DACFEAFFEF50070B020801E00000140EFA
:10061000E66EBDD8E552E76E020EE7CFDBFF020EB5
:10062000DB96DB88020EDB80DB92DB94020EDBCFF5
:10063000E6FF140EE66E3AD8E552E552010EE66E7C
:10064000A6D8E552DE6EDD6A0000110EE66E9FD878
:10065000E552DE6EDD6A0000E66A110EE66E26D80F
:10066000E552E5520000110EE66E91D8E552DE6EBD
:10067000DD6A0000030EE15C02E2E16AE552E16E30
:10068000E552E7CFD9FF1200550EA76EAA0EA76E4E
:100690000E01FF91090ECC6F0A0ED36F170EFB6F80
:1006A000550EA76EAA0EA76EFF811200D9CFE6FFE6
:1006B000E1CFD9FFE652DF6AFE0EDB50140804E0FA
:1006C000FE0EDB50340806E1140EE66E60D8E552EB
:1006D000E00BDF6E8B9EA49EFE0EDB50756EA4AE0B
:1006E000FED7000000000000000000000000000035
:1006F00000000000000000000000000000000000FA
:1007000000000000000000000000000000000000E9
:1007100000000000000000000000000000000000D9
:1007200000000000000000000000000000000000C9
:1007300000000000000000000000000000000000B9
:1007400000000000000000000000000000000000A9
:100750000000000000000000000000000000000099
:100760000000A49EFE0EDB500A0805E1FD0EDB50E2
:100770007F0B756E04D0FD0EDB50DF10756EA4AEDE
:10078000FED78B8EE552E552E7CFD9FF1200D9CFC5
:10079000E6FFE1CFD9FF8B9EA49EFE0EDB508009C1
:1007A000756EA4AEFED7000000000000000000003F
:1007B0000000000000000000000000000000000039
:1007C0000000000000000000000000000000000029
:1007D0000000000000000000000000000000000019
:1007E0000000000000000000000000000000000009
:1007F00000000000000000000000000000000000F9
:1008000000000000000000000000000000000000E8
:1008100000000000000000000000000000000000D8
:10082000000000000000A49E756AA4AEFED78B8E67
:0C083000755000D0E552E7CFD9FF120050
:04083C00D9CFE6FF2B
:10084000DACFE6FFE1CFD9FFE2CFDAFFE652006868
:1008500001687F0E026E036AD950FA0FE96EFF0E2F
:10086000DA20EA6EEE500016EE500116EE50021637
:10087000EE5003166AD800C0EEFF01C0EEFF02C0C2
:10088000EEFF03C0EEFFFD0EDB50800B02E0010E19
:1008900001D0000EE66E59D8060EE926000EEA22B7
:1008A000E552E750EF6EFC0EDBCF00F0FD0EDBCF24
:1008B00001F0D89000360136FC0E00C0DBFFFD0EC3
:1008C00001C0DBFFDB50E66E40D8040EE926000EC7
:1008D000EA22E552E750EE6EED6AFD0EDB50006E47
:1008E000016AFF0E001818E1015016E12ED8EECF74
:1008F00000F0EECF01F0EECF02F0EFCF03F00050AA
:1009000001100210031006E0210E00019D6F9E6B86
:10091000800E0BD0040E09D0FD0EDB5008E115D877
:10092000EE6AEE6AEE6AEE6A010EDF6E06D0020E25
:10093000DF6E0BD8EE52EE52EE8EDF50E552E552EE
:10094000E5CFDAFFE7CFD9FF1200F80EDBCFE9FFE2
:08095000F90EDBCFEAFF1200F3
:0809580000019FB122D09F8332
:100960008B809490550EA76EAA0EA76E0E01FF9174
:100970000E0ED16F550EA76EAA0EA76EFF810F0E39
:10098000BA6ECF0EBA140009BA6EBB6A0F01526B71
:10099000800ECB6E040ECA6EA496600E776E7F0E2C
:1009A000766E120000019F919F938B8094901200AD
:1009B00000019FA109D08B50010B04E19450010B61
:1009C00001E1010C9F91C8DF00019FA3C5DFA4A630
:1009D0003AD0A496BA50300BE842E842E842E842E6
:1009E000030819E1400EBB5C10E18B909490BA6A49
:1009F000CA6A0E01D16B0F01526BCB68766A7768B9
:100A0000A49600019F819F93010CBB2ACF0EBA14BC
:100A10000009BA6E000CBA0EE96E0F0EEA6EEF50C6
:100A2000300BE842E842E842E842E82AE850030B8B
:100A3000F36EF46EF346F346F346F346CF0EEF142F
:080A4000F310EF6EF450000CFE
:080A4800416C61726D00536501
:100A5000742044617465005365742054696D6500A9
:100A60003132482F32344820496E74657276616C99
:100A700000446973706C6179204D6F6465004F4666
:100A80004600253032643A2530326400416C617290
:100A90006D204D656E7500253032642F253032642F
:100AA000005365742044617465204D656E75005077
:100AB0004D00414D00253032643A253032643A25EC
:100AC000303264005365742054696D65204D656E45
:100AD00075003234480031324800486F7572732017
:100AE000496E74657276616C00416E616C6F67204F
:100AF000436C6F636B004469676974616C20436C7D
:100B00006F636B00446973706C6179204D6F64652D
:060B1000204D656E75002A
:0A0B1600D9CFE6FFDACFE6FFE1CF0A
:100B2000D9FFE2CFDAFFE652E652E652E652D9505A
:100B3000F90F006EFF0EDA20016E020E00C0DBFF1F
:100B4000030E01C0DBFF020EDBCFE6FF030EDBCF9F
:100B5000E6FFF90EDBCFE6FFFA0EDBCFE6FFFB0E7A
:100B6000DBCFE6FFD950FC0FE66EFF0EDA20E66E13
:100B7000F7EC6BF0006E070EE15C02E2E16AE55211
:100B8000E16E0050F3CFDEFFF4CFDDFFFC0EDBCFD4
:100B9000E9FFFD0EDBCFEAFFEF6ADECF00F0DDCF2D
:100BA00001F000C0F3FF01C0F4FF040EE15C02E2BB
:100BB000E16AE552E16EE552E5CFDAFFE7CFD9FF12
:020BC000120021
:0E0BC2001E0EF66EA00EF76E000EF86E00010D
:100BD0000900F550946F0900F550956F03E1946793
:100BE00001D03DD00900F5508F6F0900F550906F8E
:100BF0000900F550916F09000900F550E96E0900F0
:100C0000F550EA6E090009000900F550926F0900DD
:100C1000F550936F09000900F6CF96F0F7CF97F0E3
:100C2000F8CF98F08FC0F6FF90C0F7FF91C0F8FFA3
:100C30000001925302E1935307E00900F550EE6E74
:100C40009207F8E29307F9D796C0F6FF97C0F7FF2F
:100C500098C0F8FF00019407000E955BBFD7120003
:100C6000D9CFE6FFDACFE6FFE1CFD9FFE2CFDAFF57
:100C7000FB0EDBCF00F0FC0EDBCF01F00001800E9D
:100C800001141AE1FB0EDBCFE9FFFC0EDBCFEAFF1C
:100C9000EECFF3FFEDCFF4FFEE2A000EEF22F3CFFD
:100CA000E9FFF4CFEAFFFD0EDBCFEFFFEF50016A63
:100CB000F36E01C0F4FF10D0FB0EDB50FE0806E11E
:100CC000FD0EDBCFE6FFB3EC07F005D0FD0EDBCF6A
:100CD000E6FF03EC50F0E552E552E5CFDAFFE7CF4F
:040CE000D9FF120026
:0C0CE40024502902F3CF20F0F4CF21F0BF
:100CF0002A02F3502126000EF420226E24502B02EB
:100D0000F3502226000EF420236E24502C02F350C0
:100D1000232625502902F3502126F4502222000ECA
:100D2000232225502A02F3502226F4502322255054
:100D30002B02F350232626502902F3502226F4508A
:100D4000232226502A02F350232627502902F3504B
:040D50002326120044
:0C0D5400FE0EE3CFE9FFFF0EE3CFEAFF45
:100D6000F36AF46AEE5203E0F34AF42AFBD7120066
:100D7000FF0EE3CFF8FFE552FF0EE3CFF7FFE5529A
:100D8000FF0EE3CFF6FFE552E66AE66AE66A09007F
:100D9000F55209E0FD0EE32A05E1FE0EE32A02E129
:100DA000FF0EE32AF4D7FD0EE3CF25F0FE0EE3CFCE
:0A0DB00026F0FF0EE3CF27F012003B
:060DBA00D9CFE6FFDACFFD
:100DC000E6FFE1CFD9FFE2CFDAFFE652E652D95093
:100DD000FD0F006EFF0EDA2000C0DEFFDD6EDECFFD
:100DE000E9FFDDCFEAFFEF9EFA0EDBCF00F0FB0E4E
:100DF000DBCF01F0FC0EDBCF02F0FD0EDBCF03F00A
:100E000000C024F001C025F002C026F003C027F086
:100E1000E552E552E552E5CFDAFFE7CFD9FF120000
:100E2000D9CFE6FFDACFE6FFE1CFD9FFE2CFDAFF95
:100E3000010EE66ED950FA0FE96EFF0EDA20EA6E67
:100E4000EECFE6FFEECFE6FFEECFE6FFEFCFE6FF19
:100E50000FEC00F0006E050EE15C02E2E16AE55283
:100E6000E16E0050E552E5CFDAFFE7CFD9FF12007F
:100E7000D9CFE6FFDACFE6FFE1CFD9FFE2CFDAFF45
:100E8000E66AD950FA0FE96EFF0EDA20EA6EEECF6D
:100E9000E6FFEECFE6FFEECFE6FFEFCFE6FF0FEC8B
:100EA00000F0006E050EE15C02E2E16AE552E16EDF
:0E0EB0000050E552E5CFDAFFE7CFD9FF120080
:020EBE00236AA5
:100EC000226A216A206A200EE76ED89024362536E1
:100ED0002636273620362136223623362950205C06
:100EE0002A5021582B5022582C50235809E32950BE
:100EF000205E2A50215A2B50225A2C50235A242A41
:060F0000E72EE4D7120009
:0A0F0600F36AF46AFF0EE124E96EBD
:100F1000FF0EE220EA6EED6607D02F0EEF6404D0DC
:0A0F20003A0EEF6001D0F32A120030
:060F2A00C00EF36E00EEA4
:100F300000F00E0E01D81200EA6002D0EE6AFCD773
:0A0F4000F350E9601200EE6AFCD7DE
:060F4A001DEE00F02DEE8B
:100F500000F0F86A1F9CE1EC05F003EC00F0F2EC05
:060F60006AF0FBD712004D
:0A0F6600FF0EE350ADBA04D0B06AEC
:100F7000AC8EAD8A949CADA2FED7AE6EF36EF46AD1
:020F800012005D
:0E0F820000000000000000000000010001005F
:100F90000100000000000041001F002000001400BC
:060FA0000000000000004B
:06A00000A5EF07F01200BD
:02A00600120046
:06A008001CEF50F01200F5
:06A0180084EF50F012007D
:02A01E0002003E
:10A02000820F00006000000024000000D3FD00004B
:08A030009F0000000100000088
:08A03800DACFE4FFE2CFDAFF0A
:10A04000E9CFE4FFEACFE4FFF6CFE4FFF7CFE4FF88
:10A05000F5CFE4FFF3CFE4FFF4CFE4FFFACFE4FF62
:10A0600000EE1EF0140EE80403E3EECFE4FFFBD78E
:10A0700000EE00F01E0EE80403E3EECFE4FFFBD792
:10A08000E652F2A41DD0480ED76EE30ED66E000144
:10A090007B5113E07E5102E0A60E01D0A70EE66EC2
:10A0A000DCEC72F0E55200017E5102E0000E01D0BE
:10A0B000010E7E6F7C07000E7D5BBBEC62F0F294BC
:10A0C000E55200EE1DF01E0EE80403E3E5CFEDFFC0
:10A0D000FBD700EE31F0140EE80403E3E5CFEDFF0B
:10A0E000FBD7E5CFFAFFE5CFF4FFE5CFF3FFE5CFF0
:10A0F000F5FFE5CFF7FFE5CFF6FFE5CFEAFFE5CFC8
:10A10000E9FFE5CFDAFF1100D8CFE4FFE0CFE4FFAD
:10A11000E46EDACFE4FFE2CFDAFFE652E552E5CFB4
:10A12000DAFFE550E5CFE0FFE5CFD8FF100010ECF7
:10A130007FF07BEC7FF0E4EC02F01FEC72F0E66A5B
:10A1400004EC73F0E5521200D8EC04F0000901E1D0
:10A15000FBD70F014869496997EF50F081B01FD0D4
:10A16000000180C000F081C001F082C002F083C015
:10A1700003F0802B000E812382238323D8800A0ED4
:10A180000054000E0154000E0254000E035406E267
:10A19000806B816B826B836B010E7F6F11D000012E
:10A1A0007F050EE1805181118211831104E17F6BE3
:10A1B000010E08D005D08007000E815B825B835BB7
:10A1C000000E00D01200D9CFE6FFE1CFD9FF020E7A
:10A1D000E126DE6ADD6A130EC26EC450026E02C052
:10A1E00003F0026AC35000010224006E000E032037
:10A1F000016E00C0DEFF01C0DDFFDECF00F0DDCF6D
:10A2000001F0800E011411E1DECF02F0DDCF03F08A
:10A21000D890035004E6CC0E025C000E035805E211
:10A22000020EF36EF46A5CD05BD0DECF00F0DDCFBF
:10A2300001F0D890015004E6CC0E005C000E0158ED
:10A2400011E3DECF02F0DDCF03F0D890035004E637
:10A25000940E025C010E035805E2030EF36EF46ADD
:10A260003FD03ED0DECF00F0DDCF01F0D8900150DE
:10A2700004E6940E005C010E015811E3DECF02F0FB
:10A28000DDCF03F0D890035004E65E0E025C020EB0
:10A29000035805E2040EF36EF46A22D021D0DECF1B
:10A2A00000F0DDCF01F0D890015004E65E0E005CB6
:10A2B000020E015811E3DECF02F0DDCF03F0D8909B
:10A2C000035004E6280E025C030E035805E2050E57
:10A2D000F36EF46A05D004D0060EF36EF46A00D073
:10A2E000020EE15C02E2E16AE552E16EE552E7CF7F
:10A2F000D9FF1200D9CFE6FFE1CFD9FFFD0EDBCFAA
:10A3000026F0FE0EDBCF27F0020E261801E12750C3
:10A310004EE0010E261801E1275027E0265001E10A
:10A32000275001E066D01E0EE66EB40EE66E5F0E9C
:10A33000E66EDAEC73F0E552E552E552210EE66E78
:10A34000B40EE66E5F0EE66EDAEC73F0E552E5529F
:10A35000E552240EE66EB40EE66E5F0EE66EDAECA3
:10A3600073F0E552E552E55244D02F0EE66EB40E7E
:10A37000E66E5F0EE66EDAEC73F0E552E552E552FA
:10A38000320EE66EB40EE66E5F0EE66EDAEC73F039
:10A39000E552E552E552350EE66EB40EE66E5F0EFE
:10A3A000E66EDAEC73F0E552E552E55222D0410E4A
:10A3B000E66EB40EE66E5F0EE66EDAEC73F0E55212
:10A3C000E552E552440EE66EB40EE66E5F0EE66EA2
:10A3D000DAEC73F0E552E552E552470EE66EB40E44
:10A3E000E66E5F0EE66EDAEC73F0E552E552E5528A
:10A3F00000D0E552E7CFD9FF1200D9CFE6FFE1CF79
:10A40000D9FF090EE126010EF36E060EF3CFDBFF36
:10A41000070EDB6A010EF36E080EF3CFDBFF080EAA
:10A42000DB502FE0E66A04EC73F0E552120EE66EA4
:10A43000E66A040EE66E0B0EE66E06EC74F0E5526C
:10A44000E552E552E552120EE66E030EE66EF60E8A
:10A45000E66E0A0EE66E06EC74F0E552E552E55241
:10A46000E552120EE66E050EE66EE90EE66E0A0E77
:10A47000E66E06EC74F0E552E552E552E552080E40
:10A48000DB6AD950060FE96EDACFEAFF010EEE184B
:10A4900001E1ED5011E1040EE66EE66AE66A000E97
:10A4A000E66EE66A030EE66EE668BCEC75F0006EDA
:10A4B000070EE15E005010D0040EE66EE66AE66A12
:10A4C000000EE66EE66A050EE66EE668BCEC75F018
:10A4D000006E070EE15E005041DE000911E0D95028
:10A4E000060FE96EDACFEAFF010EEE1801E1ED503A
:10A4F00004E10001010E6E6F02D000016E6BC2D04C
:10A500007BEC7FF0010EE66E13EC7FF0E552040E5B
:10A51000F3CFDBFF050EF4CFDBFF040EDBCF00F043
:10A52000050EDBCF01F0D890015004E6840E005CEC
:10A53000030E01581BE2040EDBCF00F0050EDBCF4B
:10A5400001F0D890015004E6840E005C030E01581F
:10A550000CE2010EE66E13EC7FF0E552040EF3CF31
:10A56000DBFF050EF4CFDBFFE6D78CD0E66A13ECF9
:10A570007FF0E552F3CFDEFFF4CFDDFF030EE66E92
:10A5800013EC7FF0E552020EF3CFDBFF030EF4CFA6
:10A59000DBFFDECF00F0DDCF01F0D890015004E604
:10A5A000840E005C030E01582DE2DECF00F0DDCFFB
:10A5B00001F0D890015004E6840E005C030E0158AF
:10A5C00009E2E66A13EC7FF0E552F3CFDEFFF4CF49
:10A5D000DDFFEBD7060EDBCF00F0070EDBCF01F07F
:10A5E000D890015004E6020E005C000E01580AE209
:10A5F000060EDB2A070E01E3DB2A010EF36E080EBE
:10A60000F3CFDBFF020EDBCF00F0030EDBCF01F058
:10A61000D890015004E6840E005C030E015831E22C
:10A62000020EDBCF00F0030EDBCF01F0D89001501B
:10A6300004E6840E005C030E01580CE2030EE66E85
:10A6400013EC7FF0E552020EF3CFDBFF030EF4CFE5
:10A65000DBFFE6D7060EDBCF00F0070EDBCF01F005
:10A66000013404E200500108000E01540AE2060E13
:10A67000DB06070E01E2DB06010EF36E080EF3CFD8
:10A68000DBFFCDD6090EE15C02E2E16AE552E16E44
:10A69000E552E7CFD9FF1200D9CFE6FFE1CFD9FFCE
:10A6A000090EE126010EF36E060EF3CFDBFF070E57
:10A6B000DB6A010EF36E080EF3CFDBFF080EDB50F2
:10A6C0002FE0E66A04EC73F0E552120EE66EE66ADD
:10A6D000DA0EE66E0A0EE66E06EC74F0E552E5520E
:10A6E000E552E552120EE66E030EE66ED60EE66EEB
:10A6F0000A0EE66E06EC74F0E552E552E552E552BC
:10A70000120EE66E050EE66ED20EE66E0A0EE66ECE
:10A7100006EC74F0E552E552E552E552080EDB6AAC
:10A72000D950060FE96EDACFEAFF010EEE1801E10B
:10A73000ED5011E1040EE66EE66AE66A000EE66E82
:10A74000E66A030EE66EE668BCEC75F0006E070E76
:10A75000E15E005010D0040EE66EE66AE66A000E76
:10A76000E66EE66A050EE66EE668BCEC75F0006E15
:10A77000070EE15E0050F2DC000913E0D950060F2D
:10A78000E96EDACFEAFF010EEE1801E1ED5004E1C7
:10A790000001010E706F02D00001706BBFEC64F01D
:10A7A000C2D07BEC7FF0010EE66E13EC7FF0E55239
:10A7B000040EF3CFDBFF050EF4CFDBFF040EDBCF7F
:10A7C00000F0050EDBCF01F0D890015004E6840EB6
:10A7D000005C030E01581BE2040EDBCF00F0050EF7
:10A7E000DBCF01F0D890015004E6840E005C030E2C
:10A7F00001580CE2010EE66E13EC7FF0E552040EF8
:10A80000F3CFDBFF050EF4CFDBFFE6D78CD0E66A93
:10A8100013EC7FF0E552F3CFDEFFF4CFDDFF030E44
:10A82000E66E13EC7FF0E552020EF3CFDBFF030E72
:10A83000F4CFDBFFDECF00F0DDCF01F0D890015088
:10A8400004E6840E005C030E01582DE2DECF00F01A
:10A85000DDCF01F0D890015004E6840E005C030EB9
:10A86000015809E2E66A13EC7FF0E552F3CFDEFF10
:10A87000F4CFDDFFEBD7060EDBCF00F0070EDBCF0A
:10A8800001F0D890015004E6020E005C000E015861
:10A890000AE2060EDB2A070E01E3DB2A010EF36E45
:10A8A000080EF3CFDBFF020EDBCF00F0030EDBCF91
:10A8B00001F0D890015004E6840E005C030E0158AC
:10A8C00031E2020EDBCF00F0030EDBCF01F0D890B7
:10A8D000015004E6840E005C030E01580CE2030EE6
:10A8E000E66E13EC7FF0E552020EF3CFDBFF030EB2
:10A8F000F4CFDBFFE6D7060EDBCF00F0070EDBCF91
:10A9000001F0013404E200500108000E01540AE293
:10A91000060EDB06070E01E2DB06010EF36E080EE3
:10A92000F3CFDBFFCBD6090EE15C02E2E16AE55230
:10A93000E16EE552E7CFD9FF1200D9CFE6FFE1CFB4
:10A94000D9FF1B0EE126120EDB6A130EDB6A010E25
:10A95000F36E140EF3CFDBFF150EDB6A160EDB6A07
:10A96000170EDB6A180EDB6A190EDB6A1A0EDB6A39
:10A97000150E60C0DBFF160E61C0DBFF170E62C054
:10A98000DBFF180E63C0DBFF190E64C0DBFF1A0E7D
:10A9900065C0DBFF140EDB506CE0E66A04EC73F07C
:10A9A000E552190EE66EE66AC40EE66E0A0EE66E13
:10A9B00006EC74F0E552E552E552E552190EDBCF94
:10A9C000E6FF1A0EDBCFE6FF170EDBCFE6FF180E11
:10A9D000DBCFE6FF150EDBCFE6FF160EDBCFE6FF83
:10A9E000B50E006E0A0E016E026A00C0E6FF01C0DD
:10A9F000E6FF02C0E6FFD950080FE66E000EDA202F
:10AA0000E66E8BEC05F0036E0B0EE15E03501E0E3E
:10AA1000E66E030EE66ED950080FE66E000EDA20E1
:10AA2000E66E40EC74F0E552E552E552E552000165
:10AA300070511FE071510FE0540EE66E030EE66E8A
:10AA4000B20EE66E0A0EE66E06EC74F0E552E552C2
:10AA5000E552E5520ED0540EE66E030EE66EAF0ED2
:10AA6000E66E0A0EE66E06EC74F0E552E552E5522B
:10AA7000E552120EDBCFE6FF130EDBCFE6FF3ADC2A
:10AA8000E552E552AEEC50F000091AE0150EDBCFAE
:10AA900060F0160EDBCF61F0170EDBCF62F0180E00
:10AAA000DBCF63F0190EDBCF64F01A0EDBCF65F05D
:10AAB0000001010E726F1B0EE15C01E38FD28CD29C
:10AAC0007BEC7FF0E66A13EC7FF0E552F3CFDEFF1C
:10AAD000F4CFDDFF030EE66E13EC7FF0E552020EBD
:10AAE000F3CFDBFF030EF4CFDBFFDECF00F0DDCFD3
:10AAF00001F0D890015004E6840E005C030E01586A
:10AB00002DE2DECF00F0DDCF01F0D890015004E659
:10AB1000840E005C030E015809E2E66A13EC7FF034
:10AB2000E552F3CFDEFFF4CFDDFFEBD7120EDBCF24
:10AB300000F0130EDBCF01F0D890015004E6020EB6
:10AB4000005C000E01580AE2120EDB2A130E01E32C
:10AB5000DB2A010EF36E140EF3CFDBFF020EDBCF08
:10AB600000F0030EDBCF01F0D890015004E6840E14
:10AB7000005C030E015831E2020EDBCF00F0030E41
:10AB8000DBCF01F0D890015004E6840E005C030E88
:10AB900001580CE2030EE66E13EC7FF0E552020E54
:10ABA000F3CFDBFF030EF4CFDBFFE6D7120EDBCFD4
:10ABB00000F0130EDBCF01F0013404E20050000876
:10ABC000000E01540AE2120EDB06130E01E2DB0650
:10ABD000010EF36E140EF3CFDBFF7BEC7FF0010E62
:10ABE000E66E13EC7FF0E552040EF3CFDBFF050EAB
:10ABF000F4CFDBFF020EE66E13EC7FF0E552060E9B
:10AC0000F3CFDBFF070EF4CFDBFF040EDBCF00F04A
:10AC1000050EDBCF01F0D890015004E6200E005C59
:10AC2000030E01580FE3060EDBCF02F0070EDBCF59
:10AC300003F0D890035004E6200E025C030E035884
:10AC400001E3C9D1040EDBCF00F0050EDBCF01F02C
:10AC5000060EDBCF02F0070EDBCF03F00150031826
:10AC6000E8AE02D0033404D00250005C0350015817
:10AC700001E399D0120EDBCF26F0130EDBCF27F0C5
:10AC8000020E261801E1275073E0010E261801E19B
:10AC9000275054E0265001E1275001E083D0000105
:10ACA000705129E1D950150FE96EDACFEAFF170E7E
:10ACB000EE1801E1ED5007E1150EDB6A160EDB6AB6
:10ACC000010E716F17D0150EDB2A160E01E3DB2A79
:10ACD000150EDBCF00F0160EDBCF01F0D89001503F
:10ACE00004E60C0E005C000E015802E3716B02D00A
:10ACF000010E716F1DD0D950150FE96EDACFEAFF42
:10AD00000C0EEE1801E1ED500EE1010EF36E150E82
:10AD1000F3CFDBFF160EDB6A715102E0716B02D0DC
:10AD2000010E716F05D0150EDB2A160E01E3DB2A2A
:10AD3000010EF36E140EF3CFDBFF34D0D950170F92
:10AD4000E96EDACFEAFF3B0EEE1801E1ED5005E1C6
:10AD5000170EDB6A180EDB6A05D0170EDB2A180EF9
:10AD600001E3DB2A010EF36E140EF3CFDBFF1AD0E2
:10AD7000D950190FE96EDACFEAFF3B0EEE1801E168
:10AD8000ED5005E1190EDB6A1A0EDB6A05D0190ECB
:10AD9000DB2A1A0E01E3DB2A010EF36E140EF3CF49
:10ADA000DBFF00D0F3D0120EDBCF26F0130EDBCF8B
:10ADB00027F0020E261801E1275001E1C7D0010E4D
:10ADC000261801E1275001E1A1D0265001E12750CA
:10ADD00001E0DCD00001705166E1150EDBCF00F020
:10ADE000160EDBCF01F0013404E200500D08000E16
:10ADF000015406E2150EDB06160E01E2DB0652D008
:10AE0000D950150FE96EDACFEAFF0D0EEE1801E109
:10AE1000ED5008E1150EDB06160E01E2DB06010E11
:10AE2000716F40D0150EDBCF00F0160EDBCF01F0B6
:10AE3000013404E200500C08000E015413E3150E17
:10AE4000DBCF02F0160EDBCF03F0033404E2025036
:10AE50000108000E035406E2150EDB06160E01E291
:10AE6000DB0620D0D950150FE96EDACFEAFF010ECC
:10AE7000EE1801E1ED5007E1150EDB06160E01E2BA
:10AE8000DB06716B0FD0D950150FE96EDACFEAFFF0
:10AE9000EE50ED1007E1170EF36E150EF3CFDBFF4A
:10AEA000160EDB6A2DD0150EDBCF00F0160EDBCFB1
:10AEB00001F0013404E200500C08000E015413E3C9
:10AEC000150EDBCF02F0160EDBCF03F0033404E2E5
:10AED00002500108000E035406E2150EDB06160EA2
:10AEE00001E2DB060DD00C0EF36E150EF3CFDBFF87
:10AEF000160EDB6A715102E0716B02D0010E716FA8
:10AF0000010EF36E140EF3CFDBFF40D0170EDBCF34
:10AF100000F0180EDBCF01F0013404E2005000080D
:10AF2000000E015406E2170EDB06180E01E2DB06E6
:10AF300007D03B0EF36E170EF3CFDBFF180EDB6A64
:10AF4000010EF36E140EF3CFDBFF20D0190EDBCF12
:10AF500000F01A0EDBCF01F0013404E200500008CB
:10AF6000000E015406E2190EDB061A0E01E2DB06A2
:10AF700007D03B0EF36E190EF3CFDBFF1A0EDB6A20
:10AF8000010EF36E140EF3CFDBFF00D0040EDBCF07
:10AF900000F0050EDBCF01F0D890015004E6200E42
:10AFA000005C030E015817E2010EE66E13EC7FF011
:10AFB000E552040EF3CFDBFF050EF4CFDBFF020EEC
:10AFC000E66E13EC7FF0E552060EF3CFDBFF070EC3
:10AFD000F4CFDBFFDBD7DED4E16AE552E16EE55268
:10AFE000E7CFD9FF1200D9CFE6FFE1CFD9FF190E85
:10AFF000E126080EDB6A090EDB6A010EF36E140E01
:10B00000F3CFDBFF150EDB6A160EDB6A170EDB6A69
:10B01000180EDB6A150E6AC0DBFF160E6BC0DBFF75
:10B02000170E6CC0DBFF180E6DC0DBFF140EDB507B
:10B0300044E0E66A04EC73F0E552190EE66EE66A47
:10B04000A10EE66E0A0EE66E06EC74F0E552E552CD
:10B05000E552E552170EDBCFE6FF180EDBCFE6FF19
:10B06000150EDBCFE6FF160EDBCFE6FF970E006E68
:10B070000A0E016E026A00C0E6FF01C0E6FF02C0D0
:10B08000E6FFD9500A0FE66E000EDA20E66E8BEC72
:10B0900005F0036E090EE15E03501E0EE66E030E10
:10B0A000E66ED9500A0FE66E000EDA20E66E40EC2E
:10B0B00074F0E552E552E552E552080EDBCFE6FFAB
:10B0C000090EDBCFE6FF7AEC51F0E552E552AEEC2B
:10B0D00050F0000913E0150EDBCF6AF0160EDBCF3F
:10B0E0006BF0170EDBCF6CF0180EDBCF6DF0190E86
:10B0F000E15C02E379EF5CF077EF5CF07BEC7FF0F2
:10B10000E66A13EC7FF0E552F3CFDEFFF4CFDDFF0C
:10B11000030EE66E13EC7FF0E552020EF3CFDBFF79
:10B12000030EF4CFDBFFDECF00F0DDCF01F0D890CF
:10B13000015004E6840E005C030E01582DE2DECFC0
:10B1400000F0DDCF01F0D890015004E6840E005CE1
:10B15000030E015809E2E66A13EC7FF0E552F3CFE3
:10B16000DEFFF4CFDDFFEBD7080EDBCF00F0090EDA
:10B17000DBCF01F0D890015004E6010E005C000E18
:10B1800001580AE2080EDB2A090E01E3DB2A010E50
:10B19000F36E140EF3CFDBFF020EDBCF00F0030ED5
:10B1A000DBCF01F0D890015004E6840E005C030E62
:10B1B000015831E2020EDBCF00F0030EDBCF01F0CD
:10B1C000D890015004E6840E005C030E01580CE296
:10B1D000030EE66E13EC7FF0E552020EF3CFDBFFB9
:10B1E000030EF4CFDBFFE6D7080EDBCF00F0090E2D
:10B1F000DBCF01F0013404E200500008000E0154DE
:10B200000AE2080EDB06090E01E2DB06010EF36E10
:10B21000140EF3CFDBFF010EE66E13EC7FF0E55268
:10B22000040EF3CFDBFF050EF4CFDBFF020EE66E5C
:10B2300013EC7FF0E552060EF3CFDBFF070EF4CFE1
:10B24000DBFF040EDBCF00F0050EDBCF01F0D89062
:10B25000015004E6200E005C030E01580FE3060EB9
:10B26000DBCF02F0070EDBCF03F0D890035004E6EB
:10B27000200E025C030E035801E337D3040EDBCF2C
:10B2800000F0050EDBCF01F0060EDBCF02F0070E5B
:10B29000DBCF03F001500318E8AE02D0033404D032
:10B2A0000250005C0350015801E3BDD1080EDBCF12
:10B2B00026F0090EDBCF27F0010E261801E12750FA
:10B2C00001E155D1265001E1275001E0ABD1170E25
:10B2D000DBCF26F0180EDBCF27F0020E261801E197
:10B2E000275001E1E8D0040E261801E1275001E1C2
:10B2F0008CD0060E261801E1275001E186D0090EF8
:10B30000261801E1275001E180D00B0E261801E13B
:10B31000275001E17AD0010E261801E127501FE0E5
:10B32000030E261801E127501AE0050E261801E148
:10B33000275015E0070E261801E1275010E0080EEF
:10B34000261801E127500BE00A0E261801E12750CC
:10B3500006E00C0E261801E1275001E002D1D95079
:10B36000150F026EDACF03F0020E266E276A080E62
:10B37000DBCF2BF0090EDBCF2CF0EDEC7BF0025095
:10B380002424E96E03502520EA6EEECF00F0EFCFC3
:10B3900001F0D890015004E61F0E005C000E015829
:10B3A0001AE2D950150F006EDACF01F0020E266EA8
:10B3B000276A080EDBCF2BF0090EDBCF2CF0EDEC6B
:10B3C0007BF000502424E96E01502520EA6EEE2A1D
:10B3D000000EEF2219D0D950150F006EDACF01F010
:10B3E000020E266E276A080EDBCF2BF0090EDBCF8C
:10B3F0002CF0EDEC7BF000502424E96E0150252068
:10B40000EA6E010EEE6EED6AACD0D950150F026EE9
:10B41000DACF03F0020E266E276A080EDBCF2BF080
:10B42000090EDBCF2CF0EDEC7BF002502424E96E0A
:10B4300003502520EA6EEECF00F0EFCF01F0D89058
:10B44000015004E61E0E005C000E01581AE2D950AD
:10B45000150F006EDACF01F0020E266E276A080E75
:10B46000DBCF2BF0090EDBCF2CF0EDEC7BF00050A6
:10B470002424E96E01502520EA6EEE2A000EEF2208
:10B4800019D0D950150F006EDACF01F0020E266EDA
:10B49000276A080EDBCF2BF0090EDBCF2CF0EDEC8A
:10B4A0007BF000502424E96E01502520EA6E010E45
:10B4B000EE6EED6A56D0D950150F026EDACF03F05A
:10B4C000020E266E276A080EDBCF2BF0090EDBCFAB
:10B4D0002CF0EDEC7BF002502424E96E0350252083
:10B4E000EA6EEECF00F0EFCF01F0D890015004E605
:10B4F0001C0E005C000E01581AE2D950150F006EA8
:10B50000DACF01F0020E266E276A080EDBCF2BF091
:10B51000090EDBCF2CF0EDEC7BF000502424E96E1B
:10B5200001502520EA6EEE2A000EEF2219D0D950E4
:10B53000150F006EDACF01F0020E266E276A080E94
:10B54000DBCF2BF0090EDBCF2CF0EDEC7BF00050C5
:10B550002424E96E01502520EA6E010EEE6EED6A9C
:10B5600000D0010EF36E140EF3CFDBFF5BD0D95089
:10B57000150F026EDACF03F0020E266E276A080E50
:10B58000DBCF2BF0090EDBCF2CF0EDEC7BF0025083
:10B590002424E96E03502520EA6EEECF00F0EFCFB1
:10B5A00001F0D890015004E60C0E005C000E01582A
:10B5B0001AE2D950150F006EDACF01F0020E266E96
:10B5C000276A080EDBCF2BF0090EDBCF2CF0EDEC59
:10B5D0007BF000502424E96E01502520EA6EEE2A0B
:10B5E000000EEF2219D0D950150F006EDACF01F0FE
:10B5F000020E266E276A080EDBCF2BF0090EDBCF7A
:10B600002CF0EDEC7BF000502424E96E0150252055
:10B61000EA6E010EEE6EED6A010EF36E140EF3CFBC
:10B62000DBFF00D03DD1080EDBCF26F0090EDBCFCB
:10B6300027F0010E261801E1275001E1D7D026504E
:10B6400001E1275001E02CD1D950150F026EDACF5D
:10B6500003F0020E266E276A080EDBCF2BF0090ED0
:10B66000DBCF2CF0EDEC7BF002502424E96E03508C
:10B670002520EA6EEECF00F0EFCF01F0013404E2B6
:10B6800000500108000E01541AE2D950150F006E47
:10B69000DACF01F0020E266E276A080EDBCF2BF000
:10B6A000090EDBCF2CF0EDEC7BF000502424E96E8A
:10B6B00001502520EA6EEE06000EEF5A91D0170ECB
:10B6C000DBCF26F0180EDBCF27F0020E261801E1A3
:10B6D00027506CE0040E261801E127504DE0060EBD
:10B6E000261801E1275048E0090E261801E12750ED
:10B6F00043E00B0E261801E127503EE0010E26180C
:10B7000001E127501FE0030E261801E127501AE03F
:10B71000050E261801E1275015E0070E261801E155
:10B72000275010E0080E261801E127500BE00A0E02
:10B73000261801E1275006E00C0E261801E12750DB
:10B7400001E04ED0D950150F006EDACF01F0020E95
:10B75000266E276A080EDBCF2BF0090EDBCF2CF00C
:10B76000EDEC7BF000502424E96E01502520EA6EB8
:10B770001F0EEE6EED6A34D0D950150F006EDACF81
:10B7800001F0020E266E276A080EDBCF2BF0090EA1
:10B79000DBCF2CF0EDEC7BF000502424E96E01505F
:10B7A0002520EA6E1E0EEE6EED6A1AD0D950150FE6
:10B7B000006EDACF01F0020E266E276A080EDBCF8C
:10B7C0002BF0090EDBCF2CF0EDEC7BF000502424A5
:10B7D000E96E01502520EA6E1C0EEE6EED6A00D077
:10B7E000010EF36E140EF3CFDBFF5AD0D950150FB4
:10B7F000026EDACF03F0020E266E276A080EDBCF48
:10B800002BF0090EDBCF2CF0EDEC7BF00250242462
:10B81000E96E03502520EA6EEECF00F0EFCF01F085
:10B82000013404E200500108000E01541AE2D9501C
:10B83000150F006EDACF01F0020E266E276A080E91
:10B84000DBCF2BF0090EDBCF2CF0EDEC7BF00050C2
:10B850002424E96E01502520EA6EEE06000EEF5A10
:10B8600019D0D950150F006EDACF01F0020E266EF6
:10B87000276A080EDBCF2BF0090EDBCF2CF0EDECA6
:10B880007BF000502424E96E01502520EA6E0C0E56
:10B89000EE6EED6A010EF36E140EF3CFDBFF00D0F7
:10B8A000040EDBCF00F0050EDBCF01F0D890015085
:10B8B00004E6200E005C030E015817E2010EE66E4E
:10B8C00013EC7FF0E552040EF3CFDBFF050EF4CF4F
:10B8D000DBFF020EE66E13EC7FF0E552060EF3CFAF
:10B8E000DBFF070EF4CFDBFFDBD716EF58F0E16A82
:10B8F000E552E16EE552E7CFD9FF1200D9CFE6FF5E
:10B90000E1CFD9FF170EE126010EF36E120EF3CF31
:10B91000DBFF130EDB6A140EDB6A150EDB6A010E09
:10B92000F36E160EF3CFDBFF160EDB5072E0E66A05
:10B9300004EC73F0E5521E0EE66EE66A8C0EE66EBF
:10B940000A0EE66E06EC74F0E552E552E552E55259
:10B9500068C0E6FF69C0E6FF66C0E6FF67C0E6FFB5
:10B96000820E006E0A0E016E026A00C0E6FF01C080
:10B97000E6FF02C0E6FFD950080FE66E000EDA209F
:10B98000E66E8BEC05F0036E090EE15E03501E0EB1
:10B99000E66E030EE66ED950080FE66E000EDA2052
:10B9A000E66E40EC74F0E552E552E552E552120EB7
:10B9B000E66E050EE66E7E0EE66E0A0EE66E06EC8E
:10B9C00074F0E552E552E552E552000170511FE076
:10B9D00071510FE0540EE66E030EE66EB20EE66E87
:10B9E0000A0EE66E06EC74F0E552E552E552E552B9
:10B9F0000ED0540EE66E030EE66EAF0EE66E0A0E25
:10BA0000E66E06EC74F0E552E552E552E552160E8C
:10BA1000DB6AD950120FE96EDACFEAFF010EEE1899
:10BA200001E1ED500BE1140EDBCFE6FF150EDBCF8D
:10BA3000E6FF7AEC51F0E552E55210D0040EE66EC6
:10BA4000E66AE66A000EE66EE66A050EE66EE668EF
:10BA5000BCEC75F0006E070EE15E0050AEEC50F0ED
:10BA600000091AE0D950120FE96EDACFEAFF010E91
:10BA7000EE1801E1ED5004E10001010E6F6F07D0F7
:10BA800000016F6B7B5102E0000E01D0010E170E1A
:10BA9000E15C01E383D280D2D950120FE96EDACF94
:10BAA000EAFF010EEE1801E1ED5001E0E9D17BEC77
:10BAB0007FF0E66A13EC7FF0E552F3CFDEFFF4CFC0
:10BAC000DDFF030EE66E13EC7FF0E552020EF3CFBE
:10BAD000DBFF030EF4CFDBFFDECF00F0DDCF01F0A4
:10BAE000D890015004E6840E005C030E01583EE23B
:10BAF000DECF00F0DDCF01F0D890015004E6840ED7
:10BB0000005C030E015809E2E66A13EC7FF0E5528F
:10BB1000F3CFDEFFF4CFDDFFEBD7140EDBCF00F069
:10BB2000150EDBCF01F0D890015004E6020E005C48
:10BB3000000E01581BE2140EDB2A150E01E3DB2A6E
:10BB4000010EF36E160EF3CFDBFFD950140FE96E22
:10BB5000DACFEAFF020EEE1801E1ED5007E1020E26
:10BB6000F36E120EF3CFDBFF130EDB6A020EDBCF98
:10BB700000F0030EDBCF01F0D890015004E6840EF4
:10BB8000005C030E015831E2020EDBCF00F0030E21
:10BB9000DBCF01F0D890015004E6840E005C030E68
:10BBA00001580CE2030EE66E13EC7FF0E552020E34
:10BBB000F3CFDBFF030EF4CFDBFFE6D7140EDBCFB2
:10BBC00000F0150EDBCF01F0013404E20050000854
:10BBD000000E01540AE2140EDB06150E01E2DB062C
:10BBE000010EF36E160EF3CFDBFF010EE66E13ECC3
:10BBF0007FF0E552040EF3CFDBFF050EF4CFDBFF41
:10BC0000020EE66E13EC7FF0E552060EF3CFDBFF7B
:10BC1000070EF4CFDBFF040EDBCF00F0050EDBCF09
:10BC200001F0D890015004E6200E005C030E01588C
:10BC30000FE3060EDBCF02F0070EDBCF03F0D89048
:10BC4000035004E6200E025C030E035801E317D1F3
:10BC5000040EDBCF00F0050EDBCF01F0060EDBCFCC
:10BC600002F0070EDBCF03F001500318E8AE02D05C
:10BC7000033404D00250005C0350015859E2140E02
:10BC8000DBCF26F0150EDBCF27F0010E261801E1E1
:10BC900027503BE0265001E1275001E048D0000149
:10BCA00070511BE1170E661901E1675105E1666BE2
:10BCB000676B010E716F10D0662B000E67230C0EA0
:10BCC00067AF02D0D89003D0665D000E675902E3DB
:10BCD000716B02D0010E716F12D00C0E661901E16A
:10BCE00067510AE1010E666F676B715102E0716B7B
:10BCF00002D0010E716F03D0662B000E6723010E78
:10BD0000F36E160EF3CFDBFF12D000013B0E681965
:10BD100001E1695103E1686B696B03D0682B000E88
:10BD20006923010EF36E160EF3CFDBFF00D082D035
:10BD3000140EDBCF26F0150EDBCF27F0010E2618F0
:10BD400001E1275062E0265001E1275001E072D066
:10BD50000001705139E1673504E266510D08000EAB
:10BD6000675504E26607000E675B2DD00D0E66195D
:10BD700001E1675106E16607000E675B010E716F16
:10BD800022D0673504E266510C08000E67550BE3BC
:10BD9000673504E266510108000E675504E2660744
:10BDA000000E675B10D0010E661901E1675105E1D5
:10BDB0006607000E675B716B06D06651671103E181
:10BDC000170E666F676B1BD0673504E266510C086F
:10BDD000000E67550BE3673504E266510108000E5B
:10BDE000675504E26607000E675B09D00C0E666FAC
:10BDF000676B715102E0716B02D0010E716F010E21
:10BE0000F36E160EF3CFDBFF15D00001693504E2A7
:10BE100068510008000E695504E26807000E695B6E
:10BE200003D03B0E686F696B010EF36E160EF3CFF5
:10BE3000DBFF00D0040EDBCF00F0050EDBCF01F0FE
:10BE4000D890015004E6200E005C030E015817E262
:10BE5000010EE66E13EC7FF0E552040EF3CFDBFF2C
:10BE6000050EF4CFDBFF020EE66E13EC7FF0E55219
:10BE7000060EF3CFDBFF070EF4CFDBFFDBD78BD053
:10BE8000E66A13EC7FF0E552F3CFDEFFF4CFDDFF7F
:10BE9000030EE66E13EC7FF0E552020EF3CFDBFFEC
:10BEA000030EF4CFDBFFDECF00F0DDCF01F0D89042
:10BEB000015004E6840E005C030E01582DE2DECF33
:10BEC00000F0DDCF01F0D890015004E6840E005C54
:10BED000030E015809E2E66A13EC7FF0E552F3CF56
:10BEE000DEFFF4CFDDFFEBD7120EDBCF00F0130E39
:10BEF000DBCF01F0D890015004E6020E005C000E8A
:10BF000001580AE2120EDB2A130E01E3DB2A010EAE
:10BF1000F36E160EF3CFDBFF020EDBCF00F0030E45
:10BF2000DBCF01F0D890015004E6840E005C030ED4
:10BF3000015831E2020EDBCF00F0030EDBCF01F03F
:10BF4000D890015004E6840E005C030E01580CE208
:10BF5000030EE66E13EC7FF0E552020EF3CFDBFF2B
:10BF6000030EF4CFDBFFE6D7120EDBCF00F0130E8B
:10BF7000DBCF01F0013404E200500108000E01544F
:10BF80000AE2120EDB06130E01E2DB06010EF36E6F
:10BF9000160EF3CFDBFFC8D4E16AE552E16EE5523D
:10BFA000E7CFD9FF1200D9CFE6FFE1CFD9FFFD0ED1
:10BFB000DBCF26F0FE0EDBCF27F0060E261801E1C0
:10BFC000275021E0050E261801E1275019E0040E44
:10BFD000261801E1275011E0030E261801E1275031
:10BFE00009E0020E261801E1275001E00ED0FDEC19
:10BFF00051F00BD04CEC53F008D09DEC54F005D030
:10C00000F3EC57F002D07ADC00D0E66A04EC73F06F
:10C01000E552E552E7CFD9FF1200D9CFE6FFE1CFD5
:10C02000D9FF0A0EE126F29A0001705112E0613543
:10C0300004E260510C08000E615505E20C0E605FD1
:10C04000000E615B06D06051611103E10C0E606F60
:10C05000616B64C0E6FF65C0E6FF62C0E6FF63C0D7
:10C06000E6FF60C0E6FF61C0E6FFB50E006E0A0E97
:10C07000016E026A00C0E6FF01C0E6FF02C0E6FFF3
:10C08000D9CFE6FFDACFE6FF8BEC05F0036E0B0E9F
:10C09000E15E03503C0EE66EE66AD9CFE6FFDACFEA
:10C0A000E6FF40EC74F0E552E552E552E55200013E
:10C0B00070511DE071510EE0720EE66EE66AB20E2E
:10C0C000E66E0A0EE66E06EC74F0E552E552E552B5
:10C0D000E5520DD0720EE66EE66AAF0EE66E0A0EFF
:10C0E000E66E06EC74F0E552E552E552E552F28A4E
:10C0F0000A0EE15C02E2E16AE552E16EE552E7CF49
:10C10000D9FF1200D9CFE6FFE1CFD9FF080EE12613
:10C11000DE6ADD6ADECF00F0DDCF01F0D89001509D
:10C1200004E63C0E005C000E015801E391D0DECF26
:10C1300000F0DDCF01F0050E2B6E2C6A00C026F05A
:10C1400001C027F0C7EC7BF022C000F023C001F053
:10C15000005001103DE1020EE66EDECFE9FFDDCFBB
:10C16000EAFFD890E936EA36780EE926010EEA228F
:10C17000EF50E66EDECFE9FFDDCFEAFFD890E9367B
:10C18000EA36000EE926010EEA22EF50E66EDECF17
:10C19000E9FFDDCFEAFFD890E936EA36780EE926E6
:10C1A000010EEA22EF50E66EDECFE9FFDDCFEAFFB7
:10C1B000D890E936EA36000EE926010EEA22EF5061
:10C1C000E66E82EC78F0006E050EE15E00503BD02A
:10C1D000E66ADECFE9FFDDCFEAFFD890E936EA363E
:10C1E000780EE926010EEA22EF50E66EDECFE9FF77
:10C1F000DDCFEAFFD890E936EA36000EE926010ED7
:10C20000EA22EF50E66EDECFE9FFDDCFEAFFD890FD
:10C21000E936EA36780EE926010EEA22EF50E66E9C
:10C22000DECFE9FFDDCFEAFFD890E936EA36000E2F
:10C23000E926010EEA22EF50E66E82EC78F0006EFD
:10C24000050EE15E0050DF2A010E01E3DB2A62D712
:10C25000080EE15C02E2E16AE552E16EE552E7CFE9
:10C26000D9FF1200D9CFE6FFE1CFD9FFFB0EDBCF1C
:10C2700026F0FC0EDBCF27F0020E261801E1275036
:10C2800001E1FDD0010E261801E1275001E17ED029
:10C29000265001E1275001E06AD1020EE66EFD0E44
:10C2A000DBCFE9FFFE0EDBCFEAFFD890E936EA36B6
:10C2B000780EE926010EEA2200017751EE5C026E4B
:10C2C0007851EE58036E020E2B6E2C6A02C026F0D7
:10C2D00003C027F0C7EC7BF026C002F027C003F0B4
:10C2E000FD0EDBCFE9FFFE0EDBCFEAFFD890E9368B
:10C2F000EA36780EE926010EEA220250EE5C006E64
:10C300000350EE58016E0050E66EFD0EDBCFE9FFE4
:10C31000FE0EDBCFEAFFD890E936EA36000EE926BA
:10C32000010EEA2200017551EE5C066E7651EE5860
:10C33000076E020E2B6E2C6A06C026F007C027F08F
:10C34000C7EC7BF026C006F027C007F0FD0EDBCF60
:10C35000E9FFFE0EDBCFEAFFD890E936EA36000EA1
:10C36000E926010EEA220650EE5C046E0750EE58F4
:10C37000056E0450E66E77C0E6FF75C0E6FF82ECFE
:10C3800078F0086E050EE15E0850F1D0010EE66E01
:10C39000FD0EDBCFE9FFFE0EDBCFEAFFD890E936DA
:10C3A000EA36780EE926010EEA2200017751EE5CAA
:10C3B000026E7851EE58036E050E2B6E2C6A02C089
:10C3C00026F003C027F0C7EC7BF026C002F027C0A0
:10C3D00003F0FD0EDBCFE9FFFE0EDBCFEAFFD890C6
:10C3E000E936EA36780EE926010EEA220250EE5CC2
:10C3F000006E0350EE58016E0050E66EFD0EDBCF6E
:10C40000E9FFFE0EDBCFEAFFD890E936EA36000EF0
:10C41000E926010EEA2200017551EE5C066E7651A6
:10C42000EE58076E050E2B6E2C6A06C026F007C06C
:10C4300027F0C7EC7BF026C006F027C007F0FD0E02
:10C44000DBCFE9FFFE0EDBCFEAFFD890E936EA3614
:10C45000000EE926010EEA220650EE5C046E07503B
:10C46000EE58056E0450E66E77C0E6FF75C0E6FF35
:10C4700082EC78F0086E050EE15E085078D0E66A2E
:10C48000FD0EDBCFE9FFFE0EDBCFEAFFD890E936E9
:10C49000EA36780EE926010EEA2200017751EE5CB9
:10C4A000026E7851EE58036E050E2B6E2C6A02C098
:10C4B00026F003C027F0C7EC7BF026C002F027C0AF
:10C4C00003F0FD0EDBCFE9FFFE0EDBCFEAFFD890D5
:10C4D000E936EA36780EE926010EEA220250EE5CD1
:10C4E000006E0350EE58016E0050E66EFD0EDBCF7D
:10C4F000E9FFFE0EDBCFEAFFD890E936EA36000E00
:10C50000E926010EEA2200017551EE5C066E7651B5
:10C51000EE58076E050E2B6E2C6A06C026F007C07B
:10C5200027F0C7EC7BF026C006F027C007F0FD0E11
:10C53000DBCFE9FFFE0EDBCFEAFFD890E936EA3623
:10C54000000EE926010EEA220650EE5C046E07504A
:10C55000EE58056E0450E66E77C0E6FF75C0E6FF44
:10C5600082EC78F0086E050EE15E085000D0E552CE
:10C57000E7CFD9FF1200D9CFE6FFE1CFD9FF020EF6
:10C58000E12664C0DEFF65C0DDFF3B0E000165AF44
:10C5900002D0D89003D0645D000E655904E2642B8C
:10C5A000000E652303D0646B656B2AD800016E51C1
:10C5B00003E0010E736F1AD0745118E1020EE66E9B
:10C5C000E66ADECFE6FFDDCFE6FF4CDEE552E55260
:10C5D000E552E552020EE66EE66A64C0E6FF65C00B
:10C5E000E6FF40DEE552E552E552E552020EE15C1F
:10C5F00002E2E16AE552E16EE552E7CFD9FF1200AF
:10C60000D9CFE6FFE1CFD9FF020EE12662C0DEFFFF
:10C6100063C0DDFF3B0E000163AF02D0D89003D0B2
:10C62000625D000E635904E2622B000E632303D0A7
:10C63000626B636B27D800016E511AE1745118E1E7
:10C64000010EE66EE66ADECFE6FFDDCFE6FF0ADE2C
:10C65000E552E552E552E552010EE66EE66A62C029
:10C66000E6FF63C0E6FFFEDDE552E552E552E55226
:10C67000020EE15C02E2E16AE552E16EE552E7CFCB
:10C68000D9FF1200D9CFE6FFE1CFD9FF020EE12694
:10C6900060C0DEFF61C0DDFF0001705114E00C0ED0
:10C6A000601901E161510BE1010E606F616B715125
:10C6B00002E0716B02D0010E716FE7D803D0602BDE
:10C6C000000E61231ED0170E61AF02D0D89003D0A8
:10C6D000605D000E615904E2602B000E612303D0FF
:10C6E000606B616BD2D80C0E000161AF02D0D890A4
:10C6F00003D0605D000E615902E3716B02D0010E40
:10C70000716F00016E5101E0B6D0745101E0B3D0F9
:10C71000DECF00F0DDCF01F0013404E200500C0860
:10C72000000E015422E2000EE66EE66ADECF00F053
:10C73000DDCF01F00C0E005E000E015A050E010265
:10C74000F3CF01F00002F3CF00F0F4500126040E05
:10C750000026000E012200C0E6FF01C0E6FF82DDD8
:10C76000E552E552E552E5521DD0000EE66EE66A4E
:10C77000DECF00F0DDCF01F0050E0102F3CF01F0B6
:10C780000002F3CF00F0F4500126040E0026000E44
:10C79000012200C0E6FF01C0E6FF64DDE552E5527C
:10C7A000E552E5520001613504E260510C08000ECB
:10C7B000615535E2000EE66EE66A60C002F061C0C7
:10C7C00003F00C0E025E000E035A050E0302F3CFB7
:10C7D00003F00202F3CF02F0F450032662C004F02B
:10C7E00063C005F00C0E2B6E2C6A04C026F005C049
:10C7F00027F0C7EC7BF026C004F027C005F00250FC
:10C800000424006E03500520016E00C0E6FF01C045
:10C81000E6FF28DDE552E552E552E5522CD0000E48
:10C82000E66EE66A62C002F063C003F00C0E2B6E87
:10C830002C6A02C026F003C027F0C7EC7BF026C0AC
:10C8400002F027C003F0050E266E276A60C02BF0A9
:10C8500061C02CF0EDEC7BF024500224006E2550DA
:10C860000320016E00C0E6FF01C0E6FFFBDCE552DD
:10C87000E552E552E552020EE15C02E2E16AE55260
:10C88000E16EE552E7CFD9FF1200020E00016C19EC
:10C8900001E16D5161E0040E6C1901E16D514CE054
:10C8A000060E6C1901E16D5147E0090E6C1901E1AA
:10C8B0006D5142E00B0E6C1901E16D513DE0010E2E
:10C8C0006C1901E16D511FE0030E6C1901E16D510E
:10C8D0001AE0050E6C1901E16D5115E0070E6C1997
:10C8E00001E16D5110E0080E6C1901E16D510BE092
:10C8F0000A0E6C1901E16D5106E00C0E6C1901E194
:10C900006D5101E039D01F0E6A1901E16B5104E04D
:10C910006A2B000E6B230FD0010E6A6F6B6B0C0E2F
:10C920006C1901E16D5104E06C2B000E6D2303D0F6
:10C93000010E6C6F6D6B20D01E0E6A1901E16B51F8
:10C9400004E06A2B000E6B2306D0010E6A6F6B6B3E
:10C950006C2B000E6D2310D01C0E6A1901E16B5177
:10C9600004E06A2B000E6B2306D0010E6A6F6B6B1E
:10C970006C2B000E6D2300D0010E736F12000001AE
:10C9800070510EE071510BE1613504E260510C0809
:10C99000000E615504E20C0E605F000E615B0DD06D
:10C9A00071510BE10C0E6027000E6123180E601907
:10C9B00001E1615102E1606B616B120000016F5196
:10C9C0000EE06651601902E16751611908E1685192
:10C9D000621902E16951631902E1010E7B6F7C511A
:10C9E0007D1105E17B6B6F6B140E7C6F7D6B12000C
:10C9F000D9CFE6FFE1CFD9FF0A0EE1266CC0E6FFF2
:10CA00006DC0E6FF6AC0E6FF6BC0E6FF970E006EE2
:10CA10000A0E016E026A00C0E6FF01C0E6FF02C016
:10CA2000E6FFD9CFE6FFDACFE6FF8BEC05F0036E29
:10CA3000090EE15E03505A0EE66E070EE66ED9CF80
:10CA4000E6FFDACFE6FF40EC74F0E552E552E5523E
:10CA5000E5520A0EE15C02E2E16AE552E16EE5525E
:10CA6000E7CFD9FF120000016F510BE0060EE66E12
:10CA7000B00EE66E410EE66EDAEC73F0E552E5526A
:10CA8000E5521200D9CFE6FFE1CFD9FF100EE12623
:10CA9000040EDB6A050EDB6A060EDB6A070EDB6A34
:10CAA000020EF36E080EF3CFDBFF090EDB6A0A0EEF
:10CAB000DB6A140EF36E0B0EF3CFDBFF300EF36E5A
:10CAC0000C0EF3CFDBFF420EF36E0D0EF3CFDBFF48
:10CAD0005A0EF36E0E0EF3CFDBFF6E0EF36E0F0EDB
:10CAE000F3CFDBFFDE6ADD6ADECF00F0DDCF01F0E1
:10CAF000D890015004E6030E005C000E015801E3DB
:10CB000052D2DECFE9FFDDCFEAFFD890E936EA3630
:10CB1000600EE926000EEA22EECF00F0EFCF01F022
:10CB20000A0E2B6E2C6A00C026F001C027F0C7EC5D
:10CB30007BF026C000F027C001F0040E00C0DBFF30
:10CB4000050E01C0DBFFDECFE9FFDDCFEAFFD890A5
:10CB5000E936EA36600EE926000EEA22EECF00F052
:10CB6000EFCF01F00A0E2B6E2C6A00C026F001C038
:10CB700027F0C7EC7BF022C000F023C001F0060EC6
:10CB800000C0DBFF070E01C0DBFF020EDB6A030EF5
:10CB9000DB6A020EDBCF00F0030EDBCF01F0D89092
:10CBA000015004E6020E005C000E015801E3CAD1F8
:10CBB000D950040F026EDACF03F0020E266E276AF8
:10CBC000DBCF2BF0030EDBCF2CF0EDEC7BF0025033
:10CBD0002424E96E03502520EA6EEECF00F0EFCF5B
:10CBE00001F0090E001801E1015001E180D1080EA9
:10CBF000001801E1015001E155D1070E001801E1D3
:10CC0000015001E12AD1060E001801E1015001E1B5
:10CC1000FFD0050E001801E1015001E1D4D0040E4F
:10CC2000001801E1015001E1A9D0030E001801E153
:10CC3000015001E17ED0020E001801E1015054E0E4
:10CC4000010E001801E101502AE0005001E10150FD
:10CC500001E072D1D9500A0F026EDACF03F0020E52
:10CC6000266E276ADECF2BF0DDCF2CF0EDEC7BF0CB
:10CC700002502424006E03502520016E020EDB506A
:10CC80000024E96E030EDB500120EA6EEF50E66EE1
:10CC9000200EE66E26EC76F0E552E5524DD1D950E5
:10CCA0000A0F026EDACF03F0020E266E276ADECF7D
:10CCB0002BF0DDCF2CF0EDEC7BF002502424006E45
:10CCC00003502520016E020EDB500024E96E030E96
:10CCD000DB500120EA6EEF50E66E240EE66E26EC85
:10CCE00076F0E552E55228D1D9500A0F026EDACF1C
:10CCF00003F0020E266E276ADECF2BF0DDCF2CF07C
:10CD0000EDEC7BF002502424006E03502520016ED0
:10CD1000020EDB500024E96E030EDB500120EA6EA8
:10CD2000EF50E66E280EE66E26EC76F0E552E55200
:10CD300003D1D9500A0F026EDACF03F0020E266E2D
:10CD4000276ADECF2BF0DDCF2CF0EDEC7BF002502C
:10CD50002424006E03502520016E020EDB500024B7
:10CD6000E96E030EDB500120EA6EEF50E66E2C0EEA
:10CD7000E66E26EC76F0E552E552DED0D9500A0F89
:10CD8000026EDACF03F0020E266E276ADECF2BF09A
:10CD9000DDCF2CF0EDEC7BF002502424006E03502C
:10CDA0002520016E020EDB500024E96E030EDB50DD
:10CDB0000120EA6EEF50E66E300EE66E26EC76F05D
:10CDC000E552E552B9D0D9500A0F026EDACF03F01E
:10CDD000020E266E276ADECF2BF0DDCF2CF0EDECB5
:10CDE0007BF002502424006E03502520016E020EB9
:10CDF000DB500024E96E030EDB500120EA6EEF5099
:10CE0000E66E340EE66E26EC76F0E552E55294D0EE
:10CE1000D9500A0F026EDACF03F0020E266E276A8F
:10CE2000DECF2BF0DDCF2CF0EDEC7BF00250242494
:10CE3000006E03502520016E020EDB500024E96EC7
:10CE4000030EDB500120EA6EEF50E66E380EE66E00
:10CE500026EC76F0E552E5526FD0D9500A0F026EFB
:10CE6000DACF03F0020E266E276ADECF2BF0DDCF7D
:10CE70002CF0EDEC7BF002502424006E03502520B2
:10CE8000016E020EDB500024E96E030EDB50012020
:10CE9000EA6EEF50E66E3C0EE66E26EC76F0E5525A
:10CEA000E5524AD0D9500A0F026EDACF03F0020ED3
:10CEB000266E276ADECF2BF0DDCF2CF0EDEC7BF079
:10CEC00002502424006E03502520016E020EDB5018
:10CED0000024E96E030EDB500120EA6EEF50E66E8F
:10CEE000400EE66E26EC76F0E552E55225D0D9509C
:10CEF0000A0F026EDACF03F0020E266E276ADECF2B
:10CF00002BF0DDCF2CF0EDEC7BF002502424006EF2
:10CF100003502520016E020EDB500024E96E030E43
:10CF2000DB500120EA6EEF50E66E440EE66E26EC12
:10CF300076F0E552E55200D0020EDB2A030E01E343
:10CF4000DB2A27D6280EE66EB30EE66E6F0EE66E6F
:10CF5000DAEC73F0E552E552E552280EE66EB40EB7
:10CF6000E66E6F0EE66EDAEC73F0E552E552E552CE
:10CF7000540EE66EB30EE66E6F0EE66EDAEC73F0EC
:10CF8000E552E552E552540EE66EB40EE66E6F0EB3
:10CF9000E66EDAEC73F0E552E552E552DF2A010E57
:10CFA00001E3DB2AA1D5100EE15C02E2E16AE55261
:10CFB000E16EE552E7CFD9FF1200D9CFE6FFE1CF0E
:10CFC000D9FF0A0EE126040EDB6A050EDB6A060EA7
:10CFD000DB6A070EDB6A020EF36E080EF3CFDBFF8F
:10CFE000090EDB6A0001010E746FE66A04EC73F04F
:10CFF000E552130EC26E080EDBCFDEFFDBCFDDFF86
:10D000000DEC60F0E66A020EE66E710EE66E0A0E38
:10D01000E66E06EC74F0E552E552E552E552E66A3A
:10D02000030EE66E600EE66E0A0EE66E06EC74F017
:10D03000E552E552E552E552E66A040EE66E570EF9
:10D04000E66E0A0EE66E06EC74F0E552E552E55225
:10D05000E552E66A050EE66E4E0EE66E0A0EE66EC6
:10D0600006EC74F0E552E552E552E552E66A060E2A
:10D07000E66E480EE66E0A0EE66E06EC74F0E552B9
:10D08000E552E552E552E3EC50F0080EF3CFDBFF3A
:10D09000090EF4CFDBFFE7DCABDC640EE66EE66A7C
:10D0A000E66A000EE66EE66A080EDBCFE6FFE6688B
:10D0B000BCEC75F0006E070EE15E0050AEEC50F077
:10D0C00000090AE0080EDBCFE6FF090EDBCFE6FF22
:10D0D000D3EC5FF0E552E552080EDB50DF1804E1B7
:10D0E000090EDB50DE52DD1804E0E66A04EC73F052
:10D0F000E5527BEC7FF0010EE66E13EC7FF0E5521B
:10D10000020EF3CFDBFF030EF4CFDBFF020EDBCF0B
:10D1100000F0030EDBCF01F0D890015004E6840E3E
:10D12000005C030E015822E2020EDBCF00F0030E7A
:10D13000DBCF01F0D890015004E6840E005C030EB2
:10D1400001580CE2010EE66E13EC7FF0E552020E80
:10D15000F3CFDBFF030EF4CFDBFFE6D7E66A04EC88
:10D1600073F0E5520A0EE15C04E201D042D7E16AB5
:10D17000E552E16EE552E7CFD9FF12000001705190
:10D180001DE071510EE0E66A070EE66EB20EE66E25
:10D190000A0EE66E06EC74F0E552E552E552E552F1
:10D1A0000DD0E66A070EE66EAF0EE66E0A0EE66E6C
:10D1B00006EC74F0E552E552E552E5521200F29A9F
:10D1C00052DC16DCDBDFF28A1200D9CFE6FFE1CFBA
:10D1D000D9FF040EE1262D0EF36E020EF3CFDBFF16
:10D1E000030EDB6A680EDE6E010EDD6EDECF00F030
:10D1F000DDCF01F00001800E011401E0E9D175C01E
:10D2000026F076C027F05DEC7AF025C002F026C04B
:10D2100003F027C004F028C005F079C026F07AC0DA
:10D2200027F05DEC7AF025C00AF026C00BF027C08D
:10D230000CF028C00DF002C0E6FF03C0E6FF04C0FA
:10D24000E6FF05C0E6FF0AC0E6FF0BC0E6FF0CC024
:10D25000E6FF0DC0E6FF000EDFCF26F0010EDBCFAC
:10D2600027F05DEC7AF025C01AF026C01BF027C02D
:10D270001CF028C01DF0C30E2A6EF50E2B6E480E52
:10D280002C6E400E2D6E1AC025F01BC026F01CC05F
:10D2900027F01DC028F0C3EC7AF025C016F026C098
:10D2A00017F027C018F028C019F02A6A2B6A340E2C
:10D2B0002C6E430E2D6E16C025F017C026F018C038
:10D2C00027F019C028F070EC7AF025C012F026C0C3
:10D2D00013F027C014F028C015F012C0E6FF13C0E9
:10D2E000E6FF14C0E6FF15C0E6FF38EC07F0E55294
:10D2F000E552E552E552E552E7CF0DF0E552E7CFB2
:10D300000CF0E552E7CF0BF0E552E7CF0AF0E5521B
:10D31000E7CF05F0E552E7CF04F0E552E7CF03F0A1
:10D32000E552E7CF02F024C00EF025C00FF026C072
:10D3300010F027C011F00EC02AF00FC02BF010C063
:10D340002CF011C02DF00AC025F00BC026F00CC047
:10D3500027F00DC028F0C3EC7AF025C006F026C0F7
:10D3600007F027C008F028C009F006C02AF007C05F
:10D370002BF008C02CF009C02DF002C025F003C02E
:10D3800026F004C027F005C028F030EC7BF01AEC42
:10D390007CF026C000F027C001F0020EDBCFE9FFD1
:10D3A000030EDBCFEAFFD890E936EA36000EE92615
:10D3B000010EEA2200C0EEFF01C0EDFF77C026F0AB
:10D3C00078C027F05DEC7AF025C002F026C003F0AB
:10D3D00027C004F028C005F079C026F07AC027F0F5
:10D3E0005DEC7AF025C00AF026C00BF027C00CF0E7
:10D3F00028C00DF002C0E6FF03C0E6FF04C0E6FF50
:10D4000005C0E6FF0AC0E6FF0BC0E6FF0CC0E6FF62
:10D410000DC0E6FF000EDFCF26F0010EDBCF27F0B8
:10D420005DEC7AF025C01AF026C01BF027C01CF076
:10D4300028C01DF0C30E2A6EF50E2B6E480E2C6E02
:10D44000400E2D6E1AC025F01BC026F01CC027F020
:10D450001DC028F0C3EC7AF025C016F026C017F0E6
:10D4600027C018F028C019F02A6A2B6A340E2C6ED7
:10D47000430E2D6E16C025F017C026F018C027F0F9
:10D4800019C028F070EC7AF025C012F026C013F015
:10D4900027C014F028C015F012C0E6FF13C0E6FF45
:10D4A00014C0E6FF15C0E6FF10EC07F0E552E552A8
:10D4B000E552E552E552E7CF0DF0E552E7CF0CF02B
:10D4C000E552E7CF0BF0E552E7CF0AF0E552E7CFA0
:10D4D00005F0E552E7CF04F0E552E7CF03F0E5525F
:10D4E000E7CF02F024C00EF025C00FF026C010F0E8
:10D4F00027C011F00EC02AF00FC02BF010C02CF086
:10D5000011C02DF00AC025F00BC026F00CC027F08A
:10D510000DC028F0C3EC7AF025C006F026C007F055
:10D5200027C008F028C009F006C02AF007C02BF079
:10D5300008C02CF009C02DF002C025F003C026F071
:10D5400004C027F005C028F030EC7BF01AEC7CF02A
:10D5500026C000F027C001F0020EDBCFE9FFDB069A
:10D56000030EDBCFEAFF01E2DB06D890E936EA36AC
:10D57000780EE926010EEA2200C0EEFF01C0EDFFA1
:10D58000D950020FE96EDACFEAFFFF0EEE1802E182
:10D59000FF0EED1804E13B0E006E016A06D0020E8C
:10D5A000DBCF00F0030EDBCF01F0020E00C0DBFF8B
:10D5B000030E01C0DBFFDECF00F0DDCF01F0060E71
:10D5C000005E000E015A00C0DEFF01C0DDFF0ED676
:10D5D000040EE15C02E2E16AE552E16EE552E7CF5A
:10D5E000D9FF1200D9CFE6FFE1CFD9FF020EE12625
:10D5F000DF6E010EDB6AA4EC50F0050ED56ED08E06
:10D60000F184E00EF26ED58EDF5004E0DF50C214DC
:10D61000DF6EFAD70001725101E19AD0DEEC64F0BE
:10D6200000016E5104E042EC65F0C9DD90D0010EBE
:10D63000DB5001E08CD0C9DD82EC60F0020EE66EBA
:10D64000E66A64C0E6FF65C0E6FF32EC61F0E552D1
:10D65000E552E552E552010EE66EE66A62C0E6FF6B
:10D6600063C0E6FF32EC61F0E552E552E552E55267
:10D670000001613504E260510C08000E615536E28C
:10D68000000EE66EE66A60C002F061C003F00C0EA8
:10D69000025E000E035A050E0302F3CF03F00202EE
:10D6A000F3CF02F0F450032662C004F063C005F02B
:10D6B0000C0E2B6E2C6A04C026F005C027F0C7ECB8
:10D6C0007BF026C004F027C005F002500424006E51
:10D6D00003500520016E00C0E6FF01C0E6FF32ECFA
:10D6E00061F0E552E552E552E5522DD0000EE66EAE
:10D6F000E66A62C002F063C003F00C0E2B6E2C6A67
:10D7000002C026F003C027F0C7EC7BF026C002F071
:10D7100027C003F0050E266E276A60C02BF061C09B
:10D720002CF0EDEC7BF024500224006E25500320F9
:10D73000016E00C0E6FF01C0E6FF32EC61F0E55289
:10D74000E552E552E5523BDDDE52010EDD6E01D0C1
:10D7500034DC0001746BAEEC50F0000903E02DDC0A
:10D76000010EDB6A0001735121E0820EE66EE66A6B
:10D77000E66A000EE66EE66AE66AE66ABCEC75F0FA
:10D78000006E070EE15E0050820EE66EE66AE66A03
:10D79000000EE66EE66A070EE66EE66ABCEC75F011
:10D7A000006E070EE15E00500001736B2DD7020E74
:10D7B000E15C02E2E16AE552E16EE552E7CFD9FFB2
:02D7C000120055
:0ED7C2001DEC71F0FB0EDBCFF3FFDB06F35026
:10D7D00000090AE06BEC71F0FA0ED6EC71F0F3E19F
:10D7E000011CF1E1010E01D0000E4CEF71F01DECB7
:10D7F00071F03B0EE12402E3E168E652E16E010EB6
:10D80000DB6A020EDB6AF90EDBCFF6FFFA0EDBCF26
:10D81000F7FFFB0EDBCFF8FF0800F550DF6EDF509F
:10D8200002E170EF70F0250EDF5C02E063EF70F054
:10D83000030EDB6A040EDB6A050EDB6A060EDB6A8A
:10D84000070EDB6A85EC70F02D0EDF5C0CE02B0E12
:10D85000DF5C09E0200EDF5C06E0230EDF5C03E006
:10D86000300EDF5C1AE1DF50300A14E0130A0FE0DB
:10D87000030A0AE00B0A05E0060AE4E1030EDB8076
:10D88000E1D7030EDB82DED7030EDB84DBD7030E8A
:10D89000DB86D8D7030EDB88D5D72A0EDF5C1BE1E9
:10D8A00081EC70F0CFEC70F010E0030EDB802668A6
:10D8B0002768130EDBCF2BF0140EDBCF2CF0EDEC32
:10D8C0007BF0040E24C0DBFF03D0130EB8EC70F025
:10D8D00085EC70F00BD0090EDB6A26EC71F003E0EA
:10D8E0009AEC71F0FAD7090EB8EC70F0030EDBB0C9
:10D8F000DB982E0EDF5C1BE185EC70F02A0EDF5CFE
:10D900000BE181EC70F0CFEC70F003E1130E0AEC48
:10D9100071F085EC70F00BD0090EDB6A26EC71F02B
:10D9200003E09AEC71F0FAD7090E0AEC71F0680E78
:10D93000DF5C07E185EC70F0680EDF5C1DE1030E33
:10D9400018D0740EDF5C17E07A0EDF5C14E0480E2E
:10D95000DF5C06E0540EDF5C03E05A0EDF5C02E1A0
:10D96000020E07D06C0EDF5C03E06A0EDF5C04E1A0
:10D97000010E5DEC71F0C9DBDF506E0A01E17FD36F
:10D980001E0A01E192D1200A01E18FD13F0A01E193
:10D9900049D11A0A01E146D10D0A01E143D1200A19
:10D9A00001E140D13A0A01E13DD1200A01E13AD139
:10D9B000260A01E135D10D0A01E132D11A0A01E14D
:10D9C000D9D0200A4AE0300A1FE0460A0EE0250AB4
:10D9D00001E083D3D950F90FE96EFF0EDA20EA6E29
:10D9E000010EEE5E000EEE5AEE5A6BEC71F0250E53
:10D9F000E66E95DB03E1011C01E169D367EC71F090
:10DA000001E26BD3DB2A69D3080EDB6A040EDB501C
:10DA1000010806E2040EDB042FEC71F0DB508BDB17
:10DA2000080EDB5009E0030EDB50010B05E172DB51
:10DA300001E04DD3080EDB6A64DBEFCFDFFFDFECE4
:10DA400071F003E1011C01E142D367EC71F001E3E5
:10DA5000DB2A60DB01E141D33AD3070EDB50020839
:10DA60000FE1ABEC71F0030E72EC71F00E0EEECF25
:10DA7000DBFF0F0EEECFDBFF100EEECFDBFF20D073
:10DA8000F70EDBCF03F0F80EDBCF04F0020E035EDF
:10DA9000000E045AF70E03C0DBFFF80E04C0DBFFD4
:10DAA00003C0E9FF04C0EAFF62EC71F0026A0E0EE7
:10DAB00000C0DBFF0F0E01C0DBFF100E02C0DBFF5A
:10DAC0000E0EDBCFE6FF0F0EDBCFE6FF100EDBCF37
:10DAD000E6FFB8EC06F0E552E552E552130E25C01C
:10DAE000DBFF140E26C0DBFF060EDB5005E0130E35
:10DAF000A6EC71F001E26ADBCAEC71F002E2130EEF
:10DB000037DB8DEC71F006E0040EA6EC71F002E25A
:10DB1000050E2EDB030EDBB005D0FCDA01E0D7D218
:10DB2000080EDB6A090EDB6A0E0EDBCFF6FF0F0E66
:10DB3000DBCFF7FF100EDBCFF8FF0800F550DF6EEC
:10DB4000DF5014E0D0EC71F011E2DFEC71F003E192
:10DB5000011C01E1BCD2BBDB01E3DB2A090EDB2A9D
:10DB6000D9500E0FE96E000ECBDBE7D7D3DA01E117
:10DB7000B4D2ADD2C6DA110EEECFDBFF120EEDCF6E
:10DB8000DBFF110EDBCFE6FF120EDBCFE6FFAAECC8
:10DB900006F0E552E552130EF3CFDBFF140EF4CF7F
:10DBA000DBFF060EDB5004E0130ED0DB01E20EDBE0
:10DBB000CAEC71F002E2130EDBDAAFDB05E0040E13
:10DBC000C5DB02E2050ED4DA030EDBB005D0A2DA23
:10DBD00001E07DD2080EDB6A090EDB6A110EDBCF95
:10DBE000E9FF120EDBCFEAFFEFCFDFFFDF5014E0DB
:10DBF000D7DB12E2E4DB03E1011C01E168D267DB61
:10DC000001E3DB2A090EDB2A110EDB2ADBCFE9FF59
:10DC1000120EE8E3DB2AE6D77DDA01E15ED257D2C5
:10DC2000030EDB8E070EDB0410E195DB040E5ADBDE
:10DC30000A0EEECFDBFF0B0EEECFDBFF0C0EEECFAE
:10DC4000DBFF0D0EEECFDBFF6CD0070EDB500308C1
:10DC50002CE1030EDBAE0DD0B2DA020E76DAEFCF96
:10DC600000F0016A026A036A00AE39D001680268F6
:10DC700035D0F70EDBCF01F0F80EDBCF02F0020E4D
:10DC8000015E000E025AF70E01C0DBFFF80E02C063
:10DC9000DBFF01C0E9FF02C0EAFFEFCF00F00A0E90
:10DCA00000C0DBFF0B0EDB6A38D0070EDB5002082A
:10DCB00009E1030EDBAE04D059DB02AE10D00ED06A
:10DCC00055DB0DD0030EDBAE12D079DA020E3DDA51
:10DCD000F9DA026A036A01AE02D002680368E2DA86
:10DCE0000C0E02C0DBFF0D0E03C0DBFF1AD0F70ED7
:10DCF000DBCF02F0F80EDBCF03F0020E025E000E67
:10DD0000035AF70E02C0DBFFF80E03C0DBFF02C0B0
:10DD1000E9FF03C0EAFFD6DAC5DA0C0EDB6A0D0EA6
:10DD2000DB6A060EDB5005E1010EF36E050EF3CF44
:10DD3000DBFF150EDB6A160EDB6AD950370F006E5B
:10DD4000000EDA20016E390E00C0DBFF3A0E01C072
:10DD5000DBFF380EDB6A080EDB6A0A0EAEDADF5034
:10DD6000780A12E0200A10E0280A0CE0200A0AE0F3
:10DD70003F0A06E00D0A02E0200A08E1020E05D083
:10DD8000080E03D0080EDF26100E97DA030EDBBE56
:10DD900002D0DB92DB94DB50800B24E08ADAD8904F
:10DDA000030EEB50000A08E6000EEE5C000EEE5883
:10DDB000000EEE58000EEE5815E213DA29682A68B4
:10DDC0002B682C6872EC06F00A0E20C0DBFF0B0EED
:10DDD00021C0DBFF0C0E22C0DBFF0D0E23C0DBFFDA
:10DDE0002D0E08D0030EDBA202D02B0E03D0DBA435
:10DDF00008D0200EF36E170EF3CFDBFF150EDB2AD3
:10DE000002D0170EDB6A050EDB5003E1B7D901E142
:10DE100089D0E40E006EFF0E016E000E026E070E3A
:10DE2000DBCF03F0046A056A066A03C029F004C068
:10DE30002AF005C02BF006C02CF0D3D95FEC07F018
:10DE400000502024F36E01502120F46E0250222055
:10DE5000F86EF4CFF7FFF3CFF6FF0800090EF5CF09
:10DE6000DBFF580EDF5C0FE1610EF36E090E7BD90C
:10DE70000AE3200E006E090EDBCFE7FF0050E75EDD
:10DE8000090EE7CFDBFF070EDBCF00F0016A026A65
:10DE9000036A0FDA00C029F001C02AF002C02BF09B
:10DEA00003C02CF0EECF24F0EECF25F0EECF26F01D
:10DEB000EFCF27F05FEC07F027C0EDFF26C0EDFFA6
:10DEC00025C0EDFF24C0EFFF390EDBCFE9FFDB06F5
:10DED0003A0EDBCFEAFF01E2DB06090EDBCFEFFFF4
:10DEE000150EDB2A4BD995E1030EDBA61DD06F0E74
:10DEF000DF5C06E1C1D918E3150EDB285BDA14D02C
:10DF0000780EDF5C09E0580EDF5C06E0620EDF5C35
:10DF100003E0420EDF5C08E1020EF36E160EF3CF53
:10DF2000DBFF02D0150EDB6A030EDB50100B0EE098
:10DF3000040EDBCF00F0050EDB50D880005406E263
:10DF4000060EDB5003E1040EDB5034DA95D90AE209
:10DF5000050EDBCFE7FF150EDB50E75E050EE7CFC2
:10DF6000DBFF02D0050EDB6A040EDBCF00F0160EDD
:10DF700045D9D880005414E2160EDBCFE6FF150E0B
:10DF8000DBCFE6FF040EDBCFE6FF050EDB50E552EC
:10DF9000E75CE552D880E754E552D880E7545FD972
:10DFA000030EDB50010B0BE1080EDB5008E0B2D88A
:10DFB00001E08DD0080EDB50BED8080EDB6A170ECC
:10DFC000DB5007E088D9170EF1D903E1011C01E10C
:10DFD0007ED0160EDB5016E07ED9300EE66E9FD84E
:10DFE00002E1011C74E077D9DFCFE6FF30EC06F0E8
:10DFF000E552E552E552F4CF01F00001F31C02E1D5
:10E00000011C65E0050EDBCF00F0160EDB50D8805A
:10E01000005409E2050EDBCFE7FF160EDB50E75E8A
:10E02000050EE7CFDBFF300EE66E050ECBD94FE1D4
:10E03000390EDB2ADBCFE9FF3A0E01E3DB2ADBCF27
:10E04000EAFF090EEFCFDBFFDB500EE044D9090EEB
:10E05000ADD902E1011C3BE0390EDB2ADBCFE9FF41
:10E060003A0EEDE3DB2AEBD755D831E1160EDBCFC4
:10E07000E6FF080EC3D8E552E7245DD82ED0070E80
:10E08000DB50030A1CE0010A14E0030A07E07BD915
:10E09000DBCFEEFF020EDBCFEDFF1FD0F5D8056A18
:10E0A00003AE02D0046805682CD8BCD805C0EEFFCA
:10E0B00014D0EAD803BE046824D8B4D80ED063D9EB
:10E0C000DBCFEFFF0AD07BD905E1011C03E1F36848
:10E0D000F46810D0FCD801E3DB2A79D90CEF6CF09E
:10E0E000010EDBCF00F0020EDBCF01F000C0F3FF2A
:10E0F00001C0F4FF3B0EE15C02E2E16AE552E16E31
:10E10000CBD029D9020E72EF71F061D90800F55019
:10E11000DF6E1200200EE66E080EE2EF71F030ECBA
:10E1200006F0E552E552E552F3CF00F0F4CF01F0EE
:10E130000001F31C1200006E016AD950010F4DD985
:10E140000050EE260150ED221200045E000E055A2A
:10E15000F70E04C0DBFFF80E05C0DBFF04C0E9FFCB
:10E1600005C0EAFF1200DBCFF4FFF350F45C1200AD
:10E17000DB50E76E040EE7CFDBFF12000A0EDBCFA9
:10E1800000F00B0EDBCF01F00C0EDBCF02F00D0E1A
:10E19000DBCF03F000500110021003101200130E29
:10E1A000EECFDBFF140EEDCFDBFF130EDBCF00F065
:10E1B000140EDBCF01F00001800E01141200F70EE7
:10E1C000DBCF04F0F80EDBCF05F01200050EDB50BC
:10E1D000E66ED950130F01D9E552E750EE6EED6AA5
:10E1E00012000A0EDBCF24F00B0EDBCF25F00C0E55
:10E1F000DBCF26F00D0EDBCF27F01200DBCFE6FFE2
:10E20000150EDBCFE6FF050EDB50E552E724E552A5
:10E21000E7241200DB50CED8010EF36E060EF3CFCA
:10E22000DBFF1200EE50EFCFEAFFE96E02C0EEFF17
:10E2300003C0EEFF04C0EEFF1200D9CFE6FFDACF35
:10E24000E6FFE1CFD9FFE2CFDAFF1200DFCFE6FF32
:10E25000E66A83EC07F0E552E552F3501200E76EF0
:10E26000080EE7CFDBFF1200EECF00F0EECF01F09B
:10E27000EFCF02F0036A1200050EDBCF00F0150E9F
:10E28000DB50D88000541200010EDBCF02F0020EEA
:10E29000DBCF03F0046A1200E552E5CFDAFFE7CFE7
:10E2A000D9FF12000A0E00C0DBFF0B0E01C0DBFF1E
:10E2B0001200D9500A0FEDEF71F0F36E070EF3CF95
:10E2C000DBFF1200EECF00F0EFCF01F01200010EE5
:10E2D000DB2A020E1200FC0EDBCFE6FFFD0EDBCFC9
:10E2E000E6FF1200005E000E015AF70E00C0DBFFD1
:10E2F000F80E01C0DBFF00C0E9FF01C0EAFF120019
:10E30000DA20EA6EEF2AEECFF6FF000EEF22EECF14
:10E31000F7FFEF22EECFF8FF1200040EDBCFE6FF8F
:10E32000130EDB50E552E75C9ADFDB5004DF060E8C
:10E33000DB501200090EDB500A0DF350DF24D00F22
:10E34000E76E090EE7CFDBFF85EF70F0DB50F36E71
:10E35000050EB3EF70F0F70EDBCF00F0F80EDBCF59
:10E3600001F01200DFCFE6FF8FEF70F028DF030E21
:10E37000ECDE34EF71F0E1EC6BF0E552E552E55282
:10E38000E55200091200BDDEEE50EFCFEAFFE96E64
:10E39000010E1200130EDB50F36E040EB3EF70F09B
:10E3A000040EDB50F36E090EB3EF70F0DBCFE6FF27
:10E3B0008FEF70F0E76E050EE7CFDBFF12008BDF0B
:10E3C000B2EF71F0DBCFE6FF86DFBBEF71F0D95023
:10E3D000F90FE96EFF0E80EF71F0E96E000EDA20A2
:04E3E000EA6E1200CF
:0CE3E400D9CFE6FFE1CFD9FF020EE12601
:10E3F000FD0EDBCF00F0DB06FE0EDBCF01F001E20D
:10E40000DB060050011011E0DE6ADD6ADECF00F0AD
:10E41000DDCF01F0E30E005C0D0E015805E2DF2AAE
:10E42000010E01E3DB2AF2D7E3D7020EE15C02E240
:10E43000E16AE552E16EE552E7CFD9FF1200D9CF8C
:10E44000E6FFE1CFD9FF060EE1268D9296928D90E0
:10E4500096908D8496948A9A939A8C92DE6ADE6A5C
:10E46000DE6ADD6ADD52DD52D9CFE9FFDACFEAFF9D
:10E47000640EEE5C000EEE58000EEE58000EEE58E4
:10E480000AE2D9CFE9FFDACFEAFFEE2A000EEE2248
:10E49000EE22EE22E9D78C82DE6ADE6ADE6ADD6A6F
:10E4A000DD52DD52D9CFE9FFDACFEAFF640EEE5C30
:10E4B000000EEE58000EEE58000EEE580AE2D9CFCC
:10E4C000E9FFDACFEAFFEE2A000EEE22EE22EE227C
:10E4D000E9D7AE0EE66E70D8E552DB0EE66E6CD86C
:10E4E000E552230EE66E68D8E552D90EE66E64D882
:10E4F000E552220EE66E60D8E552A10EE66E5CD8BB
:10E50000E552C80EE66E58D8E552DA0EE66E54D8DB
:10E51000E552120EE66E50D8E552A80EE66E4CD8C3
:10E52000E5523F0EE66E48D8E552D50EE66E44D869
:10E53000E552A00EE66E40D8E552810EE66E3CD85C
:10E54000E552600EE66E38D8E552D30EE66E34D84A
:10E55000E552E66A31D8E552A60EE66E2DD8E552B0
:10E56000AD0EE66E29D8E5528B0EE66E25D8E55243
:10E57000AF0EE66E21D8E5520A0EE66EE66A32DF8D
:10E58000E552E552A40EE66E17D8E552400EE66E4F
:10E5900013D8E552020EE66E0FD8E552100EE66E65
:10E5A0000BD8E552060EE15C02E2E16AE552E16E4B
:10E5B000E552E7CFD9FF1200D9CFE6FFE1CFD9FF6F
:10E5C000956AFE0EDB508C6E8D808D828A9A8D94BA
:10E5D0008D928D828D849568E552E7CFD9FF120028
:10E5E000D9CFE6FFE1CFD9FF956AFE0EDB508C6EE6
:10E5F0008D808D828A8A8D948D928D828D8495688E
:10E60000E552E7CFD9FF1200D9CFE6FFE1CFD9FF1E
:10E61000020EE126B00EDF6EB80EDF5C23E2DFCF24
:10E62000E6FFCADFE552020EE66EC6DFE552100EC7
:10E63000E66EC2DFE552010EDB6ADB50006E016A56
:10E64000D890015004E6840E005C000E015808E2E8
:10E65000FE0EDBCFE6FFC4DFE552010EDB2AEDD76D
:10E66000DF2ADAD7020EE15C03E200D0E16AE5526C
:10E67000E16EE552E7CFD9FF1200D9CFE6FFE1CF37
:10E68000D9FF200E006EFE0EDBCFE7FF0050E75EE5
:10E69000FE0EE7CFDBFFDBCFF6FFF76AF6BEF768CB
:10E6A000050EF702F3CFF7FFF602F3CFF6FFF450B3
:10E6B000F726FE0EF626FA0EF7220800F550E66E53
:10E6C0008FDFE552FE0EDBCFF6FFF76AF6BEF76886
:10E6D000050EF702F3CFF7FFF602F3CFF6FFF45083
:10E6E000F726FE0EF626FA0EF722010EF626000E8B
:10E6F000F7220800F550E66E73DFE552FE0EDBCF21
:10E70000F6FFF76AF6BEF768050EF702F3CFF7FFDC
:10E71000F602F3CFF6FFF450F726FE0EF626FA0EB9
:10E72000F722020EF626000EF7220800F550E66EDC
:10E7300057DFE552FE0EDBCFF6FFF76AF6BEF7684D
:10E74000050EF702F3CFF7FFF602F3CFF6FFF45012
:10E75000F726FE0EF626FA0EF722030EF626000E18
:10E76000F7220800F550E66E3BDFE552FE0EDBCFE8
:10E77000F6FFF76AF6BEF768050EF702F3CFF7FF6C
:10E78000F602F3CFF6FFF450F726FE0EF626FA0E49
:10E79000F722040EF626000EF7220800F550E66E6A
:10E7A0001FDFE552E66A1CDFE55200D0E552E7CFF5
:10E7B000D9FF1200D9CFE6FFE1CFD9FFE652FD0E17
:10E7C000DBCFE6FFF9DEE552020E006EFC0EDBCF7A
:10E7D000E7FF0050E726FC0EE7CFDBFFDB500F0B17
:10E7E000E66EEADEE552FC0EDB380F0B0F0B100F66
:10E7F000E66EE2DEE552FE0EDBCFE6FF3EDFE552DF
:10E8000000D0E552E552E7CFD9FF1200D9CFE6FF9D
:10E81000E1CFD9FFFC0EDB50B00FE76EFC0EE7CF67
:10E82000DBFFFB0EDBCFE6FFFC0EDBCFE6FFFD0ED2
:10E83000DBCFF6FFFE0EDBCFF7FF0800F550E66EEC
:10E84000B9DFE552E552E552FD0EDB2ADBCFF6FFDC
:10E85000FE0E01E3DB2ADBCFF7FF0800F5500CE0EA
:10E86000FD0EDBCFF6FFFE0EDBCFF7FF0800F55005
:10E87000E66E03DFE552E8D7E552E7CFD9FF120095
:10E88000D9CFE6FFE1CFD9FFFC0EDB50B00FE76E2A
:10E89000FC0EE7CFDBFFFB0EDBCFE6FFFC0EDBCF92
:10E8A000E6FFFD0EDBCFE9FFFE0EDBCFEAFFEF5008
:10E8B000E66E80DFE552E552E552FD0EDB2ADBCF46
:10E8C000E9FFFE0E01E3DB2ADBCFEAFFEF500BE0AE
:10E8D000FD0EDBCFE9FFFE0EDBCFEAFFEF50E66E69
:10E8E000CCDEE552EAD7E552E7CFD9FF1200D9CF07
:10E8F000E6FFE1CFD9FF050EE126030EDB6A040E29
:10E90000DB6A020E006EFA0EDBCFE7FF0050E7264F
:10E91000FA0EE7CFDBFFF90EDB50B00FDF6EFB0E18
:10E92000DB50B00FDF5C35E2DFCFE6FF45DEE552BE
:10E93000FA0EDB500F0BE66E3FDEE552FA0EDB38C7
:10E940000F0B0F0B1009E66E37DEE552010EDB6A86
:10E95000FC0EDB50F36E010EDBCFF4FFF350F45CE2
:10E9600016E2030EDB2A040E01E3DB2AFD0EDBCFE9
:10E97000F6FFDB2AFE0EDBCFF7FF01E3DB2A080000
:10E98000F550E66E2DDEE552010EDB2AE1D7DF2AD7
:10E99000C6D7050EE15C03E200D0E16AE552E16E04
:10E9A000E552E7CFD9FF1200D9CFE6FFE1CFD9FF7B
:10E9B000020EE126DE6ADD6ADECF00F0DDCF01F077
:10E9C000FC0EDBCF02F0FD0EDBCF03F0015003188D
:10E9D000E8AE02D0033404D00250005C035001586A
:10E9E0001BE2FA0EDB50026E036ADE500224006E58
:10E9F000DD500320016E0050E66EFB0EDBCFE6FF1C
:10EA0000FE0EDBCFE6FFD6DEE552E552E552DF2A09
:10EA1000010E01E3DB2AD0D7020EE15C02E2E16ADB
:10EA2000E552E16EE552E7CFD9FF1200D9CFE6FFFC
:10EA3000E1CFD9FF020EE126FE0EDB50B00FE76EEC
:10EA4000FE0EE7CFDBFFDE6ADD6ADECF00F0DDCF52
:10EA500001F0D890015004E6180E005C000E015839
:10EA60001AE2FD0EDB50026E036ADE500224006ED5
:10EA7000DD500320016E0050E66EFE0EDBCFE6FF98
:10EA80002D0EE66E97DEE552E552E552DF2A010EC5
:10EA900001E3DB2ADAD7DE6ADD6ADECF00F0DDCF04
:10EAA00001F0D890015004E6180E005C000E0158E9
:10EAB0001BE2FD0EDB50026E036ADE500224006E84
:10EAC000DD500320016E0050E66EFE0EDB50040F99
:10EAD000E66E2D0EE66E6EDEE552E552E552DF2A59
